{"project/contracts/CommentGame.sol":{"CommentGame":{"abi":[{"inputs":[{"components":[{"internalType":"uint256","name":"id","type":"uint256"},{"internalType":"address","name":"initiator","type":"address"},{"internalType":"address","name":"gameToken","type":"address"},{"internalType":"uint256","name":"cost","type":"uint256"},{"internalType":"uint256","name":"gameTime","type":"uint256"},{"internalType":"string","name":"tokenSymbol","type":"string"}],"internalType":"struct CommentGame.Params","name":"_params","type":"tuple"},{"internalType":"address","name":"_feeCollector","type":"address"},{"internalType":"uint256","name":"_initialPrize","type":"uint256"}],"stateMutability":"nonpayable","type":"constructor"},{"inputs":[],"name":"ReentrancyGuardReentrantCall","type":"error"},{"anonymous":false,"inputs":[{"indexed":true,"internalType":"address","name":"commentor","type":"address"},{"indexed":false,"internalType":"string","name":"message","type":"string"},{"indexed":false,"internalType":"uint256","name":"newEndTime","type":"uint256"},{"indexed":false,"internalType":"uint256","name":"prizePool","type":"uint256"},{"indexed":false,"internalType":"uint256","name":"timestamp","type":"uint256"}],"name":"CommentAdded","type":"event"},{"inputs":[],"name":"PLATFORM_FEE","outputs":[{"internalType":"uint256","name":"","type":"uint256"}],"stateMutability":"view","type":"function"},{"inputs":[{"internalType":"string","name":"_message","type":"string"}],"name":"addComment","outputs":[],"stateMutability":"nonpayable","type":"function"},{"inputs":[],"name":"claimPrize","outputs":[],"stateMutability":"nonpayable","type":"function"},{"inputs":[],"name":"cost","outputs":[{"internalType":"uint256","name":"","type":"uint256"}],"stateMutability":"view","type":"function"},{"inputs":[],"name":"endTime","outputs":[{"internalType":"uint256","name":"","type":"uint256"}],"stateMutability":"view","type":"function"},{"inputs":[],"name":"feeCollector","outputs":[{"internalType":"address","name":"","type":"address"}],"stateMutability":"view","type":"function"},{"inputs":[],"name":"gameTime","outputs":[{"internalType":"uint256","name":"","type":"uint256"}],"stateMutability":"view","type":"function"},{"inputs":[],"name":"gameToken","outputs":[{"internalType":"address","name":"","type":"address"}],"stateMutability":"view","type":"function"},{"inputs":[],"name":"id","outputs":[{"internalType":"uint256","name":"","type":"uint256"}],"stateMutability":"view","type":"function"},{"inputs":[],"name":"initiator","outputs":[{"internalType":"address","name":"","type":"address"}],"stateMutability":"view","type":"function"},{"inputs":[],"name":"isClaimed","outputs":[{"internalType":"bool","name":"","type":"bool"}],"stateMutability":"view","type":"function"},{"inputs":[],"name":"lastCommentor","outputs":[{"internalType":"address","name":"","type":"address"}],"stateMutability":"view","type":"function"},{"inputs":[],"name":"prizePool","outputs":[{"internalType":"uint256","name":"","type":"uint256"}],"stateMutability":"view","type":"function"},{"inputs":[],"name":"tokenSymbol","outputs":[{"internalType":"string","name":"","type":"string"}],"stateMutability":"view","type":"function"}],"evm":{"bytecode":{"linkReferences":{},"object":"61014060405234801561001157600080fd5b50604051611baf380380611baf83398181016040528101906100339190610452565b6001600081905550826000015160808181525050826020015173ffffffffffffffffffffffffffffffffffffffff1660a08173ffffffffffffffffffffffffffffffffffffffff1681525050826040015173ffffffffffffffffffffffffffffffffffffffff1660c08173ffffffffffffffffffffffffffffffffffffffff1681525050826060015160e08181525050826080015161010081815250508260a00151600190816100e391906106d8565b508260800151426100f491906107d9565b6002819055508260200151600360006101000a81548173ffffffffffffffffffffffffffffffffffffffff021916908373ffffffffffffffffffffffffffffffffffffffff1602179055508173ffffffffffffffffffffffffffffffffffffffff166101208173ffffffffffffffffffffffffffffffffffffffff16815250508060048190555050505061080d565b6000604051905090565b600080fd5b600080fd5b600080fd5b6000601f19601f8301169050919050565b7f4e487b7100000000000000000000000000000000000000000000000000000000600052604160045260246000fd5b6101e58261019c565b810181811067ffffffffffffffff82111715610204576102036101ad565b5b80604052505050565b6000610217610183565b905061022382826101dc565b919050565b600080fd5b6000819050919050565b6102408161022d565b811461024b57600080fd5b50565b60008151905061025d81610237565b92915050565b600073ffffffffffffffffffffffffffffffffffffffff82169050919050565b600061028e82610263565b9050919050565b61029e81610283565b81146102a957600080fd5b50565b6000815190506102bb81610295565b92915050565b600080fd5b600080fd5b600067ffffffffffffffff8211156102e6576102e56101ad565b5b6102ef8261019c565b9050602081019050919050565b60005b8381101561031a5780820151818401526020810190506102ff565b60008484015250505050565b6000610339610334846102cb565b61020d565b905082815260208101848484011115610355576103546102c6565b5b6103608482856102fc565b509392505050565b600082601f83011261037d5761037c6102c1565b5b815161038d848260208601610326565b91505092915050565b600060c082840312156103ac576103ab610197565b5b6103b660c061020d565b905060006103c68482850161024e565b60008301525060206103da848285016102ac565b60208301525060406103ee848285016102ac565b60408301525060606104028482850161024e565b60608301525060806104168482850161024e565b60808301525060a082015167ffffffffffffffff81111561043a57610439610228565b5b61044684828501610368565b60a08301525092915050565b60008060006060848603121561046b5761046a61018d565b5b600084015167ffffffffffffffff81111561048957610488610192565b5b61049586828701610396565b93505060206104a6868287016102ac565b92505060406104b78682870161024e565b9150509250925092565b600081519050919050565b7f4e487b7100000000000000000000000000000000000000000000000000000000600052602260045260246000fd5b6000600282049050600182168061051357607f821691505b602082108103610526576105256104cc565b5b50919050565b60008190508160005260206000209050919050565b60006020601f8301049050919050565b600082821b905092915050565b60006008830261058e7fffffffffffffffffffffffffffffffffffffffffffffffffffffffffffffffff82610551565b6105988683610551565b95508019841693508086168417925050509392505050565b6000819050919050565b60006105d56105d06105cb8461022d565b6105b0565b61022d565b9050919050565b6000819050919050565b6105ef836105ba565b6106036105fb826105dc565b84845461055e565b825550505050565b600090565b61061861060b565b6106238184846105e6565b505050565b5b818110156106475761063c600082610610565b600181019050610629565b5050565b601f82111561068c5761065d8161052c565b61066684610541565b81016020851015610675578190505b61068961068185610541565b830182610628565b50505b505050565b600082821c905092915050565b60006106af60001984600802610691565b1980831691505092915050565b60006106c8838361069e565b9150826002028217905092915050565b6106e1826104c1565b67ffffffffffffffff8111156106fa576106f96101ad565b5b61070482546104fb565b61070f82828561064b565b600060209050601f8311600181146107425760008415610730578287015190505b61073a85826106bc565b8655506107a2565b601f1984166107508661052c565b60005b8281101561077857848901518255600182019150602085019450602081019050610753565b868310156107955784890151610791601f89168261069e565b8355505b6001600288020188555050505b505050505050565b7f4e487b7100000000000000000000000000000000000000000000000000000000600052601160045260246000fd5b60006107e48261022d565b91506107ef8361022d565b9250828201905080821115610807576108066107aa565b5b92915050565b60805160a05160c05160e051610100516101205161131461089b600039600081816104a60152610a000152600081816108c5015261099401526000818161027f015281816107600152818161080101526108f701526000818161046a01528181610533015281816106c2015281816107c301526109dc015260006102c1015260006109b801526113146000f3fe608060405234801561001057600080fd5b50600436106100ea5760003560e01c80637b61c3201161008c578063af640d0f11610066578063af640d0f14610205578063c3dfdae614610223578063c415b95c14610241578063f1a1d3ba1461025f576100ea565b80637b61c320146101ad578063843b4386146101cb578063a5d1c0c0146101e7576100ea565b806357c9ca14116100c857806357c9ca14146101495780635c39fcc11461016757806370740ac914610185578063719ce73e1461018f576100ea565b806313faede6146100ef5780633197cbb61461010d57806334fbc9a11461012b575b600080fd5b6100f761027d565b6040516101049190610ab1565b60405180910390f35b6101156102a1565b6040516101229190610ab1565b60405180910390f35b6101336102a7565b6040516101409190610ab1565b60405180910390f35b6101516102ac565b60405161015e9190610ae7565b60405180910390f35b61016f6102bf565b60405161017c9190610b43565b60405180910390f35b61018d6102e3565b005b6101976105de565b6040516101a49190610ab1565b60405180910390f35b6101b56105e4565b6040516101c29190610bee565b60405180910390f35b6101e560048036038101906101e09190610d59565b610672565b005b6101ef610992565b6040516101fc9190610ab1565b60405180910390f35b61020d6109b6565b60405161021a9190610ab1565b60405180910390f35b61022b6109da565b6040516102389190610b43565b60405180910390f35b6102496109fe565b6040516102569190610b43565b60405180910390f35b610267610a22565b6040516102749190610b43565b60405180910390f35b7f000000000000000000000000000000000000000000000000000000000000000081565b60025481565b600281565b600560009054906101000a900460ff1681565b7f000000000000000000000000000000000000000000000000000000000000000081565b6102eb610a48565b600254421015610330576040517f08c379a000000000000000000000000000000000000000000000000000000000815260040161032790610dee565b60405180910390fd5b600360009054906101000a900473ffffffffffffffffffffffffffffffffffffffff1673ffffffffffffffffffffffffffffffffffffffff163373ffffffffffffffffffffffffffffffffffffffff16146103c0576040517f08c379a00000000000000000000000000000000000000000000000000000000081526004016103b790610e5a565b60405180910390fd5b600560009054906101000a900460ff1615610410576040517f08c379a000000000000000000000000000000000000000000000000000000000815260040161040790610ec6565b60405180910390fd5b6001600560006101000a81548160ff02191690831515021790555060006004549050600060646002836104439190610f15565b61044d9190610f86565b90506000818361045d9190610fb7565b90506000821115610528577f000000000000000000000000000000000000000000000000000000000000000073ffffffffffffffffffffffffffffffffffffffff1663a9059cbb7f0000000000000000000000000000000000000000000000000000000000000000846040518363ffffffff1660e01b81526004016104e3929190610feb565b6020604051808303816000875af1158015610502573d6000803e3d6000fd5b505050506040513d601f19601f820116820180604052508101906105269190611040565b505b60008111156105d1577f000000000000000000000000000000000000000000000000000000000000000073ffffffffffffffffffffffffffffffffffffffff1663a9059cbb33836040518363ffffffff1660e01b815260040161058c929190610feb565b6020604051808303816000875af11580156105ab573d6000803e3d6000fd5b505050506040513d601f19601f820116820180604052508101906105cf9190611040565b505b5050506105dc610a8e565b565b60045481565b600180546105f19061109c565b80601f016020809104026020016040519081016040528092919081815260200182805461061d9061109c565b801561066a5780601f1061063f5761010080835404028352916020019161066a565b820191906000526020600020905b81548152906001019060200180831161064d57829003601f168201915b505050505081565b61067a610a48565b60025442106106be576040517f08c379a00000000000000000000000000000000000000000000000000000000081526004016106b590611119565b60405180910390fd5b60007f000000000000000000000000000000000000000000000000000000000000000073ffffffffffffffffffffffffffffffffffffffff1663dd62ed3e33306040518363ffffffff1660e01b815260040161071b929190611139565b602060405180830381865afa158015610738573d6000803e3d6000fd5b505050506040513d601f19601f8201168201806040525081019061075c919061118e565b90507f00000000000000000000000000000000000000000000000000000000000000008110156107c1576040517f08c379a00000000000000000000000000000000000000000000000000000000081526004016107b890611207565b60405180910390fd5b7f000000000000000000000000000000000000000000000000000000000000000073ffffffffffffffffffffffffffffffffffffffff166323b872dd33307f00000000000000000000000000000000000000000000000000000000000000006040518463ffffffff1660e01b815260040161083e93929190611227565b6020604051808303816000875af115801561085d573d6000803e3d6000fd5b505050506040513d601f19601f820116820180604052508101906108819190611040565b5033600360006101000a81548173ffffffffffffffffffffffffffffffffffffffff021916908373ffffffffffffffffffffffffffffffffffffffff1602179055507f0000000000000000000000000000000000000000000000000000000000000000426108ef919061125e565b6002819055507f000000000000000000000000000000000000000000000000000000000000000060046000828254610927919061125e565b925050819055503373ffffffffffffffffffffffffffffffffffffffff167ffa6be5ee3d008b8d3452e8de8be3a9fd7b4b129129c95f2eab53255a28804da6836002546004544260405161097e9493929190611292565b60405180910390a25061098f610a8e565b50565b7f000000000000000000000000000000000000000000000000000000000000000081565b7f000000000000000000000000000000000000000000000000000000000000000081565b7f000000000000000000000000000000000000000000000000000000000000000081565b7f000000000000000000000000000000000000000000000000000000000000000081565b600360009054906101000a900473ffffffffffffffffffffffffffffffffffffffff1681565b600260005403610a84576040517f3ee5aeb500000000000000000000000000000000000000000000000000000000815260040160405180910390fd5b6002600081905550565b6001600081905550565b6000819050919050565b610aab81610a98565b82525050565b6000602082019050610ac66000830184610aa2565b92915050565b60008115159050919050565b610ae181610acc565b82525050565b6000602082019050610afc6000830184610ad8565b92915050565b600073ffffffffffffffffffffffffffffffffffffffff82169050919050565b6000610b2d82610b02565b9050919050565b610b3d81610b22565b82525050565b6000602082019050610b586000830184610b34565b92915050565b600081519050919050565b600082825260208201905092915050565b60005b83811015610b98578082015181840152602081019050610b7d565b60008484015250505050565b6000601f19601f8301169050919050565b6000610bc082610b5e565b610bca8185610b69565b9350610bda818560208601610b7a565b610be381610ba4565b840191505092915050565b60006020820190508181036000830152610c088184610bb5565b905092915050565b6000604051905090565b600080fd5b600080fd5b600080fd5b600080fd5b7f4e487b7100000000000000000000000000000000000000000000000000000000600052604160045260246000fd5b610c6682610ba4565b810181811067ffffffffffffffff82111715610c8557610c84610c2e565b5b80604052505050565b6000610c98610c10565b9050610ca48282610c5d565b919050565b600067ffffffffffffffff821115610cc457610cc3610c2e565b5b610ccd82610ba4565b9050602081019050919050565b82818337600083830152505050565b6000610cfc610cf784610ca9565b610c8e565b905082815260208101848484011115610d1857610d17610c29565b5b610d23848285610cda565b509392505050565b600082601f830112610d4057610d3f610c24565b5b8135610d50848260208601610ce9565b91505092915050565b600060208284031215610d6f57610d6e610c1a565b5b600082013567ffffffffffffffff811115610d8d57610d8c610c1f565b5b610d9984828501610d2b565b91505092915050565b7f47616d65206e6f7420656e646564207965740000000000000000000000000000600082015250565b6000610dd8601283610b69565b9150610de382610da2565b602082019050919050565b60006020820190508181036000830152610e0781610dcb565b9050919050565b7f4f6e6c792077696e6e65722063616e2077697468647261770000000000000000600082015250565b6000610e44601883610b69565b9150610e4f82610e0e565b602082019050919050565b60006020820190508181036000830152610e7381610e37565b9050919050565b7f5072697a6520616c726561647920636c61696d65640000000000000000000000600082015250565b6000610eb0601583610b69565b9150610ebb82610e7a565b602082019050919050565b60006020820190508181036000830152610edf81610ea3565b9050919050565b7f4e487b7100000000000000000000000000000000000000000000000000000000600052601160045260246000fd5b6000610f2082610a98565b9150610f2b83610a98565b9250828202610f3981610a98565b91508282048414831517610f5057610f4f610ee6565b5b5092915050565b7f4e487b7100000000000000000000000000000000000000000000000000000000600052601260045260246000fd5b6000610f9182610a98565b9150610f9c83610a98565b925082610fac57610fab610f57565b5b828204905092915050565b6000610fc282610a98565b9150610fcd83610a98565b9250828203905081811115610fe557610fe4610ee6565b5b92915050565b60006040820190506110006000830185610b34565b61100d6020830184610aa2565b9392505050565b61101d81610acc565b811461102857600080fd5b50565b60008151905061103a81611014565b92915050565b60006020828403121561105657611055610c1a565b5b60006110648482850161102b565b91505092915050565b7f4e487b7100000000000000000000000000000000000000000000000000000000600052602260045260246000fd5b600060028204905060018216806110b457607f821691505b6020821081036110c7576110c661106d565b5b50919050565b7f47616d6520616c726561647920656e6465640000000000000000000000000000600082015250565b6000611103601283610b69565b915061110e826110cd565b602082019050919050565b60006020820190508181036000830152611132816110f6565b9050919050565b600060408201905061114e6000830185610b34565b61115b6020830184610b34565b9392505050565b61116b81610a98565b811461117657600080fd5b50565b60008151905061118881611162565b92915050565b6000602082840312156111a4576111a3610c1a565b5b60006111b284828501611179565b91505092915050565b7f45524332303a204d75737420617070726f766520746f6b656e20666972737400600082015250565b60006111f1601f83610b69565b91506111fc826111bb565b602082019050919050565b60006020820190508181036000830152611220816111e4565b9050919050565b600060608201905061123c6000830186610b34565b6112496020830185610b34565b6112566040830184610aa2565b949350505050565b600061126982610a98565b915061127483610a98565b925082820190508082111561128c5761128b610ee6565b5b92915050565b600060808201905081810360008301526112ac8187610bb5565b90506112bb6020830186610aa2565b6112c86040830185610aa2565b6112d56060830184610aa2565b9594505050505056fea2646970667358221220e6eece9b6c00ae00273cd12e8189a35b1c92d51e6d2fc278c27424354d95ff4364736f6c634300081c0033","opcodes":"PUSH2 0x140 PUSH1 0x40 MSTORE CALLVALUE DUP1 ISZERO PUSH2 0x11 JUMPI PUSH1 0x0 DUP1 REVERT JUMPDEST POP PUSH1 0x40 MLOAD PUSH2 0x1BAF CODESIZE SUB DUP1 PUSH2 0x1BAF DUP4 CODECOPY DUP2 DUP2 ADD PUSH1 0x40 MSTORE DUP2 ADD SWAP1 PUSH2 0x33 SWAP2 SWAP1 PUSH2 0x452 JUMP JUMPDEST PUSH1 0x1 PUSH1 0x0 DUP2 SWAP1 SSTORE POP DUP3 PUSH1 0x0 ADD MLOAD PUSH1 0x80 DUP2 DUP2 MSTORE POP POP DUP3 PUSH1 0x20 ADD MLOAD PUSH20 0xFFFFFFFFFFFFFFFFFFFFFFFFFFFFFFFFFFFFFFFF AND PUSH1 0xA0 DUP2 PUSH20 0xFFFFFFFFFFFFFFFFFFFFFFFFFFFFFFFFFFFFFFFF AND DUP2 MSTORE POP POP DUP3 PUSH1 0x40 ADD MLOAD PUSH20 0xFFFFFFFFFFFFFFFFFFFFFFFFFFFFFFFFFFFFFFFF AND PUSH1 0xC0 DUP2 PUSH20 0xFFFFFFFFFFFFFFFFFFFFFFFFFFFFFFFFFFFFFFFF AND DUP2 MSTORE POP POP DUP3 PUSH1 0x60 ADD MLOAD PUSH1 0xE0 DUP2 DUP2 MSTORE POP POP DUP3 PUSH1 0x80 ADD MLOAD PUSH2 0x100 DUP2 DUP2 MSTORE POP POP DUP3 PUSH1 0xA0 ADD MLOAD PUSH1 0x1 SWAP1 DUP2 PUSH2 0xE3 SWAP2 SWAP1 PUSH2 0x6D8 JUMP JUMPDEST POP DUP3 PUSH1 0x80 ADD MLOAD TIMESTAMP PUSH2 0xF4 SWAP2 SWAP1 PUSH2 0x7D9 JUMP JUMPDEST PUSH1 0x2 DUP2 SWAP1 SSTORE POP DUP3 PUSH1 0x20 ADD MLOAD PUSH1 0x3 PUSH1 0x0 PUSH2 0x100 EXP DUP2 SLOAD DUP2 PUSH20 0xFFFFFFFFFFFFFFFFFFFFFFFFFFFFFFFFFFFFFFFF MUL NOT AND SWAP1 DUP4 PUSH20 0xFFFFFFFFFFFFFFFFFFFFFFFFFFFFFFFFFFFFFFFF AND MUL OR SWAP1 SSTORE POP DUP2 PUSH20 0xFFFFFFFFFFFFFFFFFFFFFFFFFFFFFFFFFFFFFFFF AND PUSH2 0x120 DUP2 PUSH20 0xFFFFFFFFFFFFFFFFFFFFFFFFFFFFFFFFFFFFFFFF AND DUP2 MSTORE POP POP DUP1 PUSH1 0x4 DUP2 SWAP1 SSTORE POP POP POP POP PUSH2 0x80D JUMP JUMPDEST PUSH1 0x0 PUSH1 0x40 MLOAD SWAP1 POP SWAP1 JUMP JUMPDEST PUSH1 0x0 DUP1 REVERT JUMPDEST PUSH1 0x0 DUP1 REVERT JUMPDEST PUSH1 0x0 DUP1 REVERT JUMPDEST PUSH1 0x0 PUSH1 0x1F NOT PUSH1 0x1F DUP4 ADD AND SWAP1 POP SWAP2 SWAP1 POP JUMP JUMPDEST PUSH32 0x4E487B7100000000000000000000000000000000000000000000000000000000 PUSH1 0x0 MSTORE PUSH1 0x41 PUSH1 0x4 MSTORE PUSH1 0x24 PUSH1 0x0 REVERT JUMPDEST PUSH2 0x1E5 DUP3 PUSH2 0x19C JUMP JUMPDEST DUP2 ADD DUP2 DUP2 LT PUSH8 0xFFFFFFFFFFFFFFFF DUP3 GT OR ISZERO PUSH2 0x204 JUMPI PUSH2 0x203 PUSH2 0x1AD JUMP JUMPDEST JUMPDEST DUP1 PUSH1 0x40 MSTORE POP POP POP JUMP JUMPDEST PUSH1 0x0 PUSH2 0x217 PUSH2 0x183 JUMP JUMPDEST SWAP1 POP PUSH2 0x223 DUP3 DUP3 PUSH2 0x1DC JUMP JUMPDEST SWAP2 SWAP1 POP JUMP JUMPDEST PUSH1 0x0 DUP1 REVERT JUMPDEST PUSH1 0x0 DUP2 SWAP1 POP SWAP2 SWAP1 POP JUMP JUMPDEST PUSH2 0x240 DUP2 PUSH2 0x22D JUMP JUMPDEST DUP2 EQ PUSH2 0x24B JUMPI PUSH1 0x0 DUP1 REVERT JUMPDEST POP JUMP JUMPDEST PUSH1 0x0 DUP2 MLOAD SWAP1 POP PUSH2 0x25D DUP2 PUSH2 0x237 JUMP JUMPDEST SWAP3 SWAP2 POP POP JUMP JUMPDEST PUSH1 0x0 PUSH20 0xFFFFFFFFFFFFFFFFFFFFFFFFFFFFFFFFFFFFFFFF DUP3 AND SWAP1 POP SWAP2 SWAP1 POP JUMP JUMPDEST PUSH1 0x0 PUSH2 0x28E DUP3 PUSH2 0x263 JUMP JUMPDEST SWAP1 POP SWAP2 SWAP1 POP JUMP JUMPDEST PUSH2 0x29E DUP2 PUSH2 0x283 JUMP JUMPDEST DUP2 EQ PUSH2 0x2A9 JUMPI PUSH1 0x0 DUP1 REVERT JUMPDEST POP JUMP JUMPDEST PUSH1 0x0 DUP2 MLOAD SWAP1 POP PUSH2 0x2BB DUP2 PUSH2 0x295 JUMP JUMPDEST SWAP3 SWAP2 POP POP JUMP JUMPDEST PUSH1 0x0 DUP1 REVERT JUMPDEST PUSH1 0x0 DUP1 REVERT JUMPDEST PUSH1 0x0 PUSH8 0xFFFFFFFFFFFFFFFF DUP3 GT ISZERO PUSH2 0x2E6 JUMPI PUSH2 0x2E5 PUSH2 0x1AD JUMP JUMPDEST JUMPDEST PUSH2 0x2EF DUP3 PUSH2 0x19C JUMP JUMPDEST SWAP1 POP PUSH1 0x20 DUP2 ADD SWAP1 POP SWAP2 SWAP1 POP JUMP JUMPDEST PUSH1 0x0 JUMPDEST DUP4 DUP2 LT ISZERO PUSH2 0x31A JUMPI DUP1 DUP3 ADD MLOAD DUP2 DUP5 ADD MSTORE PUSH1 0x20 DUP2 ADD SWAP1 POP PUSH2 0x2FF JUMP JUMPDEST PUSH1 0x0 DUP5 DUP5 ADD MSTORE POP POP POP POP JUMP JUMPDEST PUSH1 0x0 PUSH2 0x339 PUSH2 0x334 DUP5 PUSH2 0x2CB JUMP JUMPDEST PUSH2 0x20D JUMP JUMPDEST SWAP1 POP DUP3 DUP2 MSTORE PUSH1 0x20 DUP2 ADD DUP5 DUP5 DUP5 ADD GT ISZERO PUSH2 0x355 JUMPI PUSH2 0x354 PUSH2 0x2C6 JUMP JUMPDEST JUMPDEST PUSH2 0x360 DUP5 DUP3 DUP6 PUSH2 0x2FC JUMP JUMPDEST POP SWAP4 SWAP3 POP POP POP JUMP JUMPDEST PUSH1 0x0 DUP3 PUSH1 0x1F DUP4 ADD SLT PUSH2 0x37D JUMPI PUSH2 0x37C PUSH2 0x2C1 JUMP JUMPDEST JUMPDEST DUP2 MLOAD PUSH2 0x38D DUP5 DUP3 PUSH1 0x20 DUP7 ADD PUSH2 0x326 JUMP JUMPDEST SWAP2 POP POP SWAP3 SWAP2 POP POP JUMP JUMPDEST PUSH1 0x0 PUSH1 0xC0 DUP3 DUP5 SUB SLT ISZERO PUSH2 0x3AC JUMPI PUSH2 0x3AB PUSH2 0x197 JUMP JUMPDEST JUMPDEST PUSH2 0x3B6 PUSH1 0xC0 PUSH2 0x20D JUMP JUMPDEST SWAP1 POP PUSH1 0x0 PUSH2 0x3C6 DUP5 DUP3 DUP6 ADD PUSH2 0x24E JUMP JUMPDEST PUSH1 0x0 DUP4 ADD MSTORE POP PUSH1 0x20 PUSH2 0x3DA DUP5 DUP3 DUP6 ADD PUSH2 0x2AC JUMP JUMPDEST PUSH1 0x20 DUP4 ADD MSTORE POP PUSH1 0x40 PUSH2 0x3EE DUP5 DUP3 DUP6 ADD PUSH2 0x2AC JUMP JUMPDEST PUSH1 0x40 DUP4 ADD MSTORE POP PUSH1 0x60 PUSH2 0x402 DUP5 DUP3 DUP6 ADD PUSH2 0x24E JUMP JUMPDEST PUSH1 0x60 DUP4 ADD MSTORE POP PUSH1 0x80 PUSH2 0x416 DUP5 DUP3 DUP6 ADD PUSH2 0x24E JUMP JUMPDEST PUSH1 0x80 DUP4 ADD MSTORE POP PUSH1 0xA0 DUP3 ADD MLOAD PUSH8 0xFFFFFFFFFFFFFFFF DUP2 GT ISZERO PUSH2 0x43A JUMPI PUSH2 0x439 PUSH2 0x228 JUMP JUMPDEST JUMPDEST PUSH2 0x446 DUP5 DUP3 DUP6 ADD PUSH2 0x368 JUMP JUMPDEST PUSH1 0xA0 DUP4 ADD MSTORE POP SWAP3 SWAP2 POP POP JUMP JUMPDEST PUSH1 0x0 DUP1 PUSH1 0x0 PUSH1 0x60 DUP5 DUP7 SUB SLT ISZERO PUSH2 0x46B JUMPI PUSH2 0x46A PUSH2 0x18D JUMP JUMPDEST JUMPDEST PUSH1 0x0 DUP5 ADD MLOAD PUSH8 0xFFFFFFFFFFFFFFFF DUP2 GT ISZERO PUSH2 0x489 JUMPI PUSH2 0x488 PUSH2 0x192 JUMP JUMPDEST JUMPDEST PUSH2 0x495 DUP7 DUP3 DUP8 ADD PUSH2 0x396 JUMP JUMPDEST SWAP4 POP POP PUSH1 0x20 PUSH2 0x4A6 DUP7 DUP3 DUP8 ADD PUSH2 0x2AC JUMP JUMPDEST SWAP3 POP POP PUSH1 0x40 PUSH2 0x4B7 DUP7 DUP3 DUP8 ADD PUSH2 0x24E JUMP JUMPDEST SWAP2 POP POP SWAP3 POP SWAP3 POP SWAP3 JUMP JUMPDEST PUSH1 0x0 DUP2 MLOAD SWAP1 POP SWAP2 SWAP1 POP JUMP JUMPDEST PUSH32 0x4E487B7100000000000000000000000000000000000000000000000000000000 PUSH1 0x0 MSTORE PUSH1 0x22 PUSH1 0x4 MSTORE PUSH1 0x24 PUSH1 0x0 REVERT JUMPDEST PUSH1 0x0 PUSH1 0x2 DUP3 DIV SWAP1 POP PUSH1 0x1 DUP3 AND DUP1 PUSH2 0x513 JUMPI PUSH1 0x7F DUP3 AND SWAP2 POP JUMPDEST PUSH1 0x20 DUP3 LT DUP2 SUB PUSH2 0x526 JUMPI PUSH2 0x525 PUSH2 0x4CC JUMP JUMPDEST JUMPDEST POP SWAP2 SWAP1 POP JUMP JUMPDEST PUSH1 0x0 DUP2 SWAP1 POP DUP2 PUSH1 0x0 MSTORE PUSH1 0x20 PUSH1 0x0 KECCAK256 SWAP1 POP SWAP2 SWAP1 POP JUMP JUMPDEST PUSH1 0x0 PUSH1 0x20 PUSH1 0x1F DUP4 ADD DIV SWAP1 POP SWAP2 SWAP1 POP JUMP JUMPDEST PUSH1 0x0 DUP3 DUP3 SHL SWAP1 POP SWAP3 SWAP2 POP POP JUMP JUMPDEST PUSH1 0x0 PUSH1 0x8 DUP4 MUL PUSH2 0x58E PUSH32 0xFFFFFFFFFFFFFFFFFFFFFFFFFFFFFFFFFFFFFFFFFFFFFFFFFFFFFFFFFFFFFFFF DUP3 PUSH2 0x551 JUMP JUMPDEST PUSH2 0x598 DUP7 DUP4 PUSH2 0x551 JUMP JUMPDEST SWAP6 POP DUP1 NOT DUP5 AND SWAP4 POP DUP1 DUP7 AND DUP5 OR SWAP3 POP POP POP SWAP4 SWAP3 POP POP POP JUMP JUMPDEST PUSH1 0x0 DUP2 SWAP1 POP SWAP2 SWAP1 POP JUMP JUMPDEST PUSH1 0x0 PUSH2 0x5D5 PUSH2 0x5D0 PUSH2 0x5CB DUP5 PUSH2 0x22D JUMP JUMPDEST PUSH2 0x5B0 JUMP JUMPDEST PUSH2 0x22D JUMP JUMPDEST SWAP1 POP SWAP2 SWAP1 POP JUMP JUMPDEST PUSH1 0x0 DUP2 SWAP1 POP SWAP2 SWAP1 POP JUMP JUMPDEST PUSH2 0x5EF DUP4 PUSH2 0x5BA JUMP JUMPDEST PUSH2 0x603 PUSH2 0x5FB DUP3 PUSH2 0x5DC JUMP JUMPDEST DUP5 DUP5 SLOAD PUSH2 0x55E JUMP JUMPDEST DUP3 SSTORE POP POP POP POP JUMP JUMPDEST PUSH1 0x0 SWAP1 JUMP JUMPDEST PUSH2 0x618 PUSH2 0x60B JUMP JUMPDEST PUSH2 0x623 DUP2 DUP5 DUP5 PUSH2 0x5E6 JUMP JUMPDEST POP POP POP JUMP JUMPDEST JUMPDEST DUP2 DUP2 LT ISZERO PUSH2 0x647 JUMPI PUSH2 0x63C PUSH1 0x0 DUP3 PUSH2 0x610 JUMP JUMPDEST PUSH1 0x1 DUP2 ADD SWAP1 POP PUSH2 0x629 JUMP JUMPDEST POP POP JUMP JUMPDEST PUSH1 0x1F DUP3 GT ISZERO PUSH2 0x68C JUMPI PUSH2 0x65D DUP2 PUSH2 0x52C JUMP JUMPDEST PUSH2 0x666 DUP5 PUSH2 0x541 JUMP JUMPDEST DUP2 ADD PUSH1 0x20 DUP6 LT ISZERO PUSH2 0x675 JUMPI DUP2 SWAP1 POP JUMPDEST PUSH2 0x689 PUSH2 0x681 DUP6 PUSH2 0x541 JUMP JUMPDEST DUP4 ADD DUP3 PUSH2 0x628 JUMP JUMPDEST POP POP JUMPDEST POP POP POP JUMP JUMPDEST PUSH1 0x0 DUP3 DUP3 SHR SWAP1 POP SWAP3 SWAP2 POP POP JUMP JUMPDEST PUSH1 0x0 PUSH2 0x6AF PUSH1 0x0 NOT DUP5 PUSH1 0x8 MUL PUSH2 0x691 JUMP JUMPDEST NOT DUP1 DUP4 AND SWAP2 POP POP SWAP3 SWAP2 POP POP JUMP JUMPDEST PUSH1 0x0 PUSH2 0x6C8 DUP4 DUP4 PUSH2 0x69E JUMP JUMPDEST SWAP2 POP DUP3 PUSH1 0x2 MUL DUP3 OR SWAP1 POP SWAP3 SWAP2 POP POP JUMP JUMPDEST PUSH2 0x6E1 DUP3 PUSH2 0x4C1 JUMP JUMPDEST PUSH8 0xFFFFFFFFFFFFFFFF DUP2 GT ISZERO PUSH2 0x6FA JUMPI PUSH2 0x6F9 PUSH2 0x1AD JUMP JUMPDEST JUMPDEST PUSH2 0x704 DUP3 SLOAD PUSH2 0x4FB JUMP JUMPDEST PUSH2 0x70F DUP3 DUP3 DUP6 PUSH2 0x64B JUMP JUMPDEST PUSH1 0x0 PUSH1 0x20 SWAP1 POP PUSH1 0x1F DUP4 GT PUSH1 0x1 DUP2 EQ PUSH2 0x742 JUMPI PUSH1 0x0 DUP5 ISZERO PUSH2 0x730 JUMPI DUP3 DUP8 ADD MLOAD SWAP1 POP JUMPDEST PUSH2 0x73A DUP6 DUP3 PUSH2 0x6BC JUMP JUMPDEST DUP7 SSTORE POP PUSH2 0x7A2 JUMP JUMPDEST PUSH1 0x1F NOT DUP5 AND PUSH2 0x750 DUP7 PUSH2 0x52C JUMP JUMPDEST PUSH1 0x0 JUMPDEST DUP3 DUP2 LT ISZERO PUSH2 0x778 JUMPI DUP5 DUP10 ADD MLOAD DUP3 SSTORE PUSH1 0x1 DUP3 ADD SWAP2 POP PUSH1 0x20 DUP6 ADD SWAP5 POP PUSH1 0x20 DUP2 ADD SWAP1 POP PUSH2 0x753 JUMP JUMPDEST DUP7 DUP4 LT ISZERO PUSH2 0x795 JUMPI DUP5 DUP10 ADD MLOAD PUSH2 0x791 PUSH1 0x1F DUP10 AND DUP3 PUSH2 0x69E JUMP JUMPDEST DUP4 SSTORE POP JUMPDEST PUSH1 0x1 PUSH1 0x2 DUP9 MUL ADD DUP9 SSTORE POP POP POP JUMPDEST POP POP POP POP POP POP JUMP JUMPDEST PUSH32 0x4E487B7100000000000000000000000000000000000000000000000000000000 PUSH1 0x0 MSTORE PUSH1 0x11 PUSH1 0x4 MSTORE PUSH1 0x24 PUSH1 0x0 REVERT JUMPDEST PUSH1 0x0 PUSH2 0x7E4 DUP3 PUSH2 0x22D JUMP JUMPDEST SWAP2 POP PUSH2 0x7EF DUP4 PUSH2 0x22D JUMP JUMPDEST SWAP3 POP DUP3 DUP3 ADD SWAP1 POP DUP1 DUP3 GT ISZERO PUSH2 0x807 JUMPI PUSH2 0x806 PUSH2 0x7AA JUMP JUMPDEST JUMPDEST SWAP3 SWAP2 POP POP JUMP JUMPDEST PUSH1 0x80 MLOAD PUSH1 0xA0 MLOAD PUSH1 0xC0 MLOAD PUSH1 0xE0 MLOAD PUSH2 0x100 MLOAD PUSH2 0x120 MLOAD PUSH2 0x1314 PUSH2 0x89B PUSH1 0x0 CODECOPY PUSH1 0x0 DUP2 DUP2 PUSH2 0x4A6 ADD MSTORE PUSH2 0xA00 ADD MSTORE PUSH1 0x0 DUP2 DUP2 PUSH2 0x8C5 ADD MSTORE PUSH2 0x994 ADD MSTORE PUSH1 0x0 DUP2 DUP2 PUSH2 0x27F ADD MSTORE DUP2 DUP2 PUSH2 0x760 ADD MSTORE DUP2 DUP2 PUSH2 0x801 ADD MSTORE PUSH2 0x8F7 ADD MSTORE PUSH1 0x0 DUP2 DUP2 PUSH2 0x46A ADD MSTORE DUP2 DUP2 PUSH2 0x533 ADD MSTORE DUP2 DUP2 PUSH2 0x6C2 ADD MSTORE DUP2 DUP2 PUSH2 0x7C3 ADD MSTORE PUSH2 0x9DC ADD MSTORE PUSH1 0x0 PUSH2 0x2C1 ADD MSTORE PUSH1 0x0 PUSH2 0x9B8 ADD MSTORE PUSH2 0x1314 PUSH1 0x0 RETURN INVALID PUSH1 0x80 PUSH1 0x40 MSTORE CALLVALUE DUP1 ISZERO PUSH2 0x10 JUMPI PUSH1 0x0 DUP1 REVERT JUMPDEST POP PUSH1 0x4 CALLDATASIZE LT PUSH2 0xEA JUMPI PUSH1 0x0 CALLDATALOAD PUSH1 0xE0 SHR DUP1 PUSH4 0x7B61C320 GT PUSH2 0x8C JUMPI DUP1 PUSH4 0xAF640D0F GT PUSH2 0x66 JUMPI DUP1 PUSH4 0xAF640D0F EQ PUSH2 0x205 JUMPI DUP1 PUSH4 0xC3DFDAE6 EQ PUSH2 0x223 JUMPI DUP1 PUSH4 0xC415B95C EQ PUSH2 0x241 JUMPI DUP1 PUSH4 0xF1A1D3BA EQ PUSH2 0x25F JUMPI PUSH2 0xEA JUMP JUMPDEST DUP1 PUSH4 0x7B61C320 EQ PUSH2 0x1AD JUMPI DUP1 PUSH4 0x843B4386 EQ PUSH2 0x1CB JUMPI DUP1 PUSH4 0xA5D1C0C0 EQ PUSH2 0x1E7 JUMPI PUSH2 0xEA JUMP JUMPDEST DUP1 PUSH4 0x57C9CA14 GT PUSH2 0xC8 JUMPI DUP1 PUSH4 0x57C9CA14 EQ PUSH2 0x149 JUMPI DUP1 PUSH4 0x5C39FCC1 EQ PUSH2 0x167 JUMPI DUP1 PUSH4 0x70740AC9 EQ PUSH2 0x185 JUMPI DUP1 PUSH4 0x719CE73E EQ PUSH2 0x18F JUMPI PUSH2 0xEA JUMP JUMPDEST DUP1 PUSH4 0x13FAEDE6 EQ PUSH2 0xEF JUMPI DUP1 PUSH4 0x3197CBB6 EQ PUSH2 0x10D JUMPI DUP1 PUSH4 0x34FBC9A1 EQ PUSH2 0x12B JUMPI JUMPDEST PUSH1 0x0 DUP1 REVERT JUMPDEST PUSH2 0xF7 PUSH2 0x27D JUMP JUMPDEST PUSH1 0x40 MLOAD PUSH2 0x104 SWAP2 SWAP1 PUSH2 0xAB1 JUMP JUMPDEST PUSH1 0x40 MLOAD DUP1 SWAP2 SUB SWAP1 RETURN JUMPDEST PUSH2 0x115 PUSH2 0x2A1 JUMP JUMPDEST PUSH1 0x40 MLOAD PUSH2 0x122 SWAP2 SWAP1 PUSH2 0xAB1 JUMP JUMPDEST PUSH1 0x40 MLOAD DUP1 SWAP2 SUB SWAP1 RETURN JUMPDEST PUSH2 0x133 PUSH2 0x2A7 JUMP JUMPDEST PUSH1 0x40 MLOAD PUSH2 0x140 SWAP2 SWAP1 PUSH2 0xAB1 JUMP JUMPDEST PUSH1 0x40 MLOAD DUP1 SWAP2 SUB SWAP1 RETURN JUMPDEST PUSH2 0x151 PUSH2 0x2AC JUMP JUMPDEST PUSH1 0x40 MLOAD PUSH2 0x15E SWAP2 SWAP1 PUSH2 0xAE7 JUMP JUMPDEST PUSH1 0x40 MLOAD DUP1 SWAP2 SUB SWAP1 RETURN JUMPDEST PUSH2 0x16F PUSH2 0x2BF JUMP JUMPDEST PUSH1 0x40 MLOAD PUSH2 0x17C SWAP2 SWAP1 PUSH2 0xB43 JUMP JUMPDEST PUSH1 0x40 MLOAD DUP1 SWAP2 SUB SWAP1 RETURN JUMPDEST PUSH2 0x18D PUSH2 0x2E3 JUMP JUMPDEST STOP JUMPDEST PUSH2 0x197 PUSH2 0x5DE JUMP JUMPDEST PUSH1 0x40 MLOAD PUSH2 0x1A4 SWAP2 SWAP1 PUSH2 0xAB1 JUMP JUMPDEST PUSH1 0x40 MLOAD DUP1 SWAP2 SUB SWAP1 RETURN JUMPDEST PUSH2 0x1B5 PUSH2 0x5E4 JUMP JUMPDEST PUSH1 0x40 MLOAD PUSH2 0x1C2 SWAP2 SWAP1 PUSH2 0xBEE JUMP JUMPDEST PUSH1 0x40 MLOAD DUP1 SWAP2 SUB SWAP1 RETURN JUMPDEST PUSH2 0x1E5 PUSH1 0x4 DUP1 CALLDATASIZE SUB DUP2 ADD SWAP1 PUSH2 0x1E0 SWAP2 SWAP1 PUSH2 0xD59 JUMP JUMPDEST PUSH2 0x672 JUMP JUMPDEST STOP JUMPDEST PUSH2 0x1EF PUSH2 0x992 JUMP JUMPDEST PUSH1 0x40 MLOAD PUSH2 0x1FC SWAP2 SWAP1 PUSH2 0xAB1 JUMP JUMPDEST PUSH1 0x40 MLOAD DUP1 SWAP2 SUB SWAP1 RETURN JUMPDEST PUSH2 0x20D PUSH2 0x9B6 JUMP JUMPDEST PUSH1 0x40 MLOAD PUSH2 0x21A SWAP2 SWAP1 PUSH2 0xAB1 JUMP JUMPDEST PUSH1 0x40 MLOAD DUP1 SWAP2 SUB SWAP1 RETURN JUMPDEST PUSH2 0x22B PUSH2 0x9DA JUMP JUMPDEST PUSH1 0x40 MLOAD PUSH2 0x238 SWAP2 SWAP1 PUSH2 0xB43 JUMP JUMPDEST PUSH1 0x40 MLOAD DUP1 SWAP2 SUB SWAP1 RETURN JUMPDEST PUSH2 0x249 PUSH2 0x9FE JUMP JUMPDEST PUSH1 0x40 MLOAD PUSH2 0x256 SWAP2 SWAP1 PUSH2 0xB43 JUMP JUMPDEST PUSH1 0x40 MLOAD DUP1 SWAP2 SUB SWAP1 RETURN JUMPDEST PUSH2 0x267 PUSH2 0xA22 JUMP JUMPDEST PUSH1 0x40 MLOAD PUSH2 0x274 SWAP2 SWAP1 PUSH2 0xB43 JUMP JUMPDEST PUSH1 0x40 MLOAD DUP1 SWAP2 SUB SWAP1 RETURN JUMPDEST PUSH32 0x0 DUP2 JUMP JUMPDEST PUSH1 0x2 SLOAD DUP2 JUMP JUMPDEST PUSH1 0x2 DUP2 JUMP JUMPDEST PUSH1 0x5 PUSH1 0x0 SWAP1 SLOAD SWAP1 PUSH2 0x100 EXP SWAP1 DIV PUSH1 0xFF AND DUP2 JUMP JUMPDEST PUSH32 0x0 DUP2 JUMP JUMPDEST PUSH2 0x2EB PUSH2 0xA48 JUMP JUMPDEST PUSH1 0x2 SLOAD TIMESTAMP LT ISZERO PUSH2 0x330 JUMPI PUSH1 0x40 MLOAD PUSH32 0x8C379A000000000000000000000000000000000000000000000000000000000 DUP2 MSTORE PUSH1 0x4 ADD PUSH2 0x327 SWAP1 PUSH2 0xDEE JUMP JUMPDEST PUSH1 0x40 MLOAD DUP1 SWAP2 SUB SWAP1 REVERT JUMPDEST PUSH1 0x3 PUSH1 0x0 SWAP1 SLOAD SWAP1 PUSH2 0x100 EXP SWAP1 DIV PUSH20 0xFFFFFFFFFFFFFFFFFFFFFFFFFFFFFFFFFFFFFFFF AND PUSH20 0xFFFFFFFFFFFFFFFFFFFFFFFFFFFFFFFFFFFFFFFF AND CALLER PUSH20 0xFFFFFFFFFFFFFFFFFFFFFFFFFFFFFFFFFFFFFFFF AND EQ PUSH2 0x3C0 JUMPI PUSH1 0x40 MLOAD PUSH32 0x8C379A000000000000000000000000000000000000000000000000000000000 DUP2 MSTORE PUSH1 0x4 ADD PUSH2 0x3B7 SWAP1 PUSH2 0xE5A JUMP JUMPDEST PUSH1 0x40 MLOAD DUP1 SWAP2 SUB SWAP1 REVERT JUMPDEST PUSH1 0x5 PUSH1 0x0 SWAP1 SLOAD SWAP1 PUSH2 0x100 EXP SWAP1 DIV PUSH1 0xFF AND ISZERO PUSH2 0x410 JUMPI PUSH1 0x40 MLOAD PUSH32 0x8C379A000000000000000000000000000000000000000000000000000000000 DUP2 MSTORE PUSH1 0x4 ADD PUSH2 0x407 SWAP1 PUSH2 0xEC6 JUMP JUMPDEST PUSH1 0x40 MLOAD DUP1 SWAP2 SUB SWAP1 REVERT JUMPDEST PUSH1 0x1 PUSH1 0x5 PUSH1 0x0 PUSH2 0x100 EXP DUP2 SLOAD DUP2 PUSH1 0xFF MUL NOT AND SWAP1 DUP4 ISZERO ISZERO MUL OR SWAP1 SSTORE POP PUSH1 0x0 PUSH1 0x4 SLOAD SWAP1 POP PUSH1 0x0 PUSH1 0x64 PUSH1 0x2 DUP4 PUSH2 0x443 SWAP2 SWAP1 PUSH2 0xF15 JUMP JUMPDEST PUSH2 0x44D SWAP2 SWAP1 PUSH2 0xF86 JUMP JUMPDEST SWAP1 POP PUSH1 0x0 DUP2 DUP4 PUSH2 0x45D SWAP2 SWAP1 PUSH2 0xFB7 JUMP JUMPDEST SWAP1 POP PUSH1 0x0 DUP3 GT ISZERO PUSH2 0x528 JUMPI PUSH32 0x0 PUSH20 0xFFFFFFFFFFFFFFFFFFFFFFFFFFFFFFFFFFFFFFFF AND PUSH4 0xA9059CBB PUSH32 0x0 DUP5 PUSH1 0x40 MLOAD DUP4 PUSH4 0xFFFFFFFF AND PUSH1 0xE0 SHL DUP2 MSTORE PUSH1 0x4 ADD PUSH2 0x4E3 SWAP3 SWAP2 SWAP1 PUSH2 0xFEB JUMP JUMPDEST PUSH1 0x20 PUSH1 0x40 MLOAD DUP1 DUP4 SUB DUP2 PUSH1 0x0 DUP8 GAS CALL ISZERO DUP1 ISZERO PUSH2 0x502 JUMPI RETURNDATASIZE PUSH1 0x0 DUP1 RETURNDATACOPY RETURNDATASIZE PUSH1 0x0 REVERT JUMPDEST POP POP POP POP PUSH1 0x40 MLOAD RETURNDATASIZE PUSH1 0x1F NOT PUSH1 0x1F DUP3 ADD AND DUP3 ADD DUP1 PUSH1 0x40 MSTORE POP DUP2 ADD SWAP1 PUSH2 0x526 SWAP2 SWAP1 PUSH2 0x1040 JUMP JUMPDEST POP JUMPDEST PUSH1 0x0 DUP2 GT ISZERO PUSH2 0x5D1 JUMPI PUSH32 0x0 PUSH20 0xFFFFFFFFFFFFFFFFFFFFFFFFFFFFFFFFFFFFFFFF AND PUSH4 0xA9059CBB CALLER DUP4 PUSH1 0x40 MLOAD DUP4 PUSH4 0xFFFFFFFF AND PUSH1 0xE0 SHL DUP2 MSTORE PUSH1 0x4 ADD PUSH2 0x58C SWAP3 SWAP2 SWAP1 PUSH2 0xFEB JUMP JUMPDEST PUSH1 0x20 PUSH1 0x40 MLOAD DUP1 DUP4 SUB DUP2 PUSH1 0x0 DUP8 GAS CALL ISZERO DUP1 ISZERO PUSH2 0x5AB JUMPI RETURNDATASIZE PUSH1 0x0 DUP1 RETURNDATACOPY RETURNDATASIZE PUSH1 0x0 REVERT JUMPDEST POP POP POP POP PUSH1 0x40 MLOAD RETURNDATASIZE PUSH1 0x1F NOT PUSH1 0x1F DUP3 ADD AND DUP3 ADD DUP1 PUSH1 0x40 MSTORE POP DUP2 ADD SWAP1 PUSH2 0x5CF SWAP2 SWAP1 PUSH2 0x1040 JUMP JUMPDEST POP JUMPDEST POP POP POP PUSH2 0x5DC PUSH2 0xA8E JUMP JUMPDEST JUMP JUMPDEST PUSH1 0x4 SLOAD DUP2 JUMP JUMPDEST PUSH1 0x1 DUP1 SLOAD PUSH2 0x5F1 SWAP1 PUSH2 0x109C JUMP JUMPDEST DUP1 PUSH1 0x1F ADD PUSH1 0x20 DUP1 SWAP2 DIV MUL PUSH1 0x20 ADD PUSH1 0x40 MLOAD SWAP1 DUP2 ADD PUSH1 0x40 MSTORE DUP1 SWAP3 SWAP2 SWAP1 DUP2 DUP2 MSTORE PUSH1 0x20 ADD DUP3 DUP1 SLOAD PUSH2 0x61D SWAP1 PUSH2 0x109C JUMP JUMPDEST DUP1 ISZERO PUSH2 0x66A JUMPI DUP1 PUSH1 0x1F LT PUSH2 0x63F JUMPI PUSH2 0x100 DUP1 DUP4 SLOAD DIV MUL DUP4 MSTORE SWAP2 PUSH1 0x20 ADD SWAP2 PUSH2 0x66A JUMP JUMPDEST DUP3 ADD SWAP2 SWAP1 PUSH1 0x0 MSTORE PUSH1 0x20 PUSH1 0x0 KECCAK256 SWAP1 JUMPDEST DUP2 SLOAD DUP2 MSTORE SWAP1 PUSH1 0x1 ADD SWAP1 PUSH1 0x20 ADD DUP1 DUP4 GT PUSH2 0x64D JUMPI DUP3 SWAP1 SUB PUSH1 0x1F AND DUP3 ADD SWAP2 JUMPDEST POP POP POP POP POP DUP2 JUMP JUMPDEST PUSH2 0x67A PUSH2 0xA48 JUMP JUMPDEST PUSH1 0x2 SLOAD TIMESTAMP LT PUSH2 0x6BE JUMPI PUSH1 0x40 MLOAD PUSH32 0x8C379A000000000000000000000000000000000000000000000000000000000 DUP2 MSTORE PUSH1 0x4 ADD PUSH2 0x6B5 SWAP1 PUSH2 0x1119 JUMP JUMPDEST PUSH1 0x40 MLOAD DUP1 SWAP2 SUB SWAP1 REVERT JUMPDEST PUSH1 0x0 PUSH32 0x0 PUSH20 0xFFFFFFFFFFFFFFFFFFFFFFFFFFFFFFFFFFFFFFFF AND PUSH4 0xDD62ED3E CALLER ADDRESS PUSH1 0x40 MLOAD DUP4 PUSH4 0xFFFFFFFF AND PUSH1 0xE0 SHL DUP2 MSTORE PUSH1 0x4 ADD PUSH2 0x71B SWAP3 SWAP2 SWAP1 PUSH2 0x1139 JUMP JUMPDEST PUSH1 0x20 PUSH1 0x40 MLOAD DUP1 DUP4 SUB DUP2 DUP7 GAS STATICCALL ISZERO DUP1 ISZERO PUSH2 0x738 JUMPI RETURNDATASIZE PUSH1 0x0 DUP1 RETURNDATACOPY RETURNDATASIZE PUSH1 0x0 REVERT JUMPDEST POP POP POP POP PUSH1 0x40 MLOAD RETURNDATASIZE PUSH1 0x1F NOT PUSH1 0x1F DUP3 ADD AND DUP3 ADD DUP1 PUSH1 0x40 MSTORE POP DUP2 ADD SWAP1 PUSH2 0x75C SWAP2 SWAP1 PUSH2 0x118E JUMP JUMPDEST SWAP1 POP PUSH32 0x0 DUP2 LT ISZERO PUSH2 0x7C1 JUMPI PUSH1 0x40 MLOAD PUSH32 0x8C379A000000000000000000000000000000000000000000000000000000000 DUP2 MSTORE PUSH1 0x4 ADD PUSH2 0x7B8 SWAP1 PUSH2 0x1207 JUMP JUMPDEST PUSH1 0x40 MLOAD DUP1 SWAP2 SUB SWAP1 REVERT JUMPDEST PUSH32 0x0 PUSH20 0xFFFFFFFFFFFFFFFFFFFFFFFFFFFFFFFFFFFFFFFF AND PUSH4 0x23B872DD CALLER ADDRESS PUSH32 0x0 PUSH1 0x40 MLOAD DUP5 PUSH4 0xFFFFFFFF AND PUSH1 0xE0 SHL DUP2 MSTORE PUSH1 0x4 ADD PUSH2 0x83E SWAP4 SWAP3 SWAP2 SWAP1 PUSH2 0x1227 JUMP JUMPDEST PUSH1 0x20 PUSH1 0x40 MLOAD DUP1 DUP4 SUB DUP2 PUSH1 0x0 DUP8 GAS CALL ISZERO DUP1 ISZERO PUSH2 0x85D JUMPI RETURNDATASIZE PUSH1 0x0 DUP1 RETURNDATACOPY RETURNDATASIZE PUSH1 0x0 REVERT JUMPDEST POP POP POP POP PUSH1 0x40 MLOAD RETURNDATASIZE PUSH1 0x1F NOT PUSH1 0x1F DUP3 ADD AND DUP3 ADD DUP1 PUSH1 0x40 MSTORE POP DUP2 ADD SWAP1 PUSH2 0x881 SWAP2 SWAP1 PUSH2 0x1040 JUMP JUMPDEST POP CALLER PUSH1 0x3 PUSH1 0x0 PUSH2 0x100 EXP DUP2 SLOAD DUP2 PUSH20 0xFFFFFFFFFFFFFFFFFFFFFFFFFFFFFFFFFFFFFFFF MUL NOT AND SWAP1 DUP4 PUSH20 0xFFFFFFFFFFFFFFFFFFFFFFFFFFFFFFFFFFFFFFFF AND MUL OR SWAP1 SSTORE POP PUSH32 0x0 TIMESTAMP PUSH2 0x8EF SWAP2 SWAP1 PUSH2 0x125E JUMP JUMPDEST PUSH1 0x2 DUP2 SWAP1 SSTORE POP PUSH32 0x0 PUSH1 0x4 PUSH1 0x0 DUP3 DUP3 SLOAD PUSH2 0x927 SWAP2 SWAP1 PUSH2 0x125E JUMP JUMPDEST SWAP3 POP POP DUP2 SWAP1 SSTORE POP CALLER PUSH20 0xFFFFFFFFFFFFFFFFFFFFFFFFFFFFFFFFFFFFFFFF AND PUSH32 0xFA6BE5EE3D008B8D3452E8DE8BE3A9FD7B4B129129C95F2EAB53255A28804DA6 DUP4 PUSH1 0x2 SLOAD PUSH1 0x4 SLOAD TIMESTAMP PUSH1 0x40 MLOAD PUSH2 0x97E SWAP5 SWAP4 SWAP3 SWAP2 SWAP1 PUSH2 0x1292 JUMP JUMPDEST PUSH1 0x40 MLOAD DUP1 SWAP2 SUB SWAP1 LOG2 POP PUSH2 0x98F PUSH2 0xA8E JUMP JUMPDEST POP JUMP JUMPDEST PUSH32 0x0 DUP2 JUMP JUMPDEST PUSH32 0x0 DUP2 JUMP JUMPDEST PUSH32 0x0 DUP2 JUMP JUMPDEST PUSH32 0x0 DUP2 JUMP JUMPDEST PUSH1 0x3 PUSH1 0x0 SWAP1 SLOAD SWAP1 PUSH2 0x100 EXP SWAP1 DIV PUSH20 0xFFFFFFFFFFFFFFFFFFFFFFFFFFFFFFFFFFFFFFFF AND DUP2 JUMP JUMPDEST PUSH1 0x2 PUSH1 0x0 SLOAD SUB PUSH2 0xA84 JUMPI PUSH1 0x40 MLOAD PUSH32 0x3EE5AEB500000000000000000000000000000000000000000000000000000000 DUP2 MSTORE PUSH1 0x4 ADD PUSH1 0x40 MLOAD DUP1 SWAP2 SUB SWAP1 REVERT JUMPDEST PUSH1 0x2 PUSH1 0x0 DUP2 SWAP1 SSTORE POP JUMP JUMPDEST PUSH1 0x1 PUSH1 0x0 DUP2 SWAP1 SSTORE POP JUMP JUMPDEST PUSH1 0x0 DUP2 SWAP1 POP SWAP2 SWAP1 POP JUMP JUMPDEST PUSH2 0xAAB DUP2 PUSH2 0xA98 JUMP JUMPDEST DUP3 MSTORE POP POP JUMP JUMPDEST PUSH1 0x0 PUSH1 0x20 DUP3 ADD SWAP1 POP PUSH2 0xAC6 PUSH1 0x0 DUP4 ADD DUP5 PUSH2 0xAA2 JUMP JUMPDEST SWAP3 SWAP2 POP POP JUMP JUMPDEST PUSH1 0x0 DUP2 ISZERO ISZERO SWAP1 POP SWAP2 SWAP1 POP JUMP JUMPDEST PUSH2 0xAE1 DUP2 PUSH2 0xACC JUMP JUMPDEST DUP3 MSTORE POP POP JUMP JUMPDEST PUSH1 0x0 PUSH1 0x20 DUP3 ADD SWAP1 POP PUSH2 0xAFC PUSH1 0x0 DUP4 ADD DUP5 PUSH2 0xAD8 JUMP JUMPDEST SWAP3 SWAP2 POP POP JUMP JUMPDEST PUSH1 0x0 PUSH20 0xFFFFFFFFFFFFFFFFFFFFFFFFFFFFFFFFFFFFFFFF DUP3 AND SWAP1 POP SWAP2 SWAP1 POP JUMP JUMPDEST PUSH1 0x0 PUSH2 0xB2D DUP3 PUSH2 0xB02 JUMP JUMPDEST SWAP1 POP SWAP2 SWAP1 POP JUMP JUMPDEST PUSH2 0xB3D DUP2 PUSH2 0xB22 JUMP JUMPDEST DUP3 MSTORE POP POP JUMP JUMPDEST PUSH1 0x0 PUSH1 0x20 DUP3 ADD SWAP1 POP PUSH2 0xB58 PUSH1 0x0 DUP4 ADD DUP5 PUSH2 0xB34 JUMP JUMPDEST SWAP3 SWAP2 POP POP JUMP JUMPDEST PUSH1 0x0 DUP2 MLOAD SWAP1 POP SWAP2 SWAP1 POP JUMP JUMPDEST PUSH1 0x0 DUP3 DUP3 MSTORE PUSH1 0x20 DUP3 ADD SWAP1 POP SWAP3 SWAP2 POP POP JUMP JUMPDEST PUSH1 0x0 JUMPDEST DUP4 DUP2 LT ISZERO PUSH2 0xB98 JUMPI DUP1 DUP3 ADD MLOAD DUP2 DUP5 ADD MSTORE PUSH1 0x20 DUP2 ADD SWAP1 POP PUSH2 0xB7D JUMP JUMPDEST PUSH1 0x0 DUP5 DUP5 ADD MSTORE POP POP POP POP JUMP JUMPDEST PUSH1 0x0 PUSH1 0x1F NOT PUSH1 0x1F DUP4 ADD AND SWAP1 POP SWAP2 SWAP1 POP JUMP JUMPDEST PUSH1 0x0 PUSH2 0xBC0 DUP3 PUSH2 0xB5E JUMP JUMPDEST PUSH2 0xBCA DUP2 DUP6 PUSH2 0xB69 JUMP JUMPDEST SWAP4 POP PUSH2 0xBDA DUP2 DUP6 PUSH1 0x20 DUP7 ADD PUSH2 0xB7A JUMP JUMPDEST PUSH2 0xBE3 DUP2 PUSH2 0xBA4 JUMP JUMPDEST DUP5 ADD SWAP2 POP POP SWAP3 SWAP2 POP POP JUMP JUMPDEST PUSH1 0x0 PUSH1 0x20 DUP3 ADD SWAP1 POP DUP2 DUP2 SUB PUSH1 0x0 DUP4 ADD MSTORE PUSH2 0xC08 DUP2 DUP5 PUSH2 0xBB5 JUMP JUMPDEST SWAP1 POP SWAP3 SWAP2 POP POP JUMP JUMPDEST PUSH1 0x0 PUSH1 0x40 MLOAD SWAP1 POP SWAP1 JUMP JUMPDEST PUSH1 0x0 DUP1 REVERT JUMPDEST PUSH1 0x0 DUP1 REVERT JUMPDEST PUSH1 0x0 DUP1 REVERT JUMPDEST PUSH1 0x0 DUP1 REVERT JUMPDEST PUSH32 0x4E487B7100000000000000000000000000000000000000000000000000000000 PUSH1 0x0 MSTORE PUSH1 0x41 PUSH1 0x4 MSTORE PUSH1 0x24 PUSH1 0x0 REVERT JUMPDEST PUSH2 0xC66 DUP3 PUSH2 0xBA4 JUMP JUMPDEST DUP2 ADD DUP2 DUP2 LT PUSH8 0xFFFFFFFFFFFFFFFF DUP3 GT OR ISZERO PUSH2 0xC85 JUMPI PUSH2 0xC84 PUSH2 0xC2E JUMP JUMPDEST JUMPDEST DUP1 PUSH1 0x40 MSTORE POP POP POP JUMP JUMPDEST PUSH1 0x0 PUSH2 0xC98 PUSH2 0xC10 JUMP JUMPDEST SWAP1 POP PUSH2 0xCA4 DUP3 DUP3 PUSH2 0xC5D JUMP JUMPDEST SWAP2 SWAP1 POP JUMP JUMPDEST PUSH1 0x0 PUSH8 0xFFFFFFFFFFFFFFFF DUP3 GT ISZERO PUSH2 0xCC4 JUMPI PUSH2 0xCC3 PUSH2 0xC2E JUMP JUMPDEST JUMPDEST PUSH2 0xCCD DUP3 PUSH2 0xBA4 JUMP JUMPDEST SWAP1 POP PUSH1 0x20 DUP2 ADD SWAP1 POP SWAP2 SWAP1 POP JUMP JUMPDEST DUP3 DUP2 DUP4 CALLDATACOPY PUSH1 0x0 DUP4 DUP4 ADD MSTORE POP POP POP JUMP JUMPDEST PUSH1 0x0 PUSH2 0xCFC PUSH2 0xCF7 DUP5 PUSH2 0xCA9 JUMP JUMPDEST PUSH2 0xC8E JUMP JUMPDEST SWAP1 POP DUP3 DUP2 MSTORE PUSH1 0x20 DUP2 ADD DUP5 DUP5 DUP5 ADD GT ISZERO PUSH2 0xD18 JUMPI PUSH2 0xD17 PUSH2 0xC29 JUMP JUMPDEST JUMPDEST PUSH2 0xD23 DUP5 DUP3 DUP6 PUSH2 0xCDA JUMP JUMPDEST POP SWAP4 SWAP3 POP POP POP JUMP JUMPDEST PUSH1 0x0 DUP3 PUSH1 0x1F DUP4 ADD SLT PUSH2 0xD40 JUMPI PUSH2 0xD3F PUSH2 0xC24 JUMP JUMPDEST JUMPDEST DUP2 CALLDATALOAD PUSH2 0xD50 DUP5 DUP3 PUSH1 0x20 DUP7 ADD PUSH2 0xCE9 JUMP JUMPDEST SWAP2 POP POP SWAP3 SWAP2 POP POP JUMP JUMPDEST PUSH1 0x0 PUSH1 0x20 DUP3 DUP5 SUB SLT ISZERO PUSH2 0xD6F JUMPI PUSH2 0xD6E PUSH2 0xC1A JUMP JUMPDEST JUMPDEST PUSH1 0x0 DUP3 ADD CALLDATALOAD PUSH8 0xFFFFFFFFFFFFFFFF DUP2 GT ISZERO PUSH2 0xD8D JUMPI PUSH2 0xD8C PUSH2 0xC1F JUMP JUMPDEST JUMPDEST PUSH2 0xD99 DUP5 DUP3 DUP6 ADD PUSH2 0xD2B JUMP JUMPDEST SWAP2 POP POP SWAP3 SWAP2 POP POP JUMP JUMPDEST PUSH32 0x47616D65206E6F7420656E646564207965740000000000000000000000000000 PUSH1 0x0 DUP3 ADD MSTORE POP JUMP JUMPDEST PUSH1 0x0 PUSH2 0xDD8 PUSH1 0x12 DUP4 PUSH2 0xB69 JUMP JUMPDEST SWAP2 POP PUSH2 0xDE3 DUP3 PUSH2 0xDA2 JUMP JUMPDEST PUSH1 0x20 DUP3 ADD SWAP1 POP SWAP2 SWAP1 POP JUMP JUMPDEST PUSH1 0x0 PUSH1 0x20 DUP3 ADD SWAP1 POP DUP2 DUP2 SUB PUSH1 0x0 DUP4 ADD MSTORE PUSH2 0xE07 DUP2 PUSH2 0xDCB JUMP JUMPDEST SWAP1 POP SWAP2 SWAP1 POP JUMP JUMPDEST PUSH32 0x4F6E6C792077696E6E65722063616E2077697468647261770000000000000000 PUSH1 0x0 DUP3 ADD MSTORE POP JUMP JUMPDEST PUSH1 0x0 PUSH2 0xE44 PUSH1 0x18 DUP4 PUSH2 0xB69 JUMP JUMPDEST SWAP2 POP PUSH2 0xE4F DUP3 PUSH2 0xE0E JUMP JUMPDEST PUSH1 0x20 DUP3 ADD SWAP1 POP SWAP2 SWAP1 POP JUMP JUMPDEST PUSH1 0x0 PUSH1 0x20 DUP3 ADD SWAP1 POP DUP2 DUP2 SUB PUSH1 0x0 DUP4 ADD MSTORE PUSH2 0xE73 DUP2 PUSH2 0xE37 JUMP JUMPDEST SWAP1 POP SWAP2 SWAP1 POP JUMP JUMPDEST PUSH32 0x5072697A6520616C726561647920636C61696D65640000000000000000000000 PUSH1 0x0 DUP3 ADD MSTORE POP JUMP JUMPDEST PUSH1 0x0 PUSH2 0xEB0 PUSH1 0x15 DUP4 PUSH2 0xB69 JUMP JUMPDEST SWAP2 POP PUSH2 0xEBB DUP3 PUSH2 0xE7A JUMP JUMPDEST PUSH1 0x20 DUP3 ADD SWAP1 POP SWAP2 SWAP1 POP JUMP JUMPDEST PUSH1 0x0 PUSH1 0x20 DUP3 ADD SWAP1 POP DUP2 DUP2 SUB PUSH1 0x0 DUP4 ADD MSTORE PUSH2 0xEDF DUP2 PUSH2 0xEA3 JUMP JUMPDEST SWAP1 POP SWAP2 SWAP1 POP JUMP JUMPDEST PUSH32 0x4E487B7100000000000000000000000000000000000000000000000000000000 PUSH1 0x0 MSTORE PUSH1 0x11 PUSH1 0x4 MSTORE PUSH1 0x24 PUSH1 0x0 REVERT JUMPDEST PUSH1 0x0 PUSH2 0xF20 DUP3 PUSH2 0xA98 JUMP JUMPDEST SWAP2 POP PUSH2 0xF2B DUP4 PUSH2 0xA98 JUMP JUMPDEST SWAP3 POP DUP3 DUP3 MUL PUSH2 0xF39 DUP2 PUSH2 0xA98 JUMP JUMPDEST SWAP2 POP DUP3 DUP3 DIV DUP5 EQ DUP4 ISZERO OR PUSH2 0xF50 JUMPI PUSH2 0xF4F PUSH2 0xEE6 JUMP JUMPDEST JUMPDEST POP SWAP3 SWAP2 POP POP JUMP JUMPDEST PUSH32 0x4E487B7100000000000000000000000000000000000000000000000000000000 PUSH1 0x0 MSTORE PUSH1 0x12 PUSH1 0x4 MSTORE PUSH1 0x24 PUSH1 0x0 REVERT JUMPDEST PUSH1 0x0 PUSH2 0xF91 DUP3 PUSH2 0xA98 JUMP JUMPDEST SWAP2 POP PUSH2 0xF9C DUP4 PUSH2 0xA98 JUMP JUMPDEST SWAP3 POP DUP3 PUSH2 0xFAC JUMPI PUSH2 0xFAB PUSH2 0xF57 JUMP JUMPDEST JUMPDEST DUP3 DUP3 DIV SWAP1 POP SWAP3 SWAP2 POP POP JUMP JUMPDEST PUSH1 0x0 PUSH2 0xFC2 DUP3 PUSH2 0xA98 JUMP JUMPDEST SWAP2 POP PUSH2 0xFCD DUP4 PUSH2 0xA98 JUMP JUMPDEST SWAP3 POP DUP3 DUP3 SUB SWAP1 POP DUP2 DUP2 GT ISZERO PUSH2 0xFE5 JUMPI PUSH2 0xFE4 PUSH2 0xEE6 JUMP JUMPDEST JUMPDEST SWAP3 SWAP2 POP POP JUMP JUMPDEST PUSH1 0x0 PUSH1 0x40 DUP3 ADD SWAP1 POP PUSH2 0x1000 PUSH1 0x0 DUP4 ADD DUP6 PUSH2 0xB34 JUMP JUMPDEST PUSH2 0x100D PUSH1 0x20 DUP4 ADD DUP5 PUSH2 0xAA2 JUMP JUMPDEST SWAP4 SWAP3 POP POP POP JUMP JUMPDEST PUSH2 0x101D DUP2 PUSH2 0xACC JUMP JUMPDEST DUP2 EQ PUSH2 0x1028 JUMPI PUSH1 0x0 DUP1 REVERT JUMPDEST POP JUMP JUMPDEST PUSH1 0x0 DUP2 MLOAD SWAP1 POP PUSH2 0x103A DUP2 PUSH2 0x1014 JUMP JUMPDEST SWAP3 SWAP2 POP POP JUMP JUMPDEST PUSH1 0x0 PUSH1 0x20 DUP3 DUP5 SUB SLT ISZERO PUSH2 0x1056 JUMPI PUSH2 0x1055 PUSH2 0xC1A JUMP JUMPDEST JUMPDEST PUSH1 0x0 PUSH2 0x1064 DUP5 DUP3 DUP6 ADD PUSH2 0x102B JUMP JUMPDEST SWAP2 POP POP SWAP3 SWAP2 POP POP JUMP JUMPDEST PUSH32 0x4E487B7100000000000000000000000000000000000000000000000000000000 PUSH1 0x0 MSTORE PUSH1 0x22 PUSH1 0x4 MSTORE PUSH1 0x24 PUSH1 0x0 REVERT JUMPDEST PUSH1 0x0 PUSH1 0x2 DUP3 DIV SWAP1 POP PUSH1 0x1 DUP3 AND DUP1 PUSH2 0x10B4 JUMPI PUSH1 0x7F DUP3 AND SWAP2 POP JUMPDEST PUSH1 0x20 DUP3 LT DUP2 SUB PUSH2 0x10C7 JUMPI PUSH2 0x10C6 PUSH2 0x106D JUMP JUMPDEST JUMPDEST POP SWAP2 SWAP1 POP JUMP JUMPDEST PUSH32 0x47616D6520616C726561647920656E6465640000000000000000000000000000 PUSH1 0x0 DUP3 ADD MSTORE POP JUMP JUMPDEST PUSH1 0x0 PUSH2 0x1103 PUSH1 0x12 DUP4 PUSH2 0xB69 JUMP JUMPDEST SWAP2 POP PUSH2 0x110E DUP3 PUSH2 0x10CD JUMP JUMPDEST PUSH1 0x20 DUP3 ADD SWAP1 POP SWAP2 SWAP1 POP JUMP JUMPDEST PUSH1 0x0 PUSH1 0x20 DUP3 ADD SWAP1 POP DUP2 DUP2 SUB PUSH1 0x0 DUP4 ADD MSTORE PUSH2 0x1132 DUP2 PUSH2 0x10F6 JUMP JUMPDEST SWAP1 POP SWAP2 SWAP1 POP JUMP JUMPDEST PUSH1 0x0 PUSH1 0x40 DUP3 ADD SWAP1 POP PUSH2 0x114E PUSH1 0x0 DUP4 ADD DUP6 PUSH2 0xB34 JUMP JUMPDEST PUSH2 0x115B PUSH1 0x20 DUP4 ADD DUP5 PUSH2 0xB34 JUMP JUMPDEST SWAP4 SWAP3 POP POP POP JUMP JUMPDEST PUSH2 0x116B DUP2 PUSH2 0xA98 JUMP JUMPDEST DUP2 EQ PUSH2 0x1176 JUMPI PUSH1 0x0 DUP1 REVERT JUMPDEST POP JUMP JUMPDEST PUSH1 0x0 DUP2 MLOAD SWAP1 POP PUSH2 0x1188 DUP2 PUSH2 0x1162 JUMP JUMPDEST SWAP3 SWAP2 POP POP JUMP JUMPDEST PUSH1 0x0 PUSH1 0x20 DUP3 DUP5 SUB SLT ISZERO PUSH2 0x11A4 JUMPI PUSH2 0x11A3 PUSH2 0xC1A JUMP JUMPDEST JUMPDEST PUSH1 0x0 PUSH2 0x11B2 DUP5 DUP3 DUP6 ADD PUSH2 0x1179 JUMP JUMPDEST SWAP2 POP POP SWAP3 SWAP2 POP POP JUMP JUMPDEST PUSH32 0x45524332303A204D75737420617070726F766520746F6B656E20666972737400 PUSH1 0x0 DUP3 ADD MSTORE POP JUMP JUMPDEST PUSH1 0x0 PUSH2 0x11F1 PUSH1 0x1F DUP4 PUSH2 0xB69 JUMP JUMPDEST SWAP2 POP PUSH2 0x11FC DUP3 PUSH2 0x11BB JUMP JUMPDEST PUSH1 0x20 DUP3 ADD SWAP1 POP SWAP2 SWAP1 POP JUMP JUMPDEST PUSH1 0x0 PUSH1 0x20 DUP3 ADD SWAP1 POP DUP2 DUP2 SUB PUSH1 0x0 DUP4 ADD MSTORE PUSH2 0x1220 DUP2 PUSH2 0x11E4 JUMP JUMPDEST SWAP1 POP SWAP2 SWAP1 POP JUMP JUMPDEST PUSH1 0x0 PUSH1 0x60 DUP3 ADD SWAP1 POP PUSH2 0x123C PUSH1 0x0 DUP4 ADD DUP7 PUSH2 0xB34 JUMP JUMPDEST PUSH2 0x1249 PUSH1 0x20 DUP4 ADD DUP6 PUSH2 0xB34 JUMP JUMPDEST PUSH2 0x1256 PUSH1 0x40 DUP4 ADD DUP5 PUSH2 0xAA2 JUMP JUMPDEST SWAP5 SWAP4 POP POP POP POP JUMP JUMPDEST PUSH1 0x0 PUSH2 0x1269 DUP3 PUSH2 0xA98 JUMP JUMPDEST SWAP2 POP PUSH2 0x1274 DUP4 PUSH2 0xA98 JUMP JUMPDEST SWAP3 POP DUP3 DUP3 ADD SWAP1 POP DUP1 DUP3 GT ISZERO PUSH2 0x128C JUMPI PUSH2 0x128B PUSH2 0xEE6 JUMP JUMPDEST JUMPDEST SWAP3 SWAP2 POP POP JUMP JUMPDEST PUSH1 0x0 PUSH1 0x80 DUP3 ADD SWAP1 POP DUP2 DUP2 SUB PUSH1 0x0 DUP4 ADD MSTORE PUSH2 0x12AC DUP2 DUP8 PUSH2 0xBB5 JUMP JUMPDEST SWAP1 POP PUSH2 0x12BB PUSH1 0x20 DUP4 ADD DUP7 PUSH2 0xAA2 JUMP JUMPDEST PUSH2 0x12C8 PUSH1 0x40 DUP4 ADD DUP6 PUSH2 0xAA2 JUMP JUMPDEST PUSH2 0x12D5 PUSH1 0x60 DUP4 ADD DUP5 PUSH2 0xAA2 JUMP JUMPDEST SWAP6 SWAP5 POP POP POP POP POP JUMP INVALID LOG2 PUSH5 0x6970667358 0x22 SLT KECCAK256 0xE6 0xEE 0xCE SWAP12 PUSH13 0xAE00273CD12E8189A35B1C92 0xD5 0x1E PUSH14 0x2FC278C27424354D95FF4364736F PUSH13 0x634300081C0033000000000000 "},"methodIdentifiers":{"PLATFORM_FEE()":"34fbc9a1","addComment(string)":"843b4386","claimPrize()":"70740ac9","cost()":"13faede6","endTime()":"3197cbb6","feeCollector()":"c415b95c","gameTime()":"a5d1c0c0","gameToken()":"c3dfdae6","id()":"af640d0f","initiator()":"5c39fcc1","isClaimed()":"57c9ca14","lastCommentor()":"f1a1d3ba","prizePool()":"719ce73e","tokenSymbol()":"7b61c320"}}}}}