{"project/contracts/CommentGame.sol":{"CommentGame":{"abi":[{"inputs":[{"components":[{"internalType":"uint256","name":"id","type":"uint256"},{"internalType":"address","name":"initiator","type":"address"},{"internalType":"address","name":"gameToken","type":"address"},{"internalType":"uint256","name":"cost","type":"uint256"},{"internalType":"uint256","name":"gameTime","type":"uint256"},{"internalType":"string","name":"tokenSymbol","type":"string"}],"internalType":"struct CommentGame.Params","name":"_params","type":"tuple"},{"internalType":"address","name":"_feeCollector","type":"address"},{"internalType":"uint256","name":"_initialPrize","type":"uint256"}],"stateMutability":"nonpayable","type":"constructor"},{"inputs":[],"name":"ReentrancyGuardReentrantCall","type":"error"},{"anonymous":false,"inputs":[{"indexed":true,"internalType":"address","name":"commentor","type":"address"},{"indexed":false,"internalType":"string","name":"message","type":"string"},{"indexed":false,"internalType":"uint256","name":"newEndTime","type":"uint256"},{"indexed":false,"internalType":"uint256","name":"prizePool","type":"uint256"},{"indexed":false,"internalType":"uint256","name":"timestamp","type":"uint256"}],"name":"CommentAdded","type":"event"},{"anonymous":false,"inputs":[{"indexed":true,"internalType":"address","name":"winner","type":"address"},{"indexed":false,"internalType":"uint256","name":"winnerShare","type":"uint256"},{"indexed":false,"internalType":"uint256","name":"platformShare","type":"uint256"},{"indexed":false,"internalType":"uint256","name":"timestamp","type":"uint256"}],"name":"PrizeClaimed","type":"event"},{"inputs":[],"name":"PLATFORM_FEE","outputs":[{"internalType":"uint256","name":"","type":"uint256"}],"stateMutability":"view","type":"function"},{"inputs":[{"internalType":"string","name":"_message","type":"string"}],"name":"addComment","outputs":[],"stateMutability":"nonpayable","type":"function"},{"inputs":[],"name":"claimPrize","outputs":[],"stateMutability":"nonpayable","type":"function"},{"inputs":[],"name":"cost","outputs":[{"internalType":"uint256","name":"","type":"uint256"}],"stateMutability":"view","type":"function"},{"inputs":[],"name":"endTime","outputs":[{"internalType":"uint256","name":"","type":"uint256"}],"stateMutability":"view","type":"function"},{"inputs":[],"name":"feeCollector","outputs":[{"internalType":"address","name":"","type":"address"}],"stateMutability":"view","type":"function"},{"inputs":[],"name":"gameTime","outputs":[{"internalType":"uint256","name":"","type":"uint256"}],"stateMutability":"view","type":"function"},{"inputs":[],"name":"gameToken","outputs":[{"internalType":"address","name":"","type":"address"}],"stateMutability":"view","type":"function"},{"inputs":[],"name":"id","outputs":[{"internalType":"uint256","name":"","type":"uint256"}],"stateMutability":"view","type":"function"},{"inputs":[],"name":"initiator","outputs":[{"internalType":"address","name":"","type":"address"}],"stateMutability":"view","type":"function"},{"inputs":[],"name":"isClaimed","outputs":[{"internalType":"bool","name":"","type":"bool"}],"stateMutability":"view","type":"function"},{"inputs":[],"name":"lastCommentor","outputs":[{"internalType":"address","name":"","type":"address"}],"stateMutability":"view","type":"function"},{"inputs":[],"name":"prizePool","outputs":[{"internalType":"uint256","name":"","type":"uint256"}],"stateMutability":"view","type":"function"},{"inputs":[],"name":"tokenSymbol","outputs":[{"internalType":"string","name":"","type":"string"}],"stateMutability":"view","type":"function"}],"evm":{"bytecode":{"linkReferences":{},"object":"61014060405234801561001157600080fd5b50604051611c38380380611c3883398181016040528101906100339190610452565b6001600081905550826000015160808181525050826020015173ffffffffffffffffffffffffffffffffffffffff1660a08173ffffffffffffffffffffffffffffffffffffffff1681525050826040015173ffffffffffffffffffffffffffffffffffffffff1660c08173ffffffffffffffffffffffffffffffffffffffff1681525050826060015160e08181525050826080015161010081815250508260a00151600190816100e391906106d8565b508260800151426100f491906107d9565b6002819055508260200151600360006101000a81548173ffffffffffffffffffffffffffffffffffffffff021916908373ffffffffffffffffffffffffffffffffffffffff1602179055508173ffffffffffffffffffffffffffffffffffffffff166101208173ffffffffffffffffffffffffffffffffffffffff16815250508060048190555050505061080d565b6000604051905090565b600080fd5b600080fd5b600080fd5b6000601f19601f8301169050919050565b7f4e487b7100000000000000000000000000000000000000000000000000000000600052604160045260246000fd5b6101e58261019c565b810181811067ffffffffffffffff82111715610204576102036101ad565b5b80604052505050565b6000610217610183565b905061022382826101dc565b919050565b600080fd5b6000819050919050565b6102408161022d565b811461024b57600080fd5b50565b60008151905061025d81610237565b92915050565b600073ffffffffffffffffffffffffffffffffffffffff82169050919050565b600061028e82610263565b9050919050565b61029e81610283565b81146102a957600080fd5b50565b6000815190506102bb81610295565b92915050565b600080fd5b600080fd5b600067ffffffffffffffff8211156102e6576102e56101ad565b5b6102ef8261019c565b9050602081019050919050565b60005b8381101561031a5780820151818401526020810190506102ff565b60008484015250505050565b6000610339610334846102cb565b61020d565b905082815260208101848484011115610355576103546102c6565b5b6103608482856102fc565b509392505050565b600082601f83011261037d5761037c6102c1565b5b815161038d848260208601610326565b91505092915050565b600060c082840312156103ac576103ab610197565b5b6103b660c061020d565b905060006103c68482850161024e565b60008301525060206103da848285016102ac565b60208301525060406103ee848285016102ac565b60408301525060606104028482850161024e565b60608301525060806104168482850161024e565b60808301525060a082015167ffffffffffffffff81111561043a57610439610228565b5b61044684828501610368565b60a08301525092915050565b60008060006060848603121561046b5761046a61018d565b5b600084015167ffffffffffffffff81111561048957610488610192565b5b61049586828701610396565b93505060206104a6868287016102ac565b92505060406104b78682870161024e565b9150509250925092565b600081519050919050565b7f4e487b7100000000000000000000000000000000000000000000000000000000600052602260045260246000fd5b6000600282049050600182168061051357607f821691505b602082108103610526576105256104cc565b5b50919050565b60008190508160005260206000209050919050565b60006020601f8301049050919050565b600082821b905092915050565b60006008830261058e7fffffffffffffffffffffffffffffffffffffffffffffffffffffffffffffffff82610551565b6105988683610551565b95508019841693508086168417925050509392505050565b6000819050919050565b60006105d56105d06105cb8461022d565b6105b0565b61022d565b9050919050565b6000819050919050565b6105ef836105ba565b6106036105fb826105dc565b84845461055e565b825550505050565b600090565b61061861060b565b6106238184846105e6565b505050565b5b818110156106475761063c600082610610565b600181019050610629565b5050565b601f82111561068c5761065d8161052c565b61066684610541565b81016020851015610675578190505b61068961068185610541565b830182610628565b50505b505050565b600082821c905092915050565b60006106af60001984600802610691565b1980831691505092915050565b60006106c8838361069e565b9150826002028217905092915050565b6106e1826104c1565b67ffffffffffffffff8111156106fa576106f96101ad565b5b61070482546104fb565b61070f82828561064b565b600060209050601f8311600181146107425760008415610730578287015190505b61073a85826106bc565b8655506107a2565b601f1984166107508661052c565b60005b8281101561077857848901518255600182019150602085019450602081019050610753565b868310156107955784890151610791601f89168261069e565b8355505b6001600288020188555050505b505050505050565b7f4e487b7100000000000000000000000000000000000000000000000000000000600052601160045260246000fd5b60006107e48261022d565b91506107ef8361022d565b9250828201905080821115610807576108066107aa565b5b92915050565b60805160a05160c05160e051610100516101205161139d61089b600039600081816104a60152610a5201526000818161091701526109e601526000818161027f015281816107b201528181610853015261094901526000818161046a0152818161053301528181610714015281816108150152610a2e015260006102c101526000610a0a015261139d6000f3fe608060405234801561001057600080fd5b50600436106100ea5760003560e01c80637b61c3201161008c578063af640d0f11610066578063af640d0f14610205578063c3dfdae614610223578063c415b95c14610241578063f1a1d3ba1461025f576100ea565b80637b61c320146101ad578063843b4386146101cb578063a5d1c0c0146101e7576100ea565b806357c9ca14116100c857806357c9ca14146101495780635c39fcc11461016757806370740ac914610185578063719ce73e1461018f576100ea565b806313faede6146100ef5780633197cbb61461010d57806334fbc9a11461012b575b600080fd5b6100f761027d565b6040516101049190610b03565b60405180910390f35b6101156102a1565b6040516101229190610b03565b60405180910390f35b6101336102a7565b6040516101409190610b03565b60405180910390f35b6101516102ac565b60405161015e9190610b39565b60405180910390f35b61016f6102bf565b60405161017c9190610b95565b60405180910390f35b61018d6102e3565b005b610197610630565b6040516101a49190610b03565b60405180910390f35b6101b5610636565b6040516101c29190610c40565b60405180910390f35b6101e560048036038101906101e09190610dab565b6106c4565b005b6101ef6109e4565b6040516101fc9190610b03565b60405180910390f35b61020d610a08565b60405161021a9190610b03565b60405180910390f35b61022b610a2c565b6040516102389190610b95565b60405180910390f35b610249610a50565b6040516102569190610b95565b60405180910390f35b610267610a74565b6040516102749190610b95565b60405180910390f35b7f000000000000000000000000000000000000000000000000000000000000000081565b60025481565b600281565b600560009054906101000a900460ff1681565b7f000000000000000000000000000000000000000000000000000000000000000081565b6102eb610a9a565b600254421015610330576040517f08c379a000000000000000000000000000000000000000000000000000000000815260040161032790610e40565b60405180910390fd5b600360009054906101000a900473ffffffffffffffffffffffffffffffffffffffff1673ffffffffffffffffffffffffffffffffffffffff163373ffffffffffffffffffffffffffffffffffffffff16146103c0576040517f08c379a00000000000000000000000000000000000000000000000000000000081526004016103b790610eac565b60405180910390fd5b600560009054906101000a900460ff1615610410576040517f08c379a000000000000000000000000000000000000000000000000000000000815260040161040790610f18565b60405180910390fd5b6001600560006101000a81548160ff02191690831515021790555060006004549050600060646002836104439190610f67565b61044d9190610fd8565b90506000818361045d9190611009565b90506000821115610528577f000000000000000000000000000000000000000000000000000000000000000073ffffffffffffffffffffffffffffffffffffffff1663a9059cbb7f0000000000000000000000000000000000000000000000000000000000000000846040518363ffffffff1660e01b81526004016104e392919061103d565b6020604051808303816000875af1158015610502573d6000803e3d6000fd5b505050506040513d601f19601f820116820180604052508101906105269190611092565b505b60008111156105d1577f000000000000000000000000000000000000000000000000000000000000000073ffffffffffffffffffffffffffffffffffffffff1663a9059cbb33836040518363ffffffff1660e01b815260040161058c92919061103d565b6020604051808303816000875af11580156105ab573d6000803e3d6000fd5b505050506040513d601f19601f820116820180604052508101906105cf9190611092565b505b3373ffffffffffffffffffffffffffffffffffffffff167f701a77bd5e0b7b1ffffe478c3c19e3caadca855782127fca812c7ccd9646cdc482844260405161061b939291906110bf565b60405180910390a250505061062e610ae0565b565b60045481565b6001805461064390611125565b80601f016020809104026020016040519081016040528092919081815260200182805461066f90611125565b80156106bc5780601f10610691576101008083540402835291602001916106bc565b820191906000526020600020905b81548152906001019060200180831161069f57829003601f168201915b505050505081565b6106cc610a9a565b6002544210610710576040517f08c379a0000000000000000000000000000000000000000000000000000000008152600401610707906111a2565b60405180910390fd5b60007f000000000000000000000000000000000000000000000000000000000000000073ffffffffffffffffffffffffffffffffffffffff1663dd62ed3e33306040518363ffffffff1660e01b815260040161076d9291906111c2565b602060405180830381865afa15801561078a573d6000803e3d6000fd5b505050506040513d601f19601f820116820180604052508101906107ae9190611217565b90507f0000000000000000000000000000000000000000000000000000000000000000811015610813576040517f08c379a000000000000000000000000000000000000000000000000000000000815260040161080a90611290565b60405180910390fd5b7f000000000000000000000000000000000000000000000000000000000000000073ffffffffffffffffffffffffffffffffffffffff166323b872dd33307f00000000000000000000000000000000000000000000000000000000000000006040518463ffffffff1660e01b8152600401610890939291906112b0565b6020604051808303816000875af11580156108af573d6000803e3d6000fd5b505050506040513d601f19601f820116820180604052508101906108d39190611092565b5033600360006101000a81548173ffffffffffffffffffffffffffffffffffffffff021916908373ffffffffffffffffffffffffffffffffffffffff1602179055507f00000000000000000000000000000000000000000000000000000000000000004261094191906112e7565b6002819055507f00000000000000000000000000000000000000000000000000000000000000006004600082825461097991906112e7565b925050819055503373ffffffffffffffffffffffffffffffffffffffff167ffa6be5ee3d008b8d3452e8de8be3a9fd7b4b129129c95f2eab53255a28804da683600254600454426040516109d0949392919061131b565b60405180910390a2506109e1610ae0565b50565b7f000000000000000000000000000000000000000000000000000000000000000081565b7f000000000000000000000000000000000000000000000000000000000000000081565b7f000000000000000000000000000000000000000000000000000000000000000081565b7f000000000000000000000000000000000000000000000000000000000000000081565b600360009054906101000a900473ffffffffffffffffffffffffffffffffffffffff1681565b600260005403610ad6576040517f3ee5aeb500000000000000000000000000000000000000000000000000000000815260040160405180910390fd5b6002600081905550565b6001600081905550565b6000819050919050565b610afd81610aea565b82525050565b6000602082019050610b186000830184610af4565b92915050565b60008115159050919050565b610b3381610b1e565b82525050565b6000602082019050610b4e6000830184610b2a565b92915050565b600073ffffffffffffffffffffffffffffffffffffffff82169050919050565b6000610b7f82610b54565b9050919050565b610b8f81610b74565b82525050565b6000602082019050610baa6000830184610b86565b92915050565b600081519050919050565b600082825260208201905092915050565b60005b83811015610bea578082015181840152602081019050610bcf565b60008484015250505050565b6000601f19601f8301169050919050565b6000610c1282610bb0565b610c1c8185610bbb565b9350610c2c818560208601610bcc565b610c3581610bf6565b840191505092915050565b60006020820190508181036000830152610c5a8184610c07565b905092915050565b6000604051905090565b600080fd5b600080fd5b600080fd5b600080fd5b7f4e487b7100000000000000000000000000000000000000000000000000000000600052604160045260246000fd5b610cb882610bf6565b810181811067ffffffffffffffff82111715610cd757610cd6610c80565b5b80604052505050565b6000610cea610c62565b9050610cf68282610caf565b919050565b600067ffffffffffffffff821115610d1657610d15610c80565b5b610d1f82610bf6565b9050602081019050919050565b82818337600083830152505050565b6000610d4e610d4984610cfb565b610ce0565b905082815260208101848484011115610d6a57610d69610c7b565b5b610d75848285610d2c565b509392505050565b600082601f830112610d9257610d91610c76565b5b8135610da2848260208601610d3b565b91505092915050565b600060208284031215610dc157610dc0610c6c565b5b600082013567ffffffffffffffff811115610ddf57610dde610c71565b5b610deb84828501610d7d565b91505092915050565b7f47616d65206e6f7420656e646564207965740000000000000000000000000000600082015250565b6000610e2a601283610bbb565b9150610e3582610df4565b602082019050919050565b60006020820190508181036000830152610e5981610e1d565b9050919050565b7f4f6e6c792077696e6e65722063616e2077697468647261770000000000000000600082015250565b6000610e96601883610bbb565b9150610ea182610e60565b602082019050919050565b60006020820190508181036000830152610ec581610e89565b9050919050565b7f5072697a6520616c726561647920636c61696d65640000000000000000000000600082015250565b6000610f02601583610bbb565b9150610f0d82610ecc565b602082019050919050565b60006020820190508181036000830152610f3181610ef5565b9050919050565b7f4e487b7100000000000000000000000000000000000000000000000000000000600052601160045260246000fd5b6000610f7282610aea565b9150610f7d83610aea565b9250828202610f8b81610aea565b91508282048414831517610fa257610fa1610f38565b5b5092915050565b7f4e487b7100000000000000000000000000000000000000000000000000000000600052601260045260246000fd5b6000610fe382610aea565b9150610fee83610aea565b925082610ffe57610ffd610fa9565b5b828204905092915050565b600061101482610aea565b915061101f83610aea565b925082820390508181111561103757611036610f38565b5b92915050565b60006040820190506110526000830185610b86565b61105f6020830184610af4565b9392505050565b61106f81610b1e565b811461107a57600080fd5b50565b60008151905061108c81611066565b92915050565b6000602082840312156110a8576110a7610c6c565b5b60006110b68482850161107d565b91505092915050565b60006060820190506110d46000830186610af4565b6110e16020830185610af4565b6110ee6040830184610af4565b949350505050565b7f4e487b7100000000000000000000000000000000000000000000000000000000600052602260045260246000fd5b6000600282049050600182168061113d57607f821691505b6020821081036111505761114f6110f6565b5b50919050565b7f47616d6520616c726561647920656e6465640000000000000000000000000000600082015250565b600061118c601283610bbb565b915061119782611156565b602082019050919050565b600060208201905081810360008301526111bb8161117f565b9050919050565b60006040820190506111d76000830185610b86565b6111e46020830184610b86565b9392505050565b6111f481610aea565b81146111ff57600080fd5b50565b600081519050611211816111eb565b92915050565b60006020828403121561122d5761122c610c6c565b5b600061123b84828501611202565b91505092915050565b7f45524332303a204d75737420617070726f766520746f6b656e20666972737400600082015250565b600061127a601f83610bbb565b915061128582611244565b602082019050919050565b600060208201905081810360008301526112a98161126d565b9050919050565b60006060820190506112c56000830186610b86565b6112d26020830185610b86565b6112df6040830184610af4565b949350505050565b60006112f282610aea565b91506112fd83610aea565b925082820190508082111561131557611314610f38565b5b92915050565b600060808201905081810360008301526113358187610c07565b90506113446020830186610af4565b6113516040830185610af4565b61135e6060830184610af4565b9594505050505056fea26469706673582212207310b54b74c6c5e5609cc44de904f7250cae72e2aba1c104dc8f41814321c84064736f6c634300081c0033","opcodes":"PUSH2 0x140 PUSH1 0x40 MSTORE CALLVALUE DUP1 ISZERO PUSH2 0x11 JUMPI PUSH1 0x0 DUP1 REVERT JUMPDEST POP PUSH1 0x40 MLOAD PUSH2 0x1C38 CODESIZE SUB DUP1 PUSH2 0x1C38 DUP4 CODECOPY DUP2 DUP2 ADD PUSH1 0x40 MSTORE DUP2 ADD SWAP1 PUSH2 0x33 SWAP2 SWAP1 PUSH2 0x452 JUMP JUMPDEST PUSH1 0x1 PUSH1 0x0 DUP2 SWAP1 SSTORE POP DUP3 PUSH1 0x0 ADD MLOAD PUSH1 0x80 DUP2 DUP2 MSTORE POP POP DUP3 PUSH1 0x20 ADD MLOAD PUSH20 0xFFFFFFFFFFFFFFFFFFFFFFFFFFFFFFFFFFFFFFFF AND PUSH1 0xA0 DUP2 PUSH20 0xFFFFFFFFFFFFFFFFFFFFFFFFFFFFFFFFFFFFFFFF AND DUP2 MSTORE POP POP DUP3 PUSH1 0x40 ADD MLOAD PUSH20 0xFFFFFFFFFFFFFFFFFFFFFFFFFFFFFFFFFFFFFFFF AND PUSH1 0xC0 DUP2 PUSH20 0xFFFFFFFFFFFFFFFFFFFFFFFFFFFFFFFFFFFFFFFF AND DUP2 MSTORE POP POP DUP3 PUSH1 0x60 ADD MLOAD PUSH1 0xE0 DUP2 DUP2 MSTORE POP POP DUP3 PUSH1 0x80 ADD MLOAD PUSH2 0x100 DUP2 DUP2 MSTORE POP POP DUP3 PUSH1 0xA0 ADD MLOAD PUSH1 0x1 SWAP1 DUP2 PUSH2 0xE3 SWAP2 SWAP1 PUSH2 0x6D8 JUMP JUMPDEST POP DUP3 PUSH1 0x80 ADD MLOAD TIMESTAMP PUSH2 0xF4 SWAP2 SWAP1 PUSH2 0x7D9 JUMP JUMPDEST PUSH1 0x2 DUP2 SWAP1 SSTORE POP DUP3 PUSH1 0x20 ADD MLOAD PUSH1 0x3 PUSH1 0x0 PUSH2 0x100 EXP DUP2 SLOAD DUP2 PUSH20 0xFFFFFFFFFFFFFFFFFFFFFFFFFFFFFFFFFFFFFFFF MUL NOT AND SWAP1 DUP4 PUSH20 0xFFFFFFFFFFFFFFFFFFFFFFFFFFFFFFFFFFFFFFFF AND MUL OR SWAP1 SSTORE POP DUP2 PUSH20 0xFFFFFFFFFFFFFFFFFFFFFFFFFFFFFFFFFFFFFFFF AND PUSH2 0x120 DUP2 PUSH20 0xFFFFFFFFFFFFFFFFFFFFFFFFFFFFFFFFFFFFFFFF AND DUP2 MSTORE POP POP DUP1 PUSH1 0x4 DUP2 SWAP1 SSTORE POP POP POP POP PUSH2 0x80D JUMP JUMPDEST PUSH1 0x0 PUSH1 0x40 MLOAD SWAP1 POP SWAP1 JUMP JUMPDEST PUSH1 0x0 DUP1 REVERT JUMPDEST PUSH1 0x0 DUP1 REVERT JUMPDEST PUSH1 0x0 DUP1 REVERT JUMPDEST PUSH1 0x0 PUSH1 0x1F NOT PUSH1 0x1F DUP4 ADD AND SWAP1 POP SWAP2 SWAP1 POP JUMP JUMPDEST PUSH32 0x4E487B7100000000000000000000000000000000000000000000000000000000 PUSH1 0x0 MSTORE PUSH1 0x41 PUSH1 0x4 MSTORE PUSH1 0x24 PUSH1 0x0 REVERT JUMPDEST PUSH2 0x1E5 DUP3 PUSH2 0x19C JUMP JUMPDEST DUP2 ADD DUP2 DUP2 LT PUSH8 0xFFFFFFFFFFFFFFFF DUP3 GT OR ISZERO PUSH2 0x204 JUMPI PUSH2 0x203 PUSH2 0x1AD JUMP JUMPDEST JUMPDEST DUP1 PUSH1 0x40 MSTORE POP POP POP JUMP JUMPDEST PUSH1 0x0 PUSH2 0x217 PUSH2 0x183 JUMP JUMPDEST SWAP1 POP PUSH2 0x223 DUP3 DUP3 PUSH2 0x1DC JUMP JUMPDEST SWAP2 SWAP1 POP JUMP JUMPDEST PUSH1 0x0 DUP1 REVERT JUMPDEST PUSH1 0x0 DUP2 SWAP1 POP SWAP2 SWAP1 POP JUMP JUMPDEST PUSH2 0x240 DUP2 PUSH2 0x22D JUMP JUMPDEST DUP2 EQ PUSH2 0x24B JUMPI PUSH1 0x0 DUP1 REVERT JUMPDEST POP JUMP JUMPDEST PUSH1 0x0 DUP2 MLOAD SWAP1 POP PUSH2 0x25D DUP2 PUSH2 0x237 JUMP JUMPDEST SWAP3 SWAP2 POP POP JUMP JUMPDEST PUSH1 0x0 PUSH20 0xFFFFFFFFFFFFFFFFFFFFFFFFFFFFFFFFFFFFFFFF DUP3 AND SWAP1 POP SWAP2 SWAP1 POP JUMP JUMPDEST PUSH1 0x0 PUSH2 0x28E DUP3 PUSH2 0x263 JUMP JUMPDEST SWAP1 POP SWAP2 SWAP1 POP JUMP JUMPDEST PUSH2 0x29E DUP2 PUSH2 0x283 JUMP JUMPDEST DUP2 EQ PUSH2 0x2A9 JUMPI PUSH1 0x0 DUP1 REVERT JUMPDEST POP JUMP JUMPDEST PUSH1 0x0 DUP2 MLOAD SWAP1 POP PUSH2 0x2BB DUP2 PUSH2 0x295 JUMP JUMPDEST SWAP3 SWAP2 POP POP JUMP JUMPDEST PUSH1 0x0 DUP1 REVERT JUMPDEST PUSH1 0x0 DUP1 REVERT JUMPDEST PUSH1 0x0 PUSH8 0xFFFFFFFFFFFFFFFF DUP3 GT ISZERO PUSH2 0x2E6 JUMPI PUSH2 0x2E5 PUSH2 0x1AD JUMP JUMPDEST JUMPDEST PUSH2 0x2EF DUP3 PUSH2 0x19C JUMP JUMPDEST SWAP1 POP PUSH1 0x20 DUP2 ADD SWAP1 POP SWAP2 SWAP1 POP JUMP JUMPDEST PUSH1 0x0 JUMPDEST DUP4 DUP2 LT ISZERO PUSH2 0x31A JUMPI DUP1 DUP3 ADD MLOAD DUP2 DUP5 ADD MSTORE PUSH1 0x20 DUP2 ADD SWAP1 POP PUSH2 0x2FF JUMP JUMPDEST PUSH1 0x0 DUP5 DUP5 ADD MSTORE POP POP POP POP JUMP JUMPDEST PUSH1 0x0 PUSH2 0x339 PUSH2 0x334 DUP5 PUSH2 0x2CB JUMP JUMPDEST PUSH2 0x20D JUMP JUMPDEST SWAP1 POP DUP3 DUP2 MSTORE PUSH1 0x20 DUP2 ADD DUP5 DUP5 DUP5 ADD GT ISZERO PUSH2 0x355 JUMPI PUSH2 0x354 PUSH2 0x2C6 JUMP JUMPDEST JUMPDEST PUSH2 0x360 DUP5 DUP3 DUP6 PUSH2 0x2FC JUMP JUMPDEST POP SWAP4 SWAP3 POP POP POP JUMP JUMPDEST PUSH1 0x0 DUP3 PUSH1 0x1F DUP4 ADD SLT PUSH2 0x37D JUMPI PUSH2 0x37C PUSH2 0x2C1 JUMP JUMPDEST JUMPDEST DUP2 MLOAD PUSH2 0x38D DUP5 DUP3 PUSH1 0x20 DUP7 ADD PUSH2 0x326 JUMP JUMPDEST SWAP2 POP POP SWAP3 SWAP2 POP POP JUMP JUMPDEST PUSH1 0x0 PUSH1 0xC0 DUP3 DUP5 SUB SLT ISZERO PUSH2 0x3AC JUMPI PUSH2 0x3AB PUSH2 0x197 JUMP JUMPDEST JUMPDEST PUSH2 0x3B6 PUSH1 0xC0 PUSH2 0x20D JUMP JUMPDEST SWAP1 POP PUSH1 0x0 PUSH2 0x3C6 DUP5 DUP3 DUP6 ADD PUSH2 0x24E JUMP JUMPDEST PUSH1 0x0 DUP4 ADD MSTORE POP PUSH1 0x20 PUSH2 0x3DA DUP5 DUP3 DUP6 ADD PUSH2 0x2AC JUMP JUMPDEST PUSH1 0x20 DUP4 ADD MSTORE POP PUSH1 0x40 PUSH2 0x3EE DUP5 DUP3 DUP6 ADD PUSH2 0x2AC JUMP JUMPDEST PUSH1 0x40 DUP4 ADD MSTORE POP PUSH1 0x60 PUSH2 0x402 DUP5 DUP3 DUP6 ADD PUSH2 0x24E JUMP JUMPDEST PUSH1 0x60 DUP4 ADD MSTORE POP PUSH1 0x80 PUSH2 0x416 DUP5 DUP3 DUP6 ADD PUSH2 0x24E JUMP JUMPDEST PUSH1 0x80 DUP4 ADD MSTORE POP PUSH1 0xA0 DUP3 ADD MLOAD PUSH8 0xFFFFFFFFFFFFFFFF DUP2 GT ISZERO PUSH2 0x43A JUMPI PUSH2 0x439 PUSH2 0x228 JUMP JUMPDEST JUMPDEST PUSH2 0x446 DUP5 DUP3 DUP6 ADD PUSH2 0x368 JUMP JUMPDEST PUSH1 0xA0 DUP4 ADD MSTORE POP SWAP3 SWAP2 POP POP JUMP JUMPDEST PUSH1 0x0 DUP1 PUSH1 0x0 PUSH1 0x60 DUP5 DUP7 SUB SLT ISZERO PUSH2 0x46B JUMPI PUSH2 0x46A PUSH2 0x18D JUMP JUMPDEST JUMPDEST PUSH1 0x0 DUP5 ADD MLOAD PUSH8 0xFFFFFFFFFFFFFFFF DUP2 GT ISZERO PUSH2 0x489 JUMPI PUSH2 0x488 PUSH2 0x192 JUMP JUMPDEST JUMPDEST PUSH2 0x495 DUP7 DUP3 DUP8 ADD PUSH2 0x396 JUMP JUMPDEST SWAP4 POP POP PUSH1 0x20 PUSH2 0x4A6 DUP7 DUP3 DUP8 ADD PUSH2 0x2AC JUMP JUMPDEST SWAP3 POP POP PUSH1 0x40 PUSH2 0x4B7 DUP7 DUP3 DUP8 ADD PUSH2 0x24E JUMP JUMPDEST SWAP2 POP POP SWAP3 POP SWAP3 POP SWAP3 JUMP JUMPDEST PUSH1 0x0 DUP2 MLOAD SWAP1 POP SWAP2 SWAP1 POP JUMP JUMPDEST PUSH32 0x4E487B7100000000000000000000000000000000000000000000000000000000 PUSH1 0x0 MSTORE PUSH1 0x22 PUSH1 0x4 MSTORE PUSH1 0x24 PUSH1 0x0 REVERT JUMPDEST PUSH1 0x0 PUSH1 0x2 DUP3 DIV SWAP1 POP PUSH1 0x1 DUP3 AND DUP1 PUSH2 0x513 JUMPI PUSH1 0x7F DUP3 AND SWAP2 POP JUMPDEST PUSH1 0x20 DUP3 LT DUP2 SUB PUSH2 0x526 JUMPI PUSH2 0x525 PUSH2 0x4CC JUMP JUMPDEST JUMPDEST POP SWAP2 SWAP1 POP JUMP JUMPDEST PUSH1 0x0 DUP2 SWAP1 POP DUP2 PUSH1 0x0 MSTORE PUSH1 0x20 PUSH1 0x0 KECCAK256 SWAP1 POP SWAP2 SWAP1 POP JUMP JUMPDEST PUSH1 0x0 PUSH1 0x20 PUSH1 0x1F DUP4 ADD DIV SWAP1 POP SWAP2 SWAP1 POP JUMP JUMPDEST PUSH1 0x0 DUP3 DUP3 SHL SWAP1 POP SWAP3 SWAP2 POP POP JUMP JUMPDEST PUSH1 0x0 PUSH1 0x8 DUP4 MUL PUSH2 0x58E PUSH32 0xFFFFFFFFFFFFFFFFFFFFFFFFFFFFFFFFFFFFFFFFFFFFFFFFFFFFFFFFFFFFFFFF DUP3 PUSH2 0x551 JUMP JUMPDEST PUSH2 0x598 DUP7 DUP4 PUSH2 0x551 JUMP JUMPDEST SWAP6 POP DUP1 NOT DUP5 AND SWAP4 POP DUP1 DUP7 AND DUP5 OR SWAP3 POP POP POP SWAP4 SWAP3 POP POP POP JUMP JUMPDEST PUSH1 0x0 DUP2 SWAP1 POP SWAP2 SWAP1 POP JUMP JUMPDEST PUSH1 0x0 PUSH2 0x5D5 PUSH2 0x5D0 PUSH2 0x5CB DUP5 PUSH2 0x22D JUMP JUMPDEST PUSH2 0x5B0 JUMP JUMPDEST PUSH2 0x22D JUMP JUMPDEST SWAP1 POP SWAP2 SWAP1 POP JUMP JUMPDEST PUSH1 0x0 DUP2 SWAP1 POP SWAP2 SWAP1 POP JUMP JUMPDEST PUSH2 0x5EF DUP4 PUSH2 0x5BA JUMP JUMPDEST PUSH2 0x603 PUSH2 0x5FB DUP3 PUSH2 0x5DC JUMP JUMPDEST DUP5 DUP5 SLOAD PUSH2 0x55E JUMP JUMPDEST DUP3 SSTORE POP POP POP POP JUMP JUMPDEST PUSH1 0x0 SWAP1 JUMP JUMPDEST PUSH2 0x618 PUSH2 0x60B JUMP JUMPDEST PUSH2 0x623 DUP2 DUP5 DUP5 PUSH2 0x5E6 JUMP JUMPDEST POP POP POP JUMP JUMPDEST JUMPDEST DUP2 DUP2 LT ISZERO PUSH2 0x647 JUMPI PUSH2 0x63C PUSH1 0x0 DUP3 PUSH2 0x610 JUMP JUMPDEST PUSH1 0x1 DUP2 ADD SWAP1 POP PUSH2 0x629 JUMP JUMPDEST POP POP JUMP JUMPDEST PUSH1 0x1F DUP3 GT ISZERO PUSH2 0x68C JUMPI PUSH2 0x65D DUP2 PUSH2 0x52C JUMP JUMPDEST PUSH2 0x666 DUP5 PUSH2 0x541 JUMP JUMPDEST DUP2 ADD PUSH1 0x20 DUP6 LT ISZERO PUSH2 0x675 JUMPI DUP2 SWAP1 POP JUMPDEST PUSH2 0x689 PUSH2 0x681 DUP6 PUSH2 0x541 JUMP JUMPDEST DUP4 ADD DUP3 PUSH2 0x628 JUMP JUMPDEST POP POP JUMPDEST POP POP POP JUMP JUMPDEST PUSH1 0x0 DUP3 DUP3 SHR SWAP1 POP SWAP3 SWAP2 POP POP JUMP JUMPDEST PUSH1 0x0 PUSH2 0x6AF PUSH1 0x0 NOT DUP5 PUSH1 0x8 MUL PUSH2 0x691 JUMP JUMPDEST NOT DUP1 DUP4 AND SWAP2 POP POP SWAP3 SWAP2 POP POP JUMP JUMPDEST PUSH1 0x0 PUSH2 0x6C8 DUP4 DUP4 PUSH2 0x69E JUMP JUMPDEST SWAP2 POP DUP3 PUSH1 0x2 MUL DUP3 OR SWAP1 POP SWAP3 SWAP2 POP POP JUMP JUMPDEST PUSH2 0x6E1 DUP3 PUSH2 0x4C1 JUMP JUMPDEST PUSH8 0xFFFFFFFFFFFFFFFF DUP2 GT ISZERO PUSH2 0x6FA JUMPI PUSH2 0x6F9 PUSH2 0x1AD JUMP JUMPDEST JUMPDEST PUSH2 0x704 DUP3 SLOAD PUSH2 0x4FB JUMP JUMPDEST PUSH2 0x70F DUP3 DUP3 DUP6 PUSH2 0x64B JUMP JUMPDEST PUSH1 0x0 PUSH1 0x20 SWAP1 POP PUSH1 0x1F DUP4 GT PUSH1 0x1 DUP2 EQ PUSH2 0x742 JUMPI PUSH1 0x0 DUP5 ISZERO PUSH2 0x730 JUMPI DUP3 DUP8 ADD MLOAD SWAP1 POP JUMPDEST PUSH2 0x73A DUP6 DUP3 PUSH2 0x6BC JUMP JUMPDEST DUP7 SSTORE POP PUSH2 0x7A2 JUMP JUMPDEST PUSH1 0x1F NOT DUP5 AND PUSH2 0x750 DUP7 PUSH2 0x52C JUMP JUMPDEST PUSH1 0x0 JUMPDEST DUP3 DUP2 LT ISZERO PUSH2 0x778 JUMPI DUP5 DUP10 ADD MLOAD DUP3 SSTORE PUSH1 0x1 DUP3 ADD SWAP2 POP PUSH1 0x20 DUP6 ADD SWAP5 POP PUSH1 0x20 DUP2 ADD SWAP1 POP PUSH2 0x753 JUMP JUMPDEST DUP7 DUP4 LT ISZERO PUSH2 0x795 JUMPI DUP5 DUP10 ADD MLOAD PUSH2 0x791 PUSH1 0x1F DUP10 AND DUP3 PUSH2 0x69E JUMP JUMPDEST DUP4 SSTORE POP JUMPDEST PUSH1 0x1 PUSH1 0x2 DUP9 MUL ADD DUP9 SSTORE POP POP POP JUMPDEST POP POP POP POP POP POP JUMP JUMPDEST PUSH32 0x4E487B7100000000000000000000000000000000000000000000000000000000 PUSH1 0x0 MSTORE PUSH1 0x11 PUSH1 0x4 MSTORE PUSH1 0x24 PUSH1 0x0 REVERT JUMPDEST PUSH1 0x0 PUSH2 0x7E4 DUP3 PUSH2 0x22D JUMP JUMPDEST SWAP2 POP PUSH2 0x7EF DUP4 PUSH2 0x22D JUMP JUMPDEST SWAP3 POP DUP3 DUP3 ADD SWAP1 POP DUP1 DUP3 GT ISZERO PUSH2 0x807 JUMPI PUSH2 0x806 PUSH2 0x7AA JUMP JUMPDEST JUMPDEST SWAP3 SWAP2 POP POP JUMP JUMPDEST PUSH1 0x80 MLOAD PUSH1 0xA0 MLOAD PUSH1 0xC0 MLOAD PUSH1 0xE0 MLOAD PUSH2 0x100 MLOAD PUSH2 0x120 MLOAD PUSH2 0x139D PUSH2 0x89B PUSH1 0x0 CODECOPY PUSH1 0x0 DUP2 DUP2 PUSH2 0x4A6 ADD MSTORE PUSH2 0xA52 ADD MSTORE PUSH1 0x0 DUP2 DUP2 PUSH2 0x917 ADD MSTORE PUSH2 0x9E6 ADD MSTORE PUSH1 0x0 DUP2 DUP2 PUSH2 0x27F ADD MSTORE DUP2 DUP2 PUSH2 0x7B2 ADD MSTORE DUP2 DUP2 PUSH2 0x853 ADD MSTORE PUSH2 0x949 ADD MSTORE PUSH1 0x0 DUP2 DUP2 PUSH2 0x46A ADD MSTORE DUP2 DUP2 PUSH2 0x533 ADD MSTORE DUP2 DUP2 PUSH2 0x714 ADD MSTORE DUP2 DUP2 PUSH2 0x815 ADD MSTORE PUSH2 0xA2E ADD MSTORE PUSH1 0x0 PUSH2 0x2C1 ADD MSTORE PUSH1 0x0 PUSH2 0xA0A ADD MSTORE PUSH2 0x139D PUSH1 0x0 RETURN INVALID PUSH1 0x80 PUSH1 0x40 MSTORE CALLVALUE DUP1 ISZERO PUSH2 0x10 JUMPI PUSH1 0x0 DUP1 REVERT JUMPDEST POP PUSH1 0x4 CALLDATASIZE LT PUSH2 0xEA JUMPI PUSH1 0x0 CALLDATALOAD PUSH1 0xE0 SHR DUP1 PUSH4 0x7B61C320 GT PUSH2 0x8C JUMPI DUP1 PUSH4 0xAF640D0F GT PUSH2 0x66 JUMPI DUP1 PUSH4 0xAF640D0F EQ PUSH2 0x205 JUMPI DUP1 PUSH4 0xC3DFDAE6 EQ PUSH2 0x223 JUMPI DUP1 PUSH4 0xC415B95C EQ PUSH2 0x241 JUMPI DUP1 PUSH4 0xF1A1D3BA EQ PUSH2 0x25F JUMPI PUSH2 0xEA JUMP JUMPDEST DUP1 PUSH4 0x7B61C320 EQ PUSH2 0x1AD JUMPI DUP1 PUSH4 0x843B4386 EQ PUSH2 0x1CB JUMPI DUP1 PUSH4 0xA5D1C0C0 EQ PUSH2 0x1E7 JUMPI PUSH2 0xEA JUMP JUMPDEST DUP1 PUSH4 0x57C9CA14 GT PUSH2 0xC8 JUMPI DUP1 PUSH4 0x57C9CA14 EQ PUSH2 0x149 JUMPI DUP1 PUSH4 0x5C39FCC1 EQ PUSH2 0x167 JUMPI DUP1 PUSH4 0x70740AC9 EQ PUSH2 0x185 JUMPI DUP1 PUSH4 0x719CE73E EQ PUSH2 0x18F JUMPI PUSH2 0xEA JUMP JUMPDEST DUP1 PUSH4 0x13FAEDE6 EQ PUSH2 0xEF JUMPI DUP1 PUSH4 0x3197CBB6 EQ PUSH2 0x10D JUMPI DUP1 PUSH4 0x34FBC9A1 EQ PUSH2 0x12B JUMPI JUMPDEST PUSH1 0x0 DUP1 REVERT JUMPDEST PUSH2 0xF7 PUSH2 0x27D JUMP JUMPDEST PUSH1 0x40 MLOAD PUSH2 0x104 SWAP2 SWAP1 PUSH2 0xB03 JUMP JUMPDEST PUSH1 0x40 MLOAD DUP1 SWAP2 SUB SWAP1 RETURN JUMPDEST PUSH2 0x115 PUSH2 0x2A1 JUMP JUMPDEST PUSH1 0x40 MLOAD PUSH2 0x122 SWAP2 SWAP1 PUSH2 0xB03 JUMP JUMPDEST PUSH1 0x40 MLOAD DUP1 SWAP2 SUB SWAP1 RETURN JUMPDEST PUSH2 0x133 PUSH2 0x2A7 JUMP JUMPDEST PUSH1 0x40 MLOAD PUSH2 0x140 SWAP2 SWAP1 PUSH2 0xB03 JUMP JUMPDEST PUSH1 0x40 MLOAD DUP1 SWAP2 SUB SWAP1 RETURN JUMPDEST PUSH2 0x151 PUSH2 0x2AC JUMP JUMPDEST PUSH1 0x40 MLOAD PUSH2 0x15E SWAP2 SWAP1 PUSH2 0xB39 JUMP JUMPDEST PUSH1 0x40 MLOAD DUP1 SWAP2 SUB SWAP1 RETURN JUMPDEST PUSH2 0x16F PUSH2 0x2BF JUMP JUMPDEST PUSH1 0x40 MLOAD PUSH2 0x17C SWAP2 SWAP1 PUSH2 0xB95 JUMP JUMPDEST PUSH1 0x40 MLOAD DUP1 SWAP2 SUB SWAP1 RETURN JUMPDEST PUSH2 0x18D PUSH2 0x2E3 JUMP JUMPDEST STOP JUMPDEST PUSH2 0x197 PUSH2 0x630 JUMP JUMPDEST PUSH1 0x40 MLOAD PUSH2 0x1A4 SWAP2 SWAP1 PUSH2 0xB03 JUMP JUMPDEST PUSH1 0x40 MLOAD DUP1 SWAP2 SUB SWAP1 RETURN JUMPDEST PUSH2 0x1B5 PUSH2 0x636 JUMP JUMPDEST PUSH1 0x40 MLOAD PUSH2 0x1C2 SWAP2 SWAP1 PUSH2 0xC40 JUMP JUMPDEST PUSH1 0x40 MLOAD DUP1 SWAP2 SUB SWAP1 RETURN JUMPDEST PUSH2 0x1E5 PUSH1 0x4 DUP1 CALLDATASIZE SUB DUP2 ADD SWAP1 PUSH2 0x1E0 SWAP2 SWAP1 PUSH2 0xDAB JUMP JUMPDEST PUSH2 0x6C4 JUMP JUMPDEST STOP JUMPDEST PUSH2 0x1EF PUSH2 0x9E4 JUMP JUMPDEST PUSH1 0x40 MLOAD PUSH2 0x1FC SWAP2 SWAP1 PUSH2 0xB03 JUMP JUMPDEST PUSH1 0x40 MLOAD DUP1 SWAP2 SUB SWAP1 RETURN JUMPDEST PUSH2 0x20D PUSH2 0xA08 JUMP JUMPDEST PUSH1 0x40 MLOAD PUSH2 0x21A SWAP2 SWAP1 PUSH2 0xB03 JUMP JUMPDEST PUSH1 0x40 MLOAD DUP1 SWAP2 SUB SWAP1 RETURN JUMPDEST PUSH2 0x22B PUSH2 0xA2C JUMP JUMPDEST PUSH1 0x40 MLOAD PUSH2 0x238 SWAP2 SWAP1 PUSH2 0xB95 JUMP JUMPDEST PUSH1 0x40 MLOAD DUP1 SWAP2 SUB SWAP1 RETURN JUMPDEST PUSH2 0x249 PUSH2 0xA50 JUMP JUMPDEST PUSH1 0x40 MLOAD PUSH2 0x256 SWAP2 SWAP1 PUSH2 0xB95 JUMP JUMPDEST PUSH1 0x40 MLOAD DUP1 SWAP2 SUB SWAP1 RETURN JUMPDEST PUSH2 0x267 PUSH2 0xA74 JUMP JUMPDEST PUSH1 0x40 MLOAD PUSH2 0x274 SWAP2 SWAP1 PUSH2 0xB95 JUMP JUMPDEST PUSH1 0x40 MLOAD DUP1 SWAP2 SUB SWAP1 RETURN JUMPDEST PUSH32 0x0 DUP2 JUMP JUMPDEST PUSH1 0x2 SLOAD DUP2 JUMP JUMPDEST PUSH1 0x2 DUP2 JUMP JUMPDEST PUSH1 0x5 PUSH1 0x0 SWAP1 SLOAD SWAP1 PUSH2 0x100 EXP SWAP1 DIV PUSH1 0xFF AND DUP2 JUMP JUMPDEST PUSH32 0x0 DUP2 JUMP JUMPDEST PUSH2 0x2EB PUSH2 0xA9A JUMP JUMPDEST PUSH1 0x2 SLOAD TIMESTAMP LT ISZERO PUSH2 0x330 JUMPI PUSH1 0x40 MLOAD PUSH32 0x8C379A000000000000000000000000000000000000000000000000000000000 DUP2 MSTORE PUSH1 0x4 ADD PUSH2 0x327 SWAP1 PUSH2 0xE40 JUMP JUMPDEST PUSH1 0x40 MLOAD DUP1 SWAP2 SUB SWAP1 REVERT JUMPDEST PUSH1 0x3 PUSH1 0x0 SWAP1 SLOAD SWAP1 PUSH2 0x100 EXP SWAP1 DIV PUSH20 0xFFFFFFFFFFFFFFFFFFFFFFFFFFFFFFFFFFFFFFFF AND PUSH20 0xFFFFFFFFFFFFFFFFFFFFFFFFFFFFFFFFFFFFFFFF AND CALLER PUSH20 0xFFFFFFFFFFFFFFFFFFFFFFFFFFFFFFFFFFFFFFFF AND EQ PUSH2 0x3C0 JUMPI PUSH1 0x40 MLOAD PUSH32 0x8C379A000000000000000000000000000000000000000000000000000000000 DUP2 MSTORE PUSH1 0x4 ADD PUSH2 0x3B7 SWAP1 PUSH2 0xEAC JUMP JUMPDEST PUSH1 0x40 MLOAD DUP1 SWAP2 SUB SWAP1 REVERT JUMPDEST PUSH1 0x5 PUSH1 0x0 SWAP1 SLOAD SWAP1 PUSH2 0x100 EXP SWAP1 DIV PUSH1 0xFF AND ISZERO PUSH2 0x410 JUMPI PUSH1 0x40 MLOAD PUSH32 0x8C379A000000000000000000000000000000000000000000000000000000000 DUP2 MSTORE PUSH1 0x4 ADD PUSH2 0x407 SWAP1 PUSH2 0xF18 JUMP JUMPDEST PUSH1 0x40 MLOAD DUP1 SWAP2 SUB SWAP1 REVERT JUMPDEST PUSH1 0x1 PUSH1 0x5 PUSH1 0x0 PUSH2 0x100 EXP DUP2 SLOAD DUP2 PUSH1 0xFF MUL NOT AND SWAP1 DUP4 ISZERO ISZERO MUL OR SWAP1 SSTORE POP PUSH1 0x0 PUSH1 0x4 SLOAD SWAP1 POP PUSH1 0x0 PUSH1 0x64 PUSH1 0x2 DUP4 PUSH2 0x443 SWAP2 SWAP1 PUSH2 0xF67 JUMP JUMPDEST PUSH2 0x44D SWAP2 SWAP1 PUSH2 0xFD8 JUMP JUMPDEST SWAP1 POP PUSH1 0x0 DUP2 DUP4 PUSH2 0x45D SWAP2 SWAP1 PUSH2 0x1009 JUMP JUMPDEST SWAP1 POP PUSH1 0x0 DUP3 GT ISZERO PUSH2 0x528 JUMPI PUSH32 0x0 PUSH20 0xFFFFFFFFFFFFFFFFFFFFFFFFFFFFFFFFFFFFFFFF AND PUSH4 0xA9059CBB PUSH32 0x0 DUP5 PUSH1 0x40 MLOAD DUP4 PUSH4 0xFFFFFFFF AND PUSH1 0xE0 SHL DUP2 MSTORE PUSH1 0x4 ADD PUSH2 0x4E3 SWAP3 SWAP2 SWAP1 PUSH2 0x103D JUMP JUMPDEST PUSH1 0x20 PUSH1 0x40 MLOAD DUP1 DUP4 SUB DUP2 PUSH1 0x0 DUP8 GAS CALL ISZERO DUP1 ISZERO PUSH2 0x502 JUMPI RETURNDATASIZE PUSH1 0x0 DUP1 RETURNDATACOPY RETURNDATASIZE PUSH1 0x0 REVERT JUMPDEST POP POP POP POP PUSH1 0x40 MLOAD RETURNDATASIZE PUSH1 0x1F NOT PUSH1 0x1F DUP3 ADD AND DUP3 ADD DUP1 PUSH1 0x40 MSTORE POP DUP2 ADD SWAP1 PUSH2 0x526 SWAP2 SWAP1 PUSH2 0x1092 JUMP JUMPDEST POP JUMPDEST PUSH1 0x0 DUP2 GT ISZERO PUSH2 0x5D1 JUMPI PUSH32 0x0 PUSH20 0xFFFFFFFFFFFFFFFFFFFFFFFFFFFFFFFFFFFFFFFF AND PUSH4 0xA9059CBB CALLER DUP4 PUSH1 0x40 MLOAD DUP4 PUSH4 0xFFFFFFFF AND PUSH1 0xE0 SHL DUP2 MSTORE PUSH1 0x4 ADD PUSH2 0x58C SWAP3 SWAP2 SWAP1 PUSH2 0x103D JUMP JUMPDEST PUSH1 0x20 PUSH1 0x40 MLOAD DUP1 DUP4 SUB DUP2 PUSH1 0x0 DUP8 GAS CALL ISZERO DUP1 ISZERO PUSH2 0x5AB JUMPI RETURNDATASIZE PUSH1 0x0 DUP1 RETURNDATACOPY RETURNDATASIZE PUSH1 0x0 REVERT JUMPDEST POP POP POP POP PUSH1 0x40 MLOAD RETURNDATASIZE PUSH1 0x1F NOT PUSH1 0x1F DUP3 ADD AND DUP3 ADD DUP1 PUSH1 0x40 MSTORE POP DUP2 ADD SWAP1 PUSH2 0x5CF SWAP2 SWAP1 PUSH2 0x1092 JUMP JUMPDEST POP JUMPDEST CALLER PUSH20 0xFFFFFFFFFFFFFFFFFFFFFFFFFFFFFFFFFFFFFFFF AND PUSH32 0x701A77BD5E0B7B1FFFFE478C3C19E3CAADCA855782127FCA812C7CCD9646CDC4 DUP3 DUP5 TIMESTAMP PUSH1 0x40 MLOAD PUSH2 0x61B SWAP4 SWAP3 SWAP2 SWAP1 PUSH2 0x10BF JUMP JUMPDEST PUSH1 0x40 MLOAD DUP1 SWAP2 SUB SWAP1 LOG2 POP POP POP PUSH2 0x62E PUSH2 0xAE0 JUMP JUMPDEST JUMP JUMPDEST PUSH1 0x4 SLOAD DUP2 JUMP JUMPDEST PUSH1 0x1 DUP1 SLOAD PUSH2 0x643 SWAP1 PUSH2 0x1125 JUMP JUMPDEST DUP1 PUSH1 0x1F ADD PUSH1 0x20 DUP1 SWAP2 DIV MUL PUSH1 0x20 ADD PUSH1 0x40 MLOAD SWAP1 DUP2 ADD PUSH1 0x40 MSTORE DUP1 SWAP3 SWAP2 SWAP1 DUP2 DUP2 MSTORE PUSH1 0x20 ADD DUP3 DUP1 SLOAD PUSH2 0x66F SWAP1 PUSH2 0x1125 JUMP JUMPDEST DUP1 ISZERO PUSH2 0x6BC JUMPI DUP1 PUSH1 0x1F LT PUSH2 0x691 JUMPI PUSH2 0x100 DUP1 DUP4 SLOAD DIV MUL DUP4 MSTORE SWAP2 PUSH1 0x20 ADD SWAP2 PUSH2 0x6BC JUMP JUMPDEST DUP3 ADD SWAP2 SWAP1 PUSH1 0x0 MSTORE PUSH1 0x20 PUSH1 0x0 KECCAK256 SWAP1 JUMPDEST DUP2 SLOAD DUP2 MSTORE SWAP1 PUSH1 0x1 ADD SWAP1 PUSH1 0x20 ADD DUP1 DUP4 GT PUSH2 0x69F JUMPI DUP3 SWAP1 SUB PUSH1 0x1F AND DUP3 ADD SWAP2 JUMPDEST POP POP POP POP POP DUP2 JUMP JUMPDEST PUSH2 0x6CC PUSH2 0xA9A JUMP JUMPDEST PUSH1 0x2 SLOAD TIMESTAMP LT PUSH2 0x710 JUMPI PUSH1 0x40 MLOAD PUSH32 0x8C379A000000000000000000000000000000000000000000000000000000000 DUP2 MSTORE PUSH1 0x4 ADD PUSH2 0x707 SWAP1 PUSH2 0x11A2 JUMP JUMPDEST PUSH1 0x40 MLOAD DUP1 SWAP2 SUB SWAP1 REVERT JUMPDEST PUSH1 0x0 PUSH32 0x0 PUSH20 0xFFFFFFFFFFFFFFFFFFFFFFFFFFFFFFFFFFFFFFFF AND PUSH4 0xDD62ED3E CALLER ADDRESS PUSH1 0x40 MLOAD DUP4 PUSH4 0xFFFFFFFF AND PUSH1 0xE0 SHL DUP2 MSTORE PUSH1 0x4 ADD PUSH2 0x76D SWAP3 SWAP2 SWAP1 PUSH2 0x11C2 JUMP JUMPDEST PUSH1 0x20 PUSH1 0x40 MLOAD DUP1 DUP4 SUB DUP2 DUP7 GAS STATICCALL ISZERO DUP1 ISZERO PUSH2 0x78A JUMPI RETURNDATASIZE PUSH1 0x0 DUP1 RETURNDATACOPY RETURNDATASIZE PUSH1 0x0 REVERT JUMPDEST POP POP POP POP PUSH1 0x40 MLOAD RETURNDATASIZE PUSH1 0x1F NOT PUSH1 0x1F DUP3 ADD AND DUP3 ADD DUP1 PUSH1 0x40 MSTORE POP DUP2 ADD SWAP1 PUSH2 0x7AE SWAP2 SWAP1 PUSH2 0x1217 JUMP JUMPDEST SWAP1 POP PUSH32 0x0 DUP2 LT ISZERO PUSH2 0x813 JUMPI PUSH1 0x40 MLOAD PUSH32 0x8C379A000000000000000000000000000000000000000000000000000000000 DUP2 MSTORE PUSH1 0x4 ADD PUSH2 0x80A SWAP1 PUSH2 0x1290 JUMP JUMPDEST PUSH1 0x40 MLOAD DUP1 SWAP2 SUB SWAP1 REVERT JUMPDEST PUSH32 0x0 PUSH20 0xFFFFFFFFFFFFFFFFFFFFFFFFFFFFFFFFFFFFFFFF AND PUSH4 0x23B872DD CALLER ADDRESS PUSH32 0x0 PUSH1 0x40 MLOAD DUP5 PUSH4 0xFFFFFFFF AND PUSH1 0xE0 SHL DUP2 MSTORE PUSH1 0x4 ADD PUSH2 0x890 SWAP4 SWAP3 SWAP2 SWAP1 PUSH2 0x12B0 JUMP JUMPDEST PUSH1 0x20 PUSH1 0x40 MLOAD DUP1 DUP4 SUB DUP2 PUSH1 0x0 DUP8 GAS CALL ISZERO DUP1 ISZERO PUSH2 0x8AF JUMPI RETURNDATASIZE PUSH1 0x0 DUP1 RETURNDATACOPY RETURNDATASIZE PUSH1 0x0 REVERT JUMPDEST POP POP POP POP PUSH1 0x40 MLOAD RETURNDATASIZE PUSH1 0x1F NOT PUSH1 0x1F DUP3 ADD AND DUP3 ADD DUP1 PUSH1 0x40 MSTORE POP DUP2 ADD SWAP1 PUSH2 0x8D3 SWAP2 SWAP1 PUSH2 0x1092 JUMP JUMPDEST POP CALLER PUSH1 0x3 PUSH1 0x0 PUSH2 0x100 EXP DUP2 SLOAD DUP2 PUSH20 0xFFFFFFFFFFFFFFFFFFFFFFFFFFFFFFFFFFFFFFFF MUL NOT AND SWAP1 DUP4 PUSH20 0xFFFFFFFFFFFFFFFFFFFFFFFFFFFFFFFFFFFFFFFF AND MUL OR SWAP1 SSTORE POP PUSH32 0x0 TIMESTAMP PUSH2 0x941 SWAP2 SWAP1 PUSH2 0x12E7 JUMP JUMPDEST PUSH1 0x2 DUP2 SWAP1 SSTORE POP PUSH32 0x0 PUSH1 0x4 PUSH1 0x0 DUP3 DUP3 SLOAD PUSH2 0x979 SWAP2 SWAP1 PUSH2 0x12E7 JUMP JUMPDEST SWAP3 POP POP DUP2 SWAP1 SSTORE POP CALLER PUSH20 0xFFFFFFFFFFFFFFFFFFFFFFFFFFFFFFFFFFFFFFFF AND PUSH32 0xFA6BE5EE3D008B8D3452E8DE8BE3A9FD7B4B129129C95F2EAB53255A28804DA6 DUP4 PUSH1 0x2 SLOAD PUSH1 0x4 SLOAD TIMESTAMP PUSH1 0x40 MLOAD PUSH2 0x9D0 SWAP5 SWAP4 SWAP3 SWAP2 SWAP1 PUSH2 0x131B JUMP JUMPDEST PUSH1 0x40 MLOAD DUP1 SWAP2 SUB SWAP1 LOG2 POP PUSH2 0x9E1 PUSH2 0xAE0 JUMP JUMPDEST POP JUMP JUMPDEST PUSH32 0x0 DUP2 JUMP JUMPDEST PUSH32 0x0 DUP2 JUMP JUMPDEST PUSH32 0x0 DUP2 JUMP JUMPDEST PUSH32 0x0 DUP2 JUMP JUMPDEST PUSH1 0x3 PUSH1 0x0 SWAP1 SLOAD SWAP1 PUSH2 0x100 EXP SWAP1 DIV PUSH20 0xFFFFFFFFFFFFFFFFFFFFFFFFFFFFFFFFFFFFFFFF AND DUP2 JUMP JUMPDEST PUSH1 0x2 PUSH1 0x0 SLOAD SUB PUSH2 0xAD6 JUMPI PUSH1 0x40 MLOAD PUSH32 0x3EE5AEB500000000000000000000000000000000000000000000000000000000 DUP2 MSTORE PUSH1 0x4 ADD PUSH1 0x40 MLOAD DUP1 SWAP2 SUB SWAP1 REVERT JUMPDEST PUSH1 0x2 PUSH1 0x0 DUP2 SWAP1 SSTORE POP JUMP JUMPDEST PUSH1 0x1 PUSH1 0x0 DUP2 SWAP1 SSTORE POP JUMP JUMPDEST PUSH1 0x0 DUP2 SWAP1 POP SWAP2 SWAP1 POP JUMP JUMPDEST PUSH2 0xAFD DUP2 PUSH2 0xAEA JUMP JUMPDEST DUP3 MSTORE POP POP JUMP JUMPDEST PUSH1 0x0 PUSH1 0x20 DUP3 ADD SWAP1 POP PUSH2 0xB18 PUSH1 0x0 DUP4 ADD DUP5 PUSH2 0xAF4 JUMP JUMPDEST SWAP3 SWAP2 POP POP JUMP JUMPDEST PUSH1 0x0 DUP2 ISZERO ISZERO SWAP1 POP SWAP2 SWAP1 POP JUMP JUMPDEST PUSH2 0xB33 DUP2 PUSH2 0xB1E JUMP JUMPDEST DUP3 MSTORE POP POP JUMP JUMPDEST PUSH1 0x0 PUSH1 0x20 DUP3 ADD SWAP1 POP PUSH2 0xB4E PUSH1 0x0 DUP4 ADD DUP5 PUSH2 0xB2A JUMP JUMPDEST SWAP3 SWAP2 POP POP JUMP JUMPDEST PUSH1 0x0 PUSH20 0xFFFFFFFFFFFFFFFFFFFFFFFFFFFFFFFFFFFFFFFF DUP3 AND SWAP1 POP SWAP2 SWAP1 POP JUMP JUMPDEST PUSH1 0x0 PUSH2 0xB7F DUP3 PUSH2 0xB54 JUMP JUMPDEST SWAP1 POP SWAP2 SWAP1 POP JUMP JUMPDEST PUSH2 0xB8F DUP2 PUSH2 0xB74 JUMP JUMPDEST DUP3 MSTORE POP POP JUMP JUMPDEST PUSH1 0x0 PUSH1 0x20 DUP3 ADD SWAP1 POP PUSH2 0xBAA PUSH1 0x0 DUP4 ADD DUP5 PUSH2 0xB86 JUMP JUMPDEST SWAP3 SWAP2 POP POP JUMP JUMPDEST PUSH1 0x0 DUP2 MLOAD SWAP1 POP SWAP2 SWAP1 POP JUMP JUMPDEST PUSH1 0x0 DUP3 DUP3 MSTORE PUSH1 0x20 DUP3 ADD SWAP1 POP SWAP3 SWAP2 POP POP JUMP JUMPDEST PUSH1 0x0 JUMPDEST DUP4 DUP2 LT ISZERO PUSH2 0xBEA JUMPI DUP1 DUP3 ADD MLOAD DUP2 DUP5 ADD MSTORE PUSH1 0x20 DUP2 ADD SWAP1 POP PUSH2 0xBCF JUMP JUMPDEST PUSH1 0x0 DUP5 DUP5 ADD MSTORE POP POP POP POP JUMP JUMPDEST PUSH1 0x0 PUSH1 0x1F NOT PUSH1 0x1F DUP4 ADD AND SWAP1 POP SWAP2 SWAP1 POP JUMP JUMPDEST PUSH1 0x0 PUSH2 0xC12 DUP3 PUSH2 0xBB0 JUMP JUMPDEST PUSH2 0xC1C DUP2 DUP6 PUSH2 0xBBB JUMP JUMPDEST SWAP4 POP PUSH2 0xC2C DUP2 DUP6 PUSH1 0x20 DUP7 ADD PUSH2 0xBCC JUMP JUMPDEST PUSH2 0xC35 DUP2 PUSH2 0xBF6 JUMP JUMPDEST DUP5 ADD SWAP2 POP POP SWAP3 SWAP2 POP POP JUMP JUMPDEST PUSH1 0x0 PUSH1 0x20 DUP3 ADD SWAP1 POP DUP2 DUP2 SUB PUSH1 0x0 DUP4 ADD MSTORE PUSH2 0xC5A DUP2 DUP5 PUSH2 0xC07 JUMP JUMPDEST SWAP1 POP SWAP3 SWAP2 POP POP JUMP JUMPDEST PUSH1 0x0 PUSH1 0x40 MLOAD SWAP1 POP SWAP1 JUMP JUMPDEST PUSH1 0x0 DUP1 REVERT JUMPDEST PUSH1 0x0 DUP1 REVERT JUMPDEST PUSH1 0x0 DUP1 REVERT JUMPDEST PUSH1 0x0 DUP1 REVERT JUMPDEST PUSH32 0x4E487B7100000000000000000000000000000000000000000000000000000000 PUSH1 0x0 MSTORE PUSH1 0x41 PUSH1 0x4 MSTORE PUSH1 0x24 PUSH1 0x0 REVERT JUMPDEST PUSH2 0xCB8 DUP3 PUSH2 0xBF6 JUMP JUMPDEST DUP2 ADD DUP2 DUP2 LT PUSH8 0xFFFFFFFFFFFFFFFF DUP3 GT OR ISZERO PUSH2 0xCD7 JUMPI PUSH2 0xCD6 PUSH2 0xC80 JUMP JUMPDEST JUMPDEST DUP1 PUSH1 0x40 MSTORE POP POP POP JUMP JUMPDEST PUSH1 0x0 PUSH2 0xCEA PUSH2 0xC62 JUMP JUMPDEST SWAP1 POP PUSH2 0xCF6 DUP3 DUP3 PUSH2 0xCAF JUMP JUMPDEST SWAP2 SWAP1 POP JUMP JUMPDEST PUSH1 0x0 PUSH8 0xFFFFFFFFFFFFFFFF DUP3 GT ISZERO PUSH2 0xD16 JUMPI PUSH2 0xD15 PUSH2 0xC80 JUMP JUMPDEST JUMPDEST PUSH2 0xD1F DUP3 PUSH2 0xBF6 JUMP JUMPDEST SWAP1 POP PUSH1 0x20 DUP2 ADD SWAP1 POP SWAP2 SWAP1 POP JUMP JUMPDEST DUP3 DUP2 DUP4 CALLDATACOPY PUSH1 0x0 DUP4 DUP4 ADD MSTORE POP POP POP JUMP JUMPDEST PUSH1 0x0 PUSH2 0xD4E PUSH2 0xD49 DUP5 PUSH2 0xCFB JUMP JUMPDEST PUSH2 0xCE0 JUMP JUMPDEST SWAP1 POP DUP3 DUP2 MSTORE PUSH1 0x20 DUP2 ADD DUP5 DUP5 DUP5 ADD GT ISZERO PUSH2 0xD6A JUMPI PUSH2 0xD69 PUSH2 0xC7B JUMP JUMPDEST JUMPDEST PUSH2 0xD75 DUP5 DUP3 DUP6 PUSH2 0xD2C JUMP JUMPDEST POP SWAP4 SWAP3 POP POP POP JUMP JUMPDEST PUSH1 0x0 DUP3 PUSH1 0x1F DUP4 ADD SLT PUSH2 0xD92 JUMPI PUSH2 0xD91 PUSH2 0xC76 JUMP JUMPDEST JUMPDEST DUP2 CALLDATALOAD PUSH2 0xDA2 DUP5 DUP3 PUSH1 0x20 DUP7 ADD PUSH2 0xD3B JUMP JUMPDEST SWAP2 POP POP SWAP3 SWAP2 POP POP JUMP JUMPDEST PUSH1 0x0 PUSH1 0x20 DUP3 DUP5 SUB SLT ISZERO PUSH2 0xDC1 JUMPI PUSH2 0xDC0 PUSH2 0xC6C JUMP JUMPDEST JUMPDEST PUSH1 0x0 DUP3 ADD CALLDATALOAD PUSH8 0xFFFFFFFFFFFFFFFF DUP2 GT ISZERO PUSH2 0xDDF JUMPI PUSH2 0xDDE PUSH2 0xC71 JUMP JUMPDEST JUMPDEST PUSH2 0xDEB DUP5 DUP3 DUP6 ADD PUSH2 0xD7D JUMP JUMPDEST SWAP2 POP POP SWAP3 SWAP2 POP POP JUMP JUMPDEST PUSH32 0x47616D65206E6F7420656E646564207965740000000000000000000000000000 PUSH1 0x0 DUP3 ADD MSTORE POP JUMP JUMPDEST PUSH1 0x0 PUSH2 0xE2A PUSH1 0x12 DUP4 PUSH2 0xBBB JUMP JUMPDEST SWAP2 POP PUSH2 0xE35 DUP3 PUSH2 0xDF4 JUMP JUMPDEST PUSH1 0x20 DUP3 ADD SWAP1 POP SWAP2 SWAP1 POP JUMP JUMPDEST PUSH1 0x0 PUSH1 0x20 DUP3 ADD SWAP1 POP DUP2 DUP2 SUB PUSH1 0x0 DUP4 ADD MSTORE PUSH2 0xE59 DUP2 PUSH2 0xE1D JUMP JUMPDEST SWAP1 POP SWAP2 SWAP1 POP JUMP JUMPDEST PUSH32 0x4F6E6C792077696E6E65722063616E2077697468647261770000000000000000 PUSH1 0x0 DUP3 ADD MSTORE POP JUMP JUMPDEST PUSH1 0x0 PUSH2 0xE96 PUSH1 0x18 DUP4 PUSH2 0xBBB JUMP JUMPDEST SWAP2 POP PUSH2 0xEA1 DUP3 PUSH2 0xE60 JUMP JUMPDEST PUSH1 0x20 DUP3 ADD SWAP1 POP SWAP2 SWAP1 POP JUMP JUMPDEST PUSH1 0x0 PUSH1 0x20 DUP3 ADD SWAP1 POP DUP2 DUP2 SUB PUSH1 0x0 DUP4 ADD MSTORE PUSH2 0xEC5 DUP2 PUSH2 0xE89 JUMP JUMPDEST SWAP1 POP SWAP2 SWAP1 POP JUMP JUMPDEST PUSH32 0x5072697A6520616C726561647920636C61696D65640000000000000000000000 PUSH1 0x0 DUP3 ADD MSTORE POP JUMP JUMPDEST PUSH1 0x0 PUSH2 0xF02 PUSH1 0x15 DUP4 PUSH2 0xBBB JUMP JUMPDEST SWAP2 POP PUSH2 0xF0D DUP3 PUSH2 0xECC JUMP JUMPDEST PUSH1 0x20 DUP3 ADD SWAP1 POP SWAP2 SWAP1 POP JUMP JUMPDEST PUSH1 0x0 PUSH1 0x20 DUP3 ADD SWAP1 POP DUP2 DUP2 SUB PUSH1 0x0 DUP4 ADD MSTORE PUSH2 0xF31 DUP2 PUSH2 0xEF5 JUMP JUMPDEST SWAP1 POP SWAP2 SWAP1 POP JUMP JUMPDEST PUSH32 0x4E487B7100000000000000000000000000000000000000000000000000000000 PUSH1 0x0 MSTORE PUSH1 0x11 PUSH1 0x4 MSTORE PUSH1 0x24 PUSH1 0x0 REVERT JUMPDEST PUSH1 0x0 PUSH2 0xF72 DUP3 PUSH2 0xAEA JUMP JUMPDEST SWAP2 POP PUSH2 0xF7D DUP4 PUSH2 0xAEA JUMP JUMPDEST SWAP3 POP DUP3 DUP3 MUL PUSH2 0xF8B DUP2 PUSH2 0xAEA JUMP JUMPDEST SWAP2 POP DUP3 DUP3 DIV DUP5 EQ DUP4 ISZERO OR PUSH2 0xFA2 JUMPI PUSH2 0xFA1 PUSH2 0xF38 JUMP JUMPDEST JUMPDEST POP SWAP3 SWAP2 POP POP JUMP JUMPDEST PUSH32 0x4E487B7100000000000000000000000000000000000000000000000000000000 PUSH1 0x0 MSTORE PUSH1 0x12 PUSH1 0x4 MSTORE PUSH1 0x24 PUSH1 0x0 REVERT JUMPDEST PUSH1 0x0 PUSH2 0xFE3 DUP3 PUSH2 0xAEA JUMP JUMPDEST SWAP2 POP PUSH2 0xFEE DUP4 PUSH2 0xAEA JUMP JUMPDEST SWAP3 POP DUP3 PUSH2 0xFFE JUMPI PUSH2 0xFFD PUSH2 0xFA9 JUMP JUMPDEST JUMPDEST DUP3 DUP3 DIV SWAP1 POP SWAP3 SWAP2 POP POP JUMP JUMPDEST PUSH1 0x0 PUSH2 0x1014 DUP3 PUSH2 0xAEA JUMP JUMPDEST SWAP2 POP PUSH2 0x101F DUP4 PUSH2 0xAEA JUMP JUMPDEST SWAP3 POP DUP3 DUP3 SUB SWAP1 POP DUP2 DUP2 GT ISZERO PUSH2 0x1037 JUMPI PUSH2 0x1036 PUSH2 0xF38 JUMP JUMPDEST JUMPDEST SWAP3 SWAP2 POP POP JUMP JUMPDEST PUSH1 0x0 PUSH1 0x40 DUP3 ADD SWAP1 POP PUSH2 0x1052 PUSH1 0x0 DUP4 ADD DUP6 PUSH2 0xB86 JUMP JUMPDEST PUSH2 0x105F PUSH1 0x20 DUP4 ADD DUP5 PUSH2 0xAF4 JUMP JUMPDEST SWAP4 SWAP3 POP POP POP JUMP JUMPDEST PUSH2 0x106F DUP2 PUSH2 0xB1E JUMP JUMPDEST DUP2 EQ PUSH2 0x107A JUMPI PUSH1 0x0 DUP1 REVERT JUMPDEST POP JUMP JUMPDEST PUSH1 0x0 DUP2 MLOAD SWAP1 POP PUSH2 0x108C DUP2 PUSH2 0x1066 JUMP JUMPDEST SWAP3 SWAP2 POP POP JUMP JUMPDEST PUSH1 0x0 PUSH1 0x20 DUP3 DUP5 SUB SLT ISZERO PUSH2 0x10A8 JUMPI PUSH2 0x10A7 PUSH2 0xC6C JUMP JUMPDEST JUMPDEST PUSH1 0x0 PUSH2 0x10B6 DUP5 DUP3 DUP6 ADD PUSH2 0x107D JUMP JUMPDEST SWAP2 POP POP SWAP3 SWAP2 POP POP JUMP JUMPDEST PUSH1 0x0 PUSH1 0x60 DUP3 ADD SWAP1 POP PUSH2 0x10D4 PUSH1 0x0 DUP4 ADD DUP7 PUSH2 0xAF4 JUMP JUMPDEST PUSH2 0x10E1 PUSH1 0x20 DUP4 ADD DUP6 PUSH2 0xAF4 JUMP JUMPDEST PUSH2 0x10EE PUSH1 0x40 DUP4 ADD DUP5 PUSH2 0xAF4 JUMP JUMPDEST SWAP5 SWAP4 POP POP POP POP JUMP JUMPDEST PUSH32 0x4E487B7100000000000000000000000000000000000000000000000000000000 PUSH1 0x0 MSTORE PUSH1 0x22 PUSH1 0x4 MSTORE PUSH1 0x24 PUSH1 0x0 REVERT JUMPDEST PUSH1 0x0 PUSH1 0x2 DUP3 DIV SWAP1 POP PUSH1 0x1 DUP3 AND DUP1 PUSH2 0x113D JUMPI PUSH1 0x7F DUP3 AND SWAP2 POP JUMPDEST PUSH1 0x20 DUP3 LT DUP2 SUB PUSH2 0x1150 JUMPI PUSH2 0x114F PUSH2 0x10F6 JUMP JUMPDEST JUMPDEST POP SWAP2 SWAP1 POP JUMP JUMPDEST PUSH32 0x47616D6520616C726561647920656E6465640000000000000000000000000000 PUSH1 0x0 DUP3 ADD MSTORE POP JUMP JUMPDEST PUSH1 0x0 PUSH2 0x118C PUSH1 0x12 DUP4 PUSH2 0xBBB JUMP JUMPDEST SWAP2 POP PUSH2 0x1197 DUP3 PUSH2 0x1156 JUMP JUMPDEST PUSH1 0x20 DUP3 ADD SWAP1 POP SWAP2 SWAP1 POP JUMP JUMPDEST PUSH1 0x0 PUSH1 0x20 DUP3 ADD SWAP1 POP DUP2 DUP2 SUB PUSH1 0x0 DUP4 ADD MSTORE PUSH2 0x11BB DUP2 PUSH2 0x117F JUMP JUMPDEST SWAP1 POP SWAP2 SWAP1 POP JUMP JUMPDEST PUSH1 0x0 PUSH1 0x40 DUP3 ADD SWAP1 POP PUSH2 0x11D7 PUSH1 0x0 DUP4 ADD DUP6 PUSH2 0xB86 JUMP JUMPDEST PUSH2 0x11E4 PUSH1 0x20 DUP4 ADD DUP5 PUSH2 0xB86 JUMP JUMPDEST SWAP4 SWAP3 POP POP POP JUMP JUMPDEST PUSH2 0x11F4 DUP2 PUSH2 0xAEA JUMP JUMPDEST DUP2 EQ PUSH2 0x11FF JUMPI PUSH1 0x0 DUP1 REVERT JUMPDEST POP JUMP JUMPDEST PUSH1 0x0 DUP2 MLOAD SWAP1 POP PUSH2 0x1211 DUP2 PUSH2 0x11EB JUMP JUMPDEST SWAP3 SWAP2 POP POP JUMP JUMPDEST PUSH1 0x0 PUSH1 0x20 DUP3 DUP5 SUB SLT ISZERO PUSH2 0x122D JUMPI PUSH2 0x122C PUSH2 0xC6C JUMP JUMPDEST JUMPDEST PUSH1 0x0 PUSH2 0x123B DUP5 DUP3 DUP6 ADD PUSH2 0x1202 JUMP JUMPDEST SWAP2 POP POP SWAP3 SWAP2 POP POP JUMP JUMPDEST PUSH32 0x45524332303A204D75737420617070726F766520746F6B656E20666972737400 PUSH1 0x0 DUP3 ADD MSTORE POP JUMP JUMPDEST PUSH1 0x0 PUSH2 0x127A PUSH1 0x1F DUP4 PUSH2 0xBBB JUMP JUMPDEST SWAP2 POP PUSH2 0x1285 DUP3 PUSH2 0x1244 JUMP JUMPDEST PUSH1 0x20 DUP3 ADD SWAP1 POP SWAP2 SWAP1 POP JUMP JUMPDEST PUSH1 0x0 PUSH1 0x20 DUP3 ADD SWAP1 POP DUP2 DUP2 SUB PUSH1 0x0 DUP4 ADD MSTORE PUSH2 0x12A9 DUP2 PUSH2 0x126D JUMP JUMPDEST SWAP1 POP SWAP2 SWAP1 POP JUMP JUMPDEST PUSH1 0x0 PUSH1 0x60 DUP3 ADD SWAP1 POP PUSH2 0x12C5 PUSH1 0x0 DUP4 ADD DUP7 PUSH2 0xB86 JUMP JUMPDEST PUSH2 0x12D2 PUSH1 0x20 DUP4 ADD DUP6 PUSH2 0xB86 JUMP JUMPDEST PUSH2 0x12DF PUSH1 0x40 DUP4 ADD DUP5 PUSH2 0xAF4 JUMP JUMPDEST SWAP5 SWAP4 POP POP POP POP JUMP JUMPDEST PUSH1 0x0 PUSH2 0x12F2 DUP3 PUSH2 0xAEA JUMP JUMPDEST SWAP2 POP PUSH2 0x12FD DUP4 PUSH2 0xAEA JUMP JUMPDEST SWAP3 POP DUP3 DUP3 ADD SWAP1 POP DUP1 DUP3 GT ISZERO PUSH2 0x1315 JUMPI PUSH2 0x1314 PUSH2 0xF38 JUMP JUMPDEST JUMPDEST SWAP3 SWAP2 POP POP JUMP JUMPDEST PUSH1 0x0 PUSH1 0x80 DUP3 ADD SWAP1 POP DUP2 DUP2 SUB PUSH1 0x0 DUP4 ADD MSTORE PUSH2 0x1335 DUP2 DUP8 PUSH2 0xC07 JUMP JUMPDEST SWAP1 POP PUSH2 0x1344 PUSH1 0x20 DUP4 ADD DUP7 PUSH2 0xAF4 JUMP JUMPDEST PUSH2 0x1351 PUSH1 0x40 DUP4 ADD DUP6 PUSH2 0xAF4 JUMP JUMPDEST PUSH2 0x135E PUSH1 0x60 DUP4 ADD DUP5 PUSH2 0xAF4 JUMP JUMPDEST SWAP6 SWAP5 POP POP POP POP POP JUMP INVALID LOG2 PUSH5 0x6970667358 0x22 SLT KECCAK256 PUSH20 0x10B54B74C6C5E5609CC44DE904F7250CAE72E2AB LOG1 0xC1 DIV 0xDC DUP16 COINBASE DUP2 NUMBER 0x21 0xC8 BLOCKHASH PUSH5 0x736F6C6343 STOP ADDMOD SHR STOP CALLER "},"methodIdentifiers":{"PLATFORM_FEE()":"34fbc9a1","addComment(string)":"843b4386","claimPrize()":"70740ac9","cost()":"13faede6","endTime()":"3197cbb6","feeCollector()":"c415b95c","gameTime()":"a5d1c0c0","gameToken()":"c3dfdae6","id()":"af640d0f","initiator()":"5c39fcc1","isClaimed()":"57c9ca14","lastCommentor()":"f1a1d3ba","prizePool()":"719ce73e","tokenSymbol()":"7b61c320"}}}}}