{
  "_format": "hh3-artifact-1",
  "contractName": "GameFactory",
  "sourceName": "contracts/GameFactory.sol",
  "abi": [
    {
      "inputs": [
        {
          "internalType": "address",
          "name": "_feeCollector",
          "type": "address"
        }
      ],
      "stateMutability": "nonpayable",
      "type": "constructor"
    },
    {
      "inputs": [
        {
          "internalType": "address",
          "name": "owner",
          "type": "address"
        }
      ],
      "name": "OwnableInvalidOwner",
      "type": "error"
    },
    {
      "inputs": [
        {
          "internalType": "address",
          "name": "account",
          "type": "address"
        }
      ],
      "name": "OwnableUnauthorizedAccount",
      "type": "error"
    },
    {
      "anonymous": false,
      "inputs": [
        {
          "indexed": false,
          "internalType": "uint256",
          "name": "gameId",
          "type": "uint256"
        },
        {
          "indexed": true,
          "internalType": "address",
          "name": "gameAddr",
          "type": "address"
        },
        {
          "indexed": true,
          "internalType": "address",
          "name": "gameTokenAddr",
          "type": "address"
        },
        {
          "indexed": false,
          "internalType": "address",
          "name": "initiator",
          "type": "address"
        },
        {
          "indexed": false,
          "internalType": "uint256",
          "name": "gameTime",
          "type": "uint256"
        },
        {
          "indexed": false,
          "internalType": "uint256",
          "name": "endTime",
          "type": "uint256"
        },
        {
          "indexed": false,
          "internalType": "uint256",
          "name": "cost",
          "type": "uint256"
        },
        {
          "indexed": false,
          "internalType": "uint256",
          "name": "prizePool",
          "type": "uint256"
        },
        {
          "indexed": false,
          "internalType": "address",
          "name": "lastCommentor",
          "type": "address"
        },
        {
          "indexed": false,
          "internalType": "bool",
          "name": "isEnded",
          "type": "bool"
        }
      ],
      "name": "GameCreated",
      "type": "event"
    },
    {
      "anonymous": false,
      "inputs": [
        {
          "indexed": true,
          "internalType": "address",
          "name": "previousOwner",
          "type": "address"
        },
        {
          "indexed": true,
          "internalType": "address",
          "name": "newOwner",
          "type": "address"
        }
      ],
      "name": "OwnershipTransferred",
      "type": "event"
    },
    {
      "inputs": [
        {
          "internalType": "address",
          "name": "_gameToken",
          "type": "address"
        },
        {
          "internalType": "uint256",
          "name": "_time",
          "type": "uint256"
        },
        {
          "internalType": "uint256",
          "name": "_cost",
          "type": "uint256"
        }
      ],
      "name": "createGame",
      "outputs": [],
      "stateMutability": "nonpayable",
      "type": "function"
    },
    {
      "inputs": [
        {
          "internalType": "uint256",
          "name": "",
          "type": "uint256"
        }
      ],
      "name": "deployedGames",
      "outputs": [
        {
          "internalType": "address",
          "name": "",
          "type": "address"
        }
      ],
      "stateMutability": "view",
      "type": "function"
    },
    {
      "inputs": [],
      "name": "feeCollector",
      "outputs": [
        {
          "internalType": "address",
          "name": "",
          "type": "address"
        }
      ],
      "stateMutability": "view",
      "type": "function"
    },
    {
      "inputs": [],
      "name": "gameIdCounter",
      "outputs": [
        {
          "internalType": "uint256",
          "name": "",
          "type": "uint256"
        }
      ],
      "stateMutability": "view",
      "type": "function"
    },
    {
      "inputs": [],
      "name": "owner",
      "outputs": [
        {
          "internalType": "address",
          "name": "",
          "type": "address"
        }
      ],
      "stateMutability": "view",
      "type": "function"
    },
    {
      "inputs": [],
      "name": "renounceOwnership",
      "outputs": [],
      "stateMutability": "nonpayable",
      "type": "function"
    },
    {
      "inputs": [
        {
          "internalType": "address",
          "name": "_newCollector",
          "type": "address"
        }
      ],
      "name": "setFeeCollector",
      "outputs": [],
      "stateMutability": "nonpayable",
      "type": "function"
    },
    {
      "inputs": [
        {
          "internalType": "address",
          "name": "newOwner",
          "type": "address"
        }
      ],
      "name": "transferOwnership",
      "outputs": [],
      "stateMutability": "nonpayable",
      "type": "function"
    }
  ],
  "bytecode": "0x608060405234801561000f575f5ffd5b5060405161263a38038061263a83398181016040528101906100319190610217565b335f73ffffffffffffffffffffffffffffffffffffffff168173ffffffffffffffffffffffffffffffffffffffff16036100a2575f6040517f1e4fbdf70000000000000000000000000000000000000000000000000000000081526004016100999190610251565b60405180910390fd5b6100b1816100f860201b60201c565b508060025f6101000a81548173ffffffffffffffffffffffffffffffffffffffff021916908373ffffffffffffffffffffffffffffffffffffffff1602179055505061026a565b5f5f5f9054906101000a900473ffffffffffffffffffffffffffffffffffffffff169050815f5f6101000a81548173ffffffffffffffffffffffffffffffffffffffff021916908373ffffffffffffffffffffffffffffffffffffffff1602179055508173ffffffffffffffffffffffffffffffffffffffff168173ffffffffffffffffffffffffffffffffffffffff167f8be0079c531659141344cd1fd0a4f28419497f9722a3daafe3b4186f6b6457e060405160405180910390a35050565b5f5ffd5b5f73ffffffffffffffffffffffffffffffffffffffff82169050919050565b5f6101e6826101bd565b9050919050565b6101f6816101dc565b8114610200575f5ffd5b50565b5f81519050610211816101ed565b92915050565b5f6020828403121561022c5761022b6101b9565b5b5f61023984828501610203565b91505092915050565b61024b816101dc565b82525050565b5f6020820190506102645f830184610242565b92915050565b6123c3806102775f395ff3fe608060405234801561000f575f5ffd5b5060043610610086575f3560e01c80638da5cb5b116100595780638da5cb5b146100fe578063a42dce801461011c578063c415b95c14610138578063f2fde38b1461015657610086565b80631bb412d61461008a5780633b17469e146100a8578063657908d1146100c4578063715018a6146100f4575b5f5ffd5b610092610172565b60405161009f91906109c1565b60405180910390f35b6100c260048036038101906100bd9190610a62565b610178565b005b6100de60048036038101906100d99190610ab2565b6106e4565b6040516100eb9190610aec565b60405180910390f35b6100fc61071f565b005b610106610732565b6040516101139190610aec565b60405180910390f35b61013660048036038101906101319190610b05565b610759565b005b6101406107a4565b60405161014d9190610aec565b60405180910390f35b610170600480360381019061016b9190610b05565b6107c9565b005b60015481565b60015f81548092919061018a90610b5d565b91905055505f6040518060a0016040528060015481526020013373ffffffffffffffffffffffffffffffffffffffff1681526020018573ffffffffffffffffffffffffffffffffffffffff1681526020018381526020018481525090505f8160025f9054906101000a900473ffffffffffffffffffffffffffffffffffffffff166040516102179061099c565b610222929190610c28565b604051809103905ff08015801561023b573d5f5f3e3d5ffd5b509050600381908060018154018082558091505060019003905f5260205f20015f9091909190916101000a81548173ffffffffffffffffffffffffffffffffffffffff021916908373ffffffffffffffffffffffffffffffffffffffff1602179055508073ffffffffffffffffffffffffffffffffffffffff1663c3dfdae66040518163ffffffff1660e01b8152600401602060405180830381865afa1580156102e7573d5f5f3e3d5ffd5b505050506040513d601f19601f8201168201806040525081019061030b9190610c63565b73ffffffffffffffffffffffffffffffffffffffff168173ffffffffffffffffffffffffffffffffffffffff167f638bd49eab251aebf0582ea2b6a3bafc2654e07f970a97322dbf6dfd45a1ffcd8373ffffffffffffffffffffffffffffffffffffffff1663af640d0f6040518163ffffffff1660e01b8152600401602060405180830381865afa1580156103a2573d5f5f3e3d5ffd5b505050506040513d601f19601f820116820180604052508101906103c69190610ca2565b8473ffffffffffffffffffffffffffffffffffffffff16635c39fcc16040518163ffffffff1660e01b8152600401602060405180830381865afa15801561040f573d5f5f3e3d5ffd5b505050506040513d601f19601f820116820180604052508101906104339190610c63565b8573ffffffffffffffffffffffffffffffffffffffff1663a5d1c0c06040518163ffffffff1660e01b8152600401602060405180830381865afa15801561047c573d5f5f3e3d5ffd5b505050506040513d601f19601f820116820180604052508101906104a09190610ca2565b8673ffffffffffffffffffffffffffffffffffffffff16633197cbb66040518163ffffffff1660e01b8152600401602060405180830381865afa1580156104e9573d5f5f3e3d5ffd5b505050506040513d601f19601f8201168201806040525081019061050d9190610ca2565b8773ffffffffffffffffffffffffffffffffffffffff166313faede66040518163ffffffff1660e01b8152600401602060405180830381865afa158015610556573d5f5f3e3d5ffd5b505050506040513d601f19601f8201168201806040525081019061057a9190610ca2565b8873ffffffffffffffffffffffffffffffffffffffff1663719ce73e6040518163ffffffff1660e01b8152600401602060405180830381865afa1580156105c3573d5f5f3e3d5ffd5b505050506040513d601f19601f820116820180604052508101906105e79190610ca2565b8973ffffffffffffffffffffffffffffffffffffffff1663f1a1d3ba6040518163ffffffff1660e01b8152600401602060405180830381865afa158015610630573d5f5f3e3d5ffd5b505050506040513d601f19601f820116820180604052508101906106549190610c63565b8a73ffffffffffffffffffffffffffffffffffffffff1663a4fd6f566040518163ffffffff1660e01b8152600401602060405180830381865afa15801561069d573d5f5f3e3d5ffd5b505050506040513d601f19601f820116820180604052508101906106c19190610d02565b6040516106d5989796959493929190610d3c565b60405180910390a35050505050565b600381815481106106f3575f80fd5b905f5260205f20015f915054906101000a900473ffffffffffffffffffffffffffffffffffffffff1681565b61072761084d565b6107305f6108d4565b565b5f5f5f9054906101000a900473ffffffffffffffffffffffffffffffffffffffff16905090565b61076161084d565b8060025f6101000a81548173ffffffffffffffffffffffffffffffffffffffff021916908373ffffffffffffffffffffffffffffffffffffffff16021790555050565b60025f9054906101000a900473ffffffffffffffffffffffffffffffffffffffff1681565b6107d161084d565b5f73ffffffffffffffffffffffffffffffffffffffff168173ffffffffffffffffffffffffffffffffffffffff1603610841575f6040517f1e4fbdf70000000000000000000000000000000000000000000000000000000081526004016108389190610aec565b60405180910390fd5b61084a816108d4565b50565b610855610995565b73ffffffffffffffffffffffffffffffffffffffff16610873610732565b73ffffffffffffffffffffffffffffffffffffffff16146108d257610896610995565b6040517f118cdaa70000000000000000000000000000000000000000000000000000000081526004016108c99190610aec565b60405180910390fd5b565b5f5f5f9054906101000a900473ffffffffffffffffffffffffffffffffffffffff169050815f5f6101000a81548173ffffffffffffffffffffffffffffffffffffffff021916908373ffffffffffffffffffffffffffffffffffffffff1602179055508173ffffffffffffffffffffffffffffffffffffffff168173ffffffffffffffffffffffffffffffffffffffff167f8be0079c531659141344cd1fd0a4f28419497f9722a3daafe3b4186f6b6457e060405160405180910390a35050565b5f33905090565b6115d580610db983390190565b5f819050919050565b6109bb816109a9565b82525050565b5f6020820190506109d45f8301846109b2565b92915050565b5f5ffd5b5f73ffffffffffffffffffffffffffffffffffffffff82169050919050565b5f610a07826109de565b9050919050565b610a17816109fd565b8114610a21575f5ffd5b50565b5f81359050610a3281610a0e565b92915050565b610a41816109a9565b8114610a4b575f5ffd5b50565b5f81359050610a5c81610a38565b92915050565b5f5f5f60608486031215610a7957610a786109da565b5b5f610a8686828701610a24565b9350506020610a9786828701610a4e565b9250506040610aa886828701610a4e565b9150509250925092565b5f60208284031215610ac757610ac66109da565b5b5f610ad484828501610a4e565b91505092915050565b610ae6816109fd565b82525050565b5f602082019050610aff5f830184610add565b92915050565b5f60208284031215610b1a57610b196109da565b5b5f610b2784828501610a24565b91505092915050565b7f4e487b71000000000000000000000000000000000000000000000000000000005f52601160045260245ffd5b5f610b67826109a9565b91507fffffffffffffffffffffffffffffffffffffffffffffffffffffffffffffffff8203610b9957610b98610b30565b5b600182019050919050565b610bad816109a9565b82525050565b610bbc816109fd565b82525050565b60a082015f820151610bd65f850182610ba4565b506020820151610be96020850182610bb3565b506040820151610bfc6040850182610bb3565b506060820151610c0f6060850182610ba4565b506080820151610c226080850182610ba4565b50505050565b5f60c082019050610c3b5f830185610bc2565b610c4860a0830184610add565b9392505050565b5f81519050610c5d81610a0e565b92915050565b5f60208284031215610c7857610c776109da565b5b5f610c8584828501610c4f565b91505092915050565b5f81519050610c9c81610a38565b92915050565b5f60208284031215610cb757610cb66109da565b5b5f610cc484828501610c8e565b91505092915050565b5f8115159050919050565b610ce181610ccd565b8114610ceb575f5ffd5b50565b5f81519050610cfc81610cd8565b92915050565b5f60208284031215610d1757610d166109da565b5b5f610d2484828501610cee565b91505092915050565b610d3681610ccd565b82525050565b5f61010082019050610d505f83018b6109b2565b610d5d602083018a610add565b610d6a60408301896109b2565b610d7760608301886109b2565b610d8460808301876109b2565b610d9160a08301866109b2565b610d9e60c0830185610add565b610dab60e0830184610d2d565b999850505050505050505056fe610140604052348015610010575f5ffd5b506040516115d53803806115d583398181016040528101906100329190610319565b60015f81905550815f015160808181525050816020015173ffffffffffffffffffffffffffffffffffffffff1660a08173ffffffffffffffffffffffffffffffffffffffff1681525050816040015173ffffffffffffffffffffffffffffffffffffffff1660c08173ffffffffffffffffffffffffffffffffffffffff1681525050816060015160e08181525050816080015161010081815250508160800151426100dd9190610384565b600181905550816020015160025f6101000a81548173ffffffffffffffffffffffffffffffffffffffff021916908373ffffffffffffffffffffffffffffffffffffffff1602179055508073ffffffffffffffffffffffffffffffffffffffff166101208173ffffffffffffffffffffffffffffffffffffffff16815250505f60038190555050506103b7565b5f604051905090565b5f5ffd5b5f5ffd5b5f601f19601f8301169050919050565b7f4e487b71000000000000000000000000000000000000000000000000000000005f52604160045260245ffd5b6101c18261017b565b810181811067ffffffffffffffff821117156101e0576101df61018b565b5b80604052505050565b5f6101f261016a565b90506101fe82826101b8565b919050565b5f819050919050565b61021581610203565b811461021f575f5ffd5b50565b5f815190506102308161020c565b92915050565b5f73ffffffffffffffffffffffffffffffffffffffff82169050919050565b5f61025f82610236565b9050919050565b61026f81610255565b8114610279575f5ffd5b50565b5f8151905061028a81610266565b92915050565b5f60a082840312156102a5576102a4610177565b5b6102af60a06101e9565b90505f6102be84828501610222565b5f8301525060206102d18482850161027c565b60208301525060406102e58482850161027c565b60408301525060606102f984828501610222565b606083015250608061030d84828501610222565b60808301525092915050565b5f5f60c0838503121561032f5761032e610173565b5b5f61033c85828601610290565b92505060a061034d8582860161027c565b9150509250929050565b7f4e487b71000000000000000000000000000000000000000000000000000000005f52601160045260245ffd5b5f61038e82610203565b915061039983610203565b92508282019050808211156103b1576103b0610357565b5b92915050565b60805160a05160c05160e051610100516101205161119861043d5f395f8181610450015261096e01525f8181610822015261090201525f8181610243015281816106c101528181610762015261085401525f8181610414015281816104d90152818161062501528181610724015261094a01525f61027201525f61092601526111985ff3fe608060405234801561000f575f5ffd5b50600436106100cd575f3560e01c8063843b43861161008a578063af640d0f11610064578063af640d0f146101c9578063c3dfdae6146101e7578063c415b95c14610205578063f1a1d3ba14610223576100cd565b8063843b438614610171578063a4fd6f561461018d578063a5d1c0c0146101ab576100cd565b806313faede6146100d15780633197cbb6146100ef57806334fbc9a11461010d5780635c39fcc11461012b57806370740ac914610149578063719ce73e14610153575b5f5ffd5b6100d9610241565b6040516100e69190610a1a565b60405180910390f35b6100f7610265565b6040516101049190610a1a565b60405180910390f35b61011561026b565b6040516101229190610a1a565b60405180910390f35b610133610270565b6040516101409190610a72565b60405180910390f35b610151610294565b005b61015b610581565b6040516101689190610a1a565b60405180910390f35b61018b60048036038101906101869190610bd8565b610587565b005b6101956108ee565b6040516101a29190610c39565b60405180910390f35b6101b3610900565b6040516101c09190610a1a565b60405180910390f35b6101d1610924565b6040516101de9190610a1a565b60405180910390f35b6101ef610948565b6040516101fc9190610a72565b60405180910390f35b61020d61096c565b60405161021a9190610a72565b60405180910390f35b61022b610990565b6040516102389190610a72565b60405180910390f35b7f000000000000000000000000000000000000000000000000000000000000000081565b60015481565b600281565b7f000000000000000000000000000000000000000000000000000000000000000081565b61029c6109b5565b6001544210156102e1576040517f08c379a00000000000000000000000000000000000000000000000000000000081526004016102d890610cac565b60405180910390fd5b60025f9054906101000a900473ffffffffffffffffffffffffffffffffffffffff1673ffffffffffffffffffffffffffffffffffffffff163373ffffffffffffffffffffffffffffffffffffffff1614610370576040517f08c379a000000000000000000000000000000000000000000000000000000000815260040161036790610d14565b60405180910390fd5b60045f9054906101000a900460ff16156103bf576040517f08c379a00000000000000000000000000000000000000000000000000000000081526004016103b690610d7c565b60405180910390fd5b600160045f6101000a81548160ff0219169083151502179055505f60035490505f60646002836103ef9190610dc7565b6103f99190610e35565b90505f81836104089190610e65565b90505f8211156104cf577f000000000000000000000000000000000000000000000000000000000000000073ffffffffffffffffffffffffffffffffffffffff1663a9059cbb7f0000000000000000000000000000000000000000000000000000000000000000846040518363ffffffff1660e01b815260040161048d929190610e98565b6020604051808303815f875af11580156104a9573d5f5f3e3d5ffd5b505050506040513d601f19601f820116820180604052508101906104cd9190610ee9565b505b5f811115610574577f000000000000000000000000000000000000000000000000000000000000000073ffffffffffffffffffffffffffffffffffffffff1663a9059cbb33836040518363ffffffff1660e01b8152600401610532929190610e98565b6020604051808303815f875af115801561054e573d5f5f3e3d5ffd5b505050506040513d601f19601f820116820180604052508101906105729190610ee9565b505b50505061057f6109f9565b565b60035481565b61058f6109b5565b60015442106105d3576040517f08c379a00000000000000000000000000000000000000000000000000000000081526004016105ca90610f5e565b60405180910390fd5b60045f9054906101000a900460ff1615610622576040517f08c379a000000000000000000000000000000000000000000000000000000000815260040161061990610f5e565b60405180910390fd5b5f7f000000000000000000000000000000000000000000000000000000000000000073ffffffffffffffffffffffffffffffffffffffff1663dd62ed3e33306040518363ffffffff1660e01b815260040161067e929190610f7c565b602060405180830381865afa158015610699573d5f5f3e3d5ffd5b505050506040513d601f19601f820116820180604052508101906106bd9190610fcd565b90507f0000000000000000000000000000000000000000000000000000000000000000811015610722576040517f08c379a000000000000000000000000000000000000000000000000000000000815260040161071990611042565b60405180910390fd5b7f000000000000000000000000000000000000000000000000000000000000000073ffffffffffffffffffffffffffffffffffffffff166323b872dd33307f00000000000000000000000000000000000000000000000000000000000000006040518463ffffffff1660e01b815260040161079f93929190611060565b6020604051808303815f875af11580156107bb573d5f5f3e3d5ffd5b505050506040513d601f19601f820116820180604052508101906107df9190610ee9565b503360025f6101000a81548173ffffffffffffffffffffffffffffffffffffffff021916908373ffffffffffffffffffffffffffffffffffffffff1602179055507f00000000000000000000000000000000000000000000000000000000000000004261084c9190611095565b6001819055507f000000000000000000000000000000000000000000000000000000000000000060035f8282546108839190611095565b925050819055503373ffffffffffffffffffffffffffffffffffffffff167ffa6be5ee3d008b8d3452e8de8be3a9fd7b4b129129c95f2eab53255a28804da683600154600354426040516108da9493929190611118565b60405180910390a2506108eb6109f9565b50565b60045f9054906101000a900460ff1681565b7f000000000000000000000000000000000000000000000000000000000000000081565b7f000000000000000000000000000000000000000000000000000000000000000081565b7f000000000000000000000000000000000000000000000000000000000000000081565b7f000000000000000000000000000000000000000000000000000000000000000081565b60025f9054906101000a900473ffffffffffffffffffffffffffffffffffffffff1681565b60025f54036109f0576040517f3ee5aeb500000000000000000000000000000000000000000000000000000000815260040160405180910390fd5b60025f81905550565b60015f81905550565b5f819050919050565b610a1481610a02565b82525050565b5f602082019050610a2d5f830184610a0b565b92915050565b5f73ffffffffffffffffffffffffffffffffffffffff82169050919050565b5f610a5c82610a33565b9050919050565b610a6c81610a52565b82525050565b5f602082019050610a855f830184610a63565b92915050565b5f604051905090565b5f5ffd5b5f5ffd5b5f5ffd5b5f5ffd5b5f601f19601f8301169050919050565b7f4e487b71000000000000000000000000000000000000000000000000000000005f52604160045260245ffd5b610aea82610aa4565b810181811067ffffffffffffffff82111715610b0957610b08610ab4565b5b80604052505050565b5f610b1b610a8b565b9050610b278282610ae1565b919050565b5f67ffffffffffffffff821115610b4657610b45610ab4565b5b610b4f82610aa4565b9050602081019050919050565b828183375f83830152505050565b5f610b7c610b7784610b2c565b610b12565b905082815260208101848484011115610b9857610b97610aa0565b5b610ba3848285610b5c565b509392505050565b5f82601f830112610bbf57610bbe610a9c565b5b8135610bcf848260208601610b6a565b91505092915050565b5f60208284031215610bed57610bec610a94565b5b5f82013567ffffffffffffffff811115610c0a57610c09610a98565b5b610c1684828501610bab565b91505092915050565b5f8115159050919050565b610c3381610c1f565b82525050565b5f602082019050610c4c5f830184610c2a565b92915050565b5f82825260208201905092915050565b7f47616d65206e6f7420656e6465642079657400000000000000000000000000005f82015250565b5f610c96601283610c52565b9150610ca182610c62565b602082019050919050565b5f6020820190508181035f830152610cc381610c8a565b9050919050565b7f4f6e6c792077696e6e65722063616e20776974686472617700000000000000005f82015250565b5f610cfe601883610c52565b9150610d0982610cca565b602082019050919050565b5f6020820190508181035f830152610d2b81610cf2565b9050919050565b7f416c72656164792077697468647261776e0000000000000000000000000000005f82015250565b5f610d66601183610c52565b9150610d7182610d32565b602082019050919050565b5f6020820190508181035f830152610d9381610d5a565b9050919050565b7f4e487b71000000000000000000000000000000000000000000000000000000005f52601160045260245ffd5b5f610dd182610a02565b9150610ddc83610a02565b9250828202610dea81610a02565b91508282048414831517610e0157610e00610d9a565b5b5092915050565b7f4e487b71000000000000000000000000000000000000000000000000000000005f52601260045260245ffd5b5f610e3f82610a02565b9150610e4a83610a02565b925082610e5a57610e59610e08565b5b828204905092915050565b5f610e6f82610a02565b9150610e7a83610a02565b9250828203905081811115610e9257610e91610d9a565b5b92915050565b5f604082019050610eab5f830185610a63565b610eb86020830184610a0b565b9392505050565b610ec881610c1f565b8114610ed2575f5ffd5b50565b5f81519050610ee381610ebf565b92915050565b5f60208284031215610efe57610efd610a94565b5b5f610f0b84828501610ed5565b91505092915050565b7f47616d6520616c726561647920656e64656400000000000000000000000000005f82015250565b5f610f48601283610c52565b9150610f5382610f14565b602082019050919050565b5f6020820190508181035f830152610f7581610f3c565b9050919050565b5f604082019050610f8f5f830185610a63565b610f9c6020830184610a63565b9392505050565b610fac81610a02565b8114610fb6575f5ffd5b50565b5f81519050610fc781610fa3565b92915050565b5f60208284031215610fe257610fe1610a94565b5b5f610fef84828501610fb9565b91505092915050565b7f45524332303a204d75737420617070726f766520746f6b656e206669727374005f82015250565b5f61102c601f83610c52565b915061103782610ff8565b602082019050919050565b5f6020820190508181035f83015261105981611020565b9050919050565b5f6060820190506110735f830186610a63565b6110806020830185610a63565b61108d6040830184610a0b565b949350505050565b5f61109f82610a02565b91506110aa83610a02565b92508282019050808211156110c2576110c1610d9a565b5b92915050565b5f81519050919050565b8281835e5f83830152505050565b5f6110ea826110c8565b6110f48185610c52565b93506111048185602086016110d2565b61110d81610aa4565b840191505092915050565b5f6080820190508181035f83015261113081876110e0565b905061113f6020830186610a0b565b61114c6040830185610a0b565b6111596060830184610a0b565b9594505050505056fea2646970667358221220d714bc52ef01555215d3feadfcd0ad0843f6774db9e4997c7e529a3d9d01aa3b64736f6c634300081c0033a2646970667358221220778a490fdca0b051d6f9e97409990049c815949342edde70ea2808a11e106d7564736f6c634300081c0033",
  "linkReferences": {},
  "deployedLinkReferences": {},
  "immutableReferences": {},
  "inputSourceName": "project/contracts/GameFactory.sol",
  "buildInfoId": "solc-0_8_28-025b36002a49b4379715db951231abad151da93e"
}