{
  "_format": "hh3-artifact-1",
  "contractName": "GameFactory",
  "sourceName": "contracts/GameFactory.sol",
  "abi": [
    {
      "inputs": [
        {
          "internalType": "address",
          "name": "_feeCollector",
          "type": "address"
        }
      ],
      "stateMutability": "nonpayable",
      "type": "constructor"
    },
    {
      "inputs": [
        {
          "internalType": "address",
          "name": "owner",
          "type": "address"
        }
      ],
      "name": "OwnableInvalidOwner",
      "type": "error"
    },
    {
      "inputs": [
        {
          "internalType": "address",
          "name": "account",
          "type": "address"
        }
      ],
      "name": "OwnableUnauthorizedAccount",
      "type": "error"
    },
    {
      "anonymous": false,
      "inputs": [
        {
          "indexed": false,
          "internalType": "uint256",
          "name": "gameId",
          "type": "uint256"
        },
        {
          "indexed": true,
          "internalType": "address",
          "name": "gameAddr",
          "type": "address"
        },
        {
          "indexed": true,
          "internalType": "address",
          "name": "gameTokenAddr",
          "type": "address"
        },
        {
          "indexed": false,
          "internalType": "string",
          "name": "tokenSymbol",
          "type": "string"
        },
        {
          "indexed": false,
          "internalType": "string",
          "name": "tokenName",
          "type": "string"
        },
        {
          "indexed": false,
          "internalType": "address",
          "name": "initiator",
          "type": "address"
        },
        {
          "indexed": false,
          "internalType": "uint256",
          "name": "gameTime",
          "type": "uint256"
        },
        {
          "indexed": false,
          "internalType": "uint256",
          "name": "endTime",
          "type": "uint256"
        },
        {
          "indexed": false,
          "internalType": "uint256",
          "name": "cost",
          "type": "uint256"
        },
        {
          "indexed": false,
          "internalType": "uint256",
          "name": "prizePool",
          "type": "uint256"
        },
        {
          "indexed": false,
          "internalType": "address",
          "name": "lastCommentor",
          "type": "address"
        },
        {
          "indexed": false,
          "internalType": "bool",
          "name": "isEnded",
          "type": "bool"
        }
      ],
      "name": "GameCreated",
      "type": "event"
    },
    {
      "anonymous": false,
      "inputs": [
        {
          "indexed": true,
          "internalType": "address",
          "name": "previousOwner",
          "type": "address"
        },
        {
          "indexed": true,
          "internalType": "address",
          "name": "newOwner",
          "type": "address"
        }
      ],
      "name": "OwnershipTransferred",
      "type": "event"
    },
    {
      "inputs": [
        {
          "internalType": "address",
          "name": "_gameToken",
          "type": "address"
        },
        {
          "internalType": "uint256",
          "name": "_time",
          "type": "uint256"
        },
        {
          "internalType": "uint256",
          "name": "_cost",
          "type": "uint256"
        }
      ],
      "name": "createGame",
      "outputs": [],
      "stateMutability": "nonpayable",
      "type": "function"
    },
    {
      "inputs": [
        {
          "internalType": "uint256",
          "name": "",
          "type": "uint256"
        }
      ],
      "name": "deployedGames",
      "outputs": [
        {
          "internalType": "address",
          "name": "",
          "type": "address"
        }
      ],
      "stateMutability": "view",
      "type": "function"
    },
    {
      "inputs": [],
      "name": "feeCollector",
      "outputs": [
        {
          "internalType": "address",
          "name": "",
          "type": "address"
        }
      ],
      "stateMutability": "view",
      "type": "function"
    },
    {
      "inputs": [
        {
          "internalType": "address",
          "name": "",
          "type": "address"
        }
      ],
      "name": "gameByToken",
      "outputs": [
        {
          "internalType": "address",
          "name": "gameAddress",
          "type": "address"
        },
        {
          "internalType": "string",
          "name": "tokenSymbol",
          "type": "string"
        },
        {
          "internalType": "string",
          "name": "tokenName",
          "type": "string"
        }
      ],
      "stateMutability": "view",
      "type": "function"
    },
    {
      "inputs": [],
      "name": "gameIdCounter",
      "outputs": [
        {
          "internalType": "uint256",
          "name": "",
          "type": "uint256"
        }
      ],
      "stateMutability": "view",
      "type": "function"
    },
    {
      "inputs": [],
      "name": "owner",
      "outputs": [
        {
          "internalType": "address",
          "name": "",
          "type": "address"
        }
      ],
      "stateMutability": "view",
      "type": "function"
    },
    {
      "inputs": [],
      "name": "renounceOwnership",
      "outputs": [],
      "stateMutability": "nonpayable",
      "type": "function"
    },
    {
      "inputs": [
        {
          "internalType": "address",
          "name": "_newCollector",
          "type": "address"
        }
      ],
      "name": "setFeeCollector",
      "outputs": [],
      "stateMutability": "nonpayable",
      "type": "function"
    },
    {
      "inputs": [
        {
          "internalType": "address",
          "name": "newOwner",
          "type": "address"
        }
      ],
      "name": "transferOwnership",
      "outputs": [],
      "stateMutability": "nonpayable",
      "type": "function"
    }
  ],
  "bytecode": "0x608060405234801561001057600080fd5b5060405161362a38038061362a83398181016040528101906100329190610223565b33600073ffffffffffffffffffffffffffffffffffffffff168173ffffffffffffffffffffffffffffffffffffffff16036100a55760006040517f1e4fbdf700000000000000000000000000000000000000000000000000000000815260040161009c919061025f565b60405180910390fd5b6100b4816100fc60201b60201c565b5080600260006101000a81548173ffffffffffffffffffffffffffffffffffffffff021916908373ffffffffffffffffffffffffffffffffffffffff1602179055505061027a565b60008060009054906101000a900473ffffffffffffffffffffffffffffffffffffffff169050816000806101000a81548173ffffffffffffffffffffffffffffffffffffffff021916908373ffffffffffffffffffffffffffffffffffffffff1602179055508173ffffffffffffffffffffffffffffffffffffffff168173ffffffffffffffffffffffffffffffffffffffff167f8be0079c531659141344cd1fd0a4f28419497f9722a3daafe3b4186f6b6457e060405160405180910390a35050565b600080fd5b600073ffffffffffffffffffffffffffffffffffffffff82169050919050565b60006101f0826101c5565b9050919050565b610200816101e5565b811461020b57600080fd5b50565b60008151905061021d816101f7565b92915050565b600060208284031215610239576102386101c0565b5b60006102478482850161020e565b91505092915050565b610259816101e5565b82525050565b60006020820190506102746000830184610250565b92915050565b6133a1806102896000396000f3fe608060405234801561001057600080fd5b50600436106100935760003560e01c80638da5cb5b116100665780638da5cb5b1461010c578063a42dce801461012a578063c173c9a414610146578063c415b95c14610178578063f2fde38b1461019657610093565b80631bb412d6146100985780633b17469e146100b6578063657908d1146100d2578063715018a614610102575b600080fd5b6100a06101b2565b6040516100ad919061118b565b60405180910390f35b6100d060048036038101906100cb9190611244565b6101b8565b005b6100ec60048036038101906100e79190611297565b610d44565b6040516100f991906112d3565b60405180910390f35b61010a610d83565b005b610114610d97565b60405161012191906112d3565b60405180910390f35b610144600480360381019061013f91906112ee565b610dc0565b005b610160600480360381019061015b91906112ee565b610e0c565b60405161016f939291906113ab565b60405180910390f35b610180610f66565b60405161018d91906112d3565b60405180910390f35b6101b060048036038101906101ab91906112ee565b610f8c565b005b60015481565b6000600460008573ffffffffffffffffffffffffffffffffffffffff1673ffffffffffffffffffffffffffffffffffffffff16815260200190815260200160002060000160009054906101000a900473ffffffffffffffffffffffffffffffffffffffff169050600073ffffffffffffffffffffffffffffffffffffffff168173ffffffffffffffffffffffffffffffffffffffff161461038757600081905060008173ffffffffffffffffffffffffffffffffffffffff1663a4fd6f566040518163ffffffff1660e01b8152600401602060405180830381865afa1580156102a5573d6000803e3d6000fd5b505050506040513d601f19601f820116820180604052508101906102c99190611428565b8061034257508173ffffffffffffffffffffffffffffffffffffffff16633197cbb66040518163ffffffff1660e01b8152600401602060405180830381865afa15801561031a573d6000803e3d6000fd5b505050506040513d601f19601f8201168201806040525081019061033e919061146a565b4210155b905080610384576040517f08c379a000000000000000000000000000000000000000000000000000000000815260040161037b90611509565b60405180910390fd5b50505b8373ffffffffffffffffffffffffffffffffffffffff166323b872dd3330856040518463ffffffff1660e01b81526004016103c493929190611529565b6020604051808303816000875af11580156103e3573d6000803e3d6000fd5b505050506040513d601f19601f820116820180604052508101906104079190611428565b610446576040517f08c379a000000000000000000000000000000000000000000000000000000000815260040161043d906115ac565b60405180910390fd5b60016000815480929190610459906115fb565b919050555060006040518060a0016040528060015481526020013373ffffffffffffffffffffffffffffffffffffffff1681526020018673ffffffffffffffffffffffffffffffffffffffff168152602001848152602001858152509050600081600260009054906101000a900473ffffffffffffffffffffffffffffffffffffffff16856040516104ea90611165565b6104f6939291906116c9565b604051809103906000f080158015610512573d6000803e3d6000fd5b5090508573ffffffffffffffffffffffffffffffffffffffff1663a9059cbb82866040518363ffffffff1660e01b8152600401610550929190611700565b6020604051808303816000875af115801561056f573d6000803e3d6000fd5b505050506040513d601f19601f820116820180604052508101906105939190611428565b6105d2576040517f08c379a00000000000000000000000000000000000000000000000000000000081526004016105c990611775565b60405180910390fd5b6003819080600181540180825580915050600190039060005260206000200160009091909190916101000a81548173ffffffffffffffffffffffffffffffffffffffff021916908373ffffffffffffffffffffffffffffffffffffffff16021790555060405180606001604052808273ffffffffffffffffffffffffffffffffffffffff1681526020018773ffffffffffffffffffffffffffffffffffffffff166395d89b416040518163ffffffff1660e01b8152600401600060405180830381865afa1580156106a7573d6000803e3d6000fd5b505050506040513d6000823e3d601f19601f820116820180604052508101906106d091906118bb565b81526020018773ffffffffffffffffffffffffffffffffffffffff166306fdde036040518163ffffffff1660e01b8152600401600060405180830381865afa158015610720573d6000803e3d6000fd5b505050506040513d6000823e3d601f19601f8201168201806040525081019061074991906118bb565b815250600460008873ffffffffffffffffffffffffffffffffffffffff1673ffffffffffffffffffffffffffffffffffffffff16815260200190815260200160002060008201518160000160006101000a81548173ffffffffffffffffffffffffffffffffffffffff021916908373ffffffffffffffffffffffffffffffffffffffff16021790555060208201518160010190816107e79190611b10565b5060408201518160020190816107fd9190611b10565b509050508073ffffffffffffffffffffffffffffffffffffffff1663c3dfdae66040518163ffffffff1660e01b8152600401602060405180830381865afa15801561084c573d6000803e3d6000fd5b505050506040513d601f19601f820116820180604052508101906108709190611bf7565b73ffffffffffffffffffffffffffffffffffffffff168173ffffffffffffffffffffffffffffffffffffffff167fc8224cae62df5ecfbc05b7eb9acf79cae18129bc6108c05aadbe474e0cda36a68373ffffffffffffffffffffffffffffffffffffffff1663af640d0f6040518163ffffffff1660e01b8152600401602060405180830381865afa158015610909573d6000803e3d6000fd5b505050506040513d601f19601f8201168201806040525081019061092d919061146a565b8973ffffffffffffffffffffffffffffffffffffffff166395d89b416040518163ffffffff1660e01b8152600401600060405180830381865afa158015610978573d6000803e3d6000fd5b505050506040513d6000823e3d601f19601f820116820180604052508101906109a191906118bb565b8a73ffffffffffffffffffffffffffffffffffffffff166306fdde036040518163ffffffff1660e01b8152600401600060405180830381865afa1580156109ec573d6000803e3d6000fd5b505050506040513d6000823e3d601f19601f82011682018060405250810190610a1591906118bb565b8673ffffffffffffffffffffffffffffffffffffffff16635c39fcc16040518163ffffffff1660e01b8152600401602060405180830381865afa158015610a60573d6000803e3d6000fd5b505050506040513d601f19601f82011682018060405250810190610a849190611bf7565b8773ffffffffffffffffffffffffffffffffffffffff1663a5d1c0c06040518163ffffffff1660e01b8152600401602060405180830381865afa158015610acf573d6000803e3d6000fd5b505050506040513d601f19601f82011682018060405250810190610af3919061146a565b8873ffffffffffffffffffffffffffffffffffffffff16633197cbb66040518163ffffffff1660e01b8152600401602060405180830381865afa158015610b3e573d6000803e3d6000fd5b505050506040513d601f19601f82011682018060405250810190610b62919061146a565b8973ffffffffffffffffffffffffffffffffffffffff166313faede66040518163ffffffff1660e01b8152600401602060405180830381865afa158015610bad573d6000803e3d6000fd5b505050506040513d601f19601f82011682018060405250810190610bd1919061146a565b8a73ffffffffffffffffffffffffffffffffffffffff1663719ce73e6040518163ffffffff1660e01b8152600401602060405180830381865afa158015610c1c573d6000803e3d6000fd5b505050506040513d601f19601f82011682018060405250810190610c40919061146a565b8b73ffffffffffffffffffffffffffffffffffffffff1663f1a1d3ba6040518163ffffffff1660e01b8152600401602060405180830381865afa158015610c8b573d6000803e3d6000fd5b505050506040513d601f19601f82011682018060405250810190610caf9190611bf7565b8c73ffffffffffffffffffffffffffffffffffffffff1663a4fd6f566040518163ffffffff1660e01b8152600401602060405180830381865afa158015610cfa573d6000803e3d6000fd5b505050506040513d601f19601f82011682018060405250810190610d1e9190611428565b604051610d349a99989796959493929190611c33565b60405180910390a3505050505050565b60038181548110610d5457600080fd5b906000526020600020016000915054906101000a900473ffffffffffffffffffffffffffffffffffffffff1681565b610d8b611012565b610d956000611099565b565b60008060009054906101000a900473ffffffffffffffffffffffffffffffffffffffff16905090565b610dc8611012565b80600260006101000a81548173ffffffffffffffffffffffffffffffffffffffff021916908373ffffffffffffffffffffffffffffffffffffffff16021790555050565b60046020528060005260406000206000915090508060000160009054906101000a900473ffffffffffffffffffffffffffffffffffffffff1690806001018054610e5590611933565b80601f0160208091040260200160405190810160405280929190818152602001828054610e8190611933565b8015610ece5780601f10610ea357610100808354040283529160200191610ece565b820191906000526020600020905b815481529060010190602001808311610eb157829003601f168201915b505050505090806002018054610ee390611933565b80601f0160208091040260200160405190810160405280929190818152602001828054610f0f90611933565b8015610f5c5780601f10610f3157610100808354040283529160200191610f5c565b820191906000526020600020905b815481529060010190602001808311610f3f57829003601f168201915b5050505050905083565b600260009054906101000a900473ffffffffffffffffffffffffffffffffffffffff1681565b610f94611012565b600073ffffffffffffffffffffffffffffffffffffffff168173ffffffffffffffffffffffffffffffffffffffff16036110065760006040517f1e4fbdf7000000000000000000000000000000000000000000000000000000008152600401610ffd91906112d3565b60405180910390fd5b61100f81611099565b50565b61101a61115d565b73ffffffffffffffffffffffffffffffffffffffff16611038610d97565b73ffffffffffffffffffffffffffffffffffffffff16146110975761105b61115d565b6040517f118cdaa700000000000000000000000000000000000000000000000000000000815260040161108e91906112d3565b60405180910390fd5b565b60008060009054906101000a900473ffffffffffffffffffffffffffffffffffffffff169050816000806101000a81548173ffffffffffffffffffffffffffffffffffffffff021916908373ffffffffffffffffffffffffffffffffffffffff1602179055508173ffffffffffffffffffffffffffffffffffffffff168173ffffffffffffffffffffffffffffffffffffffff167f8be0079c531659141344cd1fd0a4f28419497f9722a3daafe3b4186f6b6457e060405160405180910390a35050565b600033905090565b61168e80611cde83390190565b6000819050919050565b61118581611172565b82525050565b60006020820190506111a0600083018461117c565b92915050565b6000604051905090565b600080fd5b600080fd5b600073ffffffffffffffffffffffffffffffffffffffff82169050919050565b60006111e5826111ba565b9050919050565b6111f5816111da565b811461120057600080fd5b50565b600081359050611212816111ec565b92915050565b61122181611172565b811461122c57600080fd5b50565b60008135905061123e81611218565b92915050565b60008060006060848603121561125d5761125c6111b0565b5b600061126b86828701611203565b935050602061127c8682870161122f565b925050604061128d8682870161122f565b9150509250925092565b6000602082840312156112ad576112ac6111b0565b5b60006112bb8482850161122f565b91505092915050565b6112cd816111da565b82525050565b60006020820190506112e860008301846112c4565b92915050565b600060208284031215611304576113036111b0565b5b600061131284828501611203565b91505092915050565b600081519050919050565b600082825260208201905092915050565b60005b8381101561135557808201518184015260208101905061133a565b60008484015250505050565b6000601f19601f8301169050919050565b600061137d8261131b565b6113878185611326565b9350611397818560208601611337565b6113a081611361565b840191505092915050565b60006060820190506113c060008301866112c4565b81810360208301526113d28185611372565b905081810360408301526113e68184611372565b9050949350505050565b60008115159050919050565b611405816113f0565b811461141057600080fd5b50565b600081519050611422816113fc565b92915050565b60006020828403121561143e5761143d6111b0565b5b600061144c84828501611413565b91505092915050565b60008151905061146481611218565b92915050565b6000602082840312156114805761147f6111b0565b5b600061148e84828501611455565b91505092915050565b7f4163746976652067616d6520616c72656164792065786973747320666f72207460008201527f68697320746f6b656e0000000000000000000000000000000000000000000000602082015250565b60006114f3602983611326565b91506114fe82611497565b604082019050919050565b60006020820190508181036000830152611522816114e6565b9050919050565b600060608201905061153e60008301866112c4565b61154b60208301856112c4565b611558604083018461117c565b949350505050565b7f496e697469616c20636f7374207472616e73666572206661696c656400000000600082015250565b6000611596601c83611326565b91506115a182611560565b602082019050919050565b600060208201905081810360008301526115c581611589565b9050919050565b7f4e487b7100000000000000000000000000000000000000000000000000000000600052601160045260246000fd5b600061160682611172565b91507fffffffffffffffffffffffffffffffffffffffffffffffffffffffffffffffff8203611638576116376115cc565b5b600182019050919050565b61164c81611172565b82525050565b61165b816111da565b82525050565b60a0820160008201516116776000850182611643565b50602082015161168a6020850182611652565b50604082015161169d6040850182611652565b5060608201516116b06060850182611643565b5060808201516116c36080850182611643565b50505050565b600060e0820190506116de6000830186611661565b6116eb60a08301856112c4565b6116f860c083018461117c565b949350505050565b600060408201905061171560008301856112c4565b611722602083018461117c565b9392505050565b7f546f6b656e207472616e7366657220746f2067616d65206661696c6564000000600082015250565b600061175f601d83611326565b915061176a82611729565b602082019050919050565b6000602082019050818103600083015261178e81611752565b9050919050565b600080fd5b600080fd5b7f4e487b7100000000000000000000000000000000000000000000000000000000600052604160045260246000fd5b6117d782611361565b810181811067ffffffffffffffff821117156117f6576117f561179f565b5b80604052505050565b60006118096111a6565b905061181582826117ce565b919050565b600067ffffffffffffffff8211156118355761183461179f565b5b61183e82611361565b9050602081019050919050565b600061185e6118598461181a565b6117ff565b90508281526020810184848401111561187a5761187961179a565b5b611885848285611337565b509392505050565b600082601f8301126118a2576118a1611795565b5b81516118b284826020860161184b565b91505092915050565b6000602082840312156118d1576118d06111b0565b5b600082015167ffffffffffffffff8111156118ef576118ee6111b5565b5b6118fb8482850161188d565b91505092915050565b7f4e487b7100000000000000000000000000000000000000000000000000000000600052602260045260246000fd5b6000600282049050600182168061194b57607f821691505b60208210810361195e5761195d611904565b5b50919050565b60008190508160005260206000209050919050565b60006020601f8301049050919050565b600082821b905092915050565b6000600883026119c67fffffffffffffffffffffffffffffffffffffffffffffffffffffffffffffffff82611989565b6119d08683611989565b95508019841693508086168417925050509392505050565b6000819050919050565b6000611a0d611a08611a0384611172565b6119e8565b611172565b9050919050565b6000819050919050565b611a27836119f2565b611a3b611a3382611a14565b848454611996565b825550505050565b600090565b611a50611a43565b611a5b818484611a1e565b505050565b5b81811015611a7f57611a74600082611a48565b600181019050611a61565b5050565b601f821115611ac457611a9581611964565b611a9e84611979565b81016020851015611aad578190505b611ac1611ab985611979565b830182611a60565b50505b505050565b600082821c905092915050565b6000611ae760001984600802611ac9565b1980831691505092915050565b6000611b008383611ad6565b9150826002028217905092915050565b611b198261131b565b67ffffffffffffffff811115611b3257611b3161179f565b5b611b3c8254611933565b611b47828285611a83565b600060209050601f831160018114611b7a5760008415611b68578287015190505b611b728582611af4565b865550611bda565b601f198416611b8886611964565b60005b82811015611bb057848901518255600182019150602085019450602081019050611b8b565b86831015611bcd5784890151611bc9601f891682611ad6565b8355505b6001600288020188555050505b505050505050565b600081519050611bf1816111ec565b92915050565b600060208284031215611c0d57611c0c6111b0565b5b6000611c1b84828501611be2565b91505092915050565b611c2d816113f0565b82525050565b600061014082019050611c49600083018d61117c565b8181036020830152611c5b818c611372565b90508181036040830152611c6f818b611372565b9050611c7e606083018a6112c4565b611c8b608083018961117c565b611c9860a083018861117c565b611ca560c083018761117c565b611cb260e083018661117c565b611cc06101008301856112c4565b611cce610120830184611c24565b9b9a505050505050505050505056fe61014060405234801561001157600080fd5b5060405161168e38038061168e8339818101604052810190610033919061032f565b6001600081905550826000015160808181525050826020015173ffffffffffffffffffffffffffffffffffffffff1660a08173ffffffffffffffffffffffffffffffffffffffff1681525050826040015173ffffffffffffffffffffffffffffffffffffffff1660c08173ffffffffffffffffffffffffffffffffffffffff1681525050826060015160e08181525050826080015161010081815250508260800151426100e091906103b1565b6001819055508260200151600260006101000a81548173ffffffffffffffffffffffffffffffffffffffff021916908373ffffffffffffffffffffffffffffffffffffffff1602179055508173ffffffffffffffffffffffffffffffffffffffff166101208173ffffffffffffffffffffffffffffffffffffffff1681525050806003819055505050506103e5565b6000604051905090565b600080fd5b600080fd5b6000601f19601f8301169050919050565b7f4e487b7100000000000000000000000000000000000000000000000000000000600052604160045260246000fd5b6101cc82610183565b810181811067ffffffffffffffff821117156101eb576101ea610194565b5b80604052505050565b60006101fe61016f565b905061020a82826101c3565b919050565b6000819050919050565b6102228161020f565b811461022d57600080fd5b50565b60008151905061023f81610219565b92915050565b600073ffffffffffffffffffffffffffffffffffffffff82169050919050565b600061027082610245565b9050919050565b61028081610265565b811461028b57600080fd5b50565b60008151905061029d81610277565b92915050565b600060a082840312156102b9576102b861017e565b5b6102c360a06101f4565b905060006102d384828501610230565b60008301525060206102e78482850161028e565b60208301525060406102fb8482850161028e565b604083015250606061030f84828501610230565b606083015250608061032384828501610230565b60808301525092915050565b600080600060e0848603121561034857610347610179565b5b6000610356868287016102a3565b93505060a06103678682870161028e565b92505060c061037886828701610230565b9150509250925092565b7f4e487b7100000000000000000000000000000000000000000000000000000000600052601160045260246000fd5b60006103bc8261020f565b91506103c78361020f565b92508282019050808211156103df576103de610382565b5b92915050565b60805160a05160c05160e051610100516101205161121b6104736000396000818161045a015261098901526000818161083b015261091d015260008181610246015281816106d601528181610777015261086d01526000818161041e015281816104e7015281816106380152818161073901526109650152600061027501526000610941015261121b6000f3fe608060405234801561001057600080fd5b50600436106100cf5760003560e01c8063843b43861161008c578063af640d0f11610066578063af640d0f146101cc578063c3dfdae6146101ea578063c415b95c14610208578063f1a1d3ba14610226576100cf565b8063843b438614610174578063a4fd6f5614610190578063a5d1c0c0146101ae576100cf565b806313faede6146100d45780633197cbb6146100f257806334fbc9a1146101105780635c39fcc11461012e57806370740ac91461014c578063719ce73e14610156575b600080fd5b6100dc610244565b6040516100e99190610a3a565b60405180910390f35b6100fa610268565b6040516101079190610a3a565b60405180910390f35b61011861026e565b6040516101259190610a3a565b60405180910390f35b610136610273565b6040516101439190610a96565b60405180910390f35b610154610297565b005b61015e610592565b60405161016b9190610a3a565b60405180910390f35b61018e60048036038101906101899190610c0b565b610598565b005b610198610908565b6040516101a59190610c6f565b60405180910390f35b6101b661091b565b6040516101c39190610a3a565b60405180910390f35b6101d461093f565b6040516101e19190610a3a565b60405180910390f35b6101f2610963565b6040516101ff9190610a96565b60405180910390f35b610210610987565b60405161021d9190610a96565b60405180910390f35b61022e6109ab565b60405161023b9190610a96565b60405180910390f35b7f000000000000000000000000000000000000000000000000000000000000000081565b60015481565b600281565b7f000000000000000000000000000000000000000000000000000000000000000081565b61029f6109d1565b6001544210156102e4576040517f08c379a00000000000000000000000000000000000000000000000000000000081526004016102db90610ce7565b60405180910390fd5b600260009054906101000a900473ffffffffffffffffffffffffffffffffffffffff1673ffffffffffffffffffffffffffffffffffffffff163373ffffffffffffffffffffffffffffffffffffffff1614610374576040517f08c379a000000000000000000000000000000000000000000000000000000000815260040161036b90610d53565b60405180910390fd5b600460009054906101000a900460ff16156103c4576040517f08c379a00000000000000000000000000000000000000000000000000000000081526004016103bb90610dbf565b60405180910390fd5b6001600460006101000a81548160ff02191690831515021790555060006003549050600060646002836103f79190610e0e565b6104019190610e7f565b9050600081836104119190610eb0565b905060008211156104dc577f000000000000000000000000000000000000000000000000000000000000000073ffffffffffffffffffffffffffffffffffffffff1663a9059cbb7f0000000000000000000000000000000000000000000000000000000000000000846040518363ffffffff1660e01b8152600401610497929190610ee4565b6020604051808303816000875af11580156104b6573d6000803e3d6000fd5b505050506040513d601f19601f820116820180604052508101906104da9190610f39565b505b6000811115610585577f000000000000000000000000000000000000000000000000000000000000000073ffffffffffffffffffffffffffffffffffffffff1663a9059cbb33836040518363ffffffff1660e01b8152600401610540929190610ee4565b6020604051808303816000875af115801561055f573d6000803e3d6000fd5b505050506040513d601f19601f820116820180604052508101906105839190610f39565b505b505050610590610a17565b565b60035481565b6105a06109d1565b60015442106105e4576040517f08c379a00000000000000000000000000000000000000000000000000000000081526004016105db90610fb2565b60405180910390fd5b600460009054906101000a900460ff1615610634576040517f08c379a000000000000000000000000000000000000000000000000000000000815260040161062b90610fb2565b60405180910390fd5b60007f000000000000000000000000000000000000000000000000000000000000000073ffffffffffffffffffffffffffffffffffffffff1663dd62ed3e33306040518363ffffffff1660e01b8152600401610691929190610fd2565b602060405180830381865afa1580156106ae573d6000803e3d6000fd5b505050506040513d601f19601f820116820180604052508101906106d29190611027565b90507f0000000000000000000000000000000000000000000000000000000000000000811015610737576040517f08c379a000000000000000000000000000000000000000000000000000000000815260040161072e906110a0565b60405180910390fd5b7f000000000000000000000000000000000000000000000000000000000000000073ffffffffffffffffffffffffffffffffffffffff166323b872dd33307f00000000000000000000000000000000000000000000000000000000000000006040518463ffffffff1660e01b81526004016107b4939291906110c0565b6020604051808303816000875af11580156107d3573d6000803e3d6000fd5b505050506040513d601f19601f820116820180604052508101906107f79190610f39565b5033600260006101000a81548173ffffffffffffffffffffffffffffffffffffffff021916908373ffffffffffffffffffffffffffffffffffffffff1602179055507f00000000000000000000000000000000000000000000000000000000000000004261086591906110f7565b6001819055507f00000000000000000000000000000000000000000000000000000000000000006003600082825461089d91906110f7565b925050819055503373ffffffffffffffffffffffffffffffffffffffff167ffa6be5ee3d008b8d3452e8de8be3a9fd7b4b129129c95f2eab53255a28804da683600154600354426040516108f49493929190611199565b60405180910390a250610905610a17565b50565b600460009054906101000a900460ff1681565b7f000000000000000000000000000000000000000000000000000000000000000081565b7f000000000000000000000000000000000000000000000000000000000000000081565b7f000000000000000000000000000000000000000000000000000000000000000081565b7f000000000000000000000000000000000000000000000000000000000000000081565b600260009054906101000a900473ffffffffffffffffffffffffffffffffffffffff1681565b600260005403610a0d576040517f3ee5aeb500000000000000000000000000000000000000000000000000000000815260040160405180910390fd5b6002600081905550565b6001600081905550565b6000819050919050565b610a3481610a21565b82525050565b6000602082019050610a4f6000830184610a2b565b92915050565b600073ffffffffffffffffffffffffffffffffffffffff82169050919050565b6000610a8082610a55565b9050919050565b610a9081610a75565b82525050565b6000602082019050610aab6000830184610a87565b92915050565b6000604051905090565b600080fd5b600080fd5b600080fd5b600080fd5b6000601f19601f8301169050919050565b7f4e487b7100000000000000000000000000000000000000000000000000000000600052604160045260246000fd5b610b1882610acf565b810181811067ffffffffffffffff82111715610b3757610b36610ae0565b5b80604052505050565b6000610b4a610ab1565b9050610b568282610b0f565b919050565b600067ffffffffffffffff821115610b7657610b75610ae0565b5b610b7f82610acf565b9050602081019050919050565b82818337600083830152505050565b6000610bae610ba984610b5b565b610b40565b905082815260208101848484011115610bca57610bc9610aca565b5b610bd5848285610b8c565b509392505050565b600082601f830112610bf257610bf1610ac5565b5b8135610c02848260208601610b9b565b91505092915050565b600060208284031215610c2157610c20610abb565b5b600082013567ffffffffffffffff811115610c3f57610c3e610ac0565b5b610c4b84828501610bdd565b91505092915050565b60008115159050919050565b610c6981610c54565b82525050565b6000602082019050610c846000830184610c60565b92915050565b600082825260208201905092915050565b7f47616d65206e6f7420656e646564207965740000000000000000000000000000600082015250565b6000610cd1601283610c8a565b9150610cdc82610c9b565b602082019050919050565b60006020820190508181036000830152610d0081610cc4565b9050919050565b7f4f6e6c792077696e6e65722063616e2077697468647261770000000000000000600082015250565b6000610d3d601883610c8a565b9150610d4882610d07565b602082019050919050565b60006020820190508181036000830152610d6c81610d30565b9050919050565b7f416c72656164792077697468647261776e000000000000000000000000000000600082015250565b6000610da9601183610c8a565b9150610db482610d73565b602082019050919050565b60006020820190508181036000830152610dd881610d9c565b9050919050565b7f4e487b7100000000000000000000000000000000000000000000000000000000600052601160045260246000fd5b6000610e1982610a21565b9150610e2483610a21565b9250828202610e3281610a21565b91508282048414831517610e4957610e48610ddf565b5b5092915050565b7f4e487b7100000000000000000000000000000000000000000000000000000000600052601260045260246000fd5b6000610e8a82610a21565b9150610e9583610a21565b925082610ea557610ea4610e50565b5b828204905092915050565b6000610ebb82610a21565b9150610ec683610a21565b9250828203905081811115610ede57610edd610ddf565b5b92915050565b6000604082019050610ef96000830185610a87565b610f066020830184610a2b565b9392505050565b610f1681610c54565b8114610f2157600080fd5b50565b600081519050610f3381610f0d565b92915050565b600060208284031215610f4f57610f4e610abb565b5b6000610f5d84828501610f24565b91505092915050565b7f47616d6520616c726561647920656e6465640000000000000000000000000000600082015250565b6000610f9c601283610c8a565b9150610fa782610f66565b602082019050919050565b60006020820190508181036000830152610fcb81610f8f565b9050919050565b6000604082019050610fe76000830185610a87565b610ff46020830184610a87565b9392505050565b61100481610a21565b811461100f57600080fd5b50565b60008151905061102181610ffb565b92915050565b60006020828403121561103d5761103c610abb565b5b600061104b84828501611012565b91505092915050565b7f45524332303a204d75737420617070726f766520746f6b656e20666972737400600082015250565b600061108a601f83610c8a565b915061109582611054565b602082019050919050565b600060208201905081810360008301526110b98161107d565b9050919050565b60006060820190506110d56000830186610a87565b6110e26020830185610a87565b6110ef6040830184610a2b565b949350505050565b600061110282610a21565b915061110d83610a21565b925082820190508082111561112557611124610ddf565b5b92915050565b600081519050919050565b60005b83811015611154578082015181840152602081019050611139565b60008484015250505050565b600061116b8261112b565b6111758185610c8a565b9350611185818560208601611136565b61118e81610acf565b840191505092915050565b600060808201905081810360008301526111b38187611160565b90506111c26020830186610a2b565b6111cf6040830185610a2b565b6111dc6060830184610a2b565b9594505050505056fea2646970667358221220cd5cf7916de0099cbae4821645235c9c46577fb5a0fad8dbac70615b3f9e588964736f6c634300081c0033a26469706673582212200d24fee29dbc8d0e2f905ea47991487f28305a4c2383926186403e48559372fc64736f6c634300081c0033",
  "linkReferences": {},
  "deployedLinkReferences": {},
  "immutableReferences": {},
  "inputSourceName": "project/contracts/GameFactory.sol",
  "buildInfoId": "solc-0_8_28-4598df791892f1fdfda64d74513a98fa67dbbfd6"
}