{
  "_format": "hh3-artifact-1",
  "contractName": "GameFactory",
  "sourceName": "contracts/GameFactory.sol",
  "abi": [
    {
      "inputs": [
        {
          "internalType": "address",
          "name": "_feeCollector",
          "type": "address"
        }
      ],
      "stateMutability": "nonpayable",
      "type": "constructor"
    },
    {
      "inputs": [
        {
          "internalType": "address",
          "name": "owner",
          "type": "address"
        }
      ],
      "name": "OwnableInvalidOwner",
      "type": "error"
    },
    {
      "inputs": [
        {
          "internalType": "address",
          "name": "account",
          "type": "address"
        }
      ],
      "name": "OwnableUnauthorizedAccount",
      "type": "error"
    },
    {
      "anonymous": false,
      "inputs": [
        {
          "indexed": false,
          "internalType": "uint256",
          "name": "gameId",
          "type": "uint256"
        },
        {
          "indexed": true,
          "internalType": "address",
          "name": "gameAddr",
          "type": "address"
        },
        {
          "indexed": true,
          "internalType": "address",
          "name": "gameTokenAddr",
          "type": "address"
        },
        {
          "indexed": false,
          "internalType": "string",
          "name": "tokenSymbol",
          "type": "string"
        },
        {
          "indexed": false,
          "internalType": "string",
          "name": "tokenName",
          "type": "string"
        },
        {
          "indexed": false,
          "internalType": "address",
          "name": "initiator",
          "type": "address"
        },
        {
          "indexed": false,
          "internalType": "uint256",
          "name": "gameTime",
          "type": "uint256"
        },
        {
          "indexed": false,
          "internalType": "uint256",
          "name": "endTime",
          "type": "uint256"
        },
        {
          "indexed": false,
          "internalType": "uint256",
          "name": "cost",
          "type": "uint256"
        },
        {
          "indexed": false,
          "internalType": "uint256",
          "name": "prizePool",
          "type": "uint256"
        },
        {
          "indexed": false,
          "internalType": "address",
          "name": "lastCommentor",
          "type": "address"
        },
        {
          "indexed": false,
          "internalType": "bool",
          "name": "isClaimed",
          "type": "bool"
        }
      ],
      "name": "GameCreated",
      "type": "event"
    },
    {
      "anonymous": false,
      "inputs": [
        {
          "indexed": true,
          "internalType": "address",
          "name": "previousOwner",
          "type": "address"
        },
        {
          "indexed": true,
          "internalType": "address",
          "name": "newOwner",
          "type": "address"
        }
      ],
      "name": "OwnershipTransferred",
      "type": "event"
    },
    {
      "inputs": [
        {
          "internalType": "address",
          "name": "_gameToken",
          "type": "address"
        },
        {
          "internalType": "uint256",
          "name": "_time",
          "type": "uint256"
        },
        {
          "internalType": "uint256",
          "name": "_cost",
          "type": "uint256"
        }
      ],
      "name": "createGame",
      "outputs": [],
      "stateMutability": "nonpayable",
      "type": "function"
    },
    {
      "inputs": [
        {
          "internalType": "uint256",
          "name": "",
          "type": "uint256"
        }
      ],
      "name": "deployedGames",
      "outputs": [
        {
          "internalType": "address",
          "name": "",
          "type": "address"
        }
      ],
      "stateMutability": "view",
      "type": "function"
    },
    {
      "inputs": [],
      "name": "feeCollector",
      "outputs": [
        {
          "internalType": "address",
          "name": "",
          "type": "address"
        }
      ],
      "stateMutability": "view",
      "type": "function"
    },
    {
      "inputs": [
        {
          "internalType": "address",
          "name": "",
          "type": "address"
        }
      ],
      "name": "gameByToken",
      "outputs": [
        {
          "internalType": "address",
          "name": "gameAddress",
          "type": "address"
        },
        {
          "internalType": "string",
          "name": "tokenSymbol",
          "type": "string"
        },
        {
          "internalType": "string",
          "name": "tokenName",
          "type": "string"
        }
      ],
      "stateMutability": "view",
      "type": "function"
    },
    {
      "inputs": [],
      "name": "gameIdCounter",
      "outputs": [
        {
          "internalType": "uint256",
          "name": "",
          "type": "uint256"
        }
      ],
      "stateMutability": "view",
      "type": "function"
    },
    {
      "inputs": [],
      "name": "owner",
      "outputs": [
        {
          "internalType": "address",
          "name": "",
          "type": "address"
        }
      ],
      "stateMutability": "view",
      "type": "function"
    },
    {
      "inputs": [],
      "name": "renounceOwnership",
      "outputs": [],
      "stateMutability": "nonpayable",
      "type": "function"
    },
    {
      "inputs": [
        {
          "internalType": "address",
          "name": "_newCollector",
          "type": "address"
        }
      ],
      "name": "setFeeCollector",
      "outputs": [],
      "stateMutability": "nonpayable",
      "type": "function"
    },
    {
      "inputs": [
        {
          "internalType": "address",
          "name": "newOwner",
          "type": "address"
        }
      ],
      "name": "transferOwnership",
      "outputs": [],
      "stateMutability": "nonpayable",
      "type": "function"
    }
  ],
  "bytecode": "0x608060405234801561001057600080fd5b50604051613af6380380613af683398181016040528101906100329190610223565b33600073ffffffffffffffffffffffffffffffffffffffff168173ffffffffffffffffffffffffffffffffffffffff16036100a55760006040517f1e4fbdf700000000000000000000000000000000000000000000000000000000815260040161009c919061025f565b60405180910390fd5b6100b4816100fc60201b60201c565b5080600260006101000a81548173ffffffffffffffffffffffffffffffffffffffff021916908373ffffffffffffffffffffffffffffffffffffffff1602179055505061027a565b60008060009054906101000a900473ffffffffffffffffffffffffffffffffffffffff169050816000806101000a81548173ffffffffffffffffffffffffffffffffffffffff021916908373ffffffffffffffffffffffffffffffffffffffff1602179055508173ffffffffffffffffffffffffffffffffffffffff168173ffffffffffffffffffffffffffffffffffffffff167f8be0079c531659141344cd1fd0a4f28419497f9722a3daafe3b4186f6b6457e060405160405180910390a35050565b600080fd5b600073ffffffffffffffffffffffffffffffffffffffff82169050919050565b60006101f0826101c5565b9050919050565b610200816101e5565b811461020b57600080fd5b50565b60008151905061021d816101f7565b92915050565b600060208284031215610239576102386101c0565b5b60006102478482850161020e565b91505092915050565b610259816101e5565b82525050565b60006020820190506102746000830184610250565b92915050565b61386d806102896000396000f3fe608060405234801561001057600080fd5b50600436106100935760003560e01c80638da5cb5b116100665780638da5cb5b1461010c578063a42dce801461012a578063c173c9a414610146578063c415b95c14610178578063f2fde38b1461019657610093565b80631bb412d6146100985780633b17469e146100b6578063657908d1146100d2578063715018a614610102575b600080fd5b6100a06101b2565b6040516100ad919061103b565b60405180910390f35b6100d060048036038101906100cb91906110f4565b6101b8565b005b6100ec60048036038101906100e79190611147565b610bf4565b6040516100f99190611183565b60405180910390f35b61010a610c33565b005b610114610c47565b6040516101219190611183565b60405180910390f35b610144600480360381019061013f919061119e565b610c70565b005b610160600480360381019061015b919061119e565b610cbc565b60405161016f9392919061125b565b60405180910390f35b610180610e16565b60405161018d9190611183565b60405180910390f35b6101b060048036038101906101ab919061119e565b610e3c565b005b60015481565b6000600460008573ffffffffffffffffffffffffffffffffffffffff1673ffffffffffffffffffffffffffffffffffffffff16815260200190815260200160002060000160009054906101000a900473ffffffffffffffffffffffffffffffffffffffff169050600073ffffffffffffffffffffffffffffffffffffffff168173ffffffffffffffffffffffffffffffffffffffff161461030b5760008190508073ffffffffffffffffffffffffffffffffffffffff16633197cbb66040518163ffffffff1660e01b8152600401602060405180830381865afa1580156102a3573d6000803e3d6000fd5b505050506040513d601f19601f820116820180604052508101906102c791906112b5565b421015610309576040517f08c379a000000000000000000000000000000000000000000000000000000000815260040161030090611354565b60405180910390fd5b505b8373ffffffffffffffffffffffffffffffffffffffff166323b872dd3330856040518463ffffffff1660e01b815260040161034893929190611374565b6020604051808303816000875af1158015610367573d6000803e3d6000fd5b505050506040513d601f19601f8201168201806040525081019061038b91906113e3565b6103ca576040517f08c379a00000000000000000000000000000000000000000000000000000000081526004016103c19061145c565b60405180910390fd5b600160008154809291906103dd906114ab565b919050555060008473ffffffffffffffffffffffffffffffffffffffff166395d89b416040518163ffffffff1660e01b8152600401600060405180830381865afa15801561042f573d6000803e3d6000fd5b505050506040513d6000823e3d601f19601f820116820180604052508101906104589190611619565b905060008573ffffffffffffffffffffffffffffffffffffffff166306fdde036040518163ffffffff1660e01b8152600401600060405180830381865afa1580156104a7573d6000803e3d6000fd5b505050506040513d6000823e3d601f19601f820116820180604052508101906104d09190611619565b905060006040518060c0016040528060015481526020013373ffffffffffffffffffffffffffffffffffffffff1681526020018873ffffffffffffffffffffffffffffffffffffffff168152602001868152602001878152602001848152509050600081600260009054906101000a900473ffffffffffffffffffffffffffffffffffffffff168760405161056490611015565b61057093929190611753565b604051809103906000f08015801561058c573d6000803e3d6000fd5b5090508773ffffffffffffffffffffffffffffffffffffffff1663a9059cbb82886040518363ffffffff1660e01b81526004016105ca929190611791565b6020604051808303816000875af11580156105e9573d6000803e3d6000fd5b505050506040513d601f19601f8201168201806040525081019061060d91906113e3565b61064c576040517f08c379a000000000000000000000000000000000000000000000000000000000815260040161064390611806565b60405180910390fd5b6003819080600181540180825580915050600190039060005260206000200160009091909190916101000a81548173ffffffffffffffffffffffffffffffffffffffff021916908373ffffffffffffffffffffffffffffffffffffffff16021790555060405180606001604052808273ffffffffffffffffffffffffffffffffffffffff16815260200185815260200184815250600460008a73ffffffffffffffffffffffffffffffffffffffff1673ffffffffffffffffffffffffffffffffffffffff16815260200190815260200160002060008201518160000160006101000a81548173ffffffffffffffffffffffffffffffffffffffff021916908373ffffffffffffffffffffffffffffffffffffffff160217905550602082015181600101908161077b9190611a32565b5060408201518160020190816107919190611a32565b509050508073ffffffffffffffffffffffffffffffffffffffff1663c3dfdae66040518163ffffffff1660e01b8152600401602060405180830381865afa1580156107e0573d6000803e3d6000fd5b505050506040513d601f19601f820116820180604052508101906108049190611b19565b73ffffffffffffffffffffffffffffffffffffffff168173ffffffffffffffffffffffffffffffffffffffff167fc8224cae62df5ecfbc05b7eb9acf79cae18129bc6108c05aadbe474e0cda36a68373ffffffffffffffffffffffffffffffffffffffff1663af640d0f6040518163ffffffff1660e01b8152600401602060405180830381865afa15801561089d573d6000803e3d6000fd5b505050506040513d601f19601f820116820180604052508101906108c191906112b5565b87878673ffffffffffffffffffffffffffffffffffffffff16635c39fcc16040518163ffffffff1660e01b8152600401602060405180830381865afa15801561090e573d6000803e3d6000fd5b505050506040513d601f19601f820116820180604052508101906109329190611b19565b8773ffffffffffffffffffffffffffffffffffffffff1663a5d1c0c06040518163ffffffff1660e01b8152600401602060405180830381865afa15801561097d573d6000803e3d6000fd5b505050506040513d601f19601f820116820180604052508101906109a191906112b5565b8873ffffffffffffffffffffffffffffffffffffffff16633197cbb66040518163ffffffff1660e01b8152600401602060405180830381865afa1580156109ec573d6000803e3d6000fd5b505050506040513d601f19601f82011682018060405250810190610a1091906112b5565b8973ffffffffffffffffffffffffffffffffffffffff166313faede66040518163ffffffff1660e01b8152600401602060405180830381865afa158015610a5b573d6000803e3d6000fd5b505050506040513d601f19601f82011682018060405250810190610a7f91906112b5565b8a73ffffffffffffffffffffffffffffffffffffffff1663719ce73e6040518163ffffffff1660e01b8152600401602060405180830381865afa158015610aca573d6000803e3d6000fd5b505050506040513d601f19601f82011682018060405250810190610aee91906112b5565b8b73ffffffffffffffffffffffffffffffffffffffff1663f1a1d3ba6040518163ffffffff1660e01b8152600401602060405180830381865afa158015610b39573d6000803e3d6000fd5b505050506040513d601f19601f82011682018060405250810190610b5d9190611b19565b8c73ffffffffffffffffffffffffffffffffffffffff166357c9ca146040518163ffffffff1660e01b8152600401602060405180830381865afa158015610ba8573d6000803e3d6000fd5b505050506040513d601f19601f82011682018060405250810190610bcc91906113e3565b604051610be29a99989796959493929190611b55565b60405180910390a35050505050505050565b60038181548110610c0457600080fd5b906000526020600020016000915054906101000a900473ffffffffffffffffffffffffffffffffffffffff1681565b610c3b610ec2565b610c456000610f49565b565b60008060009054906101000a900473ffffffffffffffffffffffffffffffffffffffff16905090565b610c78610ec2565b80600260006101000a81548173ffffffffffffffffffffffffffffffffffffffff021916908373ffffffffffffffffffffffffffffffffffffffff16021790555050565b60046020528060005260406000206000915090508060000160009054906101000a900473ffffffffffffffffffffffffffffffffffffffff1690806001018054610d0590611855565b80601f0160208091040260200160405190810160405280929190818152602001828054610d3190611855565b8015610d7e5780601f10610d5357610100808354040283529160200191610d7e565b820191906000526020600020905b815481529060010190602001808311610d6157829003601f168201915b505050505090806002018054610d9390611855565b80601f0160208091040260200160405190810160405280929190818152602001828054610dbf90611855565b8015610e0c5780601f10610de157610100808354040283529160200191610e0c565b820191906000526020600020905b815481529060010190602001808311610def57829003601f168201915b5050505050905083565b600260009054906101000a900473ffffffffffffffffffffffffffffffffffffffff1681565b610e44610ec2565b600073ffffffffffffffffffffffffffffffffffffffff168173ffffffffffffffffffffffffffffffffffffffff1603610eb65760006040517f1e4fbdf7000000000000000000000000000000000000000000000000000000008152600401610ead9190611183565b60405180910390fd5b610ebf81610f49565b50565b610eca61100d565b73ffffffffffffffffffffffffffffffffffffffff16610ee8610c47565b73ffffffffffffffffffffffffffffffffffffffff1614610f4757610f0b61100d565b6040517f118cdaa7000000000000000000000000000000000000000000000000000000008152600401610f3e9190611183565b60405180910390fd5b565b60008060009054906101000a900473ffffffffffffffffffffffffffffffffffffffff169050816000806101000a81548173ffffffffffffffffffffffffffffffffffffffff021916908373ffffffffffffffffffffffffffffffffffffffff1602179055508173ffffffffffffffffffffffffffffffffffffffff168173ffffffffffffffffffffffffffffffffffffffff167f8be0079c531659141344cd1fd0a4f28419497f9722a3daafe3b4186f6b6457e060405160405180910390a35050565b600033905090565b611c3880611c0083390190565b6000819050919050565b61103581611022565b82525050565b6000602082019050611050600083018461102c565b92915050565b6000604051905090565b600080fd5b600080fd5b600073ffffffffffffffffffffffffffffffffffffffff82169050919050565b60006110958261106a565b9050919050565b6110a58161108a565b81146110b057600080fd5b50565b6000813590506110c28161109c565b92915050565b6110d181611022565b81146110dc57600080fd5b50565b6000813590506110ee816110c8565b92915050565b60008060006060848603121561110d5761110c611060565b5b600061111b868287016110b3565b935050602061112c868287016110df565b925050604061113d868287016110df565b9150509250925092565b60006020828403121561115d5761115c611060565b5b600061116b848285016110df565b91505092915050565b61117d8161108a565b82525050565b60006020820190506111986000830184611174565b92915050565b6000602082840312156111b4576111b3611060565b5b60006111c2848285016110b3565b91505092915050565b600081519050919050565b600082825260208201905092915050565b60005b838110156112055780820151818401526020810190506111ea565b60008484015250505050565b6000601f19601f8301169050919050565b600061122d826111cb565b61123781856111d6565b93506112478185602086016111e7565b61125081611211565b840191505092915050565b60006060820190506112706000830186611174565b81810360208301526112828185611222565b905081810360408301526112968184611222565b9050949350505050565b6000815190506112af816110c8565b92915050565b6000602082840312156112cb576112ca611060565b5b60006112d9848285016112a0565b91505092915050565b7f4163746976652067616d6520616c72656164792065786973747320666f72207460008201527f68697320746f6b656e0000000000000000000000000000000000000000000000602082015250565b600061133e6029836111d6565b9150611349826112e2565b604082019050919050565b6000602082019050818103600083015261136d81611331565b9050919050565b60006060820190506113896000830186611174565b6113966020830185611174565b6113a3604083018461102c565b949350505050565b60008115159050919050565b6113c0816113ab565b81146113cb57600080fd5b50565b6000815190506113dd816113b7565b92915050565b6000602082840312156113f9576113f8611060565b5b6000611407848285016113ce565b91505092915050565b7f496e697469616c20636f7374207472616e73666572206661696c656400000000600082015250565b6000611446601c836111d6565b915061145182611410565b602082019050919050565b6000602082019050818103600083015261147581611439565b9050919050565b7f4e487b7100000000000000000000000000000000000000000000000000000000600052601160045260246000fd5b60006114b682611022565b91507fffffffffffffffffffffffffffffffffffffffffffffffffffffffffffffffff82036114e8576114e761147c565b5b600182019050919050565b600080fd5b600080fd5b7f4e487b7100000000000000000000000000000000000000000000000000000000600052604160045260246000fd5b61153582611211565b810181811067ffffffffffffffff82111715611554576115536114fd565b5b80604052505050565b6000611567611056565b9050611573828261152c565b919050565b600067ffffffffffffffff821115611593576115926114fd565b5b61159c82611211565b9050602081019050919050565b60006115bc6115b784611578565b61155d565b9050828152602081018484840111156115d8576115d76114f8565b5b6115e38482856111e7565b509392505050565b600082601f830112611600576115ff6114f3565b5b81516116108482602086016115a9565b91505092915050565b60006020828403121561162f5761162e611060565b5b600082015167ffffffffffffffff81111561164d5761164c611065565b5b611659848285016115eb565b91505092915050565b61166b81611022565b82525050565b61167a8161108a565b82525050565b600082825260208201905092915050565b600061169c826111cb565b6116a68185611680565b93506116b68185602086016111e7565b6116bf81611211565b840191505092915050565b600060c0830160008301516116e26000860182611662565b5060208301516116f56020860182611671565b5060408301516117086040860182611671565b50606083015161171b6060860182611662565b50608083015161172e6080860182611662565b5060a083015184820360a08601526117468282611691565b9150508091505092915050565b6000606082019050818103600083015261176d81866116ca565b905061177c6020830185611174565b611789604083018461102c565b949350505050565b60006040820190506117a66000830185611174565b6117b3602083018461102c565b9392505050565b7f546f6b656e207472616e7366657220746f2067616d65206661696c6564000000600082015250565b60006117f0601d836111d6565b91506117fb826117ba565b602082019050919050565b6000602082019050818103600083015261181f816117e3565b9050919050565b7f4e487b7100000000000000000000000000000000000000000000000000000000600052602260045260246000fd5b6000600282049050600182168061186d57607f821691505b6020821081036118805761187f611826565b5b50919050565b60008190508160005260206000209050919050565b60006020601f8301049050919050565b600082821b905092915050565b6000600883026118e87fffffffffffffffffffffffffffffffffffffffffffffffffffffffffffffffff826118ab565b6118f286836118ab565b95508019841693508086168417925050509392505050565b6000819050919050565b600061192f61192a61192584611022565b61190a565b611022565b9050919050565b6000819050919050565b61194983611914565b61195d61195582611936565b8484546118b8565b825550505050565b600090565b611972611965565b61197d818484611940565b505050565b5b818110156119a15761199660008261196a565b600181019050611983565b5050565b601f8211156119e6576119b781611886565b6119c08461189b565b810160208510156119cf578190505b6119e36119db8561189b565b830182611982565b50505b505050565b600082821c905092915050565b6000611a09600019846008026119eb565b1980831691505092915050565b6000611a2283836119f8565b9150826002028217905092915050565b611a3b826111cb565b67ffffffffffffffff811115611a5457611a536114fd565b5b611a5e8254611855565b611a698282856119a5565b600060209050601f831160018114611a9c5760008415611a8a578287015190505b611a948582611a16565b865550611afc565b601f198416611aaa86611886565b60005b82811015611ad257848901518255600182019150602085019450602081019050611aad565b86831015611aef5784890151611aeb601f8916826119f8565b8355505b6001600288020188555050505b505050505050565b600081519050611b138161109c565b92915050565b600060208284031215611b2f57611b2e611060565b5b6000611b3d84828501611b04565b91505092915050565b611b4f816113ab565b82525050565b600061014082019050611b6b600083018d61102c565b8181036020830152611b7d818c611222565b90508181036040830152611b91818b611222565b9050611ba0606083018a611174565b611bad608083018961102c565b611bba60a083018861102c565b611bc760c083018761102c565b611bd460e083018661102c565b611be2610100830185611174565b611bf0610120830184611b46565b9b9a505050505050505050505056fe61014060405234801561001157600080fd5b50604051611c38380380611c3883398181016040528101906100339190610452565b6001600081905550826000015160808181525050826020015173ffffffffffffffffffffffffffffffffffffffff1660a08173ffffffffffffffffffffffffffffffffffffffff1681525050826040015173ffffffffffffffffffffffffffffffffffffffff1660c08173ffffffffffffffffffffffffffffffffffffffff1681525050826060015160e08181525050826080015161010081815250508260a00151600190816100e391906106d8565b508260800151426100f491906107d9565b6002819055508260200151600360006101000a81548173ffffffffffffffffffffffffffffffffffffffff021916908373ffffffffffffffffffffffffffffffffffffffff1602179055508173ffffffffffffffffffffffffffffffffffffffff166101208173ffffffffffffffffffffffffffffffffffffffff16815250508060048190555050505061080d565b6000604051905090565b600080fd5b600080fd5b600080fd5b6000601f19601f8301169050919050565b7f4e487b7100000000000000000000000000000000000000000000000000000000600052604160045260246000fd5b6101e58261019c565b810181811067ffffffffffffffff82111715610204576102036101ad565b5b80604052505050565b6000610217610183565b905061022382826101dc565b919050565b600080fd5b6000819050919050565b6102408161022d565b811461024b57600080fd5b50565b60008151905061025d81610237565b92915050565b600073ffffffffffffffffffffffffffffffffffffffff82169050919050565b600061028e82610263565b9050919050565b61029e81610283565b81146102a957600080fd5b50565b6000815190506102bb81610295565b92915050565b600080fd5b600080fd5b600067ffffffffffffffff8211156102e6576102e56101ad565b5b6102ef8261019c565b9050602081019050919050565b60005b8381101561031a5780820151818401526020810190506102ff565b60008484015250505050565b6000610339610334846102cb565b61020d565b905082815260208101848484011115610355576103546102c6565b5b6103608482856102fc565b509392505050565b600082601f83011261037d5761037c6102c1565b5b815161038d848260208601610326565b91505092915050565b600060c082840312156103ac576103ab610197565b5b6103b660c061020d565b905060006103c68482850161024e565b60008301525060206103da848285016102ac565b60208301525060406103ee848285016102ac565b60408301525060606104028482850161024e565b60608301525060806104168482850161024e565b60808301525060a082015167ffffffffffffffff81111561043a57610439610228565b5b61044684828501610368565b60a08301525092915050565b60008060006060848603121561046b5761046a61018d565b5b600084015167ffffffffffffffff81111561048957610488610192565b5b61049586828701610396565b93505060206104a6868287016102ac565b92505060406104b78682870161024e565b9150509250925092565b600081519050919050565b7f4e487b7100000000000000000000000000000000000000000000000000000000600052602260045260246000fd5b6000600282049050600182168061051357607f821691505b602082108103610526576105256104cc565b5b50919050565b60008190508160005260206000209050919050565b60006020601f8301049050919050565b600082821b905092915050565b60006008830261058e7fffffffffffffffffffffffffffffffffffffffffffffffffffffffffffffffff82610551565b6105988683610551565b95508019841693508086168417925050509392505050565b6000819050919050565b60006105d56105d06105cb8461022d565b6105b0565b61022d565b9050919050565b6000819050919050565b6105ef836105ba565b6106036105fb826105dc565b84845461055e565b825550505050565b600090565b61061861060b565b6106238184846105e6565b505050565b5b818110156106475761063c600082610610565b600181019050610629565b5050565b601f82111561068c5761065d8161052c565b61066684610541565b81016020851015610675578190505b61068961068185610541565b830182610628565b50505b505050565b600082821c905092915050565b60006106af60001984600802610691565b1980831691505092915050565b60006106c8838361069e565b9150826002028217905092915050565b6106e1826104c1565b67ffffffffffffffff8111156106fa576106f96101ad565b5b61070482546104fb565b61070f82828561064b565b600060209050601f8311600181146107425760008415610730578287015190505b61073a85826106bc565b8655506107a2565b601f1984166107508661052c565b60005b8281101561077857848901518255600182019150602085019450602081019050610753565b868310156107955784890151610791601f89168261069e565b8355505b6001600288020188555050505b505050505050565b7f4e487b7100000000000000000000000000000000000000000000000000000000600052601160045260246000fd5b60006107e48261022d565b91506107ef8361022d565b9250828201905080821115610807576108066107aa565b5b92915050565b60805160a05160c05160e051610100516101205161139d61089b600039600081816104a60152610a5201526000818161091701526109e601526000818161027f015281816107b201528181610853015261094901526000818161046a0152818161053301528181610714015281816108150152610a2e015260006102c101526000610a0a015261139d6000f3fe608060405234801561001057600080fd5b50600436106100ea5760003560e01c80637b61c3201161008c578063af640d0f11610066578063af640d0f14610205578063c3dfdae614610223578063c415b95c14610241578063f1a1d3ba1461025f576100ea565b80637b61c320146101ad578063843b4386146101cb578063a5d1c0c0146101e7576100ea565b806357c9ca14116100c857806357c9ca14146101495780635c39fcc11461016757806370740ac914610185578063719ce73e1461018f576100ea565b806313faede6146100ef5780633197cbb61461010d57806334fbc9a11461012b575b600080fd5b6100f761027d565b6040516101049190610b03565b60405180910390f35b6101156102a1565b6040516101229190610b03565b60405180910390f35b6101336102a7565b6040516101409190610b03565b60405180910390f35b6101516102ac565b60405161015e9190610b39565b60405180910390f35b61016f6102bf565b60405161017c9190610b95565b60405180910390f35b61018d6102e3565b005b610197610630565b6040516101a49190610b03565b60405180910390f35b6101b5610636565b6040516101c29190610c40565b60405180910390f35b6101e560048036038101906101e09190610dab565b6106c4565b005b6101ef6109e4565b6040516101fc9190610b03565b60405180910390f35b61020d610a08565b60405161021a9190610b03565b60405180910390f35b61022b610a2c565b6040516102389190610b95565b60405180910390f35b610249610a50565b6040516102569190610b95565b60405180910390f35b610267610a74565b6040516102749190610b95565b60405180910390f35b7f000000000000000000000000000000000000000000000000000000000000000081565b60025481565b600281565b600560009054906101000a900460ff1681565b7f000000000000000000000000000000000000000000000000000000000000000081565b6102eb610a9a565b600254421015610330576040517f08c379a000000000000000000000000000000000000000000000000000000000815260040161032790610e40565b60405180910390fd5b600360009054906101000a900473ffffffffffffffffffffffffffffffffffffffff1673ffffffffffffffffffffffffffffffffffffffff163373ffffffffffffffffffffffffffffffffffffffff16146103c0576040517f08c379a00000000000000000000000000000000000000000000000000000000081526004016103b790610eac565b60405180910390fd5b600560009054906101000a900460ff1615610410576040517f08c379a000000000000000000000000000000000000000000000000000000000815260040161040790610f18565b60405180910390fd5b6001600560006101000a81548160ff02191690831515021790555060006004549050600060646002836104439190610f67565b61044d9190610fd8565b90506000818361045d9190611009565b90506000821115610528577f000000000000000000000000000000000000000000000000000000000000000073ffffffffffffffffffffffffffffffffffffffff1663a9059cbb7f0000000000000000000000000000000000000000000000000000000000000000846040518363ffffffff1660e01b81526004016104e392919061103d565b6020604051808303816000875af1158015610502573d6000803e3d6000fd5b505050506040513d601f19601f820116820180604052508101906105269190611092565b505b60008111156105d1577f000000000000000000000000000000000000000000000000000000000000000073ffffffffffffffffffffffffffffffffffffffff1663a9059cbb33836040518363ffffffff1660e01b815260040161058c92919061103d565b6020604051808303816000875af11580156105ab573d6000803e3d6000fd5b505050506040513d601f19601f820116820180604052508101906105cf9190611092565b505b3373ffffffffffffffffffffffffffffffffffffffff167f701a77bd5e0b7b1ffffe478c3c19e3caadca855782127fca812c7ccd9646cdc482844260405161061b939291906110bf565b60405180910390a250505061062e610ae0565b565b60045481565b6001805461064390611125565b80601f016020809104026020016040519081016040528092919081815260200182805461066f90611125565b80156106bc5780601f10610691576101008083540402835291602001916106bc565b820191906000526020600020905b81548152906001019060200180831161069f57829003601f168201915b505050505081565b6106cc610a9a565b6002544210610710576040517f08c379a0000000000000000000000000000000000000000000000000000000008152600401610707906111a2565b60405180910390fd5b60007f000000000000000000000000000000000000000000000000000000000000000073ffffffffffffffffffffffffffffffffffffffff1663dd62ed3e33306040518363ffffffff1660e01b815260040161076d9291906111c2565b602060405180830381865afa15801561078a573d6000803e3d6000fd5b505050506040513d601f19601f820116820180604052508101906107ae9190611217565b90507f0000000000000000000000000000000000000000000000000000000000000000811015610813576040517f08c379a000000000000000000000000000000000000000000000000000000000815260040161080a90611290565b60405180910390fd5b7f000000000000000000000000000000000000000000000000000000000000000073ffffffffffffffffffffffffffffffffffffffff166323b872dd33307f00000000000000000000000000000000000000000000000000000000000000006040518463ffffffff1660e01b8152600401610890939291906112b0565b6020604051808303816000875af11580156108af573d6000803e3d6000fd5b505050506040513d601f19601f820116820180604052508101906108d39190611092565b5033600360006101000a81548173ffffffffffffffffffffffffffffffffffffffff021916908373ffffffffffffffffffffffffffffffffffffffff1602179055507f00000000000000000000000000000000000000000000000000000000000000004261094191906112e7565b6002819055507f00000000000000000000000000000000000000000000000000000000000000006004600082825461097991906112e7565b925050819055503373ffffffffffffffffffffffffffffffffffffffff167ffa6be5ee3d008b8d3452e8de8be3a9fd7b4b129129c95f2eab53255a28804da683600254600454426040516109d0949392919061131b565b60405180910390a2506109e1610ae0565b50565b7f000000000000000000000000000000000000000000000000000000000000000081565b7f000000000000000000000000000000000000000000000000000000000000000081565b7f000000000000000000000000000000000000000000000000000000000000000081565b7f000000000000000000000000000000000000000000000000000000000000000081565b600360009054906101000a900473ffffffffffffffffffffffffffffffffffffffff1681565b600260005403610ad6576040517f3ee5aeb500000000000000000000000000000000000000000000000000000000815260040160405180910390fd5b6002600081905550565b6001600081905550565b6000819050919050565b610afd81610aea565b82525050565b6000602082019050610b186000830184610af4565b92915050565b60008115159050919050565b610b3381610b1e565b82525050565b6000602082019050610b4e6000830184610b2a565b92915050565b600073ffffffffffffffffffffffffffffffffffffffff82169050919050565b6000610b7f82610b54565b9050919050565b610b8f81610b74565b82525050565b6000602082019050610baa6000830184610b86565b92915050565b600081519050919050565b600082825260208201905092915050565b60005b83811015610bea578082015181840152602081019050610bcf565b60008484015250505050565b6000601f19601f8301169050919050565b6000610c1282610bb0565b610c1c8185610bbb565b9350610c2c818560208601610bcc565b610c3581610bf6565b840191505092915050565b60006020820190508181036000830152610c5a8184610c07565b905092915050565b6000604051905090565b600080fd5b600080fd5b600080fd5b600080fd5b7f4e487b7100000000000000000000000000000000000000000000000000000000600052604160045260246000fd5b610cb882610bf6565b810181811067ffffffffffffffff82111715610cd757610cd6610c80565b5b80604052505050565b6000610cea610c62565b9050610cf68282610caf565b919050565b600067ffffffffffffffff821115610d1657610d15610c80565b5b610d1f82610bf6565b9050602081019050919050565b82818337600083830152505050565b6000610d4e610d4984610cfb565b610ce0565b905082815260208101848484011115610d6a57610d69610c7b565b5b610d75848285610d2c565b509392505050565b600082601f830112610d9257610d91610c76565b5b8135610da2848260208601610d3b565b91505092915050565b600060208284031215610dc157610dc0610c6c565b5b600082013567ffffffffffffffff811115610ddf57610dde610c71565b5b610deb84828501610d7d565b91505092915050565b7f47616d65206e6f7420656e646564207965740000000000000000000000000000600082015250565b6000610e2a601283610bbb565b9150610e3582610df4565b602082019050919050565b60006020820190508181036000830152610e5981610e1d565b9050919050565b7f4f6e6c792077696e6e65722063616e2077697468647261770000000000000000600082015250565b6000610e96601883610bbb565b9150610ea182610e60565b602082019050919050565b60006020820190508181036000830152610ec581610e89565b9050919050565b7f5072697a6520616c726561647920636c61696d65640000000000000000000000600082015250565b6000610f02601583610bbb565b9150610f0d82610ecc565b602082019050919050565b60006020820190508181036000830152610f3181610ef5565b9050919050565b7f4e487b7100000000000000000000000000000000000000000000000000000000600052601160045260246000fd5b6000610f7282610aea565b9150610f7d83610aea565b9250828202610f8b81610aea565b91508282048414831517610fa257610fa1610f38565b5b5092915050565b7f4e487b7100000000000000000000000000000000000000000000000000000000600052601260045260246000fd5b6000610fe382610aea565b9150610fee83610aea565b925082610ffe57610ffd610fa9565b5b828204905092915050565b600061101482610aea565b915061101f83610aea565b925082820390508181111561103757611036610f38565b5b92915050565b60006040820190506110526000830185610b86565b61105f6020830184610af4565b9392505050565b61106f81610b1e565b811461107a57600080fd5b50565b60008151905061108c81611066565b92915050565b6000602082840312156110a8576110a7610c6c565b5b60006110b68482850161107d565b91505092915050565b60006060820190506110d46000830186610af4565b6110e16020830185610af4565b6110ee6040830184610af4565b949350505050565b7f4e487b7100000000000000000000000000000000000000000000000000000000600052602260045260246000fd5b6000600282049050600182168061113d57607f821691505b6020821081036111505761114f6110f6565b5b50919050565b7f47616d6520616c726561647920656e6465640000000000000000000000000000600082015250565b600061118c601283610bbb565b915061119782611156565b602082019050919050565b600060208201905081810360008301526111bb8161117f565b9050919050565b60006040820190506111d76000830185610b86565b6111e46020830184610b86565b9392505050565b6111f481610aea565b81146111ff57600080fd5b50565b600081519050611211816111eb565b92915050565b60006020828403121561122d5761122c610c6c565b5b600061123b84828501611202565b91505092915050565b7f45524332303a204d75737420617070726f766520746f6b656e20666972737400600082015250565b600061127a601f83610bbb565b915061128582611244565b602082019050919050565b600060208201905081810360008301526112a98161126d565b9050919050565b60006060820190506112c56000830186610b86565b6112d26020830185610b86565b6112df6040830184610af4565b949350505050565b60006112f282610aea565b91506112fd83610aea565b925082820190508082111561131557611314610f38565b5b92915050565b600060808201905081810360008301526113358187610c07565b90506113446020830186610af4565b6113516040830185610af4565b61135e6060830184610af4565b9594505050505056fea26469706673582212207310b54b74c6c5e5609cc44de904f7250cae72e2aba1c104dc8f41814321c84064736f6c634300081c0033a264697066735822122015dc66bbfe7c9fd7dcf66cee1acad55b20060ab1aa9507724422bd13a6cbd4be64736f6c634300081c0033",
  "linkReferences": {},
  "deployedLinkReferences": {},
  "immutableReferences": {},
  "inputSourceName": "project/contracts/GameFactory.sol",
  "buildInfoId": "solc-0_8_28-5e4a7532001ed00f5abe1798f9e76664bfcb8ab8"
}