{
  "_format": "hh3-artifact-1",
  "contractName": "CommentGame",
  "sourceName": "contracts/CommentGame.sol",
  "abi": [
    {
      "inputs": [
        {
          "components": [
            {
              "internalType": "uint256",
              "name": "id",
              "type": "uint256"
            },
            {
              "internalType": "address",
              "name": "initiator",
              "type": "address"
            },
            {
              "internalType": "address",
              "name": "gameToken",
              "type": "address"
            },
            {
              "internalType": "uint256",
              "name": "cost",
              "type": "uint256"
            },
            {
              "internalType": "uint256",
              "name": "gameTime",
              "type": "uint256"
            }
          ],
          "internalType": "struct CommentGame.Params",
          "name": "_params",
          "type": "tuple"
        },
        {
          "internalType": "address",
          "name": "_feeCollector",
          "type": "address"
        },
        {
          "internalType": "uint256",
          "name": "_initialPrize",
          "type": "uint256"
        }
      ],
      "stateMutability": "nonpayable",
      "type": "constructor"
    },
    {
      "inputs": [],
      "name": "ReentrancyGuardReentrantCall",
      "type": "error"
    },
    {
      "anonymous": false,
      "inputs": [
        {
          "indexed": true,
          "internalType": "address",
          "name": "commentor",
          "type": "address"
        },
        {
          "indexed": false,
          "internalType": "string",
          "name": "message",
          "type": "string"
        },
        {
          "indexed": false,
          "internalType": "uint256",
          "name": "newEndTime",
          "type": "uint256"
        },
        {
          "indexed": false,
          "internalType": "uint256",
          "name": "prizePool",
          "type": "uint256"
        },
        {
          "indexed": false,
          "internalType": "uint256",
          "name": "timestamp",
          "type": "uint256"
        }
      ],
      "name": "CommentAdded",
      "type": "event"
    },
    {
      "inputs": [],
      "name": "PLATFORM_FEE",
      "outputs": [
        {
          "internalType": "uint256",
          "name": "",
          "type": "uint256"
        }
      ],
      "stateMutability": "view",
      "type": "function"
    },
    {
      "inputs": [
        {
          "internalType": "string",
          "name": "_message",
          "type": "string"
        }
      ],
      "name": "addComment",
      "outputs": [],
      "stateMutability": "nonpayable",
      "type": "function"
    },
    {
      "inputs": [],
      "name": "claimPrize",
      "outputs": [],
      "stateMutability": "nonpayable",
      "type": "function"
    },
    {
      "inputs": [],
      "name": "cost",
      "outputs": [
        {
          "internalType": "uint256",
          "name": "",
          "type": "uint256"
        }
      ],
      "stateMutability": "view",
      "type": "function"
    },
    {
      "inputs": [],
      "name": "endTime",
      "outputs": [
        {
          "internalType": "uint256",
          "name": "",
          "type": "uint256"
        }
      ],
      "stateMutability": "view",
      "type": "function"
    },
    {
      "inputs": [],
      "name": "feeCollector",
      "outputs": [
        {
          "internalType": "address",
          "name": "",
          "type": "address"
        }
      ],
      "stateMutability": "view",
      "type": "function"
    },
    {
      "inputs": [],
      "name": "gameTime",
      "outputs": [
        {
          "internalType": "uint256",
          "name": "",
          "type": "uint256"
        }
      ],
      "stateMutability": "view",
      "type": "function"
    },
    {
      "inputs": [],
      "name": "gameToken",
      "outputs": [
        {
          "internalType": "address",
          "name": "",
          "type": "address"
        }
      ],
      "stateMutability": "view",
      "type": "function"
    },
    {
      "inputs": [],
      "name": "id",
      "outputs": [
        {
          "internalType": "uint256",
          "name": "",
          "type": "uint256"
        }
      ],
      "stateMutability": "view",
      "type": "function"
    },
    {
      "inputs": [],
      "name": "initiator",
      "outputs": [
        {
          "internalType": "address",
          "name": "",
          "type": "address"
        }
      ],
      "stateMutability": "view",
      "type": "function"
    },
    {
      "inputs": [],
      "name": "isClaimed",
      "outputs": [
        {
          "internalType": "bool",
          "name": "",
          "type": "bool"
        }
      ],
      "stateMutability": "view",
      "type": "function"
    },
    {
      "inputs": [],
      "name": "lastCommentor",
      "outputs": [
        {
          "internalType": "address",
          "name": "",
          "type": "address"
        }
      ],
      "stateMutability": "view",
      "type": "function"
    },
    {
      "inputs": [],
      "name": "prizePool",
      "outputs": [
        {
          "internalType": "uint256",
          "name": "",
          "type": "uint256"
        }
      ],
      "stateMutability": "view",
      "type": "function"
    }
  ],
  "bytecode": "0x61014060405234801561001157600080fd5b5060405161163e38038061163e8339818101604052810190610033919061032f565b6001600081905550826000015160808181525050826020015173ffffffffffffffffffffffffffffffffffffffff1660a08173ffffffffffffffffffffffffffffffffffffffff1681525050826040015173ffffffffffffffffffffffffffffffffffffffff1660c08173ffffffffffffffffffffffffffffffffffffffff1681525050826060015160e08181525050826080015161010081815250508260800151426100e091906103b1565b6001819055508260200151600260006101000a81548173ffffffffffffffffffffffffffffffffffffffff021916908373ffffffffffffffffffffffffffffffffffffffff1602179055508173ffffffffffffffffffffffffffffffffffffffff166101208173ffffffffffffffffffffffffffffffffffffffff1681525050806003819055505050506103e5565b6000604051905090565b600080fd5b600080fd5b6000601f19601f8301169050919050565b7f4e487b7100000000000000000000000000000000000000000000000000000000600052604160045260246000fd5b6101cc82610183565b810181811067ffffffffffffffff821117156101eb576101ea610194565b5b80604052505050565b60006101fe61016f565b905061020a82826101c3565b919050565b6000819050919050565b6102228161020f565b811461022d57600080fd5b50565b60008151905061023f81610219565b92915050565b600073ffffffffffffffffffffffffffffffffffffffff82169050919050565b600061027082610245565b9050919050565b61028081610265565b811461028b57600080fd5b50565b60008151905061029d81610277565b92915050565b600060a082840312156102b9576102b861017e565b5b6102c360a06101f4565b905060006102d384828501610230565b60008301525060206102e78482850161028e565b60208301525060406102fb8482850161028e565b604083015250606061030f84828501610230565b606083015250608061032384828501610230565b60808301525092915050565b600080600060e0848603121561034857610347610179565b5b6000610356868287016102a3565b93505060a06103678682870161028e565b92505060c061037886828701610230565b9150509250925092565b7f4e487b7100000000000000000000000000000000000000000000000000000000600052601160045260246000fd5b60006103bc8261020f565b91506103c78361020f565b92508282019050808211156103df576103de610382565b5b92915050565b60805160a05160c05160e05161010051610120516111cb6104736000396000818161046d01526109390152600081816107fe01526108cd015260008181610246015281816106990152818161073a0152610830015260008181610431015281816104fa015281816105fb015281816106fc015261091501526000610288015260006108f101526111cb6000f3fe608060405234801561001057600080fd5b50600436106100cf5760003560e01c8063719ce73e1161008c578063af640d0f11610066578063af640d0f146101cc578063c3dfdae6146101ea578063c415b95c14610208578063f1a1d3ba14610226576100cf565b8063719ce73e14610174578063843b438614610192578063a5d1c0c0146101ae576100cf565b806313faede6146100d45780633197cbb6146100f257806334fbc9a11461011057806357c9ca141461012e5780635c39fcc11461014c57806370740ac91461016a575b600080fd5b6100dc610244565b6040516100e991906109ea565b60405180910390f35b6100fa610268565b60405161010791906109ea565b60405180910390f35b61011861026e565b60405161012591906109ea565b60405180910390f35b610136610273565b6040516101439190610a20565b60405180910390f35b610154610286565b6040516101619190610a7c565b60405180910390f35b6101726102aa565b005b61017c6105a5565b60405161018991906109ea565b60405180910390f35b6101ac60048036038101906101a79190610bf1565b6105ab565b005b6101b66108cb565b6040516101c391906109ea565b60405180910390f35b6101d46108ef565b6040516101e191906109ea565b60405180910390f35b6101f2610913565b6040516101ff9190610a7c565b60405180910390f35b610210610937565b60405161021d9190610a7c565b60405180910390f35b61022e61095b565b60405161023b9190610a7c565b60405180910390f35b7f000000000000000000000000000000000000000000000000000000000000000081565b60015481565b600281565b600460009054906101000a900460ff1681565b7f000000000000000000000000000000000000000000000000000000000000000081565b6102b2610981565b6001544210156102f7576040517f08c379a00000000000000000000000000000000000000000000000000000000081526004016102ee90610c97565b60405180910390fd5b600260009054906101000a900473ffffffffffffffffffffffffffffffffffffffff1673ffffffffffffffffffffffffffffffffffffffff163373ffffffffffffffffffffffffffffffffffffffff1614610387576040517f08c379a000000000000000000000000000000000000000000000000000000000815260040161037e90610d03565b60405180910390fd5b600460009054906101000a900460ff16156103d7576040517f08c379a00000000000000000000000000000000000000000000000000000000081526004016103ce90610d6f565b60405180910390fd5b6001600460006101000a81548160ff021916908315150217905550600060035490506000606460028361040a9190610dbe565b6104149190610e2f565b9050600081836104249190610e60565b905060008211156104ef577f000000000000000000000000000000000000000000000000000000000000000073ffffffffffffffffffffffffffffffffffffffff1663a9059cbb7f0000000000000000000000000000000000000000000000000000000000000000846040518363ffffffff1660e01b81526004016104aa929190610e94565b6020604051808303816000875af11580156104c9573d6000803e3d6000fd5b505050506040513d601f19601f820116820180604052508101906104ed9190610ee9565b505b6000811115610598577f000000000000000000000000000000000000000000000000000000000000000073ffffffffffffffffffffffffffffffffffffffff1663a9059cbb33836040518363ffffffff1660e01b8152600401610553929190610e94565b6020604051808303816000875af1158015610572573d6000803e3d6000fd5b505050506040513d601f19601f820116820180604052508101906105969190610ee9565b505b5050506105a36109c7565b565b60035481565b6105b3610981565b60015442106105f7576040517f08c379a00000000000000000000000000000000000000000000000000000000081526004016105ee90610f62565b60405180910390fd5b60007f000000000000000000000000000000000000000000000000000000000000000073ffffffffffffffffffffffffffffffffffffffff1663dd62ed3e33306040518363ffffffff1660e01b8152600401610654929190610f82565b602060405180830381865afa158015610671573d6000803e3d6000fd5b505050506040513d601f19601f820116820180604052508101906106959190610fd7565b90507f00000000000000000000000000000000000000000000000000000000000000008110156106fa576040517f08c379a00000000000000000000000000000000000000000000000000000000081526004016106f190611050565b60405180910390fd5b7f000000000000000000000000000000000000000000000000000000000000000073ffffffffffffffffffffffffffffffffffffffff166323b872dd33307f00000000000000000000000000000000000000000000000000000000000000006040518463ffffffff1660e01b815260040161077793929190611070565b6020604051808303816000875af1158015610796573d6000803e3d6000fd5b505050506040513d601f19601f820116820180604052508101906107ba9190610ee9565b5033600260006101000a81548173ffffffffffffffffffffffffffffffffffffffff021916908373ffffffffffffffffffffffffffffffffffffffff1602179055507f00000000000000000000000000000000000000000000000000000000000000004261082891906110a7565b6001819055507f00000000000000000000000000000000000000000000000000000000000000006003600082825461086091906110a7565b925050819055503373ffffffffffffffffffffffffffffffffffffffff167ffa6be5ee3d008b8d3452e8de8be3a9fd7b4b129129c95f2eab53255a28804da683600154600354426040516108b79493929190611149565b60405180910390a2506108c86109c7565b50565b7f000000000000000000000000000000000000000000000000000000000000000081565b7f000000000000000000000000000000000000000000000000000000000000000081565b7f000000000000000000000000000000000000000000000000000000000000000081565b7f000000000000000000000000000000000000000000000000000000000000000081565b600260009054906101000a900473ffffffffffffffffffffffffffffffffffffffff1681565b6002600054036109bd576040517f3ee5aeb500000000000000000000000000000000000000000000000000000000815260040160405180910390fd5b6002600081905550565b6001600081905550565b6000819050919050565b6109e4816109d1565b82525050565b60006020820190506109ff60008301846109db565b92915050565b60008115159050919050565b610a1a81610a05565b82525050565b6000602082019050610a356000830184610a11565b92915050565b600073ffffffffffffffffffffffffffffffffffffffff82169050919050565b6000610a6682610a3b565b9050919050565b610a7681610a5b565b82525050565b6000602082019050610a916000830184610a6d565b92915050565b6000604051905090565b600080fd5b600080fd5b600080fd5b600080fd5b6000601f19601f8301169050919050565b7f4e487b7100000000000000000000000000000000000000000000000000000000600052604160045260246000fd5b610afe82610ab5565b810181811067ffffffffffffffff82111715610b1d57610b1c610ac6565b5b80604052505050565b6000610b30610a97565b9050610b3c8282610af5565b919050565b600067ffffffffffffffff821115610b5c57610b5b610ac6565b5b610b6582610ab5565b9050602081019050919050565b82818337600083830152505050565b6000610b94610b8f84610b41565b610b26565b905082815260208101848484011115610bb057610baf610ab0565b5b610bbb848285610b72565b509392505050565b600082601f830112610bd857610bd7610aab565b5b8135610be8848260208601610b81565b91505092915050565b600060208284031215610c0757610c06610aa1565b5b600082013567ffffffffffffffff811115610c2557610c24610aa6565b5b610c3184828501610bc3565b91505092915050565b600082825260208201905092915050565b7f47616d65206e6f7420656e646564207965740000000000000000000000000000600082015250565b6000610c81601283610c3a565b9150610c8c82610c4b565b602082019050919050565b60006020820190508181036000830152610cb081610c74565b9050919050565b7f4f6e6c792077696e6e65722063616e2077697468647261770000000000000000600082015250565b6000610ced601883610c3a565b9150610cf882610cb7565b602082019050919050565b60006020820190508181036000830152610d1c81610ce0565b9050919050565b7f5072697a6520616c726561647920636c61696d65640000000000000000000000600082015250565b6000610d59601583610c3a565b9150610d6482610d23565b602082019050919050565b60006020820190508181036000830152610d8881610d4c565b9050919050565b7f4e487b7100000000000000000000000000000000000000000000000000000000600052601160045260246000fd5b6000610dc9826109d1565b9150610dd4836109d1565b9250828202610de2816109d1565b91508282048414831517610df957610df8610d8f565b5b5092915050565b7f4e487b7100000000000000000000000000000000000000000000000000000000600052601260045260246000fd5b6000610e3a826109d1565b9150610e45836109d1565b925082610e5557610e54610e00565b5b828204905092915050565b6000610e6b826109d1565b9150610e76836109d1565b9250828203905081811115610e8e57610e8d610d8f565b5b92915050565b6000604082019050610ea96000830185610a6d565b610eb660208301846109db565b9392505050565b610ec681610a05565b8114610ed157600080fd5b50565b600081519050610ee381610ebd565b92915050565b600060208284031215610eff57610efe610aa1565b5b6000610f0d84828501610ed4565b91505092915050565b7f47616d6520616c726561647920656e6465640000000000000000000000000000600082015250565b6000610f4c601283610c3a565b9150610f5782610f16565b602082019050919050565b60006020820190508181036000830152610f7b81610f3f565b9050919050565b6000604082019050610f976000830185610a6d565b610fa46020830184610a6d565b9392505050565b610fb4816109d1565b8114610fbf57600080fd5b50565b600081519050610fd181610fab565b92915050565b600060208284031215610fed57610fec610aa1565b5b6000610ffb84828501610fc2565b91505092915050565b7f45524332303a204d75737420617070726f766520746f6b656e20666972737400600082015250565b600061103a601f83610c3a565b915061104582611004565b602082019050919050565b600060208201905081810360008301526110698161102d565b9050919050565b60006060820190506110856000830186610a6d565b6110926020830185610a6d565b61109f60408301846109db565b949350505050565b60006110b2826109d1565b91506110bd836109d1565b92508282019050808211156110d5576110d4610d8f565b5b92915050565b600081519050919050565b60005b838110156111045780820151818401526020810190506110e9565b60008484015250505050565b600061111b826110db565b6111258185610c3a565b93506111358185602086016110e6565b61113e81610ab5565b840191505092915050565b600060808201905081810360008301526111638187611110565b905061117260208301866109db565b61117f60408301856109db565b61118c60608301846109db565b9594505050505056fea2646970667358221220e254a85938257a73f780be952bf2fd1a9ee0877baac309fdb222de781088b3e564736f6c634300081c0033",
  "linkReferences": {},
  "deployedLinkReferences": {},
  "immutableReferences": {
    "1012": [
      {
        "length": 32,
        "start": 2289
      }
    ],
    "1014": [
      {
        "length": 32,
        "start": 648
      }
    ],
    "1016": [
      {
        "length": 32,
        "start": 1073
      },
      {
        "length": 32,
        "start": 1274
      },
      {
        "length": 32,
        "start": 1531
      },
      {
        "length": 32,
        "start": 1788
      },
      {
        "length": 32,
        "start": 2325
      }
    ],
    "1018": [
      {
        "length": 32,
        "start": 582
      },
      {
        "length": 32,
        "start": 1689
      },
      {
        "length": 32,
        "start": 1850
      },
      {
        "length": 32,
        "start": 2096
      }
    ],
    "1020": [
      {
        "length": 32,
        "start": 2046
      },
      {
        "length": 32,
        "start": 2253
      }
    ],
    "1033": [
      {
        "length": 32,
        "start": 1133
      },
      {
        "length": 32,
        "start": 2361
      }
    ]
  },
  "inputSourceName": "project/contracts/CommentGame.sol",
  "buildInfoId": "solc-0_8_28-5604ed233c9c5fb8c6074b7d15af541abbb0de94"
}