{
  "_format": "hh3-artifact-1",
  "contractName": "CommentGame",
  "sourceName": "contracts/CommentGame.sol",
  "abi": [
    {
      "inputs": [
        {
          "components": [
            {
              "internalType": "uint256",
              "name": "id",
              "type": "uint256"
            },
            {
              "internalType": "address",
              "name": "initiator",
              "type": "address"
            },
            {
              "internalType": "address",
              "name": "gameToken",
              "type": "address"
            },
            {
              "internalType": "uint256",
              "name": "cost",
              "type": "uint256"
            },
            {
              "internalType": "uint256",
              "name": "timer",
              "type": "uint256"
            }
          ],
          "internalType": "struct CommentGame.Params",
          "name": "_params",
          "type": "tuple"
        },
        {
          "internalType": "address",
          "name": "_feeCollector",
          "type": "address"
        }
      ],
      "stateMutability": "nonpayable",
      "type": "constructor"
    },
    {
      "inputs": [],
      "name": "ReentrancyGuardReentrantCall",
      "type": "error"
    },
    {
      "anonymous": false,
      "inputs": [
        {
          "indexed": true,
          "internalType": "address",
          "name": "commentor",
          "type": "address"
        },
        {
          "indexed": false,
          "internalType": "string",
          "name": "message",
          "type": "string"
        },
        {
          "indexed": false,
          "internalType": "uint256",
          "name": "newEndTime",
          "type": "uint256"
        },
        {
          "indexed": false,
          "internalType": "uint256",
          "name": "timestamp",
          "type": "uint256"
        }
      ],
      "name": "CommentAdded",
      "type": "event"
    },
    {
      "inputs": [],
      "name": "PLATFORM_FEE",
      "outputs": [
        {
          "internalType": "uint256",
          "name": "",
          "type": "uint256"
        }
      ],
      "stateMutability": "view",
      "type": "function"
    },
    {
      "inputs": [],
      "name": "accumulatedFees",
      "outputs": [
        {
          "internalType": "uint256",
          "name": "",
          "type": "uint256"
        }
      ],
      "stateMutability": "view",
      "type": "function"
    },
    {
      "inputs": [
        {
          "internalType": "string",
          "name": "_message",
          "type": "string"
        }
      ],
      "name": "addComment",
      "outputs": [],
      "stateMutability": "nonpayable",
      "type": "function"
    },
    {
      "inputs": [],
      "name": "claimPrize",
      "outputs": [],
      "stateMutability": "nonpayable",
      "type": "function"
    },
    {
      "inputs": [],
      "name": "cost",
      "outputs": [
        {
          "internalType": "uint256",
          "name": "",
          "type": "uint256"
        }
      ],
      "stateMutability": "view",
      "type": "function"
    },
    {
      "inputs": [],
      "name": "endTime",
      "outputs": [
        {
          "internalType": "uint256",
          "name": "",
          "type": "uint256"
        }
      ],
      "stateMutability": "view",
      "type": "function"
    },
    {
      "inputs": [],
      "name": "feeCollector",
      "outputs": [
        {
          "internalType": "address",
          "name": "",
          "type": "address"
        }
      ],
      "stateMutability": "view",
      "type": "function"
    },
    {
      "inputs": [],
      "name": "gameToken",
      "outputs": [
        {
          "internalType": "address",
          "name": "",
          "type": "address"
        }
      ],
      "stateMutability": "view",
      "type": "function"
    },
    {
      "inputs": [],
      "name": "id",
      "outputs": [
        {
          "internalType": "uint256",
          "name": "",
          "type": "uint256"
        }
      ],
      "stateMutability": "view",
      "type": "function"
    },
    {
      "inputs": [],
      "name": "initiator",
      "outputs": [
        {
          "internalType": "address",
          "name": "",
          "type": "address"
        }
      ],
      "stateMutability": "view",
      "type": "function"
    },
    {
      "inputs": [],
      "name": "isEnded",
      "outputs": [
        {
          "internalType": "bool",
          "name": "",
          "type": "bool"
        }
      ],
      "stateMutability": "view",
      "type": "function"
    },
    {
      "inputs": [],
      "name": "lastCommentor",
      "outputs": [
        {
          "internalType": "address",
          "name": "",
          "type": "address"
        }
      ],
      "stateMutability": "view",
      "type": "function"
    },
    {
      "inputs": [],
      "name": "timer",
      "outputs": [
        {
          "internalType": "uint256",
          "name": "",
          "type": "uint256"
        }
      ],
      "stateMutability": "view",
      "type": "function"
    }
  ],
  "bytecode": "0x610120604052348015610010575f5ffd5b5060405161156d38038061156d83398181016040528101906100329190610310565b60015f81905550815f015160808181525050816020015173ffffffffffffffffffffffffffffffffffffffff1660a08173ffffffffffffffffffffffffffffffffffffffff1681525050816040015173ffffffffffffffffffffffffffffffffffffffff1660c08173ffffffffffffffffffffffffffffffffffffffff1681525050816060015160e0818152505081608001516001819055508160800151426100db919061037b565b600281905550816020015160035f6101000a81548173ffffffffffffffffffffffffffffffffffffffff021916908373ffffffffffffffffffffffffffffffffffffffff1602179055508073ffffffffffffffffffffffffffffffffffffffff166101008173ffffffffffffffffffffffffffffffffffffffff168152505050506103ae565b5f604051905090565b5f5ffd5b5f5ffd5b5f601f19601f8301169050919050565b7f4e487b71000000000000000000000000000000000000000000000000000000005f52604160045260245ffd5b6101b882610172565b810181811067ffffffffffffffff821117156101d7576101d6610182565b5b80604052505050565b5f6101e9610161565b90506101f582826101af565b919050565b5f819050919050565b61020c816101fa565b8114610216575f5ffd5b50565b5f8151905061022781610203565b92915050565b5f73ffffffffffffffffffffffffffffffffffffffff82169050919050565b5f6102568261022d565b9050919050565b6102668161024c565b8114610270575f5ffd5b50565b5f815190506102818161025d565b92915050565b5f60a0828403121561029c5761029b61016e565b5b6102a660a06101e0565b90505f6102b584828501610219565b5f8301525060206102c884828501610273565b60208301525060406102dc84828501610273565b60408301525060606102f084828501610219565b606083015250608061030484828501610219565b60808301525092915050565b5f5f60c083850312156103265761032561016a565b5b5f61033385828601610287565b92505060a061034485828601610273565b9150509250929050565b7f4e487b71000000000000000000000000000000000000000000000000000000005f52601160045260245ffd5b5f610385826101fa565b9150610390836101fa565b92508282019050808211156103a8576103a761034e565b5b92915050565b60805160a05160c05160e0516101005161114a6104235f395f8181610456015261092e01525f8181610243015281816106c101528181610762015261083601525f818161041a015281816104df0152818161062501528181610724015261090a01525f61027801525f6108e6015261114a5ff3fe608060405234801561000f575f5ffd5b50600436106100cd575f3560e01c8063843b43861161008a578063af640d0f11610064578063af640d0f146101c9578063c3dfdae6146101e7578063c415b95c14610205578063f1a1d3ba14610223576100cd565b8063843b43861461017157806388c9cb3c1461018d578063a4fd6f56146101ab576100cd565b806313faede6146100d15780633197cbb6146100ef57806334fbc9a11461010d578063587f5ed71461012b5780635c39fcc11461014957806370740ac914610167575b5f5ffd5b6100d9610241565b6040516100e691906109da565b60405180910390f35b6100f7610265565b60405161010491906109da565b60405180910390f35b61011561026b565b60405161012291906109da565b60405180910390f35b610133610270565b60405161014091906109da565b60405180910390f35b610151610276565b60405161015e9190610a32565b60405180910390f35b61016f61029a565b005b61018b60048036038101906101869190610b98565b610587565b005b6101956108cc565b6040516101a291906109da565b60405180910390f35b6101b36108d2565b6040516101c09190610bf9565b60405180910390f35b6101d16108e4565b6040516101de91906109da565b60405180910390f35b6101ef610908565b6040516101fc9190610a32565b60405180910390f35b61020d61092c565b60405161021a9190610a32565b60405180910390f35b61022b610950565b6040516102389190610a32565b60405180910390f35b7f000000000000000000000000000000000000000000000000000000000000000081565b60025481565b600281565b60045481565b7f000000000000000000000000000000000000000000000000000000000000000081565b6102a2610975565b6002544210156102e7576040517f08c379a00000000000000000000000000000000000000000000000000000000081526004016102de90610c6c565b60405180910390fd5b60035f9054906101000a900473ffffffffffffffffffffffffffffffffffffffff1673ffffffffffffffffffffffffffffffffffffffff163373ffffffffffffffffffffffffffffffffffffffff1614610376576040517f08c379a000000000000000000000000000000000000000000000000000000000815260040161036d90610cd4565b60405180910390fd5b60055f9054906101000a900460ff16156103c5576040517f08c379a00000000000000000000000000000000000000000000000000000000081526004016103bc90610d3c565b60405180910390fd5b600160055f6101000a81548160ff0219169083151502179055505f60045490505f60646002836103f59190610d87565b6103ff9190610df5565b90505f818361040e9190610e25565b90505f8211156104d5577f000000000000000000000000000000000000000000000000000000000000000073ffffffffffffffffffffffffffffffffffffffff1663a9059cbb7f0000000000000000000000000000000000000000000000000000000000000000846040518363ffffffff1660e01b8152600401610493929190610e58565b6020604051808303815f875af11580156104af573d5f5f3e3d5ffd5b505050506040513d601f19601f820116820180604052508101906104d39190610ea9565b505b5f81111561057a577f000000000000000000000000000000000000000000000000000000000000000073ffffffffffffffffffffffffffffffffffffffff1663a9059cbb33836040518363ffffffff1660e01b8152600401610538929190610e58565b6020604051808303815f875af1158015610554573d5f5f3e3d5ffd5b505050506040513d601f19601f820116820180604052508101906105789190610ea9565b505b5050506105856109b9565b565b61058f610975565b60025442106105d3576040517f08c379a00000000000000000000000000000000000000000000000000000000081526004016105ca90610f1e565b60405180910390fd5b60055f9054906101000a900460ff1615610622576040517f08c379a000000000000000000000000000000000000000000000000000000000815260040161061990610f1e565b60405180910390fd5b5f7f000000000000000000000000000000000000000000000000000000000000000073ffffffffffffffffffffffffffffffffffffffff1663dd62ed3e33306040518363ffffffff1660e01b815260040161067e929190610f3c565b602060405180830381865afa158015610699573d5f5f3e3d5ffd5b505050506040513d601f19601f820116820180604052508101906106bd9190610f8d565b90507f0000000000000000000000000000000000000000000000000000000000000000811015610722576040517f08c379a000000000000000000000000000000000000000000000000000000000815260040161071990611002565b60405180910390fd5b7f000000000000000000000000000000000000000000000000000000000000000073ffffffffffffffffffffffffffffffffffffffff166323b872dd33307f00000000000000000000000000000000000000000000000000000000000000006040518463ffffffff1660e01b815260040161079f93929190611020565b6020604051808303815f875af11580156107bb573d5f5f3e3d5ffd5b505050506040513d601f19601f820116820180604052508101906107df9190610ea9565b503360035f6101000a81548173ffffffffffffffffffffffffffffffffffffffff021916908373ffffffffffffffffffffffffffffffffffffffff1602179055506001544261082e9190611055565b6002819055507f000000000000000000000000000000000000000000000000000000000000000060045f8282546108659190611055565b925050819055503373ffffffffffffffffffffffffffffffffffffffff167f56e509706f00cfac026ca2fa7245049f142e96c0d334591db8449da913317b1483600254426040516108b8939291906110d8565b60405180910390a2506108c96109b9565b50565b60015481565b60055f9054906101000a900460ff1681565b7f000000000000000000000000000000000000000000000000000000000000000081565b7f000000000000000000000000000000000000000000000000000000000000000081565b7f000000000000000000000000000000000000000000000000000000000000000081565b60035f9054906101000a900473ffffffffffffffffffffffffffffffffffffffff1681565b60025f54036109b0576040517f3ee5aeb500000000000000000000000000000000000000000000000000000000815260040160405180910390fd5b60025f81905550565b60015f81905550565b5f819050919050565b6109d4816109c2565b82525050565b5f6020820190506109ed5f8301846109cb565b92915050565b5f73ffffffffffffffffffffffffffffffffffffffff82169050919050565b5f610a1c826109f3565b9050919050565b610a2c81610a12565b82525050565b5f602082019050610a455f830184610a23565b92915050565b5f604051905090565b5f5ffd5b5f5ffd5b5f5ffd5b5f5ffd5b5f601f19601f8301169050919050565b7f4e487b71000000000000000000000000000000000000000000000000000000005f52604160045260245ffd5b610aaa82610a64565b810181811067ffffffffffffffff82111715610ac957610ac8610a74565b5b80604052505050565b5f610adb610a4b565b9050610ae78282610aa1565b919050565b5f67ffffffffffffffff821115610b0657610b05610a74565b5b610b0f82610a64565b9050602081019050919050565b828183375f83830152505050565b5f610b3c610b3784610aec565b610ad2565b905082815260208101848484011115610b5857610b57610a60565b5b610b63848285610b1c565b509392505050565b5f82601f830112610b7f57610b7e610a5c565b5b8135610b8f848260208601610b2a565b91505092915050565b5f60208284031215610bad57610bac610a54565b5b5f82013567ffffffffffffffff811115610bca57610bc9610a58565b5b610bd684828501610b6b565b91505092915050565b5f8115159050919050565b610bf381610bdf565b82525050565b5f602082019050610c0c5f830184610bea565b92915050565b5f82825260208201905092915050565b7f47616d65206e6f7420656e6465642079657400000000000000000000000000005f82015250565b5f610c56601283610c12565b9150610c6182610c22565b602082019050919050565b5f6020820190508181035f830152610c8381610c4a565b9050919050565b7f4f6e6c792077696e6e65722063616e20776974686472617700000000000000005f82015250565b5f610cbe601883610c12565b9150610cc982610c8a565b602082019050919050565b5f6020820190508181035f830152610ceb81610cb2565b9050919050565b7f416c72656164792077697468647261776e0000000000000000000000000000005f82015250565b5f610d26601183610c12565b9150610d3182610cf2565b602082019050919050565b5f6020820190508181035f830152610d5381610d1a565b9050919050565b7f4e487b71000000000000000000000000000000000000000000000000000000005f52601160045260245ffd5b5f610d91826109c2565b9150610d9c836109c2565b9250828202610daa816109c2565b91508282048414831517610dc157610dc0610d5a565b5b5092915050565b7f4e487b71000000000000000000000000000000000000000000000000000000005f52601260045260245ffd5b5f610dff826109c2565b9150610e0a836109c2565b925082610e1a57610e19610dc8565b5b828204905092915050565b5f610e2f826109c2565b9150610e3a836109c2565b9250828203905081811115610e5257610e51610d5a565b5b92915050565b5f604082019050610e6b5f830185610a23565b610e7860208301846109cb565b9392505050565b610e8881610bdf565b8114610e92575f5ffd5b50565b5f81519050610ea381610e7f565b92915050565b5f60208284031215610ebe57610ebd610a54565b5b5f610ecb84828501610e95565b91505092915050565b7f47616d6520616c726561647920656e64656400000000000000000000000000005f82015250565b5f610f08601283610c12565b9150610f1382610ed4565b602082019050919050565b5f6020820190508181035f830152610f3581610efc565b9050919050565b5f604082019050610f4f5f830185610a23565b610f5c6020830184610a23565b9392505050565b610f6c816109c2565b8114610f76575f5ffd5b50565b5f81519050610f8781610f63565b92915050565b5f60208284031215610fa257610fa1610a54565b5b5f610faf84828501610f79565b91505092915050565b7f45524332303a204d75737420617070726f766520746f6b656e206669727374005f82015250565b5f610fec601f83610c12565b9150610ff782610fb8565b602082019050919050565b5f6020820190508181035f83015261101981610fe0565b9050919050565b5f6060820190506110335f830186610a23565b6110406020830185610a23565b61104d60408301846109cb565b949350505050565b5f61105f826109c2565b915061106a836109c2565b925082820190508082111561108257611081610d5a565b5b92915050565b5f81519050919050565b8281835e5f83830152505050565b5f6110aa82611088565b6110b48185610c12565b93506110c4818560208601611092565b6110cd81610a64565b840191505092915050565b5f6060820190508181035f8301526110f081866110a0565b90506110ff60208301856109cb565b61110c60408301846109cb565b94935050505056fea264697066735822122046a731daf632d71acd2fec26929ad14c9f113b7a041d3d3fe028979139ac99b064736f6c634300081c0033",
  "linkReferences": {},
  "deployedLinkReferences": {},
  "immutableReferences": {
    "1012": [
      {
        "length": 32,
        "start": 2278
      }
    ],
    "1014": [
      {
        "length": 32,
        "start": 632
      }
    ],
    "1016": [
      {
        "length": 32,
        "start": 1050
      },
      {
        "length": 32,
        "start": 1247
      },
      {
        "length": 32,
        "start": 1573
      },
      {
        "length": 32,
        "start": 1828
      },
      {
        "length": 32,
        "start": 2314
      }
    ],
    "1018": [
      {
        "length": 32,
        "start": 579
      },
      {
        "length": 32,
        "start": 1729
      },
      {
        "length": 32,
        "start": 1890
      },
      {
        "length": 32,
        "start": 2102
      }
    ],
    "1033": [
      {
        "length": 32,
        "start": 1110
      },
      {
        "length": 32,
        "start": 2350
      }
    ]
  },
  "inputSourceName": "project/contracts/CommentGame.sol",
  "buildInfoId": "solc-0_8_28-17a84d1fabb5d383389f94428d3ecd80beb2f980"
}