{
  "_format": "hh3-artifact-1",
  "contractName": "CommentGameV2",
  "sourceName": "contracts/CommentGameV2.sol",
  "abi": [
    {
      "inputs": [
        {
          "internalType": "address",
          "name": "_feeCollector",
          "type": "address"
        }
      ],
      "stateMutability": "nonpayable",
      "type": "constructor"
    },
    {
      "inputs": [
        {
          "internalType": "address",
          "name": "owner",
          "type": "address"
        }
      ],
      "name": "OwnableInvalidOwner",
      "type": "error"
    },
    {
      "inputs": [
        {
          "internalType": "address",
          "name": "account",
          "type": "address"
        }
      ],
      "name": "OwnableUnauthorizedAccount",
      "type": "error"
    },
    {
      "inputs": [],
      "name": "ReentrancyGuardReentrantCall",
      "type": "error"
    },
    {
      "anonymous": false,
      "inputs": [
        {
          "indexed": true,
          "internalType": "uint256",
          "name": "gameId",
          "type": "uint256"
        },
        {
          "indexed": true,
          "internalType": "uint256",
          "name": "commentId",
          "type": "uint256"
        },
        {
          "indexed": true,
          "internalType": "address",
          "name": "commentor",
          "type": "address"
        },
        {
          "indexed": false,
          "internalType": "string",
          "name": "message",
          "type": "string"
        },
        {
          "indexed": false,
          "internalType": "uint256",
          "name": "newEndTime",
          "type": "uint256"
        },
        {
          "indexed": false,
          "internalType": "uint256",
          "name": "totalFunding",
          "type": "uint256"
        },
        {
          "indexed": false,
          "internalType": "uint256",
          "name": "timestamp",
          "type": "uint256"
        }
      ],
      "name": "CommentAdded",
      "type": "event"
    },
    {
      "anonymous": false,
      "inputs": [
        {
          "indexed": true,
          "internalType": "uint256",
          "name": "gameId",
          "type": "uint256"
        },
        {
          "indexed": true,
          "internalType": "address",
          "name": "funder",
          "type": "address"
        },
        {
          "indexed": false,
          "internalType": "uint256",
          "name": "amount",
          "type": "uint256"
        }
      ],
      "name": "CommentFeeDistributed",
      "type": "event"
    },
    {
      "anonymous": false,
      "inputs": [
        {
          "indexed": true,
          "internalType": "uint256",
          "name": "gameId",
          "type": "uint256"
        },
        {
          "indexed": true,
          "internalType": "address",
          "name": "initiator",
          "type": "address"
        },
        {
          "indexed": true,
          "internalType": "address",
          "name": "gameToken",
          "type": "address"
        },
        {
          "indexed": false,
          "internalType": "uint256",
          "name": "cost",
          "type": "uint256"
        },
        {
          "indexed": false,
          "internalType": "uint256",
          "name": "gameTime",
          "type": "uint256"
        },
        {
          "indexed": false,
          "internalType": "string",
          "name": "tokenSymbol",
          "type": "string"
        },
        {
          "indexed": false,
          "internalType": "uint256",
          "name": "endTime",
          "type": "uint256"
        },
        {
          "indexed": false,
          "internalType": "address",
          "name": "lastCommentor",
          "type": "address"
        },
        {
          "indexed": false,
          "internalType": "uint256",
          "name": "totalFunding",
          "type": "uint256"
        }
      ],
      "name": "GameCreated",
      "type": "event"
    },
    {
      "anonymous": false,
      "inputs": [
        {
          "indexed": true,
          "internalType": "address",
          "name": "previousOwner",
          "type": "address"
        },
        {
          "indexed": true,
          "internalType": "address",
          "name": "newOwner",
          "type": "address"
        }
      ],
      "name": "OwnershipTransferred",
      "type": "event"
    },
    {
      "anonymous": false,
      "inputs": [
        {
          "indexed": true,
          "internalType": "uint256",
          "name": "gameId",
          "type": "uint256"
        },
        {
          "indexed": true,
          "internalType": "address",
          "name": "winner",
          "type": "address"
        },
        {
          "indexed": false,
          "internalType": "uint256",
          "name": "prizeAmount",
          "type": "uint256"
        },
        {
          "indexed": false,
          "internalType": "uint256",
          "name": "timestamp",
          "type": "uint256"
        }
      ],
      "name": "PrizeClaimed",
      "type": "event"
    },
    {
      "anonymous": false,
      "inputs": [
        {
          "indexed": true,
          "internalType": "uint256",
          "name": "gameId",
          "type": "uint256"
        },
        {
          "indexed": true,
          "internalType": "address",
          "name": "funder",
          "type": "address"
        },
        {
          "indexed": false,
          "internalType": "uint256",
          "name": "amount",
          "type": "uint256"
        },
        {
          "indexed": false,
          "internalType": "uint256",
          "name": "totalFunding",
          "type": "uint256"
        }
      ],
      "name": "PrizePoolFunded",
      "type": "event"
    },
    {
      "inputs": [],
      "name": "PLATFORM_FEE",
      "outputs": [
        {
          "internalType": "uint256",
          "name": "",
          "type": "uint256"
        }
      ],
      "stateMutability": "view",
      "type": "function"
    },
    {
      "inputs": [
        {
          "internalType": "address",
          "name": "",
          "type": "address"
        }
      ],
      "name": "activeGameByToken",
      "outputs": [
        {
          "internalType": "uint256",
          "name": "",
          "type": "uint256"
        }
      ],
      "stateMutability": "view",
      "type": "function"
    },
    {
      "inputs": [
        {
          "internalType": "uint256",
          "name": "_gameId",
          "type": "uint256"
        },
        {
          "internalType": "string",
          "name": "_message",
          "type": "string"
        }
      ],
      "name": "addComment",
      "outputs": [],
      "stateMutability": "nonpayable",
      "type": "function"
    },
    {
      "inputs": [
        {
          "internalType": "uint256",
          "name": "",
          "type": "uint256"
        }
      ],
      "name": "allGameIds",
      "outputs": [
        {
          "internalType": "uint256",
          "name": "",
          "type": "uint256"
        }
      ],
      "stateMutability": "view",
      "type": "function"
    },
    {
      "inputs": [
        {
          "internalType": "uint256",
          "name": "_gameId",
          "type": "uint256"
        }
      ],
      "name": "claimPrize",
      "outputs": [],
      "stateMutability": "nonpayable",
      "type": "function"
    },
    {
      "inputs": [
        {
          "internalType": "uint256",
          "name": "",
          "type": "uint256"
        }
      ],
      "name": "commentIdCounter",
      "outputs": [
        {
          "internalType": "uint256",
          "name": "",
          "type": "uint256"
        }
      ],
      "stateMutability": "view",
      "type": "function"
    },
    {
      "inputs": [
        {
          "internalType": "address",
          "name": "_gameToken",
          "type": "address"
        },
        {
          "internalType": "uint256",
          "name": "_time",
          "type": "uint256"
        },
        {
          "internalType": "uint256",
          "name": "_cost",
          "type": "uint256"
        },
        {
          "internalType": "uint256",
          "name": "_initialFunding",
          "type": "uint256"
        }
      ],
      "name": "createGame",
      "outputs": [
        {
          "internalType": "uint256",
          "name": "",
          "type": "uint256"
        }
      ],
      "stateMutability": "nonpayable",
      "type": "function"
    },
    {
      "inputs": [],
      "name": "feeCollector",
      "outputs": [
        {
          "internalType": "address",
          "name": "",
          "type": "address"
        }
      ],
      "stateMutability": "view",
      "type": "function"
    },
    {
      "inputs": [
        {
          "internalType": "uint256",
          "name": "_gameId",
          "type": "uint256"
        },
        {
          "internalType": "uint256",
          "name": "_amount",
          "type": "uint256"
        }
      ],
      "name": "fundPrizePool",
      "outputs": [],
      "stateMutability": "nonpayable",
      "type": "function"
    },
    {
      "inputs": [],
      "name": "gameIdCounter",
      "outputs": [
        {
          "internalType": "uint256",
          "name": "",
          "type": "uint256"
        }
      ],
      "stateMutability": "view",
      "type": "function"
    },
    {
      "inputs": [
        {
          "internalType": "uint256",
          "name": "",
          "type": "uint256"
        }
      ],
      "name": "games",
      "outputs": [
        {
          "internalType": "uint256",
          "name": "id",
          "type": "uint256"
        },
        {
          "internalType": "address",
          "name": "initiator",
          "type": "address"
        },
        {
          "internalType": "address",
          "name": "gameToken",
          "type": "address"
        },
        {
          "internalType": "uint256",
          "name": "cost",
          "type": "uint256"
        },
        {
          "internalType": "uint256",
          "name": "gameTime",
          "type": "uint256"
        },
        {
          "internalType": "string",
          "name": "tokenSymbol",
          "type": "string"
        },
        {
          "internalType": "uint256",
          "name": "endTime",
          "type": "uint256"
        },
        {
          "internalType": "address",
          "name": "lastCommentor",
          "type": "address"
        },
        {
          "internalType": "uint256",
          "name": "prizePool",
          "type": "uint256"
        },
        {
          "internalType": "bool",
          "name": "isClaimed",
          "type": "bool"
        },
        {
          "internalType": "uint256",
          "name": "totalFunding",
          "type": "uint256"
        }
      ],
      "stateMutability": "view",
      "type": "function"
    },
    {
      "inputs": [
        {
          "internalType": "address",
          "name": "_token",
          "type": "address"
        }
      ],
      "name": "getActiveGameId",
      "outputs": [
        {
          "internalType": "uint256",
          "name": "",
          "type": "uint256"
        }
      ],
      "stateMutability": "view",
      "type": "function"
    },
    {
      "inputs": [],
      "name": "getAllGameIds",
      "outputs": [
        {
          "internalType": "uint256[]",
          "name": "",
          "type": "uint256[]"
        }
      ],
      "stateMutability": "view",
      "type": "function"
    },
    {
      "inputs": [],
      "name": "getAllGames",
      "outputs": [
        {
          "components": [
            {
              "internalType": "uint256",
              "name": "id",
              "type": "uint256"
            },
            {
              "internalType": "address",
              "name": "initiator",
              "type": "address"
            },
            {
              "internalType": "address",
              "name": "gameToken",
              "type": "address"
            },
            {
              "internalType": "uint256",
              "name": "cost",
              "type": "uint256"
            },
            {
              "internalType": "uint256",
              "name": "gameTime",
              "type": "uint256"
            },
            {
              "internalType": "string",
              "name": "tokenSymbol",
              "type": "string"
            },
            {
              "internalType": "uint256",
              "name": "endTime",
              "type": "uint256"
            },
            {
              "internalType": "address",
              "name": "lastCommentor",
              "type": "address"
            },
            {
              "internalType": "uint256",
              "name": "prizePool",
              "type": "uint256"
            },
            {
              "internalType": "bool",
              "name": "isClaimed",
              "type": "bool"
            },
            {
              "internalType": "bool",
              "name": "isEnded",
              "type": "bool"
            },
            {
              "internalType": "uint256",
              "name": "totalFunding",
              "type": "uint256"
            },
            {
              "internalType": "uint256",
              "name": "funderCount",
              "type": "uint256"
            }
          ],
          "internalType": "struct CommentGameV2.GameInfo[]",
          "name": "",
          "type": "tuple[]"
        }
      ],
      "stateMutability": "view",
      "type": "function"
    },
    {
      "inputs": [
        {
          "internalType": "uint256",
          "name": "_gameId",
          "type": "uint256"
        }
      ],
      "name": "getFunders",
      "outputs": [
        {
          "internalType": "address[]",
          "name": "",
          "type": "address[]"
        }
      ],
      "stateMutability": "view",
      "type": "function"
    },
    {
      "inputs": [
        {
          "internalType": "uint256",
          "name": "_gameId",
          "type": "uint256"
        }
      ],
      "name": "getGameInfo",
      "outputs": [
        {
          "components": [
            {
              "internalType": "uint256",
              "name": "id",
              "type": "uint256"
            },
            {
              "internalType": "address",
              "name": "initiator",
              "type": "address"
            },
            {
              "internalType": "address",
              "name": "gameToken",
              "type": "address"
            },
            {
              "internalType": "uint256",
              "name": "cost",
              "type": "uint256"
            },
            {
              "internalType": "uint256",
              "name": "gameTime",
              "type": "uint256"
            },
            {
              "internalType": "string",
              "name": "tokenSymbol",
              "type": "string"
            },
            {
              "internalType": "uint256",
              "name": "endTime",
              "type": "uint256"
            },
            {
              "internalType": "address",
              "name": "lastCommentor",
              "type": "address"
            },
            {
              "internalType": "uint256",
              "name": "prizePool",
              "type": "uint256"
            },
            {
              "internalType": "bool",
              "name": "isClaimed",
              "type": "bool"
            },
            {
              "internalType": "bool",
              "name": "isEnded",
              "type": "bool"
            },
            {
              "internalType": "uint256",
              "name": "totalFunding",
              "type": "uint256"
            },
            {
              "internalType": "uint256",
              "name": "funderCount",
              "type": "uint256"
            }
          ],
          "internalType": "struct CommentGameV2.GameInfo",
          "name": "",
          "type": "tuple"
        }
      ],
      "stateMutability": "view",
      "type": "function"
    },
    {
      "inputs": [
        {
          "internalType": "uint256",
          "name": "_gameId",
          "type": "uint256"
        }
      ],
      "name": "isEnded",
      "outputs": [
        {
          "internalType": "bool",
          "name": "",
          "type": "bool"
        }
      ],
      "stateMutability": "view",
      "type": "function"
    },
    {
      "inputs": [],
      "name": "owner",
      "outputs": [
        {
          "internalType": "address",
          "name": "",
          "type": "address"
        }
      ],
      "stateMutability": "view",
      "type": "function"
    },
    {
      "inputs": [],
      "name": "renounceOwnership",
      "outputs": [],
      "stateMutability": "nonpayable",
      "type": "function"
    },
    {
      "inputs": [
        {
          "internalType": "address",
          "name": "_newCollector",
          "type": "address"
        }
      ],
      "name": "setFeeCollector",
      "outputs": [],
      "stateMutability": "nonpayable",
      "type": "function"
    },
    {
      "inputs": [
        {
          "internalType": "address",
          "name": "newOwner",
          "type": "address"
        }
      ],
      "name": "transferOwnership",
      "outputs": [],
      "stateMutability": "nonpayable",
      "type": "function"
    }
  ],
  "bytecode": "0x608060405234801561001057600080fd5b50604051613ecb380380613ecb8339818101604052810190610032919061022d565b336001600081905550600073ffffffffffffffffffffffffffffffffffffffff168173ffffffffffffffffffffffffffffffffffffffff16036100ad5760006040517f1e4fbdf70000000000000000000000000000000000000000000000000000000081526004016100a49190610269565b60405180910390fd5b6100bc8161010460201b60201c565b5080600260006101000a81548173ffffffffffffffffffffffffffffffffffffffff021916908373ffffffffffffffffffffffffffffffffffffffff16021790555050610284565b6000600160009054906101000a900473ffffffffffffffffffffffffffffffffffffffff16905081600160006101000a81548173ffffffffffffffffffffffffffffffffffffffff021916908373ffffffffffffffffffffffffffffffffffffffff1602179055508173ffffffffffffffffffffffffffffffffffffffff168173ffffffffffffffffffffffffffffffffffffffff167f8be0079c531659141344cd1fd0a4f28419497f9722a3daafe3b4186f6b6457e060405160405180910390a35050565b600080fd5b600073ffffffffffffffffffffffffffffffffffffffff82169050919050565b60006101fa826101cf565b9050919050565b61020a816101ef565b811461021557600080fd5b50565b60008151905061022781610201565b92915050565b600060208284031215610243576102426101ca565b5b600061025184828501610218565b91505092915050565b610263816101ef565b82525050565b600060208201905061027e600083018461025a565b92915050565b613c38806102936000396000f3fe608060405234801561001057600080fd5b50600436106101375760003560e01c80636b3d2cbb116100b8578063aa7e56831161007c578063aa7e568314610380578063b66f7a8b1461039c578063c415b95c146103cc578063d7098154146103ea578063db1c45f914610406578063f2fde38b1461042457610137565b80636b3d2cbb146102ee578063715018a61461030c5780638da5cb5b146103165780639fdb356114610334578063a42dce801461036457610137565b80633a7b6c74116100ff5780633a7b6c741461021257806347e1d550146102425780634d96a63d146102725780635a5cfc1c1461028e578063612454e1146102be57610137565b806305212cf41461013c578063117a5b901461016c5780631bb412d6146101a657806329eddcd6146101c457806334fbc9a1146101f4575b600080fd5b610156600480360381019061015191906124af565b610440565b60405161016391906124f5565b60405180910390f35b6101866004803603810190610181919061253c565b610489565b60405161019d9b9a99989796959493929190612623565b60405180910390f35b6101ae6105d8565b6040516101bb91906124f5565b60405180910390f35b6101de60048036038101906101d991906126d5565b6105de565b6040516101eb91906124f5565b60405180910390f35b6101fc610af8565b60405161020991906124f5565b60405180910390f35b61022c6004803603810190610227919061253c565b610afd565b60405161023991906127fa565b60405180910390f35b61025c6004803603810190610257919061253c565b610bee565b604051610269919061299d565b60405180910390f35b61028c600480360381019061028791906129bf565b610e29565b005b6102a860048036038101906102a3919061253c565b61119a565b6040516102b591906124f5565b60405180910390f35b6102d860048036038101906102d391906124af565b6111be565b6040516102e591906124f5565b60405180910390f35b6102f66111d6565b6040516103039190612aae565b60405180910390f35b61031461122e565b005b61031e611242565b60405161032b9190612ad0565b60405180910390f35b61034e6004803603810190610349919061253c565b61126c565b60405161035b91906124f5565b60405180910390f35b61037e600480360381019061037991906124af565b611284565b005b61039a60048036038101906103959190612c20565b6112d0565b005b6103b660048036038101906103b1919061253c565b61166e565b6040516103c39190612c7c565b60405180910390f35b6103d46116dd565b6040516103e19190612ad0565b60405180910390f35b61040460048036038101906103ff919061253c565b611703565b005b61040e611a0c565b60405161041b9190612e72565b60405180910390f35b61043e600480360381019061043991906124af565b611cb7565b005b6000600660008373ffffffffffffffffffffffffffffffffffffffff1673ffffffffffffffffffffffffffffffffffffffff168152602001908152602001600020549050919050565b60056020528060005260406000206000915090508060000154908060010160009054906101000a900473ffffffffffffffffffffffffffffffffffffffff16908060020160009054906101000a900473ffffffffffffffffffffffffffffffffffffffff169080600301549080600401549080600501805461050a90612ec3565b80601f016020809104026020016040519081016040528092919081815260200182805461053690612ec3565b80156105835780601f1061055857610100808354040283529160200191610583565b820191906000526020600020905b81548152906001019060200180831161056657829003601f168201915b5050505050908060060154908060070160009054906101000a900473ffffffffffffffffffffffffffffffffffffffff16908060080154908060090160009054906101000a900460ff169080600c015490508b565b60035481565b60006105e8611d3d565b6000600660008773ffffffffffffffffffffffffffffffffffffffff1673ffffffffffffffffffffffffffffffffffffffff16815260200190815260200160002054905060008111156106955760006005600083815260200190815260200160002090508060060154421015610693576040517f08c379a000000000000000000000000000000000000000000000000000000000815260040161068a90612f66565b60405180910390fd5b505b600360008154809291906106a890612fb5565b9190505550600060035490506000600560008381526020019081526020016000209050818160000181905550338160010160006101000a81548173ffffffffffffffffffffffffffffffffffffffff021916908373ffffffffffffffffffffffffffffffffffffffff160217905550878160020160006101000a81548173ffffffffffffffffffffffffffffffffffffffff021916908373ffffffffffffffffffffffffffffffffffffffff1602179055508581600301819055508681600401819055508773ffffffffffffffffffffffffffffffffffffffff166395d89b416040518163ffffffff1660e01b8152600401600060405180830381865afa1580156107b7573d6000803e3d6000fd5b505050506040513d6000823e3d601f19601f820116820180604052508101906107e0919061306d565b8160050190816107f09190613262565b5086426107fd9190613334565b8160060181905550338160070160006101000a81548173ffffffffffffffffffffffffffffffffffffffff021916908373ffffffffffffffffffffffffffffffffffffffff16021790555060008511156109ce578773ffffffffffffffffffffffffffffffffffffffff166323b872dd3330886040518463ffffffff1660e01b815260040161088e93929190613368565b6020604051808303816000875af11580156108ad573d6000803e3d6000fd5b505050506040513d601f19601f820116820180604052508101906108d191906133cb565b610910576040517f08c379a000000000000000000000000000000000000000000000000000000000815260040161090790613444565b60405180910390fd5b8481600a0160003373ffffffffffffffffffffffffffffffffffffffff1673ffffffffffffffffffffffffffffffffffffffff1681526020019081526020016000208190555080600b01339080600181540180825580915050600190039060005260206000200160009091909190916101000a81548173ffffffffffffffffffffffffffffffffffffffff021916908373ffffffffffffffffffffffffffffffffffffffff1602179055508481600c01819055508481600801819055505b81600660008a73ffffffffffffffffffffffffffffffffffffffff1673ffffffffffffffffffffffffffffffffffffffff1681526020019081526020016000208190555060078290806001815401808255809150506001900390600052602060002001600090919091909150558773ffffffffffffffffffffffffffffffffffffffff163373ffffffffffffffffffffffffffffffffffffffff16837f297d694df7b04bdab88082519f5f6d652155070f0a5e99a1daa395b4ba5576e4846003015485600401548660050187600601548860070160009054906101000a900473ffffffffffffffffffffffffffffffffffffffff1689600c0154604051610ada969594939291906134e8565b60405180910390a4819350505050610af0611d83565b949350505050565b600281565b606060006005600084815260200190815260200160002090506000816000015411610b5d576040517f08c379a0000000000000000000000000000000000000000000000000000000008152600401610b549061359c565b60405180910390fd5b80600b01805480602002602001604051908101604052809291908181526020018280548015610be157602002820191906000526020600020905b8160009054906101000a900473ffffffffffffffffffffffffffffffffffffffff1673ffffffffffffffffffffffffffffffffffffffff1681526020019060010190808311610b97575b5050505050915050919050565b610bf661238f565b60006005600084815260200190815260200160002090506000816000015411610c54576040517f08c379a0000000000000000000000000000000000000000000000000000000008152600401610c4b9061359c565b60405180910390fd5b604051806101a00160405280826000015481526020018260010160009054906101000a900473ffffffffffffffffffffffffffffffffffffffff1673ffffffffffffffffffffffffffffffffffffffff1681526020018260020160009054906101000a900473ffffffffffffffffffffffffffffffffffffffff1673ffffffffffffffffffffffffffffffffffffffff1681526020018260030154815260200182600401548152602001826005018054610d0d90612ec3565b80601f0160208091040260200160405190810160405280929190818152602001828054610d3990612ec3565b8015610d865780601f10610d5b57610100808354040283529160200191610d86565b820191906000526020600020905b815481529060010190602001808311610d6957829003601f168201915b50505050508152602001826006015481526020018260070160009054906101000a900473ffffffffffffffffffffffffffffffffffffffff1673ffffffffffffffffffffffffffffffffffffffff168152602001826008015481526020018260090160009054906101000a900460ff161515815260200182600601544210151515815260200182600c0154815260200182600b0180549050815250915050919050565b610e31611d3d565b60006005600084815260200190815260200160002090506000816000015411610e8f576040517f08c379a0000000000000000000000000000000000000000000000000000000008152600401610e869061359c565b60405180910390fd5b80600601544210610ed5576040517f08c379a0000000000000000000000000000000000000000000000000000000008152600401610ecc90613608565b60405180910390fd5b60008211610f18576040517f08c379a0000000000000000000000000000000000000000000000000000000008152600401610f0f90613674565b60405180910390fd5b8060020160009054906101000a900473ffffffffffffffffffffffffffffffffffffffff1673ffffffffffffffffffffffffffffffffffffffff166323b872dd3330856040518463ffffffff1660e01b8152600401610f7993929190613368565b6020604051808303816000875af1158015610f98573d6000803e3d6000fd5b505050506040513d601f19601f82011682018060405250810190610fbc91906133cb565b610ffb576040517f08c379a0000000000000000000000000000000000000000000000000000000008152600401610ff2906136e0565b60405180910390fd5b600081600a0160003373ffffffffffffffffffffffffffffffffffffffff1673ffffffffffffffffffffffffffffffffffffffff16815260200190815260200160002054036110aa5780600b01339080600181540180825580915050600190039060005260206000200160009091909190916101000a81548173ffffffffffffffffffffffffffffffffffffffff021916908373ffffffffffffffffffffffffffffffffffffffff1602179055505b8181600a0160003373ffffffffffffffffffffffffffffffffffffffff1673ffffffffffffffffffffffffffffffffffffffff16815260200190815260200160002060008282546110fb9190613334565b925050819055508181600c0160008282546111169190613334565b92505081905550818160080160008282546111319190613334565b925050819055503373ffffffffffffffffffffffffffffffffffffffff16837fdd3b075731f005ab396c8e3d0639b41e26d5f030c3cb90d7cc24448276d836798484600c0154604051611185929190613700565b60405180910390a350611196611d83565b5050565b600781815481106111aa57600080fd5b906000526020600020016000915090505481565b60066020528060005260406000206000915090505481565b6060600780548060200260200160405190810160405280929190818152602001828054801561122457602002820191906000526020600020905b815481526020019060010190808311611210575b5050505050905090565b611236611d8d565b6112406000611e14565b565b6000600160009054906101000a900473ffffffffffffffffffffffffffffffffffffffff16905090565b60046020528060005260406000206000915090505481565b61128c611d8d565b80600260006101000a81548173ffffffffffffffffffffffffffffffffffffffff021916908373ffffffffffffffffffffffffffffffffffffffff16021790555050565b6112d8611d3d565b60006005600084815260200190815260200160002090506000816000015411611336576040517f08c379a000000000000000000000000000000000000000000000000000000000815260040161132d9061359c565b60405180910390fd5b8060060154421061137c576040517f08c379a000000000000000000000000000000000000000000000000000000000815260040161137390613608565b60405180910390fd5b600081600c0154116113c3576040517f08c379a00000000000000000000000000000000000000000000000000000000081526004016113ba90613775565b60405180910390fd5b60008160020160009054906101000a900473ffffffffffffffffffffffffffffffffffffffff1673ffffffffffffffffffffffffffffffffffffffff1663dd62ed3e33306040518363ffffffff1660e01b8152600401611424929190613795565b602060405180830381865afa158015611441573d6000803e3d6000fd5b505050506040513d601f19601f8201168201806040525081019061146591906137d3565b905081600301548110156114ae576040517f08c379a00000000000000000000000000000000000000000000000000000000081526004016114a59061384c565b60405180910390fd5b8160020160009054906101000a900473ffffffffffffffffffffffffffffffffffffffff1673ffffffffffffffffffffffffffffffffffffffff166323b872dd333085600301546040518463ffffffff1660e01b815260040161151393929190613368565b6020604051808303816000875af1158015611532573d6000803e3d6000fd5b505050506040513d601f19601f8201168201806040525081019061155691906133cb565b50611565848360030154611eda565b60046000858152602001908152602001600020600081548092919061158990612fb5565b9190505550600060046000868152602001908152602001600020549050338360070160006101000a81548173ffffffffffffffffffffffffffffffffffffffff021916908373ffffffffffffffffffffffffffffffffffffffff1602179055508260040154426115f99190613334565b83600601819055503373ffffffffffffffffffffffffffffffffffffffff1681867f660579ac11c538d2d089fca875d6a0f520838c1a311465191c75907c75a846a887876006015488600c015442604051611657949392919061386c565b60405180910390a450505061166a611d83565b5050565b60008060056000848152602001908152602001600020905060008160000154116116cd576040517f08c379a00000000000000000000000000000000000000000000000000000000081526004016116c49061359c565b60405180910390fd5b8060060154421015915050919050565b600260009054906101000a900473ffffffffffffffffffffffffffffffffffffffff1681565b61170b611d3d565b60006005600083815260200190815260200160002090506000816000015411611769576040517f08c379a00000000000000000000000000000000000000000000000000000000081526004016117609061359c565b60405180910390fd5b80600601544210156117b0576040517f08c379a00000000000000000000000000000000000000000000000000000000081526004016117a790613904565b60405180910390fd5b8060070160009054906101000a900473ffffffffffffffffffffffffffffffffffffffff1673ffffffffffffffffffffffffffffffffffffffff163373ffffffffffffffffffffffffffffffffffffffff1614611842576040517f08c379a000000000000000000000000000000000000000000000000000000000815260040161183990613970565b60405180910390fd5b8060090160009054906101000a900460ff1615611894576040517f08c379a000000000000000000000000000000000000000000000000000000000815260040161188b906139dc565b60405180910390fd5b60008160080154116118db576040517f08c379a00000000000000000000000000000000000000000000000000000000081526004016118d290613a48565b60405180910390fd5b60018160090160006101000a81548160ff021916908315150217905550600081600801549050600082600801819055508160020160009054906101000a900473ffffffffffffffffffffffffffffffffffffffff1673ffffffffffffffffffffffffffffffffffffffff1663a9059cbb33836040518363ffffffff1660e01b815260040161196a929190613a68565b6020604051808303816000875af1158015611989573d6000803e3d6000fd5b505050506040513d601f19601f820116820180604052508101906119ad91906133cb565b503373ffffffffffffffffffffffffffffffffffffffff16837f64da964e036dd66a7be792791f60a47ec5378950b9d12795de3f453aa3940eb083426040516119f7929190613700565b60405180910390a35050611a09611d83565b50565b6060600060078054905067ffffffffffffffff811115611a2f57611a2e612af5565b5b604051908082528060200260200182016040528015611a6857816020015b611a5561238f565b815260200190600190039081611a4d5790505b50905060005b600780549050811015611caf57600060078281548110611a9157611a90613a91565b5b906000526020600020015490506000600560008381526020019081526020016000209050604051806101a00160405280826000015481526020018260010160009054906101000a900473ffffffffffffffffffffffffffffffffffffffff1673ffffffffffffffffffffffffffffffffffffffff1681526020018260020160009054906101000a900473ffffffffffffffffffffffffffffffffffffffff1673ffffffffffffffffffffffffffffffffffffffff1681526020018260030154815260200182600401548152602001826005018054611b6e90612ec3565b80601f0160208091040260200160405190810160405280929190818152602001828054611b9a90612ec3565b8015611be75780601f10611bbc57610100808354040283529160200191611be7565b820191906000526020600020905b815481529060010190602001808311611bca57829003601f168201915b50505050508152602001826006015481526020018260070160009054906101000a900473ffffffffffffffffffffffffffffffffffffffff1673ffffffffffffffffffffffffffffffffffffffff168152602001826008015481526020018260090160009054906101000a900460ff161515815260200182600601544210151515815260200182600c0154815260200182600b0180549050815250848481518110611c9557611c94613a91565b5b602002602001018190525050508080600101915050611a6e565b508091505090565b611cbf611d8d565b600073ffffffffffffffffffffffffffffffffffffffff168173ffffffffffffffffffffffffffffffffffffffff1603611d315760006040517f1e4fbdf7000000000000000000000000000000000000000000000000000000008152600401611d289190612ad0565b60405180910390fd5b611d3a81611e14565b50565b600260005403611d79576040517f3ee5aeb500000000000000000000000000000000000000000000000000000000815260040160405180910390fd5b6002600081905550565b6001600081905550565b611d95612387565b73ffffffffffffffffffffffffffffffffffffffff16611db3611242565b73ffffffffffffffffffffffffffffffffffffffff1614611e1257611dd6612387565b6040517f118cdaa7000000000000000000000000000000000000000000000000000000008152600401611e099190612ad0565b60405180910390fd5b565b6000600160009054906101000a900473ffffffffffffffffffffffffffffffffffffffff16905081600160006101000a81548173ffffffffffffffffffffffffffffffffffffffff021916908373ffffffffffffffffffffffffffffffffffffffff1602179055508173ffffffffffffffffffffffffffffffffffffffff168173ffffffffffffffffffffffffffffffffffffffff167f8be0079c531659141344cd1fd0a4f28419497f9722a3daafe3b4186f6b6457e060405160405180910390a35050565b6000600560008481526020019081526020016000209050600081600c015411611f38576040517f08c379a0000000000000000000000000000000000000000000000000000000008152600401611f2f90613b0c565b60405180910390fd5b60006064600284611f499190613b2c565b611f539190613b9d565b905060008184611f639190613bce565b90506000821115612034578260020160009054906101000a900473ffffffffffffffffffffffffffffffffffffffff1673ffffffffffffffffffffffffffffffffffffffff1663a9059cbb600260009054906101000a900473ffffffffffffffffffffffffffffffffffffffff16846040518363ffffffff1660e01b8152600401611fef929190613a68565b6020604051808303816000875af115801561200e573d6000803e3d6000fd5b505050506040513d601f19601f8201168201806040525081019061203291906133cb565b505b6000805b84600b018054905081101561220557600085600b01828154811061205f5761205e613a91565b5b9060005260206000200160009054906101000a900473ffffffffffffffffffffffffffffffffffffffff169050600086600c01548588600a0160008573ffffffffffffffffffffffffffffffffffffffff1673ffffffffffffffffffffffffffffffffffffffff168152602001908152602001600020546120e09190613b2c565b6120ea9190613b9d565b905060008111156121f6578660020160009054906101000a900473ffffffffffffffffffffffffffffffffffffffff1673ffffffffffffffffffffffffffffffffffffffff1663a9059cbb83836040518363ffffffff1660e01b8152600401612154929190613a68565b6020604051808303816000875af1158015612173573d6000803e3d6000fd5b505050506040513d601f19601f8201168201806040525081019061219791906133cb565b5080846121a49190613334565b93508173ffffffffffffffffffffffffffffffffffffffff16897f94f860c3f84077ed2d225d73a998a213d5226668ee2c58d79f01a114ad5aa38b836040516121ed91906124f5565b60405180910390a35b50508080600101915050612038565b50600081836122149190613bce565b905060008111801561222d5750600085600b0180549050115b1561237e57600085600b01600187600b018054905061224c9190613bce565b8154811061225d5761225c613a91565b5b9060005260206000200160009054906101000a900473ffffffffffffffffffffffffffffffffffffffff1690508560020160009054906101000a900473ffffffffffffffffffffffffffffffffffffffff1673ffffffffffffffffffffffffffffffffffffffff1663a9059cbb82846040518363ffffffff1660e01b81526004016122e9929190613a68565b6020604051808303816000875af1158015612308573d6000803e3d6000fd5b505050506040513d601f19601f8201168201806040525081019061232c91906133cb565b508073ffffffffffffffffffffffffffffffffffffffff16887f94f860c3f84077ed2d225d73a998a213d5226668ee2c58d79f01a114ad5aa38b8460405161237491906124f5565b60405180910390a3505b50505050505050565b600033905090565b604051806101a0016040528060008152602001600073ffffffffffffffffffffffffffffffffffffffff168152602001600073ffffffffffffffffffffffffffffffffffffffff16815260200160008152602001600081526020016060815260200160008152602001600073ffffffffffffffffffffffffffffffffffffffff1681526020016000815260200160001515815260200160001515815260200160008152602001600081525090565b6000604051905090565b600080fd5b600080fd5b600073ffffffffffffffffffffffffffffffffffffffff82169050919050565b600061247c82612451565b9050919050565b61248c81612471565b811461249757600080fd5b50565b6000813590506124a981612483565b92915050565b6000602082840312156124c5576124c4612447565b5b60006124d38482850161249a565b91505092915050565b6000819050919050565b6124ef816124dc565b82525050565b600060208201905061250a60008301846124e6565b92915050565b612519816124dc565b811461252457600080fd5b50565b60008135905061253681612510565b92915050565b60006020828403121561255257612551612447565b5b600061256084828501612527565b91505092915050565b61257281612471565b82525050565b600081519050919050565b600082825260208201905092915050565b60005b838110156125b2578082015181840152602081019050612597565b60008484015250505050565b6000601f19601f8301169050919050565b60006125da82612578565b6125e48185612583565b93506125f4818560208601612594565b6125fd816125be565b840191505092915050565b60008115159050919050565b61261d81612608565b82525050565b600061016082019050612639600083018e6124e6565b612646602083018d612569565b612653604083018c612569565b612660606083018b6124e6565b61266d608083018a6124e6565b81810360a083015261267f81896125cf565b905061268e60c08301886124e6565b61269b60e0830187612569565b6126a96101008301866124e6565b6126b7610120830185612614565b6126c56101408301846124e6565b9c9b505050505050505050505050565b600080600080608085870312156126ef576126ee612447565b5b60006126fd8782880161249a565b945050602061270e87828801612527565b935050604061271f87828801612527565b925050606061273087828801612527565b91505092959194509250565b600081519050919050565b600082825260208201905092915050565b6000819050602082019050919050565b61277181612471565b82525050565b60006127838383612768565b60208301905092915050565b6000602082019050919050565b60006127a78261273c565b6127b18185612747565b93506127bc83612758565b8060005b838110156127ed5781516127d48882612777565b97506127df8361278f565b9250506001810190506127c0565b5085935050505092915050565b60006020820190508181036000830152612814818461279c565b905092915050565b612825816124dc565b82525050565b600082825260208201905092915050565b600061284782612578565b612851818561282b565b9350612861818560208601612594565b61286a816125be565b840191505092915050565b61287e81612608565b82525050565b60006101a08301600083015161289d600086018261281c565b5060208301516128b06020860182612768565b5060408301516128c36040860182612768565b5060608301516128d6606086018261281c565b5060808301516128e9608086018261281c565b5060a083015184820360a0860152612901828261283c565b91505060c083015161291660c086018261281c565b5060e083015161292960e0860182612768565b5061010083015161293e61010086018261281c565b50610120830151612953610120860182612875565b50610140830151612968610140860182612875565b5061016083015161297d61016086018261281c565b5061018083015161299261018086018261281c565b508091505092915050565b600060208201905081810360008301526129b78184612884565b905092915050565b600080604083850312156129d6576129d5612447565b5b60006129e485828601612527565b92505060206129f585828601612527565b9150509250929050565b600081519050919050565b600082825260208201905092915050565b6000819050602082019050919050565b6000612a37838361281c565b60208301905092915050565b6000602082019050919050565b6000612a5b826129ff565b612a658185612a0a565b9350612a7083612a1b565b8060005b83811015612aa1578151612a888882612a2b565b9750612a9383612a43565b925050600181019050612a74565b5085935050505092915050565b60006020820190508181036000830152612ac88184612a50565b905092915050565b6000602082019050612ae56000830184612569565b92915050565b600080fd5b600080fd5b7f4e487b7100000000000000000000000000000000000000000000000000000000600052604160045260246000fd5b612b2d826125be565b810181811067ffffffffffffffff82111715612b4c57612b4b612af5565b5b80604052505050565b6000612b5f61243d565b9050612b6b8282612b24565b919050565b600067ffffffffffffffff821115612b8b57612b8a612af5565b5b612b94826125be565b9050602081019050919050565b82818337600083830152505050565b6000612bc3612bbe84612b70565b612b55565b905082815260208101848484011115612bdf57612bde612af0565b5b612bea848285612ba1565b509392505050565b600082601f830112612c0757612c06612aeb565b5b8135612c17848260208601612bb0565b91505092915050565b60008060408385031215612c3757612c36612447565b5b6000612c4585828601612527565b925050602083013567ffffffffffffffff811115612c6657612c6561244c565b5b612c7285828601612bf2565b9150509250929050565b6000602082019050612c916000830184612614565b92915050565b600081519050919050565b600082825260208201905092915050565b6000819050602082019050919050565b60006101a083016000830151612cdc600086018261281c565b506020830151612cef6020860182612768565b506040830151612d026040860182612768565b506060830151612d15606086018261281c565b506080830151612d28608086018261281c565b5060a083015184820360a0860152612d40828261283c565b91505060c0830151612d5560c086018261281c565b5060e0830151612d6860e0860182612768565b50610100830151612d7d61010086018261281c565b50610120830151612d92610120860182612875565b50610140830151612da7610140860182612875565b50610160830151612dbc61016086018261281c565b50610180830151612dd161018086018261281c565b508091505092915050565b6000612de88383612cc3565b905092915050565b6000602082019050919050565b6000612e0882612c97565b612e128185612ca2565b935083602082028501612e2485612cb3565b8060005b85811015612e605784840389528151612e418582612ddc565b9450612e4c83612df0565b925060208a01995050600181019050612e28565b50829750879550505050505092915050565b60006020820190508181036000830152612e8c8184612dfd565b905092915050565b7f4e487b7100000000000000000000000000000000000000000000000000000000600052602260045260246000fd5b60006002820490506001821680612edb57607f821691505b602082108103612eee57612eed612e94565b5b50919050565b7f4163746976652067616d6520616c72656164792065786973747320666f72207460008201527f68697320746f6b656e0000000000000000000000000000000000000000000000602082015250565b6000612f50602983612583565b9150612f5b82612ef4565b604082019050919050565b60006020820190508181036000830152612f7f81612f43565b9050919050565b7f4e487b7100000000000000000000000000000000000000000000000000000000600052601160045260246000fd5b6000612fc0826124dc565b91507fffffffffffffffffffffffffffffffffffffffffffffffffffffffffffffffff8203612ff257612ff1612f86565b5b600182019050919050565b600061301061300b84612b70565b612b55565b90508281526020810184848401111561302c5761302b612af0565b5b613037848285612594565b509392505050565b600082601f83011261305457613053612aeb565b5b8151613064848260208601612ffd565b91505092915050565b60006020828403121561308357613082612447565b5b600082015167ffffffffffffffff8111156130a1576130a061244c565b5b6130ad8482850161303f565b91505092915050565b60008190508160005260206000209050919050565b60006020601f8301049050919050565b600082821b905092915050565b6000600883026131187fffffffffffffffffffffffffffffffffffffffffffffffffffffffffffffffff826130db565b61312286836130db565b95508019841693508086168417925050509392505050565b6000819050919050565b600061315f61315a613155846124dc565b61313a565b6124dc565b9050919050565b6000819050919050565b61317983613144565b61318d61318582613166565b8484546130e8565b825550505050565b600090565b6131a2613195565b6131ad818484613170565b505050565b5b818110156131d1576131c660008261319a565b6001810190506131b3565b5050565b601f821115613216576131e7816130b6565b6131f0846130cb565b810160208510156131ff578190505b61321361320b856130cb565b8301826131b2565b50505b505050565b600082821c905092915050565b60006132396000198460080261321b565b1980831691505092915050565b60006132528383613228565b9150826002028217905092915050565b61326b82612578565b67ffffffffffffffff81111561328457613283612af5565b5b61328e8254612ec3565b6132998282856131d5565b600060209050601f8311600181146132cc57600084156132ba578287015190505b6132c48582613246565b86555061332c565b601f1984166132da866130b6565b60005b82811015613302578489015182556001820191506020850194506020810190506132dd565b8683101561331f578489015161331b601f891682613228565b8355505b6001600288020188555050505b505050505050565b600061333f826124dc565b915061334a836124dc565b925082820190508082111561336257613361612f86565b5b92915050565b600060608201905061337d6000830186612569565b61338a6020830185612569565b61339760408301846124e6565b949350505050565b6133a881612608565b81146133b357600080fd5b50565b6000815190506133c58161339f565b92915050565b6000602082840312156133e1576133e0612447565b5b60006133ef848285016133b6565b91505092915050565b7f496e697469616c2066756e64696e67207472616e73666572206661696c656400600082015250565b600061342e601f83612583565b9150613439826133f8565b602082019050919050565b6000602082019050818103600083015261345d81613421565b9050919050565b6000815461347181612ec3565b61347b8186612583565b9450600182166000811461349657600181146134ac576134df565b60ff1983168652811515602002860193506134df565b6134b5856130b6565b60005b838110156134d7578154818901526001820191506020810190506134b8565b808801955050505b50505092915050565b600060c0820190506134fd60008301896124e6565b61350a60208301886124e6565b818103604083015261351c8187613464565b905061352b60608301866124e6565b6135386080830185612569565b61354560a08301846124e6565b979650505050505050565b7f47616d6520646f6573206e6f7420657869737400000000000000000000000000600082015250565b6000613586601383612583565b915061359182613550565b602082019050919050565b600060208201905081810360008301526135b581613579565b9050919050565b7f47616d6520616c726561647920656e6465640000000000000000000000000000600082015250565b60006135f2601283612583565b91506135fd826135bc565b602082019050919050565b60006020820190508181036000830152613621816135e5565b9050919050565b7f416d6f756e74206d7573742062652067726561746572207468616e2030000000600082015250565b600061365e601d83612583565b915061366982613628565b602082019050919050565b6000602082019050818103600083015261368d81613651565b9050919050565b7f46756e64696e67207472616e73666572206661696c6564000000000000000000600082015250565b60006136ca601783612583565b91506136d582613694565b602082019050919050565b600060208201905081810360008301526136f9816136bd565b9050919050565b600060408201905061371560008301856124e6565b61372260208301846124e6565b9392505050565b7f4e6f2066756e6465727320617661696c61626c65000000000000000000000000600082015250565b600061375f601483612583565b915061376a82613729565b602082019050919050565b6000602082019050818103600083015261378e81613752565b9050919050565b60006040820190506137aa6000830185612569565b6137b76020830184612569565b9392505050565b6000815190506137cd81612510565b92915050565b6000602082840312156137e9576137e8612447565b5b60006137f7848285016137be565b91505092915050565b7f45524332303a204d75737420617070726f766520746f6b656e20666972737400600082015250565b6000613836601f83612583565b915061384182613800565b602082019050919050565b6000602082019050818103600083015261386581613829565b9050919050565b6000608082019050818103600083015261388681876125cf565b905061389560208301866124e6565b6138a260408301856124e6565b6138af60608301846124e6565b95945050505050565b7f47616d65206e6f7420656e646564207965740000000000000000000000000000600082015250565b60006138ee601283612583565b91506138f9826138b8565b602082019050919050565b6000602082019050818103600083015261391d816138e1565b9050919050565b7f4f6e6c792077696e6e65722063616e2077697468647261770000000000000000600082015250565b600061395a601883612583565b915061396582613924565b602082019050919050565b600060208201905081810360008301526139898161394d565b9050919050565b7f5072697a6520616c726561647920636c61696d65640000000000000000000000600082015250565b60006139c6601583612583565b91506139d182613990565b602082019050919050565b600060208201905081810360008301526139f5816139b9565b9050919050565b7f4e6f207072697a6520746f20636c61696d000000000000000000000000000000600082015250565b6000613a32601183612583565b9150613a3d826139fc565b602082019050919050565b60006020820190508181036000830152613a6181613a25565b9050919050565b6000604082019050613a7d6000830185612569565b613a8a60208301846124e6565b9392505050565b7f4e487b7100000000000000000000000000000000000000000000000000000000600052603260045260246000fd5b7f4e6f2066756e6465727320746f20646973747269627574650000000000000000600082015250565b6000613af6601883612583565b9150613b0182613ac0565b602082019050919050565b60006020820190508181036000830152613b2581613ae9565b9050919050565b6000613b37826124dc565b9150613b42836124dc565b9250828202613b50816124dc565b91508282048414831517613b6757613b66612f86565b5b5092915050565b7f4e487b7100000000000000000000000000000000000000000000000000000000600052601260045260246000fd5b6000613ba8826124dc565b9150613bb3836124dc565b925082613bc357613bc2613b6e565b5b828204905092915050565b6000613bd9826124dc565b9150613be4836124dc565b9250828203905081811115613bfc57613bfb612f86565b5b9291505056fea26469706673582212206b6508845af85169b6d6cb962b8f10053bf4c9733255644f425d0d88ee3adac864736f6c634300081c0033",
  "linkReferences": {},
  "deployedLinkReferences": {},
  "immutableReferences": {},
  "inputSourceName": "project/contracts/CommentGameV2.sol",
  "buildInfoId": "solc-0_8_28-acd6fc078c8c41a137a493d07b1bfc43bea795c7"
}