{
  "_format": "hh3-artifact-1",
  "contractName": "CommentGameV2",
  "sourceName": "contracts/CommentGameV2.sol",
  "abi": [
    {
      "inputs": [
        {
          "internalType": "address",
          "name": "_feeCollector",
          "type": "address"
        }
      ],
      "stateMutability": "nonpayable",
      "type": "constructor"
    },
    {
      "inputs": [
        {
          "internalType": "address",
          "name": "owner",
          "type": "address"
        }
      ],
      "name": "OwnableInvalidOwner",
      "type": "error"
    },
    {
      "inputs": [
        {
          "internalType": "address",
          "name": "account",
          "type": "address"
        }
      ],
      "name": "OwnableUnauthorizedAccount",
      "type": "error"
    },
    {
      "inputs": [],
      "name": "ReentrancyGuardReentrantCall",
      "type": "error"
    },
    {
      "anonymous": false,
      "inputs": [
        {
          "indexed": true,
          "internalType": "uint256",
          "name": "gameId",
          "type": "uint256"
        },
        {
          "indexed": true,
          "internalType": "uint256",
          "name": "commentId",
          "type": "uint256"
        },
        {
          "indexed": true,
          "internalType": "address",
          "name": "commentor",
          "type": "address"
        },
        {
          "indexed": false,
          "internalType": "uint256",
          "name": "cost",
          "type": "uint256"
        },
        {
          "indexed": false,
          "internalType": "string",
          "name": "message",
          "type": "string"
        },
        {
          "indexed": false,
          "internalType": "uint256",
          "name": "newEndTime",
          "type": "uint256"
        },
        {
          "indexed": false,
          "internalType": "uint256",
          "name": "totalFunding",
          "type": "uint256"
        },
        {
          "indexed": false,
          "internalType": "uint256",
          "name": "timestamp",
          "type": "uint256"
        }
      ],
      "name": "CommentAdded",
      "type": "event"
    },
    {
      "anonymous": false,
      "inputs": [
        {
          "indexed": true,
          "internalType": "uint256",
          "name": "gameId",
          "type": "uint256"
        },
        {
          "indexed": true,
          "internalType": "address",
          "name": "funder",
          "type": "address"
        },
        {
          "indexed": false,
          "internalType": "uint256",
          "name": "amount",
          "type": "uint256"
        }
      ],
      "name": "CommentFeeDistributed",
      "type": "event"
    },
    {
      "anonymous": false,
      "inputs": [
        {
          "indexed": true,
          "internalType": "uint256",
          "name": "gameId",
          "type": "uint256"
        },
        {
          "indexed": true,
          "internalType": "address",
          "name": "initiator",
          "type": "address"
        },
        {
          "indexed": true,
          "internalType": "address",
          "name": "gameToken",
          "type": "address"
        },
        {
          "indexed": false,
          "internalType": "uint256",
          "name": "cost",
          "type": "uint256"
        },
        {
          "indexed": false,
          "internalType": "uint256",
          "name": "gameTime",
          "type": "uint256"
        },
        {
          "indexed": false,
          "internalType": "string",
          "name": "tokenSymbol",
          "type": "string"
        },
        {
          "indexed": false,
          "internalType": "uint256",
          "name": "endTime",
          "type": "uint256"
        },
        {
          "indexed": false,
          "internalType": "address",
          "name": "lastCommentor",
          "type": "address"
        },
        {
          "indexed": false,
          "internalType": "uint256",
          "name": "totalFunding",
          "type": "uint256"
        }
      ],
      "name": "GameCreated",
      "type": "event"
    },
    {
      "anonymous": false,
      "inputs": [
        {
          "indexed": true,
          "internalType": "address",
          "name": "previousOwner",
          "type": "address"
        },
        {
          "indexed": true,
          "internalType": "address",
          "name": "newOwner",
          "type": "address"
        }
      ],
      "name": "OwnershipTransferred",
      "type": "event"
    },
    {
      "anonymous": false,
      "inputs": [
        {
          "indexed": true,
          "internalType": "uint256",
          "name": "gameId",
          "type": "uint256"
        },
        {
          "indexed": true,
          "internalType": "address",
          "name": "winner",
          "type": "address"
        },
        {
          "indexed": false,
          "internalType": "uint256",
          "name": "prizeAmount",
          "type": "uint256"
        },
        {
          "indexed": false,
          "internalType": "uint256",
          "name": "timestamp",
          "type": "uint256"
        }
      ],
      "name": "PrizeClaimed",
      "type": "event"
    },
    {
      "anonymous": false,
      "inputs": [
        {
          "indexed": true,
          "internalType": "uint256",
          "name": "gameId",
          "type": "uint256"
        },
        {
          "indexed": true,
          "internalType": "address",
          "name": "funder",
          "type": "address"
        },
        {
          "indexed": false,
          "internalType": "uint256",
          "name": "cost",
          "type": "uint256"
        },
        {
          "indexed": false,
          "internalType": "uint256",
          "name": "amount",
          "type": "uint256"
        },
        {
          "indexed": false,
          "internalType": "uint256",
          "name": "totalFunding",
          "type": "uint256"
        }
      ],
      "name": "PrizePoolFunded",
      "type": "event"
    },
    {
      "inputs": [],
      "name": "PLATFORM_FEE",
      "outputs": [
        {
          "internalType": "uint256",
          "name": "",
          "type": "uint256"
        }
      ],
      "stateMutability": "view",
      "type": "function"
    },
    {
      "inputs": [
        {
          "internalType": "address",
          "name": "",
          "type": "address"
        }
      ],
      "name": "activeGameByToken",
      "outputs": [
        {
          "internalType": "uint256",
          "name": "",
          "type": "uint256"
        }
      ],
      "stateMutability": "view",
      "type": "function"
    },
    {
      "inputs": [
        {
          "internalType": "uint256",
          "name": "_gameId",
          "type": "uint256"
        },
        {
          "internalType": "string",
          "name": "_message",
          "type": "string"
        }
      ],
      "name": "addComment",
      "outputs": [],
      "stateMutability": "nonpayable",
      "type": "function"
    },
    {
      "inputs": [
        {
          "internalType": "uint256",
          "name": "",
          "type": "uint256"
        }
      ],
      "name": "allGameIds",
      "outputs": [
        {
          "internalType": "uint256",
          "name": "",
          "type": "uint256"
        }
      ],
      "stateMutability": "view",
      "type": "function"
    },
    {
      "inputs": [
        {
          "internalType": "uint256",
          "name": "_gameId",
          "type": "uint256"
        }
      ],
      "name": "claimPrize",
      "outputs": [],
      "stateMutability": "nonpayable",
      "type": "function"
    },
    {
      "inputs": [
        {
          "internalType": "uint256",
          "name": "",
          "type": "uint256"
        }
      ],
      "name": "commentIdCounter",
      "outputs": [
        {
          "internalType": "uint256",
          "name": "",
          "type": "uint256"
        }
      ],
      "stateMutability": "view",
      "type": "function"
    },
    {
      "inputs": [
        {
          "internalType": "address",
          "name": "_gameToken",
          "type": "address"
        },
        {
          "internalType": "uint256",
          "name": "_time",
          "type": "uint256"
        },
        {
          "internalType": "uint256",
          "name": "_initialFunding",
          "type": "uint256"
        }
      ],
      "name": "createGame",
      "outputs": [
        {
          "internalType": "uint256",
          "name": "",
          "type": "uint256"
        }
      ],
      "stateMutability": "nonpayable",
      "type": "function"
    },
    {
      "inputs": [],
      "name": "feeCollector",
      "outputs": [
        {
          "internalType": "address",
          "name": "",
          "type": "address"
        }
      ],
      "stateMutability": "view",
      "type": "function"
    },
    {
      "inputs": [
        {
          "internalType": "uint256",
          "name": "_gameId",
          "type": "uint256"
        },
        {
          "internalType": "uint256",
          "name": "_amount",
          "type": "uint256"
        }
      ],
      "name": "fundPrizePool",
      "outputs": [],
      "stateMutability": "nonpayable",
      "type": "function"
    },
    {
      "inputs": [],
      "name": "gameIdCounter",
      "outputs": [
        {
          "internalType": "uint256",
          "name": "",
          "type": "uint256"
        }
      ],
      "stateMutability": "view",
      "type": "function"
    },
    {
      "inputs": [
        {
          "internalType": "uint256",
          "name": "",
          "type": "uint256"
        }
      ],
      "name": "games",
      "outputs": [
        {
          "internalType": "uint256",
          "name": "id",
          "type": "uint256"
        },
        {
          "internalType": "address",
          "name": "initiator",
          "type": "address"
        },
        {
          "internalType": "address",
          "name": "gameToken",
          "type": "address"
        },
        {
          "internalType": "uint256",
          "name": "cost",
          "type": "uint256"
        },
        {
          "internalType": "uint256",
          "name": "gameTime",
          "type": "uint256"
        },
        {
          "internalType": "string",
          "name": "tokenSymbol",
          "type": "string"
        },
        {
          "internalType": "uint256",
          "name": "endTime",
          "type": "uint256"
        },
        {
          "internalType": "address",
          "name": "lastCommentor",
          "type": "address"
        },
        {
          "internalType": "uint256",
          "name": "prizePool",
          "type": "uint256"
        },
        {
          "internalType": "bool",
          "name": "isClaimed",
          "type": "bool"
        },
        {
          "internalType": "uint256",
          "name": "totalFunding",
          "type": "uint256"
        }
      ],
      "stateMutability": "view",
      "type": "function"
    },
    {
      "inputs": [
        {
          "internalType": "address",
          "name": "_token",
          "type": "address"
        }
      ],
      "name": "getActiveGameId",
      "outputs": [
        {
          "internalType": "uint256",
          "name": "",
          "type": "uint256"
        }
      ],
      "stateMutability": "view",
      "type": "function"
    },
    {
      "inputs": [],
      "name": "getAllGameIds",
      "outputs": [
        {
          "internalType": "uint256[]",
          "name": "",
          "type": "uint256[]"
        }
      ],
      "stateMutability": "view",
      "type": "function"
    },
    {
      "inputs": [],
      "name": "getAllGames",
      "outputs": [
        {
          "components": [
            {
              "internalType": "uint256",
              "name": "id",
              "type": "uint256"
            },
            {
              "internalType": "address",
              "name": "initiator",
              "type": "address"
            },
            {
              "internalType": "address",
              "name": "gameToken",
              "type": "address"
            },
            {
              "internalType": "uint256",
              "name": "cost",
              "type": "uint256"
            },
            {
              "internalType": "uint256",
              "name": "gameTime",
              "type": "uint256"
            },
            {
              "internalType": "string",
              "name": "tokenSymbol",
              "type": "string"
            },
            {
              "internalType": "uint256",
              "name": "endTime",
              "type": "uint256"
            },
            {
              "internalType": "address",
              "name": "lastCommentor",
              "type": "address"
            },
            {
              "internalType": "uint256",
              "name": "prizePool",
              "type": "uint256"
            },
            {
              "internalType": "bool",
              "name": "isClaimed",
              "type": "bool"
            },
            {
              "internalType": "bool",
              "name": "isEnded",
              "type": "bool"
            },
            {
              "internalType": "uint256",
              "name": "totalFunding",
              "type": "uint256"
            },
            {
              "internalType": "uint256",
              "name": "funderCount",
              "type": "uint256"
            }
          ],
          "internalType": "struct CommentGameV2.GameInfo[]",
          "name": "",
          "type": "tuple[]"
        }
      ],
      "stateMutability": "view",
      "type": "function"
    },
    {
      "inputs": [
        {
          "internalType": "uint256",
          "name": "_gameId",
          "type": "uint256"
        }
      ],
      "name": "getFunders",
      "outputs": [
        {
          "internalType": "address[]",
          "name": "",
          "type": "address[]"
        }
      ],
      "stateMutability": "view",
      "type": "function"
    },
    {
      "inputs": [
        {
          "internalType": "uint256",
          "name": "_gameId",
          "type": "uint256"
        }
      ],
      "name": "getGameInfo",
      "outputs": [
        {
          "components": [
            {
              "internalType": "uint256",
              "name": "id",
              "type": "uint256"
            },
            {
              "internalType": "address",
              "name": "initiator",
              "type": "address"
            },
            {
              "internalType": "address",
              "name": "gameToken",
              "type": "address"
            },
            {
              "internalType": "uint256",
              "name": "cost",
              "type": "uint256"
            },
            {
              "internalType": "uint256",
              "name": "gameTime",
              "type": "uint256"
            },
            {
              "internalType": "string",
              "name": "tokenSymbol",
              "type": "string"
            },
            {
              "internalType": "uint256",
              "name": "endTime",
              "type": "uint256"
            },
            {
              "internalType": "address",
              "name": "lastCommentor",
              "type": "address"
            },
            {
              "internalType": "uint256",
              "name": "prizePool",
              "type": "uint256"
            },
            {
              "internalType": "bool",
              "name": "isClaimed",
              "type": "bool"
            },
            {
              "internalType": "bool",
              "name": "isEnded",
              "type": "bool"
            },
            {
              "internalType": "uint256",
              "name": "totalFunding",
              "type": "uint256"
            },
            {
              "internalType": "uint256",
              "name": "funderCount",
              "type": "uint256"
            }
          ],
          "internalType": "struct CommentGameV2.GameInfo",
          "name": "",
          "type": "tuple"
        }
      ],
      "stateMutability": "view",
      "type": "function"
    },
    {
      "inputs": [
        {
          "internalType": "uint256",
          "name": "_gameId",
          "type": "uint256"
        }
      ],
      "name": "isEnded",
      "outputs": [
        {
          "internalType": "bool",
          "name": "",
          "type": "bool"
        }
      ],
      "stateMutability": "view",
      "type": "function"
    },
    {
      "inputs": [],
      "name": "owner",
      "outputs": [
        {
          "internalType": "address",
          "name": "",
          "type": "address"
        }
      ],
      "stateMutability": "view",
      "type": "function"
    },
    {
      "inputs": [],
      "name": "renounceOwnership",
      "outputs": [],
      "stateMutability": "nonpayable",
      "type": "function"
    },
    {
      "inputs": [
        {
          "internalType": "address",
          "name": "_newCollector",
          "type": "address"
        }
      ],
      "name": "setFeeCollector",
      "outputs": [],
      "stateMutability": "nonpayable",
      "type": "function"
    },
    {
      "inputs": [
        {
          "internalType": "address",
          "name": "newOwner",
          "type": "address"
        }
      ],
      "name": "transferOwnership",
      "outputs": [],
      "stateMutability": "nonpayable",
      "type": "function"
    }
  ],
  "bytecode": "0x608060405234801561001057600080fd5b50604051613f2e380380613f2e8339818101604052810190610032919061022d565b336001600081905550600073ffffffffffffffffffffffffffffffffffffffff168173ffffffffffffffffffffffffffffffffffffffff16036100ad5760006040517f1e4fbdf70000000000000000000000000000000000000000000000000000000081526004016100a49190610269565b60405180910390fd5b6100bc8161010460201b60201c565b5080600260006101000a81548173ffffffffffffffffffffffffffffffffffffffff021916908373ffffffffffffffffffffffffffffffffffffffff16021790555050610284565b6000600160009054906101000a900473ffffffffffffffffffffffffffffffffffffffff16905081600160006101000a81548173ffffffffffffffffffffffffffffffffffffffff021916908373ffffffffffffffffffffffffffffffffffffffff1602179055508173ffffffffffffffffffffffffffffffffffffffff168173ffffffffffffffffffffffffffffffffffffffff167f8be0079c531659141344cd1fd0a4f28419497f9722a3daafe3b4186f6b6457e060405160405180910390a35050565b600080fd5b600073ffffffffffffffffffffffffffffffffffffffff82169050919050565b60006101fa826101cf565b9050919050565b61020a816101ef565b811461021557600080fd5b50565b60008151905061022781610201565b92915050565b600060208284031215610243576102426101ca565b5b600061025184828501610218565b91505092915050565b610263816101ef565b82525050565b600060208201905061027e600083018461025a565b92915050565b613c9b806102936000396000f3fe608060405234801561001057600080fd5b50600436106101375760003560e01c80636b3d2cbb116100b8578063aa7e56831161007c578063aa7e568314610380578063b66f7a8b1461039c578063c415b95c146103cc578063d7098154146103ea578063db1c45f914610406578063f2fde38b1461042457610137565b80636b3d2cbb146102ee578063715018a61461030c5780638da5cb5b146103165780639fdb356114610334578063a42dce801461036457610137565b80633b17469e116100ff5780633b17469e1461021257806347e1d550146102425780634d96a63d146102725780635a5cfc1c1461028e578063612454e1146102be57610137565b806305212cf41461013c578063117a5b901461016c5780631bb412d6146101a657806334fbc9a1146101c45780633a7b6c74146101e2575b600080fd5b610156600480360381019061015191906124e1565b610440565b6040516101639190612527565b60405180910390f35b6101866004803603810190610181919061256e565b610489565b60405161019d9b9a99989796959493929190612655565b60405180910390f35b6101ae6105d8565b6040516101bb9190612527565b60405180910390f35b6101cc6105de565b6040516101d99190612527565b60405180910390f35b6101fc60048036038101906101f7919061256e565b6105e3565b60405161020991906127c5565b60405180910390f35b61022c600480360381019061022791906127e7565b6106d4565b6040516102399190612527565b60405180910390f35b61025c6004803603810190610257919061256e565b610bfa565b60405161026991906129bb565b60405180910390f35b61028c600480360381019061028791906129dd565b610e35565b005b6102a860048036038101906102a3919061256e565b6111c6565b6040516102b59190612527565b60405180910390f35b6102d860048036038101906102d391906124e1565b6111ea565b6040516102e59190612527565b60405180910390f35b6102f6611202565b6040516103039190612acc565b60405180910390f35b61031461125a565b005b61031e61126e565b60405161032b9190612aee565b60405180910390f35b61034e6004803603810190610349919061256e565b611298565b60405161035b9190612527565b60405180910390f35b61037e600480360381019061037991906124e1565b6112b0565b005b61039a60048036038101906103959190612c3e565b6112fc565b005b6103b660048036038101906103b1919061256e565b6116a0565b6040516103c39190612c9a565b60405180910390f35b6103d461170f565b6040516103e19190612aee565b60405180910390f35b61040460048036038101906103ff919061256e565b611735565b005b61040e611a3e565b60405161041b9190612e90565b60405180910390f35b61043e600480360381019061043991906124e1565b611ce9565b005b6000600660008373ffffffffffffffffffffffffffffffffffffffff1673ffffffffffffffffffffffffffffffffffffffff168152602001908152602001600020549050919050565b60056020528060005260406000206000915090508060000154908060010160009054906101000a900473ffffffffffffffffffffffffffffffffffffffff16908060020160009054906101000a900473ffffffffffffffffffffffffffffffffffffffff169080600301549080600401549080600501805461050a90612ee1565b80601f016020809104026020016040519081016040528092919081815260200182805461053690612ee1565b80156105835780601f1061055857610100808354040283529160200191610583565b820191906000526020600020905b81548152906001019060200180831161056657829003601f168201915b5050505050908060060154908060070160009054906101000a900473ffffffffffffffffffffffffffffffffffffffff16908060080154908060090160009054906101000a900460ff169080600c015490508b565b60035481565b600281565b606060006005600084815260200190815260200160002090506000816000015411610643576040517f08c379a000000000000000000000000000000000000000000000000000000000815260040161063a90612f5e565b60405180910390fd5b80600b018054806020026020016040519081016040528092919081815260200182805480156106c757602002820191906000526020600020905b8160009054906101000a900473ffffffffffffffffffffffffffffffffffffffff1673ffffffffffffffffffffffffffffffffffffffff168152602001906001019080831161067d575b5050505050915050919050565b60006106de611d6f565b6000600660008673ffffffffffffffffffffffffffffffffffffffff1673ffffffffffffffffffffffffffffffffffffffff168152602001908152602001600020549050600081111561078b5760006005600083815260200190815260200160002090508060060154421015610789576040517f08c379a000000000000000000000000000000000000000000000000000000000815260040161078090612ff0565b60405180910390fd5b505b6003600081548092919061079e9061303f565b9190505550600060035490506000600560008381526020019081526020016000209050818160000181905550338160010160006101000a81548173ffffffffffffffffffffffffffffffffffffffff021916908373ffffffffffffffffffffffffffffffffffffffff160217905550868160020160006101000a81548173ffffffffffffffffffffffffffffffffffffffff021916908373ffffffffffffffffffffffffffffffffffffffff1602179055508581600401819055508673ffffffffffffffffffffffffffffffffffffffff166395d89b416040518163ffffffff1660e01b8152600401600060405180830381865afa1580156108a4573d6000803e3d6000fd5b505050506040513d6000823e3d601f19601f820116820180604052508101906108cd91906130f7565b8160050190816108dd91906132ec565b5085426108ea91906133be565b8160060181905550338160070160006101000a81548173ffffffffffffffffffffffffffffffffffffffff021916908373ffffffffffffffffffffffffffffffffffffffff1602179055506000851115610ad1578673ffffffffffffffffffffffffffffffffffffffff166323b872dd3330886040518463ffffffff1660e01b815260040161097b939291906133f2565b6020604051808303816000875af115801561099a573d6000803e3d6000fd5b505050506040513d601f19601f820116820180604052508101906109be9190613455565b6109fd576040517f08c379a00000000000000000000000000000000000000000000000000000000081526004016109f4906134ce565b60405180910390fd5b8481600a0160003373ffffffffffffffffffffffffffffffffffffffff1673ffffffffffffffffffffffffffffffffffffffff1681526020019081526020016000208190555080600b01339080600181540180825580915050600190039060005260206000200160009091909190916101000a81548173ffffffffffffffffffffffffffffffffffffffff021916908373ffffffffffffffffffffffffffffffffffffffff1602179055508481600c018190555084816008018190555061271085610ac8919061351d565b81600301819055505b81600660008973ffffffffffffffffffffffffffffffffffffffff1673ffffffffffffffffffffffffffffffffffffffff1681526020019081526020016000208190555060078290806001815401808255809150506001900390600052602060002001600090919091909150558673ffffffffffffffffffffffffffffffffffffffff163373ffffffffffffffffffffffffffffffffffffffff16837f297d694df7b04bdab88082519f5f6d652155070f0a5e99a1daa395b4ba5576e4846003015485600401548660050187600601548860070160009054906101000a900473ffffffffffffffffffffffffffffffffffffffff1689600c0154604051610bdd969594939291906135d2565b60405180910390a4819350505050610bf3611db5565b9392505050565b610c026123c1565b60006005600084815260200190815260200160002090506000816000015411610c60576040517f08c379a0000000000000000000000000000000000000000000000000000000008152600401610c5790612f5e565b60405180910390fd5b604051806101a00160405280826000015481526020018260010160009054906101000a900473ffffffffffffffffffffffffffffffffffffffff1673ffffffffffffffffffffffffffffffffffffffff1681526020018260020160009054906101000a900473ffffffffffffffffffffffffffffffffffffffff1673ffffffffffffffffffffffffffffffffffffffff1681526020018260030154815260200182600401548152602001826005018054610d1990612ee1565b80601f0160208091040260200160405190810160405280929190818152602001828054610d4590612ee1565b8015610d925780601f10610d6757610100808354040283529160200191610d92565b820191906000526020600020905b815481529060010190602001808311610d7557829003601f168201915b50505050508152602001826006015481526020018260070160009054906101000a900473ffffffffffffffffffffffffffffffffffffffff1673ffffffffffffffffffffffffffffffffffffffff168152602001826008015481526020018260090160009054906101000a900460ff161515815260200182600601544210151515815260200182600c0154815260200182600b0180549050815250915050919050565b610e3d611d6f565b60006005600084815260200190815260200160002090506000816000015411610e9b576040517f08c379a0000000000000000000000000000000000000000000000000000000008152600401610e9290612f5e565b60405180910390fd5b80600601544210610ee1576040517f08c379a0000000000000000000000000000000000000000000000000000000008152600401610ed890613686565b60405180910390fd5b60008211610f24576040517f08c379a0000000000000000000000000000000000000000000000000000000008152600401610f1b906136f2565b60405180910390fd5b8060020160009054906101000a900473ffffffffffffffffffffffffffffffffffffffff1673ffffffffffffffffffffffffffffffffffffffff166323b872dd3330856040518463ffffffff1660e01b8152600401610f85939291906133f2565b6020604051808303816000875af1158015610fa4573d6000803e3d6000fd5b505050506040513d601f19601f82011682018060405250810190610fc89190613455565b611007576040517f08c379a0000000000000000000000000000000000000000000000000000000008152600401610ffe9061375e565b60405180910390fd5b600081600a0160003373ffffffffffffffffffffffffffffffffffffffff1673ffffffffffffffffffffffffffffffffffffffff16815260200190815260200160002054036110b65780600b01339080600181540180825580915050600190039060005260206000200160009091909190916101000a81548173ffffffffffffffffffffffffffffffffffffffff021916908373ffffffffffffffffffffffffffffffffffffffff1602179055505b8181600a0160003373ffffffffffffffffffffffffffffffffffffffff1673ffffffffffffffffffffffffffffffffffffffff168152602001908152602001600020600082825461110791906133be565b925050819055508181600c01600082825461112291906133be565b925050819055508181600801600082825461113d91906133be565b9250508190555061271081600c0154611156919061351d565b81600301819055503373ffffffffffffffffffffffffffffffffffffffff16837f2db3471fda3c10e6ef471ef5714497a91ad5dd9ac8f44359caaed5ca7e931a6583600301548585600c01546040516111b19392919061377e565b60405180910390a3506111c2611db5565b5050565b600781815481106111d657600080fd5b906000526020600020016000915090505481565b60066020528060005260406000206000915090505481565b6060600780548060200260200160405190810160405280929190818152602001828054801561125057602002820191906000526020600020905b81548152602001906001019080831161123c575b5050505050905090565b611262611dbf565b61126c6000611e46565b565b6000600160009054906101000a900473ffffffffffffffffffffffffffffffffffffffff16905090565b60046020528060005260406000206000915090505481565b6112b8611dbf565b80600260006101000a81548173ffffffffffffffffffffffffffffffffffffffff021916908373ffffffffffffffffffffffffffffffffffffffff16021790555050565b611304611d6f565b60006005600084815260200190815260200160002090506000816000015411611362576040517f08c379a000000000000000000000000000000000000000000000000000000000815260040161135990612f5e565b60405180910390fd5b806006015442106113a8576040517f08c379a000000000000000000000000000000000000000000000000000000000815260040161139f90613686565b60405180910390fd5b600081600c0154116113ef576040517f08c379a00000000000000000000000000000000000000000000000000000000081526004016113e690613801565b60405180910390fd5b60008160020160009054906101000a900473ffffffffffffffffffffffffffffffffffffffff1673ffffffffffffffffffffffffffffffffffffffff1663dd62ed3e33306040518363ffffffff1660e01b8152600401611450929190613821565b602060405180830381865afa15801561146d573d6000803e3d6000fd5b505050506040513d601f19601f82011682018060405250810190611491919061385f565b905081600301548110156114da576040517f08c379a00000000000000000000000000000000000000000000000000000000081526004016114d1906138d8565b60405180910390fd5b8160020160009054906101000a900473ffffffffffffffffffffffffffffffffffffffff1673ffffffffffffffffffffffffffffffffffffffff166323b872dd333085600301546040518463ffffffff1660e01b815260040161153f939291906133f2565b6020604051808303816000875af115801561155e573d6000803e3d6000fd5b505050506040513d601f19601f820116820180604052508101906115829190613455565b50611591848360030154611f0c565b6004600085815260200190815260200160002060008154809291906115b59061303f565b9190505550600060046000868152602001908152602001600020549050338360070160006101000a81548173ffffffffffffffffffffffffffffffffffffffff021916908373ffffffffffffffffffffffffffffffffffffffff16021790555082600401544261162591906133be565b83600601819055503373ffffffffffffffffffffffffffffffffffffffff1681867f7a007f9821865a8f1d075b5cf4bc35f300b40baf94bb8e759e3ef86f04499d59866003015488886006015489600c0154426040516116899594939291906138f8565b60405180910390a450505061169c611db5565b5050565b60008060056000848152602001908152602001600020905060008160000154116116ff576040517f08c379a00000000000000000000000000000000000000000000000000000000081526004016116f690612f5e565b60405180910390fd5b8060060154421015915050919050565b600260009054906101000a900473ffffffffffffffffffffffffffffffffffffffff1681565b61173d611d6f565b6000600560008381526020019081526020016000209050600081600001541161179b576040517f08c379a000000000000000000000000000000000000000000000000000000000815260040161179290612f5e565b60405180910390fd5b80600601544210156117e2576040517f08c379a00000000000000000000000000000000000000000000000000000000081526004016117d99061399e565b60405180910390fd5b8060070160009054906101000a900473ffffffffffffffffffffffffffffffffffffffff1673ffffffffffffffffffffffffffffffffffffffff163373ffffffffffffffffffffffffffffffffffffffff1614611874576040517f08c379a000000000000000000000000000000000000000000000000000000000815260040161186b90613a0a565b60405180910390fd5b8060090160009054906101000a900460ff16156118c6576040517f08c379a00000000000000000000000000000000000000000000000000000000081526004016118bd90613a76565b60405180910390fd5b600081600801541161190d576040517f08c379a000000000000000000000000000000000000000000000000000000000815260040161190490613ae2565b60405180910390fd5b60018160090160006101000a81548160ff021916908315150217905550600081600801549050600082600801819055508160020160009054906101000a900473ffffffffffffffffffffffffffffffffffffffff1673ffffffffffffffffffffffffffffffffffffffff1663a9059cbb33836040518363ffffffff1660e01b815260040161199c929190613b02565b6020604051808303816000875af11580156119bb573d6000803e3d6000fd5b505050506040513d601f19601f820116820180604052508101906119df9190613455565b503373ffffffffffffffffffffffffffffffffffffffff16837f64da964e036dd66a7be792791f60a47ec5378950b9d12795de3f453aa3940eb08342604051611a29929190613b2b565b60405180910390a35050611a3b611db5565b50565b6060600060078054905067ffffffffffffffff811115611a6157611a60612b13565b5b604051908082528060200260200182016040528015611a9a57816020015b611a876123c1565b815260200190600190039081611a7f5790505b50905060005b600780549050811015611ce157600060078281548110611ac357611ac2613b54565b5b906000526020600020015490506000600560008381526020019081526020016000209050604051806101a00160405280826000015481526020018260010160009054906101000a900473ffffffffffffffffffffffffffffffffffffffff1673ffffffffffffffffffffffffffffffffffffffff1681526020018260020160009054906101000a900473ffffffffffffffffffffffffffffffffffffffff1673ffffffffffffffffffffffffffffffffffffffff1681526020018260030154815260200182600401548152602001826005018054611ba090612ee1565b80601f0160208091040260200160405190810160405280929190818152602001828054611bcc90612ee1565b8015611c195780601f10611bee57610100808354040283529160200191611c19565b820191906000526020600020905b815481529060010190602001808311611bfc57829003601f168201915b50505050508152602001826006015481526020018260070160009054906101000a900473ffffffffffffffffffffffffffffffffffffffff1673ffffffffffffffffffffffffffffffffffffffff168152602001826008015481526020018260090160009054906101000a900460ff161515815260200182600601544210151515815260200182600c0154815260200182600b0180549050815250848481518110611cc757611cc6613b54565b5b602002602001018190525050508080600101915050611aa0565b508091505090565b611cf1611dbf565b600073ffffffffffffffffffffffffffffffffffffffff168173ffffffffffffffffffffffffffffffffffffffff1603611d635760006040517f1e4fbdf7000000000000000000000000000000000000000000000000000000008152600401611d5a9190612aee565b60405180910390fd5b611d6c81611e46565b50565b600260005403611dab576040517f3ee5aeb500000000000000000000000000000000000000000000000000000000815260040160405180910390fd5b6002600081905550565b6001600081905550565b611dc76123b9565b73ffffffffffffffffffffffffffffffffffffffff16611de561126e565b73ffffffffffffffffffffffffffffffffffffffff1614611e4457611e086123b9565b6040517f118cdaa7000000000000000000000000000000000000000000000000000000008152600401611e3b9190612aee565b60405180910390fd5b565b6000600160009054906101000a900473ffffffffffffffffffffffffffffffffffffffff16905081600160006101000a81548173ffffffffffffffffffffffffffffffffffffffff021916908373ffffffffffffffffffffffffffffffffffffffff1602179055508173ffffffffffffffffffffffffffffffffffffffff168173ffffffffffffffffffffffffffffffffffffffff167f8be0079c531659141344cd1fd0a4f28419497f9722a3daafe3b4186f6b6457e060405160405180910390a35050565b6000600560008481526020019081526020016000209050600081600c015411611f6a576040517f08c379a0000000000000000000000000000000000000000000000000000000008152600401611f6190613bcf565b60405180910390fd5b60006064600284611f7b9190613bef565b611f85919061351d565b905060008184611f959190613c31565b90506000821115612066578260020160009054906101000a900473ffffffffffffffffffffffffffffffffffffffff1673ffffffffffffffffffffffffffffffffffffffff1663a9059cbb600260009054906101000a900473ffffffffffffffffffffffffffffffffffffffff16846040518363ffffffff1660e01b8152600401612021929190613b02565b6020604051808303816000875af1158015612040573d6000803e3d6000fd5b505050506040513d601f19601f820116820180604052508101906120649190613455565b505b6000805b84600b018054905081101561223757600085600b01828154811061209157612090613b54565b5b9060005260206000200160009054906101000a900473ffffffffffffffffffffffffffffffffffffffff169050600086600c01548588600a0160008573ffffffffffffffffffffffffffffffffffffffff1673ffffffffffffffffffffffffffffffffffffffff168152602001908152602001600020546121129190613bef565b61211c919061351d565b90506000811115612228578660020160009054906101000a900473ffffffffffffffffffffffffffffffffffffffff1673ffffffffffffffffffffffffffffffffffffffff1663a9059cbb83836040518363ffffffff1660e01b8152600401612186929190613b02565b6020604051808303816000875af11580156121a5573d6000803e3d6000fd5b505050506040513d601f19601f820116820180604052508101906121c99190613455565b5080846121d691906133be565b93508173ffffffffffffffffffffffffffffffffffffffff16897f94f860c3f84077ed2d225d73a998a213d5226668ee2c58d79f01a114ad5aa38b8360405161221f9190612527565b60405180910390a35b5050808060010191505061206a565b50600081836122469190613c31565b905060008111801561225f5750600085600b0180549050115b156123b057600085600b01600187600b018054905061227e9190613c31565b8154811061228f5761228e613b54565b5b9060005260206000200160009054906101000a900473ffffffffffffffffffffffffffffffffffffffff1690508560020160009054906101000a900473ffffffffffffffffffffffffffffffffffffffff1673ffffffffffffffffffffffffffffffffffffffff1663a9059cbb82846040518363ffffffff1660e01b815260040161231b929190613b02565b6020604051808303816000875af115801561233a573d6000803e3d6000fd5b505050506040513d601f19601f8201168201806040525081019061235e9190613455565b508073ffffffffffffffffffffffffffffffffffffffff16887f94f860c3f84077ed2d225d73a998a213d5226668ee2c58d79f01a114ad5aa38b846040516123a69190612527565b60405180910390a3505b50505050505050565b600033905090565b604051806101a0016040528060008152602001600073ffffffffffffffffffffffffffffffffffffffff168152602001600073ffffffffffffffffffffffffffffffffffffffff16815260200160008152602001600081526020016060815260200160008152602001600073ffffffffffffffffffffffffffffffffffffffff1681526020016000815260200160001515815260200160001515815260200160008152602001600081525090565b6000604051905090565b600080fd5b600080fd5b600073ffffffffffffffffffffffffffffffffffffffff82169050919050565b60006124ae82612483565b9050919050565b6124be816124a3565b81146124c957600080fd5b50565b6000813590506124db816124b5565b92915050565b6000602082840312156124f7576124f6612479565b5b6000612505848285016124cc565b91505092915050565b6000819050919050565b6125218161250e565b82525050565b600060208201905061253c6000830184612518565b92915050565b61254b8161250e565b811461255657600080fd5b50565b60008135905061256881612542565b92915050565b60006020828403121561258457612583612479565b5b600061259284828501612559565b91505092915050565b6125a4816124a3565b82525050565b600081519050919050565b600082825260208201905092915050565b60005b838110156125e45780820151818401526020810190506125c9565b60008484015250505050565b6000601f19601f8301169050919050565b600061260c826125aa565b61261681856125b5565b93506126268185602086016125c6565b61262f816125f0565b840191505092915050565b60008115159050919050565b61264f8161263a565b82525050565b60006101608201905061266b600083018e612518565b612678602083018d61259b565b612685604083018c61259b565b612692606083018b612518565b61269f608083018a612518565b81810360a08301526126b18189612601565b90506126c060c0830188612518565b6126cd60e083018761259b565b6126db610100830186612518565b6126e9610120830185612646565b6126f7610140830184612518565b9c9b505050505050505050505050565b600081519050919050565b600082825260208201905092915050565b6000819050602082019050919050565b61273c816124a3565b82525050565b600061274e8383612733565b60208301905092915050565b6000602082019050919050565b600061277282612707565b61277c8185612712565b935061278783612723565b8060005b838110156127b857815161279f8882612742565b97506127aa8361275a565b92505060018101905061278b565b5085935050505092915050565b600060208201905081810360008301526127df8184612767565b905092915050565b600080600060608486031215612800576127ff612479565b5b600061280e868287016124cc565b935050602061281f86828701612559565b925050604061283086828701612559565b9150509250925092565b6128438161250e565b82525050565b600082825260208201905092915050565b6000612865826125aa565b61286f8185612849565b935061287f8185602086016125c6565b612888816125f0565b840191505092915050565b61289c8161263a565b82525050565b60006101a0830160008301516128bb600086018261283a565b5060208301516128ce6020860182612733565b5060408301516128e16040860182612733565b5060608301516128f4606086018261283a565b506080830151612907608086018261283a565b5060a083015184820360a086015261291f828261285a565b91505060c083015161293460c086018261283a565b5060e083015161294760e0860182612733565b5061010083015161295c61010086018261283a565b50610120830151612971610120860182612893565b50610140830151612986610140860182612893565b5061016083015161299b61016086018261283a565b506101808301516129b061018086018261283a565b508091505092915050565b600060208201905081810360008301526129d581846128a2565b905092915050565b600080604083850312156129f4576129f3612479565b5b6000612a0285828601612559565b9250506020612a1385828601612559565b9150509250929050565b600081519050919050565b600082825260208201905092915050565b6000819050602082019050919050565b6000612a55838361283a565b60208301905092915050565b6000602082019050919050565b6000612a7982612a1d565b612a838185612a28565b9350612a8e83612a39565b8060005b83811015612abf578151612aa68882612a49565b9750612ab183612a61565b925050600181019050612a92565b5085935050505092915050565b60006020820190508181036000830152612ae68184612a6e565b905092915050565b6000602082019050612b03600083018461259b565b92915050565b600080fd5b600080fd5b7f4e487b7100000000000000000000000000000000000000000000000000000000600052604160045260246000fd5b612b4b826125f0565b810181811067ffffffffffffffff82111715612b6a57612b69612b13565b5b80604052505050565b6000612b7d61246f565b9050612b898282612b42565b919050565b600067ffffffffffffffff821115612ba957612ba8612b13565b5b612bb2826125f0565b9050602081019050919050565b82818337600083830152505050565b6000612be1612bdc84612b8e565b612b73565b905082815260208101848484011115612bfd57612bfc612b0e565b5b612c08848285612bbf565b509392505050565b600082601f830112612c2557612c24612b09565b5b8135612c35848260208601612bce565b91505092915050565b60008060408385031215612c5557612c54612479565b5b6000612c6385828601612559565b925050602083013567ffffffffffffffff811115612c8457612c8361247e565b5b612c9085828601612c10565b9150509250929050565b6000602082019050612caf6000830184612646565b92915050565b600081519050919050565b600082825260208201905092915050565b6000819050602082019050919050565b60006101a083016000830151612cfa600086018261283a565b506020830151612d0d6020860182612733565b506040830151612d206040860182612733565b506060830151612d33606086018261283a565b506080830151612d46608086018261283a565b5060a083015184820360a0860152612d5e828261285a565b91505060c0830151612d7360c086018261283a565b5060e0830151612d8660e0860182612733565b50610100830151612d9b61010086018261283a565b50610120830151612db0610120860182612893565b50610140830151612dc5610140860182612893565b50610160830151612dda61016086018261283a565b50610180830151612def61018086018261283a565b508091505092915050565b6000612e068383612ce1565b905092915050565b6000602082019050919050565b6000612e2682612cb5565b612e308185612cc0565b935083602082028501612e4285612cd1565b8060005b85811015612e7e5784840389528151612e5f8582612dfa565b9450612e6a83612e0e565b925060208a01995050600181019050612e46565b50829750879550505050505092915050565b60006020820190508181036000830152612eaa8184612e1b565b905092915050565b7f4e487b7100000000000000000000000000000000000000000000000000000000600052602260045260246000fd5b60006002820490506001821680612ef957607f821691505b602082108103612f0c57612f0b612eb2565b5b50919050565b7f47616d6520646f6573206e6f7420657869737400000000000000000000000000600082015250565b6000612f486013836125b5565b9150612f5382612f12565b602082019050919050565b60006020820190508181036000830152612f7781612f3b565b9050919050565b7f4163746976652067616d6520616c72656164792065786973747320666f72207460008201527f68697320746f6b656e0000000000000000000000000000000000000000000000602082015250565b6000612fda6029836125b5565b9150612fe582612f7e565b604082019050919050565b6000602082019050818103600083015261300981612fcd565b9050919050565b7f4e487b7100000000000000000000000000000000000000000000000000000000600052601160045260246000fd5b600061304a8261250e565b91507fffffffffffffffffffffffffffffffffffffffffffffffffffffffffffffffff820361307c5761307b613010565b5b600182019050919050565b600061309a61309584612b8e565b612b73565b9050828152602081018484840111156130b6576130b5612b0e565b5b6130c18482856125c6565b509392505050565b600082601f8301126130de576130dd612b09565b5b81516130ee848260208601613087565b91505092915050565b60006020828403121561310d5761310c612479565b5b600082015167ffffffffffffffff81111561312b5761312a61247e565b5b613137848285016130c9565b91505092915050565b60008190508160005260206000209050919050565b60006020601f8301049050919050565b600082821b905092915050565b6000600883026131a27fffffffffffffffffffffffffffffffffffffffffffffffffffffffffffffffff82613165565b6131ac8683613165565b95508019841693508086168417925050509392505050565b6000819050919050565b60006131e96131e46131df8461250e565b6131c4565b61250e565b9050919050565b6000819050919050565b613203836131ce565b61321761320f826131f0565b848454613172565b825550505050565b600090565b61322c61321f565b6132378184846131fa565b505050565b5b8181101561325b57613250600082613224565b60018101905061323d565b5050565b601f8211156132a05761327181613140565b61327a84613155565b81016020851015613289578190505b61329d61329585613155565b83018261323c565b50505b505050565b600082821c905092915050565b60006132c3600019846008026132a5565b1980831691505092915050565b60006132dc83836132b2565b9150826002028217905092915050565b6132f5826125aa565b67ffffffffffffffff81111561330e5761330d612b13565b5b6133188254612ee1565b61332382828561325f565b600060209050601f8311600181146133565760008415613344578287015190505b61334e85826132d0565b8655506133b6565b601f19841661336486613140565b60005b8281101561338c57848901518255600182019150602085019450602081019050613367565b868310156133a957848901516133a5601f8916826132b2565b8355505b6001600288020188555050505b505050505050565b60006133c98261250e565b91506133d48361250e565b92508282019050808211156133ec576133eb613010565b5b92915050565b6000606082019050613407600083018661259b565b613414602083018561259b565b6134216040830184612518565b949350505050565b6134328161263a565b811461343d57600080fd5b50565b60008151905061344f81613429565b92915050565b60006020828403121561346b5761346a612479565b5b600061347984828501613440565b91505092915050565b7f496e697469616c2066756e64696e67207472616e73666572206661696c656400600082015250565b60006134b8601f836125b5565b91506134c382613482565b602082019050919050565b600060208201905081810360008301526134e7816134ab565b9050919050565b7f4e487b7100000000000000000000000000000000000000000000000000000000600052601260045260246000fd5b60006135288261250e565b91506135338361250e565b925082613543576135426134ee565b5b828204905092915050565b6000815461355b81612ee1565b61356581866125b5565b945060018216600081146135805760018114613596576135c9565b60ff1983168652811515602002860193506135c9565b61359f85613140565b60005b838110156135c1578154818901526001820191506020810190506135a2565b808801955050505b50505092915050565b600060c0820190506135e76000830189612518565b6135f46020830188612518565b8181036040830152613606818761354e565b90506136156060830186612518565b613622608083018561259b565b61362f60a0830184612518565b979650505050505050565b7f47616d6520616c726561647920656e6465640000000000000000000000000000600082015250565b60006136706012836125b5565b915061367b8261363a565b602082019050919050565b6000602082019050818103600083015261369f81613663565b9050919050565b7f416d6f756e74206d7573742062652067726561746572207468616e2030000000600082015250565b60006136dc601d836125b5565b91506136e7826136a6565b602082019050919050565b6000602082019050818103600083015261370b816136cf565b9050919050565b7f46756e64696e67207472616e73666572206661696c6564000000000000000000600082015250565b60006137486017836125b5565b915061375382613712565b602082019050919050565b600060208201905081810360008301526137778161373b565b9050919050565b60006060820190506137936000830186612518565b6137a06020830185612518565b6137ad6040830184612518565b949350505050565b7f4e6f2066756e6465727320617661696c61626c65000000000000000000000000600082015250565b60006137eb6014836125b5565b91506137f6826137b5565b602082019050919050565b6000602082019050818103600083015261381a816137de565b9050919050565b6000604082019050613836600083018561259b565b613843602083018461259b565b9392505050565b60008151905061385981612542565b92915050565b60006020828403121561387557613874612479565b5b60006138838482850161384a565b91505092915050565b7f45524332303a204d75737420617070726f766520746f6b656e20666972737400600082015250565b60006138c2601f836125b5565b91506138cd8261388c565b602082019050919050565b600060208201905081810360008301526138f1816138b5565b9050919050565b600060a08201905061390d6000830188612518565b818103602083015261391f8187612601565b905061392e6040830186612518565b61393b6060830185612518565b6139486080830184612518565b9695505050505050565b7f47616d65206e6f7420656e646564207965740000000000000000000000000000600082015250565b60006139886012836125b5565b915061399382613952565b602082019050919050565b600060208201905081810360008301526139b78161397b565b9050919050565b7f4f6e6c792077696e6e65722063616e2077697468647261770000000000000000600082015250565b60006139f46018836125b5565b91506139ff826139be565b602082019050919050565b60006020820190508181036000830152613a23816139e7565b9050919050565b7f5072697a6520616c726561647920636c61696d65640000000000000000000000600082015250565b6000613a606015836125b5565b9150613a6b82613a2a565b602082019050919050565b60006020820190508181036000830152613a8f81613a53565b9050919050565b7f4e6f207072697a6520746f20636c61696d000000000000000000000000000000600082015250565b6000613acc6011836125b5565b9150613ad782613a96565b602082019050919050565b60006020820190508181036000830152613afb81613abf565b9050919050565b6000604082019050613b17600083018561259b565b613b246020830184612518565b9392505050565b6000604082019050613b406000830185612518565b613b4d6020830184612518565b9392505050565b7f4e487b7100000000000000000000000000000000000000000000000000000000600052603260045260246000fd5b7f4e6f2066756e6465727320746f20646973747269627574650000000000000000600082015250565b6000613bb96018836125b5565b9150613bc482613b83565b602082019050919050565b60006020820190508181036000830152613be881613bac565b9050919050565b6000613bfa8261250e565b9150613c058361250e565b9250828202613c138161250e565b91508282048414831517613c2a57613c29613010565b5b5092915050565b6000613c3c8261250e565b9150613c478361250e565b9250828203905081811115613c5f57613c5e613010565b5b9291505056fea2646970667358221220041bed8139a02c7a378d13d2c0ca0b1261476bfadbf636576329ddef840e116a64736f6c634300081c0033",
  "linkReferences": {},
  "deployedLinkReferences": {},
  "immutableReferences": {},
  "inputSourceName": "project/contracts/CommentGameV2.sol",
  "buildInfoId": "solc-0_8_28-4eb2107b462ceadcf096059e479e21ba340e0716"
}