{
  "_format": "hh3-artifact-1",
  "contractName": "CommentGameV2",
  "sourceName": "contracts/CommentGameV2.sol",
  "abi": [
    {
      "inputs": [
        {
          "internalType": "address",
          "name": "_feeCollector",
          "type": "address"
        }
      ],
      "stateMutability": "nonpayable",
      "type": "constructor"
    },
    {
      "inputs": [
        {
          "internalType": "address",
          "name": "owner",
          "type": "address"
        }
      ],
      "name": "OwnableInvalidOwner",
      "type": "error"
    },
    {
      "inputs": [
        {
          "internalType": "address",
          "name": "account",
          "type": "address"
        }
      ],
      "name": "OwnableUnauthorizedAccount",
      "type": "error"
    },
    {
      "inputs": [],
      "name": "ReentrancyGuardReentrantCall",
      "type": "error"
    },
    {
      "anonymous": false,
      "inputs": [
        {
          "indexed": true,
          "internalType": "uint256",
          "name": "gameId",
          "type": "uint256"
        },
        {
          "indexed": true,
          "internalType": "uint256",
          "name": "commentId",
          "type": "uint256"
        },
        {
          "indexed": true,
          "internalType": "address",
          "name": "commentor",
          "type": "address"
        },
        {
          "indexed": false,
          "internalType": "string",
          "name": "message",
          "type": "string"
        },
        {
          "indexed": false,
          "internalType": "uint256",
          "name": "newEndTime",
          "type": "uint256"
        },
        {
          "indexed": false,
          "internalType": "uint256",
          "name": "timestamp",
          "type": "uint256"
        }
      ],
      "name": "CommentAdded",
      "type": "event"
    },
    {
      "anonymous": false,
      "inputs": [
        {
          "indexed": true,
          "internalType": "uint256",
          "name": "gameId",
          "type": "uint256"
        },
        {
          "indexed": true,
          "internalType": "address",
          "name": "funder",
          "type": "address"
        },
        {
          "indexed": false,
          "internalType": "uint256",
          "name": "amount",
          "type": "uint256"
        }
      ],
      "name": "CommentFeeDistributed",
      "type": "event"
    },
    {
      "anonymous": false,
      "inputs": [
        {
          "indexed": true,
          "internalType": "uint256",
          "name": "gameId",
          "type": "uint256"
        },
        {
          "indexed": true,
          "internalType": "address",
          "name": "initiator",
          "type": "address"
        },
        {
          "indexed": true,
          "internalType": "address",
          "name": "gameToken",
          "type": "address"
        },
        {
          "indexed": false,
          "internalType": "uint256",
          "name": "initialFunding",
          "type": "uint256"
        },
        {
          "indexed": false,
          "internalType": "uint256",
          "name": "endTime",
          "type": "uint256"
        }
      ],
      "name": "GameCreated",
      "type": "event"
    },
    {
      "anonymous": false,
      "inputs": [
        {
          "indexed": true,
          "internalType": "address",
          "name": "previousOwner",
          "type": "address"
        },
        {
          "indexed": true,
          "internalType": "address",
          "name": "newOwner",
          "type": "address"
        }
      ],
      "name": "OwnershipTransferred",
      "type": "event"
    },
    {
      "anonymous": false,
      "inputs": [
        {
          "indexed": true,
          "internalType": "uint256",
          "name": "gameId",
          "type": "uint256"
        },
        {
          "indexed": true,
          "internalType": "address",
          "name": "winner",
          "type": "address"
        },
        {
          "indexed": false,
          "internalType": "uint256",
          "name": "prizeAmount",
          "type": "uint256"
        },
        {
          "indexed": false,
          "internalType": "uint256",
          "name": "timestamp",
          "type": "uint256"
        }
      ],
      "name": "PrizeClaimed",
      "type": "event"
    },
    {
      "anonymous": false,
      "inputs": [
        {
          "indexed": true,
          "internalType": "uint256",
          "name": "gameId",
          "type": "uint256"
        },
        {
          "indexed": true,
          "internalType": "address",
          "name": "funder",
          "type": "address"
        },
        {
          "indexed": false,
          "internalType": "uint256",
          "name": "amount",
          "type": "uint256"
        },
        {
          "indexed": false,
          "internalType": "uint256",
          "name": "totalFunding",
          "type": "uint256"
        }
      ],
      "name": "PrizePoolFunded",
      "type": "event"
    },
    {
      "inputs": [],
      "name": "PLATFORM_FEE",
      "outputs": [
        {
          "internalType": "uint256",
          "name": "",
          "type": "uint256"
        }
      ],
      "stateMutability": "view",
      "type": "function"
    },
    {
      "inputs": [
        {
          "internalType": "address",
          "name": "",
          "type": "address"
        }
      ],
      "name": "activeGameByToken",
      "outputs": [
        {
          "internalType": "uint256",
          "name": "",
          "type": "uint256"
        }
      ],
      "stateMutability": "view",
      "type": "function"
    },
    {
      "inputs": [
        {
          "internalType": "uint256",
          "name": "_gameId",
          "type": "uint256"
        },
        {
          "internalType": "string",
          "name": "_message",
          "type": "string"
        }
      ],
      "name": "addComment",
      "outputs": [],
      "stateMutability": "nonpayable",
      "type": "function"
    },
    {
      "inputs": [
        {
          "internalType": "uint256",
          "name": "",
          "type": "uint256"
        }
      ],
      "name": "allGameIds",
      "outputs": [
        {
          "internalType": "uint256",
          "name": "",
          "type": "uint256"
        }
      ],
      "stateMutability": "view",
      "type": "function"
    },
    {
      "inputs": [
        {
          "internalType": "uint256",
          "name": "_gameId",
          "type": "uint256"
        }
      ],
      "name": "claimPrize",
      "outputs": [],
      "stateMutability": "nonpayable",
      "type": "function"
    },
    {
      "inputs": [
        {
          "internalType": "uint256",
          "name": "",
          "type": "uint256"
        }
      ],
      "name": "commentIdCounter",
      "outputs": [
        {
          "internalType": "uint256",
          "name": "",
          "type": "uint256"
        }
      ],
      "stateMutability": "view",
      "type": "function"
    },
    {
      "inputs": [
        {
          "internalType": "address",
          "name": "_gameToken",
          "type": "address"
        },
        {
          "internalType": "uint256",
          "name": "_time",
          "type": "uint256"
        },
        {
          "internalType": "uint256",
          "name": "_cost",
          "type": "uint256"
        },
        {
          "internalType": "uint256",
          "name": "_initialFunding",
          "type": "uint256"
        }
      ],
      "name": "createGame",
      "outputs": [
        {
          "internalType": "uint256",
          "name": "",
          "type": "uint256"
        }
      ],
      "stateMutability": "nonpayable",
      "type": "function"
    },
    {
      "inputs": [],
      "name": "feeCollector",
      "outputs": [
        {
          "internalType": "address",
          "name": "",
          "type": "address"
        }
      ],
      "stateMutability": "view",
      "type": "function"
    },
    {
      "inputs": [
        {
          "internalType": "uint256",
          "name": "_gameId",
          "type": "uint256"
        },
        {
          "internalType": "uint256",
          "name": "_amount",
          "type": "uint256"
        }
      ],
      "name": "fundPrizePool",
      "outputs": [],
      "stateMutability": "nonpayable",
      "type": "function"
    },
    {
      "inputs": [
        {
          "internalType": "uint256",
          "name": "",
          "type": "uint256"
        },
        {
          "internalType": "uint256",
          "name": "",
          "type": "uint256"
        }
      ],
      "name": "gameComments",
      "outputs": [
        {
          "internalType": "uint256",
          "name": "id",
          "type": "uint256"
        },
        {
          "internalType": "address",
          "name": "commentor",
          "type": "address"
        },
        {
          "internalType": "string",
          "name": "message",
          "type": "string"
        },
        {
          "internalType": "uint256",
          "name": "timestamp",
          "type": "uint256"
        },
        {
          "internalType": "uint256",
          "name": "endTime",
          "type": "uint256"
        }
      ],
      "stateMutability": "view",
      "type": "function"
    },
    {
      "inputs": [],
      "name": "gameIdCounter",
      "outputs": [
        {
          "internalType": "uint256",
          "name": "",
          "type": "uint256"
        }
      ],
      "stateMutability": "view",
      "type": "function"
    },
    {
      "inputs": [
        {
          "internalType": "uint256",
          "name": "",
          "type": "uint256"
        }
      ],
      "name": "games",
      "outputs": [
        {
          "internalType": "uint256",
          "name": "id",
          "type": "uint256"
        },
        {
          "internalType": "address",
          "name": "initiator",
          "type": "address"
        },
        {
          "internalType": "address",
          "name": "gameToken",
          "type": "address"
        },
        {
          "internalType": "uint256",
          "name": "cost",
          "type": "uint256"
        },
        {
          "internalType": "uint256",
          "name": "gameTime",
          "type": "uint256"
        },
        {
          "internalType": "string",
          "name": "tokenSymbol",
          "type": "string"
        },
        {
          "internalType": "uint256",
          "name": "endTime",
          "type": "uint256"
        },
        {
          "internalType": "address",
          "name": "lastCommentor",
          "type": "address"
        },
        {
          "internalType": "uint256",
          "name": "prizePool",
          "type": "uint256"
        },
        {
          "internalType": "bool",
          "name": "isClaimed",
          "type": "bool"
        },
        {
          "internalType": "uint256",
          "name": "totalFunding",
          "type": "uint256"
        }
      ],
      "stateMutability": "view",
      "type": "function"
    },
    {
      "inputs": [
        {
          "internalType": "address",
          "name": "_token",
          "type": "address"
        }
      ],
      "name": "getActiveGameId",
      "outputs": [
        {
          "internalType": "uint256",
          "name": "",
          "type": "uint256"
        }
      ],
      "stateMutability": "view",
      "type": "function"
    },
    {
      "inputs": [],
      "name": "getAllGameIds",
      "outputs": [
        {
          "internalType": "uint256[]",
          "name": "",
          "type": "uint256[]"
        }
      ],
      "stateMutability": "view",
      "type": "function"
    },
    {
      "inputs": [],
      "name": "getAllGames",
      "outputs": [
        {
          "components": [
            {
              "internalType": "uint256",
              "name": "id",
              "type": "uint256"
            },
            {
              "internalType": "address",
              "name": "initiator",
              "type": "address"
            },
            {
              "internalType": "address",
              "name": "gameToken",
              "type": "address"
            },
            {
              "internalType": "uint256",
              "name": "cost",
              "type": "uint256"
            },
            {
              "internalType": "uint256",
              "name": "gameTime",
              "type": "uint256"
            },
            {
              "internalType": "string",
              "name": "tokenSymbol",
              "type": "string"
            },
            {
              "internalType": "uint256",
              "name": "endTime",
              "type": "uint256"
            },
            {
              "internalType": "address",
              "name": "lastCommentor",
              "type": "address"
            },
            {
              "internalType": "uint256",
              "name": "prizePool",
              "type": "uint256"
            },
            {
              "internalType": "bool",
              "name": "isClaimed",
              "type": "bool"
            },
            {
              "internalType": "bool",
              "name": "isEnded",
              "type": "bool"
            },
            {
              "internalType": "uint256",
              "name": "totalFunding",
              "type": "uint256"
            },
            {
              "internalType": "uint256",
              "name": "funderCount",
              "type": "uint256"
            }
          ],
          "internalType": "struct CommentGameV2.GameInfo[]",
          "name": "",
          "type": "tuple[]"
        }
      ],
      "stateMutability": "view",
      "type": "function"
    },
    {
      "inputs": [
        {
          "internalType": "uint256",
          "name": "_gameId",
          "type": "uint256"
        }
      ],
      "name": "getCommentsByGameId",
      "outputs": [
        {
          "components": [
            {
              "internalType": "uint256",
              "name": "id",
              "type": "uint256"
            },
            {
              "internalType": "address",
              "name": "commentor",
              "type": "address"
            },
            {
              "internalType": "string",
              "name": "message",
              "type": "string"
            },
            {
              "internalType": "uint256",
              "name": "timestamp",
              "type": "uint256"
            },
            {
              "internalType": "uint256",
              "name": "endTime",
              "type": "uint256"
            }
          ],
          "internalType": "struct CommentGameV2.Comment[]",
          "name": "",
          "type": "tuple[]"
        }
      ],
      "stateMutability": "view",
      "type": "function"
    },
    {
      "inputs": [
        {
          "internalType": "uint256",
          "name": "_gameId",
          "type": "uint256"
        }
      ],
      "name": "getFunders",
      "outputs": [
        {
          "internalType": "address[]",
          "name": "",
          "type": "address[]"
        }
      ],
      "stateMutability": "view",
      "type": "function"
    },
    {
      "inputs": [
        {
          "internalType": "uint256",
          "name": "_gameId",
          "type": "uint256"
        }
      ],
      "name": "getGameInfo",
      "outputs": [
        {
          "components": [
            {
              "internalType": "uint256",
              "name": "id",
              "type": "uint256"
            },
            {
              "internalType": "address",
              "name": "initiator",
              "type": "address"
            },
            {
              "internalType": "address",
              "name": "gameToken",
              "type": "address"
            },
            {
              "internalType": "uint256",
              "name": "cost",
              "type": "uint256"
            },
            {
              "internalType": "uint256",
              "name": "gameTime",
              "type": "uint256"
            },
            {
              "internalType": "string",
              "name": "tokenSymbol",
              "type": "string"
            },
            {
              "internalType": "uint256",
              "name": "endTime",
              "type": "uint256"
            },
            {
              "internalType": "address",
              "name": "lastCommentor",
              "type": "address"
            },
            {
              "internalType": "uint256",
              "name": "prizePool",
              "type": "uint256"
            },
            {
              "internalType": "bool",
              "name": "isClaimed",
              "type": "bool"
            },
            {
              "internalType": "bool",
              "name": "isEnded",
              "type": "bool"
            },
            {
              "internalType": "uint256",
              "name": "totalFunding",
              "type": "uint256"
            },
            {
              "internalType": "uint256",
              "name": "funderCount",
              "type": "uint256"
            }
          ],
          "internalType": "struct CommentGameV2.GameInfo",
          "name": "",
          "type": "tuple"
        }
      ],
      "stateMutability": "view",
      "type": "function"
    },
    {
      "inputs": [
        {
          "internalType": "uint256",
          "name": "_gameId",
          "type": "uint256"
        }
      ],
      "name": "isEnded",
      "outputs": [
        {
          "internalType": "bool",
          "name": "",
          "type": "bool"
        }
      ],
      "stateMutability": "view",
      "type": "function"
    },
    {
      "inputs": [],
      "name": "owner",
      "outputs": [
        {
          "internalType": "address",
          "name": "",
          "type": "address"
        }
      ],
      "stateMutability": "view",
      "type": "function"
    },
    {
      "inputs": [],
      "name": "renounceOwnership",
      "outputs": [],
      "stateMutability": "nonpayable",
      "type": "function"
    },
    {
      "inputs": [
        {
          "internalType": "address",
          "name": "_newCollector",
          "type": "address"
        }
      ],
      "name": "setFeeCollector",
      "outputs": [],
      "stateMutability": "nonpayable",
      "type": "function"
    },
    {
      "inputs": [
        {
          "internalType": "address",
          "name": "newOwner",
          "type": "address"
        }
      ],
      "name": "transferOwnership",
      "outputs": [],
      "stateMutability": "nonpayable",
      "type": "function"
    }
  ],
  "bytecode": "0x608060405234801561001057600080fd5b506040516143843803806143848339818101604052810190610032919061022d565b336001600081905550600073ffffffffffffffffffffffffffffffffffffffff168173ffffffffffffffffffffffffffffffffffffffff16036100ad5760006040517f1e4fbdf70000000000000000000000000000000000000000000000000000000081526004016100a49190610269565b60405180910390fd5b6100bc8161010460201b60201c565b5080600260006101000a81548173ffffffffffffffffffffffffffffffffffffffff021916908373ffffffffffffffffffffffffffffffffffffffff16021790555050610284565b6000600160009054906101000a900473ffffffffffffffffffffffffffffffffffffffff16905081600160006101000a81548173ffffffffffffffffffffffffffffffffffffffff021916908373ffffffffffffffffffffffffffffffffffffffff1602179055508173ffffffffffffffffffffffffffffffffffffffff168173ffffffffffffffffffffffffffffffffffffffff167f8be0079c531659141344cd1fd0a4f28419497f9722a3daafe3b4186f6b6457e060405160405180910390a35050565b600080fd5b600073ffffffffffffffffffffffffffffffffffffffff82169050919050565b60006101fa826101cf565b9050919050565b61020a816101ef565b811461021557600080fd5b50565b60008151905061022781610201565b92915050565b600060208284031215610243576102426101ca565b5b600061025184828501610218565b91505092915050565b610263816101ef565b82525050565b600060208201905061027e600083018461025a565b92915050565b6140f1806102936000396000f3fe608060405234801561001057600080fd5b506004361061014d5760003560e01c8063715018a6116100c3578063ad5cb0031161007c578063ad5cb003146103e2578063b66f7a8b14610416578063c415b95c14610446578063d709815414610464578063db1c45f914610480578063f2fde38b1461049e5761014d565b8063715018a61461032257806379a0c2821461032c5780638da5cb5b1461035c5780639fdb35611461037a578063a42dce80146103aa578063aa7e5683146103c65761014d565b80633a7b6c74116101155780633a7b6c741461022857806347e1d550146102585780634d96a63d146102885780635a5cfc1c146102a4578063612454e1146102d45780636b3d2cbb146103045761014d565b806305212cf414610152578063117a5b90146101825780631bb412d6146101bc57806329eddcd6146101da57806334fbc9a11461020a575b600080fd5b61016c600480360381019061016791906128ae565b6104ba565b60405161017991906128f4565b60405180910390f35b61019c6004803603810190610197919061293b565b610503565b6040516101b39b9a99989796959493929190612a22565b60405180910390f35b6101c4610652565b6040516101d191906128f4565b60405180910390f35b6101f460048036038101906101ef9190612ad4565b610658565b60405161020191906128f4565b60405180910390f35b610212610b37565b60405161021f91906128f4565b60405180910390f35b610242600480360381019061023d919061293b565b610b3c565b60405161024f9190612bf9565b60405180910390f35b610272600480360381019061026d919061293b565b610c2d565b60405161027f9190612d9c565b60405180910390f35b6102a2600480360381019061029d9190612dbe565b610e68565b005b6102be60048036038101906102b9919061293b565b6111d9565b6040516102cb91906128f4565b60405180910390f35b6102ee60048036038101906102e991906128ae565b6111fd565b6040516102fb91906128f4565b60405180910390f35b61030c611215565b6040516103199190612ead565b60405180910390f35b61032a61126d565b005b6103466004803603810190610341919061293b565b611281565b6040516103539190613007565b60405180910390f35b610364611452565b6040516103719190613029565b60405180910390f35b610394600480360381019061038f919061293b565b61147c565b6040516103a191906128f4565b60405180910390f35b6103c460048036038101906103bf91906128ae565b611494565b005b6103e060048036038101906103db9190613179565b6114e0565b005b6103fc60048036038101906103f79190612dbe565b611972565b60405161040d9594939291906131d5565b60405180910390f35b610430600480360381019061042b919061293b565b611a6d565b60405161043d919061322f565b60405180910390f35b61044e611adc565b60405161045b9190613029565b60405180910390f35b61047e6004803603810190610479919061293b565b611b02565b005b610488611e0b565b6040516104959190613425565b60405180910390f35b6104b860048036038101906104b391906128ae565b6120b6565b005b6000600760008373ffffffffffffffffffffffffffffffffffffffff1673ffffffffffffffffffffffffffffffffffffffff168152602001908152602001600020549050919050565b60066020528060005260406000206000915090508060000154908060010160009054906101000a900473ffffffffffffffffffffffffffffffffffffffff16908060020160009054906101000a900473ffffffffffffffffffffffffffffffffffffffff169080600301549080600401549080600501805461058490613476565b80601f01602080910402602001604051908101604052809291908181526020018280546105b090613476565b80156105fd5780601f106105d2576101008083540402835291602001916105fd565b820191906000526020600020905b8154815290600101906020018083116105e057829003601f168201915b5050505050908060060154908060070160009054906101000a900473ffffffffffffffffffffffffffffffffffffffff16908060080154908060090160009054906101000a900460ff169080600c015490508b565b60035481565b600061066261213c565b6000600760008773ffffffffffffffffffffffffffffffffffffffff1673ffffffffffffffffffffffffffffffffffffffff168152602001908152602001600020549050600081111561070f576000600660008381526020019081526020016000209050806006015442101561070d576040517f08c379a000000000000000000000000000000000000000000000000000000000815260040161070490613519565b60405180910390fd5b505b6003600081548092919061072290613568565b9190505550600060035490506000600660008381526020019081526020016000209050818160000181905550338160010160006101000a81548173ffffffffffffffffffffffffffffffffffffffff021916908373ffffffffffffffffffffffffffffffffffffffff160217905550878160020160006101000a81548173ffffffffffffffffffffffffffffffffffffffff021916908373ffffffffffffffffffffffffffffffffffffffff1602179055508581600301819055508681600401819055508773ffffffffffffffffffffffffffffffffffffffff166395d89b416040518163ffffffff1660e01b8152600401600060405180830381865afa158015610831573d6000803e3d6000fd5b505050506040513d6000823e3d601f19601f8201168201806040525081019061085a9190613620565b81600501908161086a9190613815565b50864261087791906138e7565b8160060181905550338160070160006101000a81548173ffffffffffffffffffffffffffffffffffffffff021916908373ffffffffffffffffffffffffffffffffffffffff1602179055506000851115610a48578773ffffffffffffffffffffffffffffffffffffffff166323b872dd3330886040518463ffffffff1660e01b81526004016109089392919061391b565b6020604051808303816000875af1158015610927573d6000803e3d6000fd5b505050506040513d601f19601f8201168201806040525081019061094b919061397e565b61098a576040517f08c379a0000000000000000000000000000000000000000000000000000000008152600401610981906139f7565b60405180910390fd5b8481600a0160003373ffffffffffffffffffffffffffffffffffffffff1673ffffffffffffffffffffffffffffffffffffffff1681526020019081526020016000208190555080600b01339080600181540180825580915050600190039060005260206000200160009091909190916101000a81548173ffffffffffffffffffffffffffffffffffffffff021916908373ffffffffffffffffffffffffffffffffffffffff1602179055508481600c01819055508481600801819055505b81600760008a73ffffffffffffffffffffffffffffffffffffffff1673ffffffffffffffffffffffffffffffffffffffff1681526020019081526020016000208190555060088290806001815401808255809150506001900390600052602060002001600090919091909150558773ffffffffffffffffffffffffffffffffffffffff163373ffffffffffffffffffffffffffffffffffffffff16837f87eba3a7460154c2af109dd99d6e57241a454feab681feb7ad514ea5c7f3e112888560060154604051610b19929190613a17565b60405180910390a4819350505050610b2f612182565b949350505050565b600281565b606060006006600084815260200190815260200160002090506000816000015411610b9c576040517f08c379a0000000000000000000000000000000000000000000000000000000008152600401610b9390613a8c565b60405180910390fd5b80600b01805480602002602001604051908101604052809291908181526020018280548015610c2057602002820191906000526020600020905b8160009054906101000a900473ffffffffffffffffffffffffffffffffffffffff1673ffffffffffffffffffffffffffffffffffffffff1681526020019060010190808311610bd6575b5050505050915050919050565b610c3561278e565b60006006600084815260200190815260200160002090506000816000015411610c93576040517f08c379a0000000000000000000000000000000000000000000000000000000008152600401610c8a90613a8c565b60405180910390fd5b604051806101a00160405280826000015481526020018260010160009054906101000a900473ffffffffffffffffffffffffffffffffffffffff1673ffffffffffffffffffffffffffffffffffffffff1681526020018260020160009054906101000a900473ffffffffffffffffffffffffffffffffffffffff1673ffffffffffffffffffffffffffffffffffffffff1681526020018260030154815260200182600401548152602001826005018054610d4c90613476565b80601f0160208091040260200160405190810160405280929190818152602001828054610d7890613476565b8015610dc55780601f10610d9a57610100808354040283529160200191610dc5565b820191906000526020600020905b815481529060010190602001808311610da857829003601f168201915b50505050508152602001826006015481526020018260070160009054906101000a900473ffffffffffffffffffffffffffffffffffffffff1673ffffffffffffffffffffffffffffffffffffffff168152602001826008015481526020018260090160009054906101000a900460ff161515815260200182600601544210151515815260200182600c0154815260200182600b0180549050815250915050919050565b610e7061213c565b60006006600084815260200190815260200160002090506000816000015411610ece576040517f08c379a0000000000000000000000000000000000000000000000000000000008152600401610ec590613a8c565b60405180910390fd5b80600601544210610f14576040517f08c379a0000000000000000000000000000000000000000000000000000000008152600401610f0b90613af8565b60405180910390fd5b60008211610f57576040517f08c379a0000000000000000000000000000000000000000000000000000000008152600401610f4e90613b64565b60405180910390fd5b8060020160009054906101000a900473ffffffffffffffffffffffffffffffffffffffff1673ffffffffffffffffffffffffffffffffffffffff166323b872dd3330856040518463ffffffff1660e01b8152600401610fb89392919061391b565b6020604051808303816000875af1158015610fd7573d6000803e3d6000fd5b505050506040513d601f19601f82011682018060405250810190610ffb919061397e565b61103a576040517f08c379a000000000000000000000000000000000000000000000000000000000815260040161103190613bd0565b60405180910390fd5b600081600a0160003373ffffffffffffffffffffffffffffffffffffffff1673ffffffffffffffffffffffffffffffffffffffff16815260200190815260200160002054036110e95780600b01339080600181540180825580915050600190039060005260206000200160009091909190916101000a81548173ffffffffffffffffffffffffffffffffffffffff021916908373ffffffffffffffffffffffffffffffffffffffff1602179055505b8181600a0160003373ffffffffffffffffffffffffffffffffffffffff1673ffffffffffffffffffffffffffffffffffffffff168152602001908152602001600020600082825461113a91906138e7565b925050819055508181600c01600082825461115591906138e7565b925050819055508181600801600082825461117091906138e7565b925050819055503373ffffffffffffffffffffffffffffffffffffffff16837fdd3b075731f005ab396c8e3d0639b41e26d5f030c3cb90d7cc24448276d836798484600c01546040516111c4929190613a17565b60405180910390a3506111d5612182565b5050565b600881815481106111e957600080fd5b906000526020600020016000915090505481565b60076020528060005260406000206000915090505481565b6060600880548060200260200160405190810160405280929190818152602001828054801561126357602002820191906000526020600020905b81548152602001906001019080831161124f575b5050505050905090565b61127561218c565b61127f6000612213565b565b606060006006600084815260200190815260200160002060000154116112dc576040517f08c379a00000000000000000000000000000000000000000000000000000000081526004016112d390613a8c565b60405180910390fd5b60056000838152602001908152602001600020805480602002602001604051908101604052809291908181526020016000905b8282101561144757838290600052602060002090600502016040518060a0016040529081600082015481526020016001820160009054906101000a900473ffffffffffffffffffffffffffffffffffffffff1673ffffffffffffffffffffffffffffffffffffffff1673ffffffffffffffffffffffffffffffffffffffff1681526020016002820180546113a290613476565b80601f01602080910402602001604051908101604052809291908181526020018280546113ce90613476565b801561141b5780601f106113f05761010080835404028352916020019161141b565b820191906000526020600020905b8154815290600101906020018083116113fe57829003601f168201915b50505050508152602001600382015481526020016004820154815250508152602001906001019061130f565b505050509050919050565b6000600160009054906101000a900473ffffffffffffffffffffffffffffffffffffffff16905090565b60046020528060005260406000206000915090505481565b61149c61218c565b80600260006101000a81548173ffffffffffffffffffffffffffffffffffffffff021916908373ffffffffffffffffffffffffffffffffffffffff16021790555050565b6114e861213c565b60006006600084815260200190815260200160002090506000816000015411611546576040517f08c379a000000000000000000000000000000000000000000000000000000000815260040161153d90613a8c565b60405180910390fd5b8060060154421061158c576040517f08c379a000000000000000000000000000000000000000000000000000000000815260040161158390613af8565b60405180910390fd5b600081600c0154116115d3576040517f08c379a00000000000000000000000000000000000000000000000000000000081526004016115ca90613c3c565b60405180910390fd5b60008160020160009054906101000a900473ffffffffffffffffffffffffffffffffffffffff1673ffffffffffffffffffffffffffffffffffffffff1663dd62ed3e33306040518363ffffffff1660e01b8152600401611634929190613c5c565b602060405180830381865afa158015611651573d6000803e3d6000fd5b505050506040513d601f19601f820116820180604052508101906116759190613c9a565b905081600301548110156116be576040517f08c379a00000000000000000000000000000000000000000000000000000000081526004016116b590613d13565b60405180910390fd5b8160020160009054906101000a900473ffffffffffffffffffffffffffffffffffffffff1673ffffffffffffffffffffffffffffffffffffffff166323b872dd333085600301546040518463ffffffff1660e01b81526004016117239392919061391b565b6020604051808303816000875af1158015611742573d6000803e3d6000fd5b505050506040513d601f19601f82011682018060405250810190611766919061397e565b506117758483600301546122d9565b60046000858152602001908152602001600020600081548092919061179990613568565b9190505550600060046000868152602001908152602001600020549050338360070160006101000a81548173ffffffffffffffffffffffffffffffffffffffff021916908373ffffffffffffffffffffffffffffffffffffffff16021790555082600401544261180991906138e7565b8360060181905550600560008681526020019081526020016000206040518060a001604052808381526020013373ffffffffffffffffffffffffffffffffffffffff168152602001868152602001428152602001856006015481525090806001815401808255809150506001900390600052602060002090600502016000909190919091506000820151816000015560208201518160010160006101000a81548173ffffffffffffffffffffffffffffffffffffffff021916908373ffffffffffffffffffffffffffffffffffffffff16021790555060408201518160020190816118f49190613815565b50606082015181600301556080820151816004015550503373ffffffffffffffffffffffffffffffffffffffff1681867f2e70261b6bb5bf60ee11eae87daa770387194f6e72ea90dab5a80b9aef788d678787600601544260405161195b93929190613d33565b60405180910390a450505061196e612182565b5050565b6005602052816000526040600020818154811061198e57600080fd5b9060005260206000209060050201600091509150508060000154908060010160009054906101000a900473ffffffffffffffffffffffffffffffffffffffff16908060020180546119de90613476565b80601f0160208091040260200160405190810160405280929190818152602001828054611a0a90613476565b8015611a575780601f10611a2c57610100808354040283529160200191611a57565b820191906000526020600020905b815481529060010190602001808311611a3a57829003601f168201915b5050505050908060030154908060040154905085565b6000806006600084815260200190815260200160002090506000816000015411611acc576040517f08c379a0000000000000000000000000000000000000000000000000000000008152600401611ac390613a8c565b60405180910390fd5b8060060154421015915050919050565b600260009054906101000a900473ffffffffffffffffffffffffffffffffffffffff1681565b611b0a61213c565b60006006600083815260200190815260200160002090506000816000015411611b68576040517f08c379a0000000000000000000000000000000000000000000000000000000008152600401611b5f90613a8c565b60405180910390fd5b8060060154421015611baf576040517f08c379a0000000000000000000000000000000000000000000000000000000008152600401611ba690613dbd565b60405180910390fd5b8060070160009054906101000a900473ffffffffffffffffffffffffffffffffffffffff1673ffffffffffffffffffffffffffffffffffffffff163373ffffffffffffffffffffffffffffffffffffffff1614611c41576040517f08c379a0000000000000000000000000000000000000000000000000000000008152600401611c3890613e29565b60405180910390fd5b8060090160009054906101000a900460ff1615611c93576040517f08c379a0000000000000000000000000000000000000000000000000000000008152600401611c8a90613e95565b60405180910390fd5b6000816008015411611cda576040517f08c379a0000000000000000000000000000000000000000000000000000000008152600401611cd190613f01565b60405180910390fd5b60018160090160006101000a81548160ff021916908315150217905550600081600801549050600082600801819055508160020160009054906101000a900473ffffffffffffffffffffffffffffffffffffffff1673ffffffffffffffffffffffffffffffffffffffff1663a9059cbb33836040518363ffffffff1660e01b8152600401611d69929190613f21565b6020604051808303816000875af1158015611d88573d6000803e3d6000fd5b505050506040513d601f19601f82011682018060405250810190611dac919061397e565b503373ffffffffffffffffffffffffffffffffffffffff16837f64da964e036dd66a7be792791f60a47ec5378950b9d12795de3f453aa3940eb08342604051611df6929190613a17565b60405180910390a35050611e08612182565b50565b6060600060088054905067ffffffffffffffff811115611e2e57611e2d61304e565b5b604051908082528060200260200182016040528015611e6757816020015b611e5461278e565b815260200190600190039081611e4c5790505b50905060005b6008805490508110156120ae57600060088281548110611e9057611e8f613f4a565b5b906000526020600020015490506000600660008381526020019081526020016000209050604051806101a00160405280826000015481526020018260010160009054906101000a900473ffffffffffffffffffffffffffffffffffffffff1673ffffffffffffffffffffffffffffffffffffffff1681526020018260020160009054906101000a900473ffffffffffffffffffffffffffffffffffffffff1673ffffffffffffffffffffffffffffffffffffffff1681526020018260030154815260200182600401548152602001826005018054611f6d90613476565b80601f0160208091040260200160405190810160405280929190818152602001828054611f9990613476565b8015611fe65780601f10611fbb57610100808354040283529160200191611fe6565b820191906000526020600020905b815481529060010190602001808311611fc957829003601f168201915b50505050508152602001826006015481526020018260070160009054906101000a900473ffffffffffffffffffffffffffffffffffffffff1673ffffffffffffffffffffffffffffffffffffffff168152602001826008015481526020018260090160009054906101000a900460ff161515815260200182600601544210151515815260200182600c0154815260200182600b018054905081525084848151811061209457612093613f4a565b5b602002602001018190525050508080600101915050611e6d565b508091505090565b6120be61218c565b600073ffffffffffffffffffffffffffffffffffffffff168173ffffffffffffffffffffffffffffffffffffffff16036121305760006040517f1e4fbdf70000000000000000000000000000000000000000000000000000000081526004016121279190613029565b60405180910390fd5b61213981612213565b50565b600260005403612178576040517f3ee5aeb500000000000000000000000000000000000000000000000000000000815260040160405180910390fd5b6002600081905550565b6001600081905550565b612194612786565b73ffffffffffffffffffffffffffffffffffffffff166121b2611452565b73ffffffffffffffffffffffffffffffffffffffff1614612211576121d5612786565b6040517f118cdaa70000000000000000000000000000000000000000000000000000000081526004016122089190613029565b60405180910390fd5b565b6000600160009054906101000a900473ffffffffffffffffffffffffffffffffffffffff16905081600160006101000a81548173ffffffffffffffffffffffffffffffffffffffff021916908373ffffffffffffffffffffffffffffffffffffffff1602179055508173ffffffffffffffffffffffffffffffffffffffff168173ffffffffffffffffffffffffffffffffffffffff167f8be0079c531659141344cd1fd0a4f28419497f9722a3daafe3b4186f6b6457e060405160405180910390a35050565b6000600660008481526020019081526020016000209050600081600c015411612337576040517f08c379a000000000000000000000000000000000000000000000000000000000815260040161232e90613fc5565b60405180910390fd5b600060646002846123489190613fe5565b6123529190614056565b9050600081846123629190614087565b90506000821115612433578260020160009054906101000a900473ffffffffffffffffffffffffffffffffffffffff1673ffffffffffffffffffffffffffffffffffffffff1663a9059cbb600260009054906101000a900473ffffffffffffffffffffffffffffffffffffffff16846040518363ffffffff1660e01b81526004016123ee929190613f21565b6020604051808303816000875af115801561240d573d6000803e3d6000fd5b505050506040513d601f19601f82011682018060405250810190612431919061397e565b505b6000805b84600b018054905081101561260457600085600b01828154811061245e5761245d613f4a565b5b9060005260206000200160009054906101000a900473ffffffffffffffffffffffffffffffffffffffff169050600086600c01548588600a0160008573ffffffffffffffffffffffffffffffffffffffff1673ffffffffffffffffffffffffffffffffffffffff168152602001908152602001600020546124df9190613fe5565b6124e99190614056565b905060008111156125f5578660020160009054906101000a900473ffffffffffffffffffffffffffffffffffffffff1673ffffffffffffffffffffffffffffffffffffffff1663a9059cbb83836040518363ffffffff1660e01b8152600401612553929190613f21565b6020604051808303816000875af1158015612572573d6000803e3d6000fd5b505050506040513d601f19601f82011682018060405250810190612596919061397e565b5080846125a391906138e7565b93508173ffffffffffffffffffffffffffffffffffffffff16897f94f860c3f84077ed2d225d73a998a213d5226668ee2c58d79f01a114ad5aa38b836040516125ec91906128f4565b60405180910390a35b50508080600101915050612437565b50600081836126139190614087565b905060008111801561262c5750600085600b0180549050115b1561277d57600085600b01600187600b018054905061264b9190614087565b8154811061265c5761265b613f4a565b5b9060005260206000200160009054906101000a900473ffffffffffffffffffffffffffffffffffffffff1690508560020160009054906101000a900473ffffffffffffffffffffffffffffffffffffffff1673ffffffffffffffffffffffffffffffffffffffff1663a9059cbb82846040518363ffffffff1660e01b81526004016126e8929190613f21565b6020604051808303816000875af1158015612707573d6000803e3d6000fd5b505050506040513d601f19601f8201168201806040525081019061272b919061397e565b508073ffffffffffffffffffffffffffffffffffffffff16887f94f860c3f84077ed2d225d73a998a213d5226668ee2c58d79f01a114ad5aa38b8460405161277391906128f4565b60405180910390a3505b50505050505050565b600033905090565b604051806101a0016040528060008152602001600073ffffffffffffffffffffffffffffffffffffffff168152602001600073ffffffffffffffffffffffffffffffffffffffff16815260200160008152602001600081526020016060815260200160008152602001600073ffffffffffffffffffffffffffffffffffffffff1681526020016000815260200160001515815260200160001515815260200160008152602001600081525090565b6000604051905090565b600080fd5b600080fd5b600073ffffffffffffffffffffffffffffffffffffffff82169050919050565b600061287b82612850565b9050919050565b61288b81612870565b811461289657600080fd5b50565b6000813590506128a881612882565b92915050565b6000602082840312156128c4576128c3612846565b5b60006128d284828501612899565b91505092915050565b6000819050919050565b6128ee816128db565b82525050565b600060208201905061290960008301846128e5565b92915050565b612918816128db565b811461292357600080fd5b50565b6000813590506129358161290f565b92915050565b60006020828403121561295157612950612846565b5b600061295f84828501612926565b91505092915050565b61297181612870565b82525050565b600081519050919050565b600082825260208201905092915050565b60005b838110156129b1578082015181840152602081019050612996565b60008484015250505050565b6000601f19601f8301169050919050565b60006129d982612977565b6129e38185612982565b93506129f3818560208601612993565b6129fc816129bd565b840191505092915050565b60008115159050919050565b612a1c81612a07565b82525050565b600061016082019050612a38600083018e6128e5565b612a45602083018d612968565b612a52604083018c612968565b612a5f606083018b6128e5565b612a6c608083018a6128e5565b81810360a0830152612a7e81896129ce565b9050612a8d60c08301886128e5565b612a9a60e0830187612968565b612aa86101008301866128e5565b612ab6610120830185612a13565b612ac46101408301846128e5565b9c9b505050505050505050505050565b60008060008060808587031215612aee57612aed612846565b5b6000612afc87828801612899565b9450506020612b0d87828801612926565b9350506040612b1e87828801612926565b9250506060612b2f87828801612926565b91505092959194509250565b600081519050919050565b600082825260208201905092915050565b6000819050602082019050919050565b612b7081612870565b82525050565b6000612b828383612b67565b60208301905092915050565b6000602082019050919050565b6000612ba682612b3b565b612bb08185612b46565b9350612bbb83612b57565b8060005b83811015612bec578151612bd38882612b76565b9750612bde83612b8e565b925050600181019050612bbf565b5085935050505092915050565b60006020820190508181036000830152612c138184612b9b565b905092915050565b612c24816128db565b82525050565b600082825260208201905092915050565b6000612c4682612977565b612c508185612c2a565b9350612c60818560208601612993565b612c69816129bd565b840191505092915050565b612c7d81612a07565b82525050565b60006101a083016000830151612c9c6000860182612c1b565b506020830151612caf6020860182612b67565b506040830151612cc26040860182612b67565b506060830151612cd56060860182612c1b565b506080830151612ce86080860182612c1b565b5060a083015184820360a0860152612d008282612c3b565b91505060c0830151612d1560c0860182612c1b565b5060e0830151612d2860e0860182612b67565b50610100830151612d3d610100860182612c1b565b50610120830151612d52610120860182612c74565b50610140830151612d67610140860182612c74565b50610160830151612d7c610160860182612c1b565b50610180830151612d91610180860182612c1b565b508091505092915050565b60006020820190508181036000830152612db68184612c83565b905092915050565b60008060408385031215612dd557612dd4612846565b5b6000612de385828601612926565b9250506020612df485828601612926565b9150509250929050565b600081519050919050565b600082825260208201905092915050565b6000819050602082019050919050565b6000612e368383612c1b565b60208301905092915050565b6000602082019050919050565b6000612e5a82612dfe565b612e648185612e09565b9350612e6f83612e1a565b8060005b83811015612ea0578151612e878882612e2a565b9750612e9283612e42565b925050600181019050612e73565b5085935050505092915050565b60006020820190508181036000830152612ec78184612e4f565b905092915050565b600081519050919050565b600082825260208201905092915050565b6000819050602082019050919050565b600060a083016000830151612f136000860182612c1b565b506020830151612f266020860182612b67565b5060408301518482036040860152612f3e8282612c3b565b9150506060830151612f536060860182612c1b565b506080830151612f666080860182612c1b565b508091505092915050565b6000612f7d8383612efb565b905092915050565b6000602082019050919050565b6000612f9d82612ecf565b612fa78185612eda565b935083602082028501612fb985612eeb565b8060005b85811015612ff55784840389528151612fd68582612f71565b9450612fe183612f85565b925060208a01995050600181019050612fbd565b50829750879550505050505092915050565b600060208201905081810360008301526130218184612f92565b905092915050565b600060208201905061303e6000830184612968565b92915050565b600080fd5b600080fd5b7f4e487b7100000000000000000000000000000000000000000000000000000000600052604160045260246000fd5b613086826129bd565b810181811067ffffffffffffffff821117156130a5576130a461304e565b5b80604052505050565b60006130b861283c565b90506130c4828261307d565b919050565b600067ffffffffffffffff8211156130e4576130e361304e565b5b6130ed826129bd565b9050602081019050919050565b82818337600083830152505050565b600061311c613117846130c9565b6130ae565b90508281526020810184848401111561313857613137613049565b5b6131438482856130fa565b509392505050565b600082601f8301126131605761315f613044565b5b8135613170848260208601613109565b91505092915050565b600080604083850312156131905761318f612846565b5b600061319e85828601612926565b925050602083013567ffffffffffffffff8111156131bf576131be61284b565b5b6131cb8582860161314b565b9150509250929050565b600060a0820190506131ea60008301886128e5565b6131f76020830187612968565b818103604083015261320981866129ce565b905061321860608301856128e5565b61322560808301846128e5565b9695505050505050565b60006020820190506132446000830184612a13565b92915050565b600081519050919050565b600082825260208201905092915050565b6000819050602082019050919050565b60006101a08301600083015161328f6000860182612c1b565b5060208301516132a26020860182612b67565b5060408301516132b56040860182612b67565b5060608301516132c86060860182612c1b565b5060808301516132db6080860182612c1b565b5060a083015184820360a08601526132f38282612c3b565b91505060c083015161330860c0860182612c1b565b5060e083015161331b60e0860182612b67565b50610100830151613330610100860182612c1b565b50610120830151613345610120860182612c74565b5061014083015161335a610140860182612c74565b5061016083015161336f610160860182612c1b565b50610180830151613384610180860182612c1b565b508091505092915050565b600061339b8383613276565b905092915050565b6000602082019050919050565b60006133bb8261324a565b6133c58185613255565b9350836020820285016133d785613266565b8060005b8581101561341357848403895281516133f4858261338f565b94506133ff836133a3565b925060208a019950506001810190506133db565b50829750879550505050505092915050565b6000602082019050818103600083015261343f81846133b0565b905092915050565b7f4e487b7100000000000000000000000000000000000000000000000000000000600052602260045260246000fd5b6000600282049050600182168061348e57607f821691505b6020821081036134a1576134a0613447565b5b50919050565b7f4163746976652067616d6520616c72656164792065786973747320666f72207460008201527f68697320746f6b656e0000000000000000000000000000000000000000000000602082015250565b6000613503602983612982565b915061350e826134a7565b604082019050919050565b60006020820190508181036000830152613532816134f6565b9050919050565b7f4e487b7100000000000000000000000000000000000000000000000000000000600052601160045260246000fd5b6000613573826128db565b91507fffffffffffffffffffffffffffffffffffffffffffffffffffffffffffffffff82036135a5576135a4613539565b5b600182019050919050565b60006135c36135be846130c9565b6130ae565b9050828152602081018484840111156135df576135de613049565b5b6135ea848285612993565b509392505050565b600082601f83011261360757613606613044565b5b81516136178482602086016135b0565b91505092915050565b60006020828403121561363657613635612846565b5b600082015167ffffffffffffffff8111156136545761365361284b565b5b613660848285016135f2565b91505092915050565b60008190508160005260206000209050919050565b60006020601f8301049050919050565b600082821b905092915050565b6000600883026136cb7fffffffffffffffffffffffffffffffffffffffffffffffffffffffffffffffff8261368e565b6136d5868361368e565b95508019841693508086168417925050509392505050565b6000819050919050565b600061371261370d613708846128db565b6136ed565b6128db565b9050919050565b6000819050919050565b61372c836136f7565b61374061373882613719565b84845461369b565b825550505050565b600090565b613755613748565b613760818484613723565b505050565b5b818110156137845761377960008261374d565b600181019050613766565b5050565b601f8211156137c95761379a81613669565b6137a38461367e565b810160208510156137b2578190505b6137c66137be8561367e565b830182613765565b50505b505050565b600082821c905092915050565b60006137ec600019846008026137ce565b1980831691505092915050565b600061380583836137db565b9150826002028217905092915050565b61381e82612977565b67ffffffffffffffff8111156138375761383661304e565b5b6138418254613476565b61384c828285613788565b600060209050601f83116001811461387f576000841561386d578287015190505b61387785826137f9565b8655506138df565b601f19841661388d86613669565b60005b828110156138b557848901518255600182019150602085019450602081019050613890565b868310156138d257848901516138ce601f8916826137db565b8355505b6001600288020188555050505b505050505050565b60006138f2826128db565b91506138fd836128db565b925082820190508082111561391557613914613539565b5b92915050565b60006060820190506139306000830186612968565b61393d6020830185612968565b61394a60408301846128e5565b949350505050565b61395b81612a07565b811461396657600080fd5b50565b60008151905061397881613952565b92915050565b60006020828403121561399457613993612846565b5b60006139a284828501613969565b91505092915050565b7f496e697469616c2066756e64696e67207472616e73666572206661696c656400600082015250565b60006139e1601f83612982565b91506139ec826139ab565b602082019050919050565b60006020820190508181036000830152613a10816139d4565b9050919050565b6000604082019050613a2c60008301856128e5565b613a3960208301846128e5565b9392505050565b7f47616d6520646f6573206e6f7420657869737400000000000000000000000000600082015250565b6000613a76601383612982565b9150613a8182613a40565b602082019050919050565b60006020820190508181036000830152613aa581613a69565b9050919050565b7f47616d6520616c726561647920656e6465640000000000000000000000000000600082015250565b6000613ae2601283612982565b9150613aed82613aac565b602082019050919050565b60006020820190508181036000830152613b1181613ad5565b9050919050565b7f416d6f756e74206d7573742062652067726561746572207468616e2030000000600082015250565b6000613b4e601d83612982565b9150613b5982613b18565b602082019050919050565b60006020820190508181036000830152613b7d81613b41565b9050919050565b7f46756e64696e67207472616e73666572206661696c6564000000000000000000600082015250565b6000613bba601783612982565b9150613bc582613b84565b602082019050919050565b60006020820190508181036000830152613be981613bad565b9050919050565b7f4e6f2066756e6465727320617661696c61626c65000000000000000000000000600082015250565b6000613c26601483612982565b9150613c3182613bf0565b602082019050919050565b60006020820190508181036000830152613c5581613c19565b9050919050565b6000604082019050613c716000830185612968565b613c7e6020830184612968565b9392505050565b600081519050613c948161290f565b92915050565b600060208284031215613cb057613caf612846565b5b6000613cbe84828501613c85565b91505092915050565b7f45524332303a204d75737420617070726f766520746f6b656e20666972737400600082015250565b6000613cfd601f83612982565b9150613d0882613cc7565b602082019050919050565b60006020820190508181036000830152613d2c81613cf0565b9050919050565b60006060820190508181036000830152613d4d81866129ce565b9050613d5c60208301856128e5565b613d6960408301846128e5565b949350505050565b7f47616d65206e6f7420656e646564207965740000000000000000000000000000600082015250565b6000613da7601283612982565b9150613db282613d71565b602082019050919050565b60006020820190508181036000830152613dd681613d9a565b9050919050565b7f4f6e6c792077696e6e65722063616e2077697468647261770000000000000000600082015250565b6000613e13601883612982565b9150613e1e82613ddd565b602082019050919050565b60006020820190508181036000830152613e4281613e06565b9050919050565b7f5072697a6520616c726561647920636c61696d65640000000000000000000000600082015250565b6000613e7f601583612982565b9150613e8a82613e49565b602082019050919050565b60006020820190508181036000830152613eae81613e72565b9050919050565b7f4e6f207072697a6520746f20636c61696d000000000000000000000000000000600082015250565b6000613eeb601183612982565b9150613ef682613eb5565b602082019050919050565b60006020820190508181036000830152613f1a81613ede565b9050919050565b6000604082019050613f366000830185612968565b613f4360208301846128e5565b9392505050565b7f4e487b7100000000000000000000000000000000000000000000000000000000600052603260045260246000fd5b7f4e6f2066756e6465727320746f20646973747269627574650000000000000000600082015250565b6000613faf601883612982565b9150613fba82613f79565b602082019050919050565b60006020820190508181036000830152613fde81613fa2565b9050919050565b6000613ff0826128db565b9150613ffb836128db565b9250828202614009816128db565b915082820484148315176140205761401f613539565b5b5092915050565b7f4e487b7100000000000000000000000000000000000000000000000000000000600052601260045260246000fd5b6000614061826128db565b915061406c836128db565b92508261407c5761407b614027565b5b828204905092915050565b6000614092826128db565b915061409d836128db565b92508282039050818111156140b5576140b4613539565b5b9291505056fea26469706673582212201c29037762d5c827b946079ffadfead23231fc5d13623a4e22696c22e1297d0264736f6c634300081c0033",
  "linkReferences": {},
  "deployedLinkReferences": {},
  "immutableReferences": {},
  "inputSourceName": "project/contracts/CommentGameV2.sol",
  "buildInfoId": "solc-0_8_28-337d86439474147491787de7acf68b220c6269cd"
}